{
  "address": "0x7c3FFEdd23710188be6e2eFdaC4a7d2fFA04523c",
  "abi": [
    {
      "inputs": [
        {
          "internalType": "address",
          "name": "_priceFeedAddress",
          "type": "address"
        }
      ],
      "stateMutability": "nonpayable",
      "type": "constructor"
    },
    {
      "inputs": [],
      "name": "Already__Followed",
      "type": "error"
    },
    {
      "inputs": [],
      "name": "Can__notfollow",
      "type": "error"
    },
    {
      "inputs": [],
      "name": "Never__Followed",
      "type": "error"
    },
    {
      "inputs": [],
      "name": "Not__EnoughAmount",
      "type": "error"
    },
    {
      "inputs": [],
      "name": "Wrong__SignetId",
      "type": "error"
    },
    {
      "inputs": [],
      "name": "Wrong__UserSubmitted",
      "type": "error"
    },
    {
      "inputs": [],
      "name": "not__FromSignetControllor",
      "type": "error"
    },
    {
      "anonymous": false,
      "inputs": [
        {
          "indexed": true,
          "internalType": "address",
          "name": "isfollowing",
          "type": "address"
        },
        {
          "indexed": true,
          "internalType": "address",
          "name": "isfollowed",
          "type": "address"
        }
      ],
      "name": "Followed",
      "type": "event"
    },
    {
      "anonymous": false,
      "inputs": [
        {
          "indexed": true,
          "internalType": "address",
          "name": "messageSender",
          "type": "address"
        },
        {
          "indexed": false,
          "internalType": "uint256",
          "name": "signetId",
          "type": "uint256"
        },
        {
          "indexed": true,
          "internalType": "address",
          "name": "signetoraddress",
          "type": "address"
        },
        {
          "indexed": false,
          "internalType": "uint256",
          "name": "time",
          "type": "uint256"
        }
      ],
      "name": "Liked",
      "type": "event"
    },
    {
      "anonymous": false,
      "inputs": [
        {
          "indexed": true,
          "internalType": "address",
          "name": "messageSender",
          "type": "address"
        },
        {
          "indexed": false,
          "internalType": "uint256",
          "name": "signetId",
          "type": "uint256"
        },
        {
          "indexed": true,
          "internalType": "address",
          "name": "signetoraddress",
          "type": "address"
        },
        {
          "indexed": false,
          "internalType": "uint256",
          "name": "time",
          "type": "uint256"
        }
      ],
      "name": "Stared",
      "type": "event"
    },
    {
      "anonymous": false,
      "inputs": [
        {
          "indexed": true,
          "internalType": "address",
          "name": "isunfollowing",
          "type": "address"
        },
        {
          "indexed": true,
          "internalType": "address",
          "name": "isunfollowed",
          "type": "address"
        }
      ],
      "name": "UnFollowed",
      "type": "event"
    },
    {
      "anonymous": false,
      "inputs": [
        {
          "indexed": true,
          "internalType": "address",
          "name": "messageSender",
          "type": "address"
        },
        {
          "indexed": false,
          "internalType": "uint256",
          "name": "signetId",
          "type": "uint256"
        },
        {
          "indexed": true,
          "internalType": "address",
          "name": "signetoraddress",
          "type": "address"
        },
        {
          "indexed": false,
          "internalType": "uint256",
          "name": "time",
          "type": "uint256"
        }
      ],
      "name": "Unlike",
      "type": "event"
    },
    {
      "inputs": [
        {
          "internalType": "address",
          "name": "",
          "type": "address"
        }
      ],
      "name": "Stars",
      "outputs": [
        {
          "internalType": "uint256",
          "name": "",
          "type": "uint256"
        }
      ],
      "stateMutability": "view",
      "type": "function"
    },
    {
      "inputs": [],
      "name": "TotalSignetorsNum",
      "outputs": [
        {
          "internalType": "uint256",
          "name": "",
          "type": "uint256"
        }
      ],
      "stateMutability": "view",
      "type": "function"
    },
    {
      "inputs": [
        {
          "internalType": "address",
          "name": "signetor",
          "type": "address"
        },
        {
          "internalType": "address",
          "name": "followersaddress",
          "type": "address"
        }
      ],
      "name": "checkfollowed",
      "outputs": [
        {
          "internalType": "bool",
          "name": "",
          "type": "bool"
        }
      ],
      "stateMutability": "view",
      "type": "function"
    },
    {
      "inputs": [
        {
          "internalType": "uint256",
          "name": "signetID",
          "type": "uint256"
        },
        {
          "internalType": "address",
          "name": "likedAddress",
          "type": "address"
        }
      ],
      "name": "checkliked",
      "outputs": [
        {
          "internalType": "bool",
          "name": "",
          "type": "bool"
        }
      ],
      "stateMutability": "view",
      "type": "function"
    },
    {
      "inputs": [
        {
          "internalType": "address",
          "name": "signetor",
          "type": "address"
        },
        {
          "internalType": "address",
          "name": "followingAaddress",
          "type": "address"
        }
      ],
      "name": "findFollwingId",
      "outputs": [
        {
          "internalType": "uint256",
          "name": "id",
          "type": "uint256"
        }
      ],
      "stateMutability": "view",
      "type": "function"
    },
    {
      "inputs": [
        {
          "internalType": "uint256",
          "name": "signetID",
          "type": "uint256"
        },
        {
          "internalType": "address",
          "name": "likedAddress",
          "type": "address"
        }
      ],
      "name": "findLikeId",
      "outputs": [
        {
          "internalType": "uint256",
          "name": "id",
          "type": "uint256"
        }
      ],
      "stateMutability": "view",
      "type": "function"
    },
    {
      "inputs": [
        {
          "internalType": "address",
          "name": "signetor",
          "type": "address"
        },
        {
          "internalType": "address",
          "name": "followersaddress",
          "type": "address"
        }
      ],
      "name": "findfollowerId",
      "outputs": [
        {
          "internalType": "uint256",
          "name": "id",
          "type": "uint256"
        }
      ],
      "stateMutability": "view",
      "type": "function"
    },
    {
      "inputs": [
        {
          "internalType": "address",
          "name": "msgSender",
          "type": "address"
        },
        {
          "internalType": "address",
          "name": "signetor",
          "type": "address"
        }
      ],
      "name": "follow",
      "outputs": [],
      "stateMutability": "nonpayable",
      "type": "function"
    },
    {
      "inputs": [
        {
          "internalType": "address",
          "name": "",
          "type": "address"
        }
      ],
      "name": "follower",
      "outputs": [
        {
          "internalType": "uint256",
          "name": "followerNum",
          "type": "uint256"
        }
      ],
      "stateMutability": "view",
      "type": "function"
    },
    {
      "inputs": [
        {
          "internalType": "address",
          "name": "",
          "type": "address"
        }
      ],
      "name": "following",
      "outputs": [
        {
          "internalType": "uint256",
          "name": "FollowingNum",
          "type": "uint256"
        }
      ],
      "stateMutability": "view",
      "type": "function"
    },
    {
      "inputs": [
        {
          "internalType": "address",
          "name": "signetor",
          "type": "address"
        }
      ],
      "name": "getFollowers",
      "outputs": [
        {
          "internalType": "address[]",
          "name": "",
          "type": "address[]"
        }
      ],
      "stateMutability": "view",
      "type": "function"
    },
    {
      "inputs": [
        {
          "internalType": "address",
          "name": "signetor",
          "type": "address"
        }
      ],
      "name": "getFollowersNum",
      "outputs": [
        {
          "internalType": "uint256",
          "name": "",
          "type": "uint256"
        }
      ],
      "stateMutability": "view",
      "type": "function"
    },
    {
      "inputs": [
        {
          "internalType": "address",
          "name": "signetor",
          "type": "address"
        }
      ],
      "name": "getFollowings",
      "outputs": [
        {
          "internalType": "address[]",
          "name": "",
          "type": "address[]"
        }
      ],
      "stateMutability": "view",
      "type": "function"
    },
    {
      "inputs": [
        {
          "internalType": "address",
          "name": "signetor",
          "type": "address"
        }
      ],
      "name": "getFollowingsNum",
      "outputs": [
        {
          "internalType": "uint256",
          "name": "",
          "type": "uint256"
        }
      ],
      "stateMutability": "view",
      "type": "function"
    },
    {
      "inputs": [
        {
          "internalType": "uint256",
          "name": "SignetId",
          "type": "uint256"
        }
      ],
      "name": "getLikeContributor",
      "outputs": [
        {
          "internalType": "address[]",
          "name": "",
          "type": "address[]"
        }
      ],
      "stateMutability": "view",
      "type": "function"
    },
    {
      "inputs": [
        {
          "internalType": "uint256",
          "name": "SignetId",
          "type": "uint256"
        }
      ],
      "name": "getLikedNum",
      "outputs": [
        {
          "internalType": "uint256",
          "name": "",
          "type": "uint256"
        }
      ],
      "stateMutability": "view",
      "type": "function"
    },
    {
      "inputs": [
        {
          "internalType": "uint256",
          "name": "SignetId",
          "type": "uint256"
        }
      ],
      "name": "getStarContributor",
      "outputs": [
        {
          "internalType": "address[]",
          "name": "",
          "type": "address[]"
        }
      ],
      "stateMutability": "view",
      "type": "function"
    },
    {
      "inputs": [
        {
          "internalType": "uint256",
          "name": "SignetId",
          "type": "uint256"
        }
      ],
      "name": "getStaredNum",
      "outputs": [
        {
          "internalType": "uint256",
          "name": "",
          "type": "uint256"
        }
      ],
      "stateMutability": "view",
      "type": "function"
    },
    {
      "inputs": [
        {
          "internalType": "address",
          "name": "SignetorAddress",
          "type": "address"
        }
      ],
      "name": "getStaredNumForSignetor",
      "outputs": [
        {
          "internalType": "uint256",
          "name": "",
          "type": "uint256"
        }
      ],
      "stateMutability": "view",
      "type": "function"
    },
    {
      "inputs": [
        {
          "internalType": "address",
          "name": "msgSender",
          "type": "address"
        },
        {
          "internalType": "uint256",
          "name": "SignetId",
          "type": "uint256"
        },
        {
          "internalType": "address",
          "name": "SignetIdOwner",
          "type": "address"
        }
      ],
      "name": "like",
      "outputs": [],
      "stateMutability": "nonpayable",
      "type": "function"
    },
    {
      "inputs": [
        {
          "internalType": "address",
          "name": "msgSender",
          "type": "address"
        }
      ],
      "name": "messageSender",
      "outputs": [
        {
          "internalType": "uint256",
          "name": "",
          "type": "uint256"
        }
      ],
      "stateMutability": "nonpayable",
      "type": "function"
    },
    {
      "inputs": [],
      "name": "owner",
      "outputs": [
        {
          "internalType": "address",
          "name": "",
          "type": "address"
        }
      ],
      "stateMutability": "view",
      "type": "function"
    },
    {
      "inputs": [],
      "name": "priceFeed",
      "outputs": [
        {
          "internalType": "contract AggregatorV3Interface",
          "name": "",
          "type": "address"
        }
      ],
      "stateMutability": "view",
      "type": "function"
    },
    {
      "inputs": [
        {
          "internalType": "address",
          "name": "_signetControllor",
          "type": "address"
        }
      ],
      "name": "setSignetControllor",
      "outputs": [],
      "stateMutability": "nonpayable",
      "type": "function"
    },
    {
      "inputs": [],
      "name": "signetControllor",
      "outputs": [
        {
          "internalType": "address",
          "name": "",
          "type": "address"
        }
      ],
      "stateMutability": "view",
      "type": "function"
    },
    {
      "inputs": [],
      "name": "signetId",
      "outputs": [
        {
          "internalType": "uint256",
          "name": "",
          "type": "uint256"
        }
      ],
      "stateMutability": "view",
      "type": "function"
    },
    {
      "inputs": [
        {
          "internalType": "uint256",
          "name": "",
          "type": "uint256"
        }
      ],
      "name": "signetState",
      "outputs": [
        {
          "internalType": "uint256",
          "name": "likeNum",
          "type": "uint256"
        },
        {
          "internalType": "uint256",
          "name": "starNum",
          "type": "uint256"
        },
        {
          "internalType": "address",
          "name": "SignetIdOwner",
          "type": "address"
        }
      ],
      "stateMutability": "view",
      "type": "function"
    },
    {
      "inputs": [
        {
          "internalType": "address",
          "name": "msgSender",
          "type": "address"
        },
        {
          "internalType": "address",
          "name": "SignetIdOwner",
          "type": "address"
        },
        {
          "internalType": "uint256",
          "name": "SignetId",
          "type": "uint256"
        }
      ],
      "name": "star",
      "outputs": [],
      "stateMutability": "payable",
      "type": "function"
    },
    {
      "inputs": [
        {
          "internalType": "address",
          "name": "msgSender",
          "type": "address"
        },
        {
          "internalType": "address",
          "name": "signetor",
          "type": "address"
        }
      ],
      "name": "unfollow",
      "outputs": [],
      "stateMutability": "nonpayable",
      "type": "function"
    },
    {
      "inputs": [
        {
          "internalType": "address",
          "name": "msgSender",
          "type": "address"
        },
        {
          "internalType": "uint256",
          "name": "SignetId",
          "type": "uint256"
        },
        {
          "internalType": "address",
          "name": "SignetIdOwner",
          "type": "address"
        }
      ],
      "name": "unlike",
      "outputs": [],
      "stateMutability": "nonpayable",
      "type": "function"
    }
  ],
  "transactionHash": "0x1551a97d9539316f6d711fc72e475f0413da9499d6f1634f8d1236133ae495f4",
  "args": [
    "0xD4a33860578De61DBAbDc8BFdb98FD742fA7028e"
  ],
  "numDeployments": 2,
  "solcInputHash": "50d00966cc7aaf596d2e946c1ff52299",
  "bytecode": "0x60806040523480156200001157600080fd5b50604051620040a3380380620040a3833981810160405281019062000037919062000132565b600160008190555080600160006101000a81548173ffffffffffffffffffffffffffffffffffffffff021916908373ffffffffffffffffffffffffffffffffffffffff16021790555033600560006101000a81548173ffffffffffffffffffffffffffffffffffffffff021916908373ffffffffffffffffffffffffffffffffffffffff1602179055505062000164565b600080fd5b600073ffffffffffffffffffffffffffffffffffffffff82169050919050565b6000620000fa82620000cd565b9050919050565b6200010c81620000ed565b81146200011857600080fd5b50565b6000815190506200012c8162000101565b92915050565b6000602082840312156200014b576200014a620000c8565b5b60006200015b848285016200011b565b91505092915050565b613f2f80620001746000396000f3fe6080604052600436106101cd5760003560e01c80636c315556116100f7578063abf723fe11610095578063c9f4b84a11610064578063c9f4b84a1461074d578063cca22f7914610776578063cebcf13a146107b3578063d8fb768b146107f0576101cd565b8063abf723fe14610678578063ae20ebc0146106b5578063c2fe2022146106f4578063c8ec3dc114610731576101cd565b806376e262f5116100d157806376e262f5146105aa578063778f4680146105e75780638da5cb5b1461062457806399d147c21461064f576101cd565b80636c31555614610505578063741bef1a1461054257806374a5a41b1461056d576101cd565b806330c9514a1161016f57806356c851041161013e57806356c851041461041157806357504a831461044e578063611763911461048b57806369ff24ed146104c8576101cd565b806330c9514a146103315780633776c8241461036e5780633dcd6423146103ab57806352dcdf7e146103d4576101cd565b80631e59cebb116101ab5780631e59cebb1461024f578063253168db1461028c578063292d8f06146102c95780632ab2798314610306576101cd565b806301f5883c146101d257806318ed1013146101fd5780631ae98eb914610226575b600080fd5b3480156101de57600080fd5b506101e761081b565b6040516101f491906134cc565b60405180910390f35b34801561020957600080fd5b50610224600480360381019061021f919061354e565b610841565b005b34801561023257600080fd5b5061024d6004803603810190610248919061354e565b610b81565b005b34801561025b57600080fd5b50610276600480360381019061027191906135a1565b61105c565b604051610283919061368c565b60405180910390f35b34801561029857600080fd5b506102b360048036038101906102ae91906136ae565b611100565b6040516102c091906136ea565b60405180910390f35b3480156102d557600080fd5b506102f060048036038101906102eb9190613705565b61111e565b6040516102fd9190613760565b60405180910390f35b34801561031257600080fd5b5061031b611256565b60405161032891906136ea565b60405180910390f35b34801561033d57600080fd5b50610358600480360381019061035391906135a1565b61125c565b60405161036591906136ea565b60405180910390f35b34801561037a57600080fd5b50610395600480360381019061039091906136ae565b61127c565b6040516103a291906136ea565b60405180910390f35b3480156103b757600080fd5b506103d260048036038101906103cd91906136ae565b61137e565b005b3480156103e057600080fd5b506103fb60048036038101906103f691906136ae565b611452565b60405161040891906136ea565b60405180910390f35b34801561041d57600080fd5b506104386004803603810190610433919061377b565b61149e565b60405161044591906136ea565b60405180910390f35b34801561045a57600080fd5b5061047560048036038101906104709190613705565b61164f565b60405161048291906136ea565b60405180910390f35b34801561049757600080fd5b506104b260048036038101906104ad91906135a1565b611858565b6040516104bf919061368c565b60405180910390f35b3480156104d457600080fd5b506104ef60048036038101906104ea91906136ae565b6118fc565b6040516104fc91906136ea565b60405180910390f35b34801561051157600080fd5b5061052c600480360381019061052791906135a1565b611948565b60405161053991906136ea565b60405180910390f35b34801561054e57600080fd5b50610557611968565b604051610564919061381a565b60405180910390f35b34801561057957600080fd5b50610594600480360381019061058f91906136ae565b61198e565b6040516105a191906136ea565b60405180910390f35b3480156105b657600080fd5b506105d160048036038101906105cc919061377b565b6119ac565b6040516105de9190613760565b60405180910390f35b3480156105f357600080fd5b5061060e600480360381019061060991906136ae565b611a8c565b60405161061b91906136ea565b60405180910390f35b34801561063057600080fd5b50610639611aa4565b60405161064691906134cc565b60405180910390f35b34801561065b57600080fd5b5061067660048036038101906106719190613705565b611aca565b005b34801561068457600080fd5b5061069f600480360381019061069a91906136ae565b611e57565b6040516106ac91906136ea565b60405180910390f35b3480156106c157600080fd5b506106dc60048036038101906106d791906135a1565b611ea0565b6040516106eb93929190613835565b60405180910390f35b34801561070057600080fd5b5061071b600480360381019061071691906136ae565b611eea565b604051610728919061368c565b60405180910390f35b61074b6004803603810190610746919061386c565b611fba565b005b34801561075957600080fd5b50610774600480360381019061076f9190613705565b61249d565b005b34801561078257600080fd5b5061079d600480360381019061079891906136ae565b612f84565b6040516107aa919061368c565b60405180910390f35b3480156107bf57600080fd5b506107da60048036038101906107d59190613705565b613054565b6040516107e791906136ea565b60405180910390f35b3480156107fc57600080fd5b5061080561325d565b60405161081291906136ea565b60405180910390f35b600460009054906101000a900473ffffffffffffffffffffffffffffffffffffffff1681565b600460009054906101000a900473ffffffffffffffffffffffffffffffffffffffff1673ffffffffffffffffffffffffffffffffffffffff163373ffffffffffffffffffffffffffffffffffffffff16146108c8576040517f2b85f34b00000000000000000000000000000000000000000000000000000000815260040160405180910390fd5b6003548211806108da57506000600354145b806108e55750600082145b1561091c576040517fd93b7bf300000000000000000000000000000000000000000000000000000000815260040160405180910390fd5b8273ffffffffffffffffffffffffffffffffffffffff166008600084815260200190815260200160002060020160009054906101000a900473ffffffffffffffffffffffffffffffffffffffff1673ffffffffffffffffffffffffffffffffffffffff1614806109ee57508073ffffffffffffffffffffffffffffffffffffffff166008600084815260200190815260200160002060020160009054906101000a900473ffffffffffffffffffffffffffffffffffffffff1673ffffffffffffffffffffffffffffffffffffffff1614155b15610a25576040517f6ba1f36f00000000000000000000000000000000000000000000000000000000815260040160405180910390fd5b6000610a3183856119ac565b90506001151581151503610a71576040517f6ba1f36f00000000000000000000000000000000000000000000000000000000815260040160405180910390fd5b600860008481526020019081526020016000206000016000815480929190610a98906138ee565b919050555060086000848152602001908152602001600020600401849080600181540180825580915050600190039060005260206000200160009091909190916101000a81548173ffffffffffffffffffffffffffffffffffffffff021916908373ffffffffffffffffffffffffffffffffffffffff1602179055508173ffffffffffffffffffffffffffffffffffffffff168473ffffffffffffffffffffffffffffffffffffffff167f4ab2b086717007ed33b9d96923bc9fd0cab235296de137f5f66c4e97a766a7f28542604051610b73929190613936565b60405180910390a350505050565b600460009054906101000a900473ffffffffffffffffffffffffffffffffffffffff1673ffffffffffffffffffffffffffffffffffffffff163373ffffffffffffffffffffffffffffffffffffffff1614610c08576040517f2b85f34b00000000000000000000000000000000000000000000000000000000815260040160405180910390fd5b600354821180610c1a57506000600354145b80610c255750600082145b15610c5c576040517fd93b7bf300000000000000000000000000000000000000000000000000000000815260040160405180910390fd5b8273ffffffffffffffffffffffffffffffffffffffff166008600084815260200190815260200160002060020160009054906101000a900473ffffffffffffffffffffffffffffffffffffffff1673ffffffffffffffffffffffffffffffffffffffff161480610d2e57508073ffffffffffffffffffffffffffffffffffffffff166008600084815260200190815260200160002060020160009054906101000a900473ffffffffffffffffffffffffffffffffffffffff1673ffffffffffffffffffffffffffffffffffffffff1614155b15610d65576040517f6ba1f36f00000000000000000000000000000000000000000000000000000000815260040160405180910390fd5b6000610d7183856119ac565b90506000151581151503610db1576040517f6ba1f36f00000000000000000000000000000000000000000000000000000000815260040160405180910390fd5b6000600860008581526020019081526020016000206000015490506000610dd8858761149e565b9050808203610e6f576001600860008781526020019081526020016000206000016000828254610e08919061395f565b9250508190555060086000868152602001908152602001600020600401805480610e3557610e34613993565b5b6001900381819060005260206000200160006101000a81549073ffffffffffffffffffffffffffffffffffffffff02191690559055610fed565b6001600860008781526020019081526020016000206000016000828254610e96919061395f565b925050819055506008600086815260200190815260200160002060040160016008600088815260200190815260200160002060040180549050610ed9919061395f565b81548110610eea57610ee96139c2565b5b9060005260206000200160009054906101000a900473ffffffffffffffffffffffffffffffffffffffff1660086000878152602001908152602001600020600401600183610f38919061395f565b81548110610f4957610f486139c2565b5b9060005260206000200160006101000a81548173ffffffffffffffffffffffffffffffffffffffff021916908373ffffffffffffffffffffffffffffffffffffffff16021790555060086000868152602001908152602001600020600401805480610fb757610fb6613993565b5b6001900381819060005260206000200160006101000a81549073ffffffffffffffffffffffffffffffffffffffff021916905590555b8373ffffffffffffffffffffffffffffffffffffffff168673ffffffffffffffffffffffffffffffffffffffff167f5af3a717d9ca42ddabc7791e4a0910e15568f7a6ccc2e113f9693782badcdd58874260405161104c929190613936565b60405180910390a3505050505050565b6060600860008381526020019081526020016000206003018054806020026020016040519081016040528092919081815260200182805480156110f457602002820191906000526020600020905b8160009054906101000a900473ffffffffffffffffffffffffffffffffffffffff1673ffffffffffffffffffffffffffffffffffffffff16815260200190600101908083116110aa575b50505050509050919050565b60066020528060005260406000206000915090508060000154905081565b600080600090505b600660008573ffffffffffffffffffffffffffffffffffffffff1673ffffffffffffffffffffffffffffffffffffffff1681526020019081526020016000206001018054905081101561124a578273ffffffffffffffffffffffffffffffffffffffff16600660008673ffffffffffffffffffffffffffffffffffffffff1673ffffffffffffffffffffffffffffffffffffffff16815260200190815260200160002060010182815481106111de576111dd6139c2565b5b9060005260206000200160009054906101000a900473ffffffffffffffffffffffffffffffffffffffff1673ffffffffffffffffffffffffffffffffffffffff16036112375761122d81613263565b6001915050611250565b8080611242906138ee565b915050611126565b60009150505b92915050565b60035481565b600060086000838152602001908152602001600020600001549050919050565b6000600460009054906101000a900473ffffffffffffffffffffffffffffffffffffffff1673ffffffffffffffffffffffffffffffffffffffff163373ffffffffffffffffffffffffffffffffffffffff1614611305576040517f2b85f34b00000000000000000000000000000000000000000000000000000000815260040160405180910390fd5b60036000815480929190611318906138ee565b91905055508160086000600354815260200190815260200160002060020160006101000a81548173ffffffffffffffffffffffffffffffffffffffff021916908373ffffffffffffffffffffffffffffffffffffffff1602179055506003549050919050565b600560009054906101000a900473ffffffffffffffffffffffffffffffffffffffff1673ffffffffffffffffffffffffffffffffffffffff163373ffffffffffffffffffffffffffffffffffffffff161461140e576040517f08c379a000000000000000000000000000000000000000000000000000000000815260040161140590613a4e565b60405180910390fd5b80600460006101000a81548173ffffffffffffffffffffffffffffffffffffffff021916908373ffffffffffffffffffffffffffffffffffffffff16021790555050565b6000600660008373ffffffffffffffffffffffffffffffffffffffff1673ffffffffffffffffffffffffffffffffffffffff168152602001908152602001600020600001549050919050565b60008060019050600190505b600160086000868152602001908152602001600020600401805490506114d09190613a6e565b811015611647578273ffffffffffffffffffffffffffffffffffffffff1660086000868152602001908152602001600020600401600183611511919061395f565b81548110611522576115216139c2565b5b9060005260206000200160009054906101000a900473ffffffffffffffffffffffffffffffffffffffff1673ffffffffffffffffffffffffffffffffffffffff1603611634576115a66040518060400160405280601c81526020017f2d2d2d2d2d2d2d2d2d2d2d2d2d2d2d2d2d2d2d2d2d2d2d2d2d2d2d2d000000008152506132fc565b6115e46040518060400160405280601b81526020017f636865636b65642066696e64466f6c6c77696e674964206973203a00000000008152506132fc565b6115ed81613263565b61162b6040518060400160405280601c81526020017f2d2d2d2d2d2d2d2d2d2d2d2d2d2d2d2d2d2d2d2d2d2d2d2d2d2d2d2d000000008152506132fc565b80915050611649565b808061163f906138ee565b9150506114aa565b505b92915050565b60008060019050600190505b6001600660008673ffffffffffffffffffffffffffffffffffffffff1673ffffffffffffffffffffffffffffffffffffffff168152602001908152602001600020600101805490506116ad9190613a6e565b811015611850578273ffffffffffffffffffffffffffffffffffffffff16600660008673ffffffffffffffffffffffffffffffffffffffff1673ffffffffffffffffffffffffffffffffffffffff16815260200190815260200160002060010160018361171a919061395f565b8154811061172b5761172a6139c2565b5b9060005260206000200160009054906101000a900473ffffffffffffffffffffffffffffffffffffffff1673ffffffffffffffffffffffffffffffffffffffff160361183d576117af6040518060400160405280601c81526020017f2d2d2d2d2d2d2d2d2d2d2d2d2d2d2d2d2d2d2d2d2d2d2d2d2d2d2d2d000000008152506132fc565b6117ed6040518060400160405280601b81526020017f636865636b65642066696e64666f6c6c6f7765724964206973203a00000000008152506132fc565b6117f681613263565b6118346040518060400160405280601c81526020017f2d2d2d2d2d2d2d2d2d2d2d2d2d2d2d2d2d2d2d2d2d2d2d2d2d2d2d2d000000008152506132fc565b80915050611852565b8080611848906138ee565b91505061165b565b505b92915050565b6060600860008381526020019081526020016000206004018054806020026020016040519081016040528092919081815260200182805480156118f057602002820191906000526020600020905b8160009054906101000a900473ffffffffffffffffffffffffffffffffffffffff1673ffffffffffffffffffffffffffffffffffffffff16815260200190600101908083116118a6575b50505050509050919050565b6000600760008373ffffffffffffffffffffffffffffffffffffffff1673ffffffffffffffffffffffffffffffffffffffff168152602001908152602001600020600001549050919050565b600060086000838152602001908152602001600020600101549050919050565b600160009054906101000a900473ffffffffffffffffffffffffffffffffffffffff1681565b60076020528060005260406000206000915090508060000154905081565b600080600090505b6008600085815260200190815260200160002060040180549050811015611a80578273ffffffffffffffffffffffffffffffffffffffff16600860008681526020019081526020016000206004018281548110611a1457611a136139c2565b5b9060005260206000200160009054906101000a900473ffffffffffffffffffffffffffffffffffffffff1673ffffffffffffffffffffffffffffffffffffffff1603611a6d57611a6381613263565b6001915050611a86565b8080611a78906138ee565b9150506119b4565b60009150505b92915050565b60096020528060005260406000206000915090505481565b600560009054906101000a900473ffffffffffffffffffffffffffffffffffffffff1681565b600460009054906101000a900473ffffffffffffffffffffffffffffffffffffffff1673ffffffffffffffffffffffffffffffffffffffff163373ffffffffffffffffffffffffffffffffffffffff1614611b51576040517f2b85f34b00000000000000000000000000000000000000000000000000000000815260040160405180910390fd5b8073ffffffffffffffffffffffffffffffffffffffff168273ffffffffffffffffffffffffffffffffffffffff1603611bb6576040517f81db306400000000000000000000000000000000000000000000000000000000815260040160405180910390fd5b6000611bc2828461111e565b90506001151581151503611c02576040517f9f5ae48900000000000000000000000000000000000000000000000000000000815260040160405180910390fd5b600660008373ffffffffffffffffffffffffffffffffffffffff1673ffffffffffffffffffffffffffffffffffffffff1681526020019081526020016000206000016000815480929190611c55906138ee565b9190505550600660008373ffffffffffffffffffffffffffffffffffffffff1673ffffffffffffffffffffffffffffffffffffffff168152602001908152602001600020600101839080600181540180825580915050600190039060005260206000200160009091909190916101000a81548173ffffffffffffffffffffffffffffffffffffffff021916908373ffffffffffffffffffffffffffffffffffffffff160217905550600760008473ffffffffffffffffffffffffffffffffffffffff1673ffffffffffffffffffffffffffffffffffffffff1681526020019081526020016000206000016000815480929190611d50906138ee565b9190505550600760008473ffffffffffffffffffffffffffffffffffffffff1673ffffffffffffffffffffffffffffffffffffffff168152602001908152602001600020600101829080600181540180825580915050600190039060005260206000200160009091909190916101000a81548173ffffffffffffffffffffffffffffffffffffffff021916908373ffffffffffffffffffffffffffffffffffffffff1602179055508173ffffffffffffffffffffffffffffffffffffffff168373ffffffffffffffffffffffffffffffffffffffff167f6178e95c138f06036cdc07a49ed6a3d23008969fa143baeceb037ebae22e8d1460405160405180910390a3505050565b6000600960008373ffffffffffffffffffffffffffffffffffffffff1673ffffffffffffffffffffffffffffffffffffffff168152602001908152602001600020549050919050565b60086020528060005260406000206000915090508060000154908060010154908060020160009054906101000a900473ffffffffffffffffffffffffffffffffffffffff16905083565b6060600660008373ffffffffffffffffffffffffffffffffffffffff1673ffffffffffffffffffffffffffffffffffffffff168152602001908152602001600020600101805480602002602001604051908101604052809291908181526020018280548015611fae57602002820191906000526020600020905b8160009054906101000a900473ffffffffffffffffffffffffffffffffffffffff1673ffffffffffffffffffffffffffffffffffffffff1681526020019060010190808311611f64575b50505050509050919050565b600460009054906101000a900473ffffffffffffffffffffffffffffffffffffffff1673ffffffffffffffffffffffffffffffffffffffff163373ffffffffffffffffffffffffffffffffffffffff1614612041576040517f2b85f34b00000000000000000000000000000000000000000000000000000000815260040160405180910390fd5b61207e612079600160009054906101000a900473ffffffffffffffffffffffffffffffffffffffff163461339590919063ffffffff16565b613263565b61208f678ac7230489e80000613263565b678ac7230489e800006120cd600160009054906101000a900473ffffffffffffffffffffffffffffffffffffffff163461339590919063ffffffff16565b1015612105576040517fda6aaa0400000000000000000000000000000000000000000000000000000000815260040160405180910390fd5b60035481118061211757506000600354145b806121225750600081145b15612159576040517fd93b7bf300000000000000000000000000000000000000000000000000000000815260040160405180910390fd5b8273ffffffffffffffffffffffffffffffffffffffff166008600083815260200190815260200160002060020160009054906101000a900473ffffffffffffffffffffffffffffffffffffffff1673ffffffffffffffffffffffffffffffffffffffff16148061222b57508173ffffffffffffffffffffffffffffffffffffffff166008600083815260200190815260200160002060020160009054906101000a900473ffffffffffffffffffffffffffffffffffffffff1673ffffffffffffffffffffffffffffffffffffffff1614155b15612262576040517f6ba1f36f00000000000000000000000000000000000000000000000000000000815260040160405180910390fd5b600960008373ffffffffffffffffffffffffffffffffffffffff1673ffffffffffffffffffffffffffffffffffffffff16815260200190815260200160002060008154809291906122b2906138ee565b91905055506008600082815260200190815260200160002060010160008154809291906122de906138ee565b919050555060086000828152602001908152602001600020600301839080600181540180825580915050600190039060005260206000200160009091909190916101000a81548173ffffffffffffffffffffffffffffffffffffffff021916908373ffffffffffffffffffffffffffffffffffffffff1602179055506000605f905060006064905060008183346123759190613ac4565b61237f9190613b4d565b905060008573ffffffffffffffffffffffffffffffffffffffff16826040516123a790613baf565b60006040518083038185875af1925050503d80600081146123e4576040519150601f19603f3d011682016040523d82523d6000602084013e6123e9565b606091505b505090508061242d576040517f08c379a000000000000000000000000000000000000000000000000000000000815260040161242490613c10565b60405180910390fd5b8573ffffffffffffffffffffffffffffffffffffffff163373ffffffffffffffffffffffffffffffffffffffff167f4985f55a2f28c7fdaaf7c572270a9c26a8dc8060aa387556323af03e3a250162874260405161248c929190613936565b60405180910390a350505050505050565b600460009054906101000a900473ffffffffffffffffffffffffffffffffffffffff1673ffffffffffffffffffffffffffffffffffffffff163373ffffffffffffffffffffffffffffffffffffffff1614612524576040517f2b85f34b00000000000000000000000000000000000000000000000000000000815260040160405180910390fd5b8073ffffffffffffffffffffffffffffffffffffffff168273ffffffffffffffffffffffffffffffffffffffff1603612589576040517f81db306400000000000000000000000000000000000000000000000000000000815260040160405180910390fd5b6000612595828461111e565b905060001515811515036125d5576040517fd4b1512b00000000000000000000000000000000000000000000000000000000815260040160405180910390fd5b6000600660008473ffffffffffffffffffffffffffffffffffffffff1673ffffffffffffffffffffffffffffffffffffffff1681526020019081526020016000206000015490506000612628848661164f565b90506126686040518060400160405280601c81526020017f2d2d2d2d2d2d2d2d2d2d2d2d2d2d2d2d2d2d2d2d2d2d2d2d2d2d2d2d000000008152506132fc565b6126a66040518060400160405280600f81526020017f746f74616c20666f6c6c6f7765723a00000000000000000000000000000000008152506132fc565b6126af82613263565b6126ed6040518060400160405280600f81526020017f66696e64466f6c6c77696e6749643a00000000000000000000000000000000008152506132fc565b6126f681613263565b6127346040518060400160405280601c81526020017f2d2d2d2d2d2d2d2d2d2d2d2d2d2d2d2d2d2d2d2d2d2d2d2d2d2d2d2d000000008152506132fc565b808203612821576001600660008673ffffffffffffffffffffffffffffffffffffffff1673ffffffffffffffffffffffffffffffffffffffff168152602001908152602001600020600001600082825461278e919061395f565b92505081905550600660008573ffffffffffffffffffffffffffffffffffffffff1673ffffffffffffffffffffffffffffffffffffffff1681526020019081526020016000206001018054806127e7576127e6613993565b5b6001900381819060005260206000200160006101000a81549073ffffffffffffffffffffffffffffffffffffffff02191690559055612a7b565b6001600660008673ffffffffffffffffffffffffffffffffffffffff1673ffffffffffffffffffffffffffffffffffffffff1681526020019081526020016000206000016000828254612874919061395f565b92505081905550600660008573ffffffffffffffffffffffffffffffffffffffff1673ffffffffffffffffffffffffffffffffffffffff1681526020019081526020016000206001016001600660008773ffffffffffffffffffffffffffffffffffffffff1673ffffffffffffffffffffffffffffffffffffffff1681526020019081526020016000206001018054905061290f919061395f565b815481106129205761291f6139c2565b5b9060005260206000200160009054906101000a900473ffffffffffffffffffffffffffffffffffffffff16600660008673ffffffffffffffffffffffffffffffffffffffff1673ffffffffffffffffffffffffffffffffffffffff16815260200190815260200160002060010160018361299a919061395f565b815481106129ab576129aa6139c2565b5b9060005260206000200160006101000a81548173ffffffffffffffffffffffffffffffffffffffff021916908373ffffffffffffffffffffffffffffffffffffffff160217905550600660008573ffffffffffffffffffffffffffffffffffffffff1673ffffffffffffffffffffffffffffffffffffffff168152602001908152602001600020600101805480612a4557612a44613993565b5b6001900381819060005260206000200160006101000a81549073ffffffffffffffffffffffffffffffffffffffff021916905590555b6000600760008773ffffffffffffffffffffffffffffffffffffffff1673ffffffffffffffffffffffffffffffffffffffff1681526020019081526020016000206000015490506000612ace8787613054565b9050612b0e6040518060400160405280601c81526020017f2d2d2d2d2d2d2d2d2d2d2d2d2d2d2d2d2d2d2d2d2d2d2d2d2d2d2d2d000000008152506132fc565b612b4c6040518060400160405280601081526020017f746f74616c20666f6c6c6f77696e673a000000000000000000000000000000008152506132fc565b612b5582613263565b612b936040518060400160405280600f81526020017f66696e64666f6c6c6f77657249643a00000000000000000000000000000000008152506132fc565b612b9c81613263565b612bda6040518060400160405280601c81526020017f2d2d2d2d2d2d2d2d2d2d2d2d2d2d2d2d2d2d2d2d2d2d2d2d2d2d2d2d000000008152506132fc565b808203612cc7576001600760008973ffffffffffffffffffffffffffffffffffffffff1673ffffffffffffffffffffffffffffffffffffffff1681526020019081526020016000206000016000828254612c34919061395f565b92505081905550600760008873ffffffffffffffffffffffffffffffffffffffff1673ffffffffffffffffffffffffffffffffffffffff168152602001908152602001600020600101805480612c8d57612c8c613993565b5b6001900381819060005260206000200160006101000a81549073ffffffffffffffffffffffffffffffffffffffff02191690559055612f21565b6001600760008973ffffffffffffffffffffffffffffffffffffffff1673ffffffffffffffffffffffffffffffffffffffff1681526020019081526020016000206000016000828254612d1a919061395f565b92505081905550600760008873ffffffffffffffffffffffffffffffffffffffff1673ffffffffffffffffffffffffffffffffffffffff1681526020019081526020016000206001016001600760008a73ffffffffffffffffffffffffffffffffffffffff1673ffffffffffffffffffffffffffffffffffffffff16815260200190815260200160002060010180549050612db5919061395f565b81548110612dc657612dc56139c2565b5b9060005260206000200160009054906101000a900473ffffffffffffffffffffffffffffffffffffffff16600760008973ffffffffffffffffffffffffffffffffffffffff1673ffffffffffffffffffffffffffffffffffffffff168152602001908152602001600020600101600183612e40919061395f565b81548110612e5157612e506139c2565b5b9060005260206000200160006101000a81548173ffffffffffffffffffffffffffffffffffffffff021916908373ffffffffffffffffffffffffffffffffffffffff160217905550600760008873ffffffffffffffffffffffffffffffffffffffff1673ffffffffffffffffffffffffffffffffffffffff168152602001908152602001600020600101805480612eeb57612eea613993565b5b6001900381819060005260206000200160006101000a81549073ffffffffffffffffffffffffffffffffffffffff021916905590555b8573ffffffffffffffffffffffffffffffffffffffff168773ffffffffffffffffffffffffffffffffffffffff167fd547c11d7725787be9aa8274d9e33b2d4af25bdfb3c081058f73e11cd9b2f40660405160405180910390a350505050505050565b6060600760008373ffffffffffffffffffffffffffffffffffffffff1673ffffffffffffffffffffffffffffffffffffffff16815260200190815260200160002060010180548060200260200160405190810160405280929190818152602001828054801561304857602002820191906000526020600020905b8160009054906101000a900473ffffffffffffffffffffffffffffffffffffffff1673ffffffffffffffffffffffffffffffffffffffff1681526020019060010190808311612ffe575b50505050509050919050565b60008060019050600190505b6001600760008673ffffffffffffffffffffffffffffffffffffffff1673ffffffffffffffffffffffffffffffffffffffff168152602001908152602001600020600101805490506130b29190613a6e565b811015613255578273ffffffffffffffffffffffffffffffffffffffff16600760008673ffffffffffffffffffffffffffffffffffffffff1673ffffffffffffffffffffffffffffffffffffffff16815260200190815260200160002060010160018361311f919061395f565b815481106131305761312f6139c2565b5b9060005260206000200160009054906101000a900473ffffffffffffffffffffffffffffffffffffffff1673ffffffffffffffffffffffffffffffffffffffff1603613242576131b46040518060400160405280601c81526020017f2d2d2d2d2d2d2d2d2d2d2d2d2d2d2d2d2d2d2d2d2d2d2d2d2d2d2d2d000000008152506132fc565b6131f26040518060400160405280601b81526020017f636865636b65642066696e64466f6c6c77696e674964206973203a00000000008152506132fc565b6131fb81613263565b6132396040518060400160405280601c81526020017f2d2d2d2d2d2d2d2d2d2d2d2d2d2d2d2d2d2d2d2d2d2d2d2d2d2d2d2d000000008152506132fc565b80915050613257565b808061324d906138ee565b915050613060565b505b92915050565b60025481565b6132f98160405160240161327791906136ea565b6040516020818303038152906040527ff82c50f1000000000000000000000000000000000000000000000000000000007bffffffffffffffffffffffffffffffffffffffffffffffffffffffff19166020820180517bffffffffffffffffffffffffffffffffffffffffffffffffffffffff83818316178352505050506133d1565b50565b613392816040516024016133109190613cb8565b6040516020818303038152906040527f41304fac000000000000000000000000000000000000000000000000000000007bffffffffffffffffffffffffffffffffffffffffffffffffffffffff19166020820180517bffffffffffffffffffffffffffffffffffffffffffffffffffffffff83818316178352505050506133d1565b50565b6000806133a1836133fa565b90506000670de0b6b3a764000085836133ba9190613ac4565b6133c49190613b4d565b9050809250505092915050565b60008151905060006a636f6e736f6c652e6c6f679050602083016000808483855afa5050505050565b6000808273ffffffffffffffffffffffffffffffffffffffff1663feaf968c6040518163ffffffff1660e01b815260040160a060405180830381865afa158015613448573d6000803e3d6000fd5b505050506040513d601f19601f8201168201806040525081019061346c9190613d67565b5050509150506402540be400816134839190613de2565b915050919050565b600073ffffffffffffffffffffffffffffffffffffffff82169050919050565b60006134b68261348b565b9050919050565b6134c6816134ab565b82525050565b60006020820190506134e160008301846134bd565b92915050565b600080fd5b6134f5816134ab565b811461350057600080fd5b50565b600081359050613512816134ec565b92915050565b6000819050919050565b61352b81613518565b811461353657600080fd5b50565b60008135905061354881613522565b92915050565b600080600060608486031215613567576135666134e7565b5b600061357586828701613503565b935050602061358686828701613539565b925050604061359786828701613503565b9150509250925092565b6000602082840312156135b7576135b66134e7565b5b60006135c584828501613539565b91505092915050565b600081519050919050565b600082825260208201905092915050565b6000819050602082019050919050565b613603816134ab565b82525050565b600061361583836135fa565b60208301905092915050565b6000602082019050919050565b6000613639826135ce565b61364381856135d9565b935061364e836135ea565b8060005b8381101561367f5781516136668882613609565b975061367183613621565b925050600181019050613652565b5085935050505092915050565b600060208201905081810360008301526136a6818461362e565b905092915050565b6000602082840312156136c4576136c36134e7565b5b60006136d284828501613503565b91505092915050565b6136e481613518565b82525050565b60006020820190506136ff60008301846136db565b92915050565b6000806040838503121561371c5761371b6134e7565b5b600061372a85828601613503565b925050602061373b85828601613503565b9150509250929050565b60008115159050919050565b61375a81613745565b82525050565b60006020820190506137756000830184613751565b92915050565b60008060408385031215613792576137916134e7565b5b60006137a085828601613539565b92505060206137b185828601613503565b9150509250929050565b6000819050919050565b60006137e06137db6137d68461348b565b6137bb565b61348b565b9050919050565b60006137f2826137c5565b9050919050565b6000613804826137e7565b9050919050565b613814816137f9565b82525050565b600060208201905061382f600083018461380b565b92915050565b600060608201905061384a60008301866136db565b61385760208301856136db565b61386460408301846134bd565b949350505050565b600080600060608486031215613885576138846134e7565b5b600061389386828701613503565b93505060206138a486828701613503565b92505060406138b586828701613539565b9150509250925092565b7f4e487b7100000000000000000000000000000000000000000000000000000000600052601160045260246000fd5b60006138f982613518565b91507fffffffffffffffffffffffffffffffffffffffffffffffffffffffffffffffff820361392b5761392a6138bf565b5b600182019050919050565b600060408201905061394b60008301856136db565b61395860208301846136db565b9392505050565b600061396a82613518565b915061397583613518565b925082821015613988576139876138bf565b5b828203905092915050565b7f4e487b7100000000000000000000000000000000000000000000000000000000600052603160045260246000fd5b7f4e487b7100000000000000000000000000000000000000000000000000000000600052603260045260246000fd5b600082825260208201905092915050565b7f77726f6e67206f776e6572206164647265737300000000000000000000000000600082015250565b6000613a386013836139f1565b9150613a4382613a02565b602082019050919050565b60006020820190508181036000830152613a6781613a2b565b9050919050565b6000613a7982613518565b9150613a8483613518565b9250827fffffffffffffffffffffffffffffffffffffffffffffffffffffffffffffffff03821115613ab957613ab86138bf565b5b828201905092915050565b6000613acf82613518565b9150613ada83613518565b9250817fffffffffffffffffffffffffffffffffffffffffffffffffffffffffffffffff0483118215151615613b1357613b126138bf565b5b828202905092915050565b7f4e487b7100000000000000000000000000000000000000000000000000000000600052601260045260246000fd5b6000613b5882613518565b9150613b6383613518565b925082613b7357613b72613b1e565b5b828204905092915050565b600081905092915050565b50565b6000613b99600083613b7e565b9150613ba482613b89565b600082019050919050565b6000613bba82613b8c565b9150819050919050565b7f43616c6c206661696c6564000000000000000000000000000000000000000000600082015250565b6000613bfa600b836139f1565b9150613c0582613bc4565b602082019050919050565b60006020820190508181036000830152613c2981613bed565b9050919050565b600081519050919050565b60005b83811015613c59578082015181840152602081019050613c3e565b83811115613c68576000848401525b50505050565b6000601f19601f8301169050919050565b6000613c8a82613c30565b613c9481856139f1565b9350613ca4818560208601613c3b565b613cad81613c6e565b840191505092915050565b60006020820190508181036000830152613cd28184613c7f565b905092915050565b600069ffffffffffffffffffff82169050919050565b613cf981613cda565b8114613d0457600080fd5b50565b600081519050613d1681613cf0565b92915050565b6000819050919050565b613d2f81613d1c565b8114613d3a57600080fd5b50565b600081519050613d4c81613d26565b92915050565b600081519050613d6181613522565b92915050565b600080600080600060a08688031215613d8357613d826134e7565b5b6000613d9188828901613d07565b9550506020613da288828901613d3d565b9450506040613db388828901613d52565b9350506060613dc488828901613d52565b9250506080613dd588828901613d07565b9150509295509295909350565b6000613ded82613d1c565b9150613df883613d1c565b9250827f7fffffffffffffffffffffffffffffffffffffffffffffffffffffffffffffff0482116000841360008413161615613e3757613e366138bf565b5b817f80000000000000000000000000000000000000000000000000000000000000000583126000841260008413161615613e7457613e736138bf565b5b827f80000000000000000000000000000000000000000000000000000000000000000582126000841360008412161615613eb157613eb06138bf565b5b827f7fffffffffffffffffffffffffffffffffffffffffffffffffffffffffffffff0582126000841260008412161615613eee57613eed6138bf565b5b82820290509291505056fea2646970667358221220609f2db2a83a0d4f8fbc150912b9386fb8bf4cf323ebd2ff5b70327810ebdde964736f6c634300080e0033",
  "devdoc": {
    "kind": "dev",
    "methods": {},
    "version": 1
  },
  "userdoc": {
    "kind": "user",
    "methods": {},
    "version": 1
  },
  "storageLayout": {
    "storage": [
      {
        "astId": 169,
        "contract": "contracts/core/SignetFollowSys.sol:SignetFollowSys",
        "label": "_status",
        "offset": 0,
        "slot": "0",
        "type": "t_uint256"
      },
      {
        "astId": 2616,
        "contract": "contracts/core/SignetFollowSys.sol:SignetFollowSys",
        "label": "priceFeed",
        "offset": 0,
        "slot": "1",
        "type": "t_contract(AggregatorV3Interface)45"
      },
      {
        "astId": 2621,
        "contract": "contracts/core/SignetFollowSys.sol:SignetFollowSys",
        "label": "TotalSignetorsNum",
        "offset": 0,
        "slot": "2",
        "type": "t_uint256"
      },
      {
        "astId": 2623,
        "contract": "contracts/core/SignetFollowSys.sol:SignetFollowSys",
        "label": "signetId",
        "offset": 0,
        "slot": "3",
        "type": "t_uint256"
      },
      {
        "astId": 2625,
        "contract": "contracts/core/SignetFollowSys.sol:SignetFollowSys",
        "label": "signetControllor",
        "offset": 0,
        "slot": "4",
        "type": "t_address"
      },
      {
        "astId": 2627,
        "contract": "contracts/core/SignetFollowSys.sol:SignetFollowSys",
        "label": "owner",
        "offset": 0,
        "slot": "5",
        "type": "t_address"
      },
      {
        "astId": 2645,
        "contract": "contracts/core/SignetFollowSys.sol:SignetFollowSys",
        "label": "follower",
        "offset": 0,
        "slot": "6",
        "type": "t_mapping(t_address,t_struct(Followers)2640_storage)"
      },
      {
        "astId": 2656,
        "contract": "contracts/core/SignetFollowSys.sol:SignetFollowSys",
        "label": "following",
        "offset": 0,
        "slot": "7",
        "type": "t_mapping(t_address,t_struct(Following)2651_storage)"
      },
      {
        "astId": 2674,
        "contract": "contracts/core/SignetFollowSys.sol:SignetFollowSys",
        "label": "signetState",
        "offset": 0,
        "slot": "8",
        "type": "t_mapping(t_uint256,t_struct(signetinfo)2669_storage)"
      },
      {
        "astId": 2678,
        "contract": "contracts/core/SignetFollowSys.sol:SignetFollowSys",
        "label": "Stars",
        "offset": 0,
        "slot": "9",
        "type": "t_mapping(t_address,t_uint256)"
      }
    ],
    "types": {
      "t_address": {
        "encoding": "inplace",
        "label": "address",
        "numberOfBytes": "20"
      },
      "t_array(t_address)dyn_storage": {
        "base": "t_address",
        "encoding": "dynamic_array",
        "label": "address[]",
        "numberOfBytes": "32"
      },
      "t_contract(AggregatorV3Interface)45": {
        "encoding": "inplace",
        "label": "contract AggregatorV3Interface",
        "numberOfBytes": "20"
      },
      "t_mapping(t_address,t_struct(Followers)2640_storage)": {
        "encoding": "mapping",
        "key": "t_address",
        "label": "mapping(address => struct SignetFollowSys.Followers)",
        "numberOfBytes": "32",
        "value": "t_struct(Followers)2640_storage"
      },
      "t_mapping(t_address,t_struct(Following)2651_storage)": {
        "encoding": "mapping",
        "key": "t_address",
        "label": "mapping(address => struct SignetFollowSys.Following)",
        "numberOfBytes": "32",
        "value": "t_struct(Following)2651_storage"
      },
      "t_mapping(t_address,t_uint256)": {
        "encoding": "mapping",
        "key": "t_address",
        "label": "mapping(address => uint256)",
        "numberOfBytes": "32",
        "value": "t_uint256"
      },
      "t_mapping(t_uint256,t_struct(signetinfo)2669_storage)": {
        "encoding": "mapping",
        "key": "t_uint256",
        "label": "mapping(uint256 => struct SignetFollowSys.signetinfo)",
        "numberOfBytes": "32",
        "value": "t_struct(signetinfo)2669_storage"
      },
      "t_struct(Followers)2640_storage": {
        "encoding": "inplace",
        "label": "struct SignetFollowSys.Followers",
        "members": [
          {
            "astId": 2636,
            "contract": "contracts/core/SignetFollowSys.sol:SignetFollowSys",
            "label": "followerNum",
            "offset": 0,
            "slot": "0",
            "type": "t_uint256"
          },
          {
            "astId": 2639,
            "contract": "contracts/core/SignetFollowSys.sol:SignetFollowSys",
            "label": "whoFollowed",
            "offset": 0,
            "slot": "1",
            "type": "t_array(t_address)dyn_storage"
          }
        ],
        "numberOfBytes": "64"
      },
      "t_struct(Following)2651_storage": {
        "encoding": "inplace",
        "label": "struct SignetFollowSys.Following",
        "members": [
          {
            "astId": 2647,
            "contract": "contracts/core/SignetFollowSys.sol:SignetFollowSys",
            "label": "FollowingNum",
            "offset": 0,
            "slot": "0",
            "type": "t_uint256"
          },
          {
            "astId": 2650,
            "contract": "contracts/core/SignetFollowSys.sol:SignetFollowSys",
            "label": "followedWho",
            "offset": 0,
            "slot": "1",
            "type": "t_array(t_address)dyn_storage"
          }
        ],
        "numberOfBytes": "64"
      },
      "t_struct(signetinfo)2669_storage": {
        "encoding": "inplace",
        "label": "struct SignetFollowSys.signetinfo",
        "members": [
          {
            "astId": 2658,
            "contract": "contracts/core/SignetFollowSys.sol:SignetFollowSys",
            "label": "likeNum",
            "offset": 0,
            "slot": "0",
            "type": "t_uint256"
          },
          {
            "astId": 2660,
            "contract": "contracts/core/SignetFollowSys.sol:SignetFollowSys",
            "label": "starNum",
            "offset": 0,
            "slot": "1",
            "type": "t_uint256"
          },
          {
            "astId": 2662,
            "contract": "contracts/core/SignetFollowSys.sol:SignetFollowSys",
            "label": "SignetIdOwner",
            "offset": 0,
            "slot": "2",
            "type": "t_address"
          },
          {
            "astId": 2665,
            "contract": "contracts/core/SignetFollowSys.sol:SignetFollowSys",
            "label": "starContributors",
            "offset": 0,
            "slot": "3",
            "type": "t_array(t_address)dyn_storage"
          },
          {
            "astId": 2668,
            "contract": "contracts/core/SignetFollowSys.sol:SignetFollowSys",
            "label": "likeContributors",
            "offset": 0,
            "slot": "4",
            "type": "t_array(t_address)dyn_storage"
          }
        ],
        "numberOfBytes": "160"
      },
      "t_uint256": {
        "encoding": "inplace",
        "label": "uint256",
        "numberOfBytes": "32"
      }
    }
  }
}