{
    "address": "0x8B9f465e47b7560dA788A41E1b46a97fbF3E4c39",
    "abi": [
        {
            "inputs": [
                {
                    "internalType": "string",
                    "name": "_name",
                    "type": "string"
                },
                {
                    "internalType": "string",
                    "name": "_symbol",
                    "type": "string"
                },
                {
                    "internalType": "address",
                    "name": "owner",
                    "type": "address"
                },
                {
                    "internalType": "address",
                    "name": "signetControllors",
                    "type": "address"
                }
            ],
            "stateMutability": "nonpayable",
            "type": "constructor"
        },
        {
            "inputs": [],
            "name": "Not__ApprovedOrNotOwner",
            "type": "error"
        },
        {
            "inputs": [],
            "name": "Not__FromSignetControllors",
            "type": "error"
        },
        {
            "anonymous": false,
            "inputs": [
                {
                    "indexed": true,
                    "internalType": "address",
                    "name": "owner",
                    "type": "address"
                },
                {
                    "indexed": true,
                    "internalType": "address",
                    "name": "approved",
                    "type": "address"
                },
                {
                    "indexed": true,
                    "internalType": "uint256",
                    "name": "tokenId",
                    "type": "uint256"
                }
            ],
            "name": "Approval",
            "type": "event"
        },
        {
            "anonymous": false,
            "inputs": [
                {
                    "indexed": true,
                    "internalType": "address",
                    "name": "owner",
                    "type": "address"
                },
                {
                    "indexed": true,
                    "internalType": "address",
                    "name": "operator",
                    "type": "address"
                },
                {
                    "indexed": false,
                    "internalType": "bool",
                    "name": "approved",
                    "type": "bool"
                }
            ],
            "name": "ApprovalForAll",
            "type": "event"
        },
        {
            "anonymous": false,
            "inputs": [
                {
                    "indexed": true,
                    "internalType": "address",
                    "name": "previousOwner",
                    "type": "address"
                },
                {
                    "indexed": true,
                    "internalType": "address",
                    "name": "newOwner",
                    "type": "address"
                }
            ],
            "name": "OwnershipTransferred",
            "type": "event"
        },
        {
            "anonymous": false,
            "inputs": [
                {
                    "indexed": true,
                    "internalType": "address",
                    "name": "from",
                    "type": "address"
                },
                {
                    "indexed": true,
                    "internalType": "address",
                    "name": "to",
                    "type": "address"
                },
                {
                    "indexed": true,
                    "internalType": "uint256",
                    "name": "tokenId",
                    "type": "uint256"
                }
            ],
            "name": "Transfer",
            "type": "event"
        },
        {
            "inputs": [],
            "name": "SignetControllors",
            "outputs": [
                {
                    "internalType": "address",
                    "name": "",
                    "type": "address"
                }
            ],
            "stateMutability": "view",
            "type": "function"
        },
        {
            "inputs": [],
            "name": "SignetorContractAddress",
            "outputs": [
                {
                    "internalType": "address",
                    "name": "",
                    "type": "address"
                }
            ],
            "stateMutability": "view",
            "type": "function"
        },
        {
            "inputs": [],
            "name": "_getAllowedTranfer",
            "outputs": [
                {
                    "internalType": "bool",
                    "name": "",
                    "type": "bool"
                }
            ],
            "stateMutability": "view",
            "type": "function"
        },
        {
            "inputs": [
                {
                    "internalType": "address",
                    "name": "to",
                    "type": "address"
                },
                {
                    "internalType": "uint256",
                    "name": "tokenId",
                    "type": "uint256"
                }
            ],
            "name": "approve",
            "outputs": [],
            "stateMutability": "nonpayable",
            "type": "function"
        },
        {
            "inputs": [
                {
                    "internalType": "address",
                    "name": "owner",
                    "type": "address"
                }
            ],
            "name": "balanceOf",
            "outputs": [
                {
                    "internalType": "uint256",
                    "name": "",
                    "type": "uint256"
                }
            ],
            "stateMutability": "view",
            "type": "function"
        },
        {
            "inputs": [
                {
                    "internalType": "address",
                    "name": "owner",
                    "type": "address"
                },
                {
                    "internalType": "uint256",
                    "name": "tokenId",
                    "type": "uint256"
                }
            ],
            "name": "deleteMessage",
            "outputs": [],
            "stateMutability": "nonpayable",
            "type": "function"
        },
        {
            "inputs": [
                {
                    "internalType": "uint256",
                    "name": "tokenId",
                    "type": "uint256"
                }
            ],
            "name": "getApproved",
            "outputs": [
                {
                    "internalType": "address",
                    "name": "",
                    "type": "address"
                }
            ],
            "stateMutability": "view",
            "type": "function"
        },
        {
            "inputs": [
                {
                    "internalType": "address",
                    "name": "owner",
                    "type": "address"
                },
                {
                    "internalType": "address",
                    "name": "operator",
                    "type": "address"
                }
            ],
            "name": "isApprovedForAll",
            "outputs": [
                {
                    "internalType": "bool",
                    "name": "",
                    "type": "bool"
                }
            ],
            "stateMutability": "view",
            "type": "function"
        },
        {
            "inputs": [],
            "name": "name",
            "outputs": [
                {
                    "internalType": "string",
                    "name": "",
                    "type": "string"
                }
            ],
            "stateMutability": "view",
            "type": "function"
        },
        {
            "inputs": [],
            "name": "owner",
            "outputs": [
                {
                    "internalType": "address",
                    "name": "",
                    "type": "address"
                }
            ],
            "stateMutability": "view",
            "type": "function"
        },
        {
            "inputs": [
                {
                    "internalType": "uint256",
                    "name": "tokenId",
                    "type": "uint256"
                }
            ],
            "name": "ownerOf",
            "outputs": [
                {
                    "internalType": "address",
                    "name": "",
                    "type": "address"
                }
            ],
            "stateMutability": "view",
            "type": "function"
        },
        {
            "inputs": [],
            "name": "renounceOwnership",
            "outputs": [],
            "stateMutability": "nonpayable",
            "type": "function"
        },
        {
            "inputs": [
                {
                    "internalType": "address",
                    "name": "from",
                    "type": "address"
                },
                {
                    "internalType": "address",
                    "name": "to",
                    "type": "address"
                },
                {
                    "internalType": "uint256",
                    "name": "tokenId",
                    "type": "uint256"
                }
            ],
            "name": "safeTransferFrom",
            "outputs": [],
            "stateMutability": "nonpayable",
            "type": "function"
        },
        {
            "inputs": [
                {
                    "internalType": "address",
                    "name": "from",
                    "type": "address"
                },
                {
                    "internalType": "address",
                    "name": "to",
                    "type": "address"
                },
                {
                    "internalType": "uint256",
                    "name": "tokenId",
                    "type": "uint256"
                },
                {
                    "internalType": "bytes",
                    "name": "data",
                    "type": "bytes"
                }
            ],
            "name": "safeTransferFrom",
            "outputs": [],
            "stateMutability": "nonpayable",
            "type": "function"
        },
        {
            "inputs": [
                {
                    "internalType": "string",
                    "name": "tokenURI_",
                    "type": "string"
                }
            ],
            "name": "sendMessage",
            "outputs": [
                {
                    "internalType": "uint256",
                    "name": "",
                    "type": "uint256"
                }
            ],
            "stateMutability": "nonpayable",
            "type": "function"
        },
        {
            "inputs": [
                {
                    "internalType": "address",
                    "name": "operator",
                    "type": "address"
                },
                {
                    "internalType": "bool",
                    "name": "approved",
                    "type": "bool"
                }
            ],
            "name": "setApprovalForAll",
            "outputs": [],
            "stateMutability": "nonpayable",
            "type": "function"
        },
        {
            "inputs": [
                {
                    "internalType": "string",
                    "name": "baseURI_",
                    "type": "string"
                }
            ],
            "name": "setBaseURI",
            "outputs": [],
            "stateMutability": "nonpayable",
            "type": "function"
        },
        {
            "inputs": [],
            "name": "signetControllor",
            "outputs": [
                {
                    "internalType": "address",
                    "name": "",
                    "type": "address"
                }
            ],
            "stateMutability": "view",
            "type": "function"
        },
        {
            "inputs": [
                {
                    "internalType": "bytes4",
                    "name": "interfaceId",
                    "type": "bytes4"
                }
            ],
            "name": "supportsInterface",
            "outputs": [
                {
                    "internalType": "bool",
                    "name": "",
                    "type": "bool"
                }
            ],
            "stateMutability": "view",
            "type": "function"
        },
        {
            "inputs": [],
            "name": "symbol",
            "outputs": [
                {
                    "internalType": "string",
                    "name": "",
                    "type": "string"
                }
            ],
            "stateMutability": "view",
            "type": "function"
        },
        {
            "inputs": [
                {
                    "internalType": "uint256",
                    "name": "tokenId",
                    "type": "uint256"
                }
            ],
            "name": "tokenURI",
            "outputs": [
                {
                    "internalType": "string",
                    "name": "",
                    "type": "string"
                }
            ],
            "stateMutability": "view",
            "type": "function"
        },
        {
            "inputs": [],
            "name": "token_Id",
            "outputs": [
                {
                    "internalType": "uint256",
                    "name": "",
                    "type": "uint256"
                }
            ],
            "stateMutability": "view",
            "type": "function"
        },
        {
            "inputs": [
                {
                    "internalType": "address",
                    "name": "from",
                    "type": "address"
                },
                {
                    "internalType": "address",
                    "name": "to",
                    "type": "address"
                },
                {
                    "internalType": "uint256",
                    "name": "tokenId",
                    "type": "uint256"
                }
            ],
            "name": "transferFrom",
            "outputs": [],
            "stateMutability": "nonpayable",
            "type": "function"
        },
        {
            "inputs": [
                {
                    "internalType": "address",
                    "name": "newOwner",
                    "type": "address"
                }
            ],
            "name": "transferOwnership",
            "outputs": [],
            "stateMutability": "nonpayable",
            "type": "function"
        }
    ],
    "bytecode": "0x60806040523480156200001157600080fd5b5060405162003c4138038062003c4183398181016040528101906200003791906200064f565b8383828260019080519060200190620000529291906200039d565b5081600290805190602001906200006b9291906200039d565b50806000806101000a81548173ffffffffffffffffffffffffffffffffffffffff021916908373ffffffffffffffffffffffffffffffffffffffff160217905550505050620000cf620000c36200013b60201b60201c565b6200014360201b60201c565b620000df6200020960201b60201c565b620000f0826200024c60201b60201c565b80600960006101000a81548173ffffffffffffffffffffffffffffffffffffffff021916908373ffffffffffffffffffffffffffffffffffffffff160217905550505050506200087e565b600033905090565b6000600760009054906101000a900473ffffffffffffffffffffffffffffffffffffffff16905081600760006101000a81548173ffffffffffffffffffffffffffffffffffffffff021916908373ffffffffffffffffffffffffffffffffffffffff1602179055508173ffffffffffffffffffffffffffffffffffffffff168173ffffffffffffffffffffffffffffffffffffffff167f8be0079c531659141344cd1fd0a4f28419497f9722a3daafe3b4186f6b6457e060405160405180910390a35050565b30600860006101000a81548173ffffffffffffffffffffffffffffffffffffffff021916908373ffffffffffffffffffffffffffffffffffffffff160217905550565b6200025c620002e260201b60201c565b600073ffffffffffffffffffffffffffffffffffffffff168173ffffffffffffffffffffffffffffffffffffffff1603620002ce576040517f08c379a0000000000000000000000000000000000000000000000000000000008152600401620002c59062000786565b60405180910390fd5b620002df816200014360201b60201c565b50565b620002f26200013b60201b60201c565b73ffffffffffffffffffffffffffffffffffffffff16620003186200037360201b60201c565b73ffffffffffffffffffffffffffffffffffffffff161462000371576040517f08c379a00000000000000000000000000000000000000000000000000000000081526004016200036890620007f8565b60405180910390fd5b565b6000600760009054906101000a900473ffffffffffffffffffffffffffffffffffffffff16905090565b828054620003ab9062000849565b90600052602060002090601f016020900481019282620003cf57600085556200041b565b82601f10620003ea57805160ff19168380011785556200041b565b828001600101855582156200041b579182015b828111156200041a578251825591602001919060010190620003fd565b5b5090506200042a91906200042e565b5090565b5b80821115620004495760008160009055506001016200042f565b5090565b6000604051905090565b600080fd5b600080fd5b600080fd5b600080fd5b6000601f19601f8301169050919050565b7f4e487b7100000000000000000000000000000000000000000000000000000000600052604160045260246000fd5b620004b6826200046b565b810181811067ffffffffffffffff82111715620004d857620004d76200047c565b5b80604052505050565b6000620004ed6200044d565b9050620004fb8282620004ab565b919050565b600067ffffffffffffffff8211156200051e576200051d6200047c565b5b62000529826200046b565b9050602081019050919050565b60005b838110156200055657808201518184015260208101905062000539565b8381111562000566576000848401525b50505050565b6000620005836200057d8462000500565b620004e1565b905082815260208101848484011115620005a257620005a162000466565b5b620005af84828562000536565b509392505050565b600082601f830112620005cf57620005ce62000461565b5b8151620005e18482602086016200056c565b91505092915050565b600073ffffffffffffffffffffffffffffffffffffffff82169050919050565b60006200061782620005ea565b9050919050565b62000629816200060a565b81146200063557600080fd5b50565b60008151905062000649816200061e565b92915050565b600080600080608085870312156200066c576200066b62000457565b5b600085015167ffffffffffffffff8111156200068d576200068c6200045c565b5b6200069b87828801620005b7565b945050602085015167ffffffffffffffff811115620006bf57620006be6200045c565b5b620006cd87828801620005b7565b9350506040620006e08782880162000638565b9250506060620006f38782880162000638565b91505092959194509250565b600082825260208201905092915050565b7f4f776e61626c653a206e6577206f776e657220697320746865207a65726f206160008201527f6464726573730000000000000000000000000000000000000000000000000000602082015250565b60006200076e602683620006ff565b91506200077b8262000710565b604082019050919050565b60006020820190508181036000830152620007a1816200075f565b9050919050565b7f4f776e61626c653a2063616c6c6572206973206e6f7420746865206f776e6572600082015250565b6000620007e0602083620006ff565b9150620007ed82620007a8565b602082019050919050565b600060208201905081810360008301526200081381620007d1565b9050919050565b7f4e487b7100000000000000000000000000000000000000000000000000000000600052602260045260246000fd5b600060028204905060018216806200086257607f821691505b6020821081036200087857620008776200081a565b5b50919050565b6133b3806200088e6000396000f3fe608060405234801561001057600080fd5b50600436106101575760003560e01c806370a08231116100c3578063b4aa7ca21161007c578063b4aa7ca2146103b2578063b88d4fde146103d0578063c87b56dd146103ec578063e985e9c51461041c578063f2fde38b1461044c578063ffb0958d1461046857610157565b806370a0823114610302578063715018a6146103325780638da5cb5b1461033c57806395d89b411461035a578063975073ba14610378578063a22cb4651461039657610157565b806323b872dd1161011557806323b872dd1461023257806342842e0e1461024e578063469c81101461026a57806355f804b31461029a5780636352211e146102b65780636704e981146102e657610157565b806204586c1461015c57806301f5883c1461017a57806301ffc9a71461019857806306fdde03146101c8578063081812fc146101e6578063095ea7b314610216575b600080fd5b610164610486565b6040516101719190612198565b60405180910390f35b61018261048c565b60405161018f91906121f4565b60405180910390f35b6101b260048036038101906101ad919061227b565b6104b0565b6040516101bf91906122c3565b60405180910390f35b6101d0610592565b6040516101dd9190612377565b60405180910390f35b61020060048036038101906101fb91906123c5565b610624565b60405161020d91906121f4565b60405180910390f35b610230600480360381019061022b919061241e565b61066a565b005b61024c6004803603810190610247919061245e565b610781565b005b6102686004803603810190610263919061245e565b61082f565b005b610284600480360381019061027f91906125e6565b61089d565b6040516102919190612198565b60405180910390f35b6102b460048036038101906102af91906125e6565b61096d565b005b6102d060048036038101906102cb91906123c5565b61098f565b6040516102dd91906121f4565b60405180910390f35b61030060048036038101906102fb919061241e565b610a40565b005b61031c6004803603810190610317919061262f565b610b1b565b6040516103299190612198565b60405180910390f35b61033a610bd2565b005b610344610be6565b60405161035191906121f4565b60405180910390f35b610362610c10565b60405161036f9190612377565b60405180910390f35b610380610ca2565b60405161038d91906121f4565b60405180910390f35b6103b060048036038101906103ab9190612688565b610cc8565b005b6103ba610cde565b6040516103c791906122c3565b60405180910390f35b6103ea60048036038101906103e59190612769565b610d75565b005b610406600480360381019061040191906123c5565b610e25565b6040516104139190612377565b60405180910390f35b610436600480360381019061043191906127ec565b610f97565b60405161044391906122c3565b60405180910390f35b6104666004803603810190610461919061262f565b61102b565b005b6104706110ae565b60405161047d91906121f4565b60405180910390f35b600a5481565b60008054906101000a900473ffffffffffffffffffffffffffffffffffffffff1681565b60007f80ac58cd000000000000000000000000000000000000000000000000000000007bffffffffffffffffffffffffffffffffffffffffffffffffffffffff1916827bffffffffffffffffffffffffffffffffffffffffffffffffffffffff1916148061057b57507f5b5e139f000000000000000000000000000000000000000000000000000000007bffffffffffffffffffffffffffffffffffffffffffffffffffffffff1916827bffffffffffffffffffffffffffffffffffffffffffffffffffffffff1916145b8061058b575061058a826110d4565b5b9050919050565b6060600180546105a19061285b565b80601f01602080910402602001604051908101604052809291908181526020018280546105cd9061285b565b801561061a5780601f106105ef5761010080835404028352916020019161061a565b820191906000526020600020905b8154815290600101906020018083116105fd57829003601f168201915b5050505050905090565b600061062f8261113e565b6005600083815260200190815260200160002060009054906101000a900473ffffffffffffffffffffffffffffffffffffffff169050919050565b60006106758261098f565b90508073ffffffffffffffffffffffffffffffffffffffff168373ffffffffffffffffffffffffffffffffffffffff16036106e5576040517f08c379a00000000000000000000000000000000000000000000000000000000081526004016106dc906128fe565b60405180910390fd5b8073ffffffffffffffffffffffffffffffffffffffff16610704611189565b73ffffffffffffffffffffffffffffffffffffffff16148061073357506107328161072d611189565b610f97565b5b610772576040517f08c379a000000000000000000000000000000000000000000000000000000000815260040161076990612990565b60405180910390fd5b61077c8383611191565b505050565b6001151561078d610cde565b1515146107cf576040517f08c379a00000000000000000000000000000000000000000000000000000000081526004016107c6906129fc565b60405180910390fd5b6107e06107da611189565b8261124a565b61081f576040517f08c379a000000000000000000000000000000000000000000000000000000000815260040161081690612a8e565b60405180910390fd5b61082a8383836112df565b505050565b6001151561083b610cde565b15151461087d576040517f08c379a0000000000000000000000000000000000000000000000000000000008152600401610874906129fc565b60405180910390fd5b61089883838360405180602001604052806000815250610d75565b505050565b6000600960009054906101000a900473ffffffffffffffffffffffffffffffffffffffff1673ffffffffffffffffffffffffffffffffffffffff163373ffffffffffffffffffffffffffffffffffffffff1614610926576040517f3cfd317500000000000000000000000000000000000000000000000000000000815260040160405180910390fd5b600a600081548092919061093990612add565b91905055506000610948610be6565b905061095681600a54611545565b610962600a548461171e565b600a54915050919050565b610975611792565b80600c908051906020019061098b9291906120dc565b5050565b6000806003600084815260200190815260200160002060009054906101000a900473ffffffffffffffffffffffffffffffffffffffff169050600073ffffffffffffffffffffffffffffffffffffffff168173ffffffffffffffffffffffffffffffffffffffff1603610a37576040517f08c379a0000000000000000000000000000000000000000000000000000000008152600401610a2e90612b71565b60405180910390fd5b80915050919050565b600960009054906101000a900473ffffffffffffffffffffffffffffffffffffffff1673ffffffffffffffffffffffffffffffffffffffff163373ffffffffffffffffffffffffffffffffffffffff1614610ac7576040517f3cfd317500000000000000000000000000000000000000000000000000000000815260040160405180910390fd5b60001515610ad5838361124a565b151503610b0e576040517f4c7b9a8f00000000000000000000000000000000000000000000000000000000815260040160405180910390fd5b610b1781611810565b5050565b60008073ffffffffffffffffffffffffffffffffffffffff168273ffffffffffffffffffffffffffffffffffffffff1603610b8b576040517f08c379a0000000000000000000000000000000000000000000000000000000008152600401610b8290612c03565b60405180910390fd5b600460008373ffffffffffffffffffffffffffffffffffffffff1673ffffffffffffffffffffffffffffffffffffffff168152602001908152602001600020549050919050565b610bda611792565b610be4600061192d565b565b6000600760009054906101000a900473ffffffffffffffffffffffffffffffffffffffff16905090565b606060028054610c1f9061285b565b80601f0160208091040260200160405190810160405280929190818152602001828054610c4b9061285b565b8015610c985780601f10610c6d57610100808354040283529160200191610c98565b820191906000526020600020905b815481529060010190602001808311610c7b57829003601f168201915b5050505050905090565b600960009054906101000a900473ffffffffffffffffffffffffffffffffffffffff1681565b610cda610cd3611189565b83836119f3565b5050565b60008060009054906101000a900473ffffffffffffffffffffffffffffffffffffffff1673ffffffffffffffffffffffffffffffffffffffff166398a394ca6040518163ffffffff1660e01b8152600401602060405180830381865afa158015610d4c573d6000803e3d6000fd5b505050506040513d601f19601f82011682018060405250810190610d709190612c38565b905090565b60011515610d81610cde565b151514610dc3576040517f08c379a0000000000000000000000000000000000000000000000000000000008152600401610dba906129fc565b60405180910390fd5b610dd4610dce611189565b8361124a565b610e13576040517f08c379a0000000000000000000000000000000000000000000000000000000008152600401610e0a90612a8e565b60405180910390fd5b610e1f84848484611b5f565b50505050565b6060610e3082611c09565b610e6f576040517f08c379a0000000000000000000000000000000000000000000000000000000008152600401610e6690612cd7565b60405180910390fd5b6000600b60008481526020019081526020016000208054610e8f9061285b565b80601f0160208091040260200160405190810160405280929190818152602001828054610ebb9061285b565b8015610f085780601f10610edd57610100808354040283529160200191610f08565b820191906000526020600020905b815481529060010190602001808311610eeb57829003601f168201915b505050505090506000610f19611c75565b90506000815103610f2e578192505050610f92565b600082511115610f63578082604051602001610f4b929190612d33565b60405160208183030381529060405292505050610f92565b80610f6d85611d07565b604051602001610f7e929190612d33565b604051602081830303815290604052925050505b919050565b6000600660008473ffffffffffffffffffffffffffffffffffffffff1673ffffffffffffffffffffffffffffffffffffffff16815260200190815260200160002060008373ffffffffffffffffffffffffffffffffffffffff1673ffffffffffffffffffffffffffffffffffffffff16815260200190815260200160002060009054906101000a900460ff16905092915050565b611033611792565b600073ffffffffffffffffffffffffffffffffffffffff168173ffffffffffffffffffffffffffffffffffffffff16036110a2576040517f08c379a000000000000000000000000000000000000000000000000000000000815260040161109990612dc9565b60405180910390fd5b6110ab8161192d565b50565b600860009054906101000a900473ffffffffffffffffffffffffffffffffffffffff1681565b60007f01ffc9a7000000000000000000000000000000000000000000000000000000007bffffffffffffffffffffffffffffffffffffffffffffffffffffffff1916827bffffffffffffffffffffffffffffffffffffffffffffffffffffffff1916149050919050565b61114781611c09565b611186576040517f08c379a000000000000000000000000000000000000000000000000000000000815260040161117d90612b71565b60405180910390fd5b50565b600033905090565b816005600083815260200190815260200160002060006101000a81548173ffffffffffffffffffffffffffffffffffffffff021916908373ffffffffffffffffffffffffffffffffffffffff160217905550808273ffffffffffffffffffffffffffffffffffffffff166112048361098f565b73ffffffffffffffffffffffffffffffffffffffff167f8c5be1e5ebec7d5bd14f71427d1e84f3dd0314c0f7b2291e5b200ac8c7c3b92560405160405180910390a45050565b6000806112568361098f565b90508073ffffffffffffffffffffffffffffffffffffffff168473ffffffffffffffffffffffffffffffffffffffff16148061129857506112978185610f97565b5b806112d657508373ffffffffffffffffffffffffffffffffffffffff166112be84610624565b73ffffffffffffffffffffffffffffffffffffffff16145b91505092915050565b8273ffffffffffffffffffffffffffffffffffffffff166112ff8261098f565b73ffffffffffffffffffffffffffffffffffffffff1614611355576040517f08c379a000000000000000000000000000000000000000000000000000000000815260040161134c90612e5b565b60405180910390fd5b600073ffffffffffffffffffffffffffffffffffffffff168273ffffffffffffffffffffffffffffffffffffffff16036113c4576040517f08c379a00000000000000000000000000000000000000000000000000000000081526004016113bb90612eed565b60405180910390fd5b6113cf838383611dd5565b6113da600082611191565b6001600460008573ffffffffffffffffffffffffffffffffffffffff1673ffffffffffffffffffffffffffffffffffffffff168152602001908152602001600020600082825461142a9190612f0d565b925050819055506001600460008473ffffffffffffffffffffffffffffffffffffffff1673ffffffffffffffffffffffffffffffffffffffff16815260200190815260200160002060008282546114819190612f41565b92505081905550816003600083815260200190815260200160002060006101000a81548173ffffffffffffffffffffffffffffffffffffffff021916908373ffffffffffffffffffffffffffffffffffffffff160217905550808273ffffffffffffffffffffffffffffffffffffffff168473ffffffffffffffffffffffffffffffffffffffff167fddf252ad1be2c89b69c2b068fc378daa952ba7f163c4a11628f55a4df523b3ef60405160405180910390a4611540838383611dda565b505050565b600073ffffffffffffffffffffffffffffffffffffffff168273ffffffffffffffffffffffffffffffffffffffff16036115b4576040517f08c379a00000000000000000000000000000000000000000000000000000000081526004016115ab90612fe3565b60405180910390fd5b6115bd81611c09565b156115fd576040517f08c379a00000000000000000000000000000000000000000000000000000000081526004016115f49061304f565b60405180910390fd5b61160960008383611dd5565b6001600460008473ffffffffffffffffffffffffffffffffffffffff1673ffffffffffffffffffffffffffffffffffffffff16815260200190815260200160002060008282546116599190612f41565b92505081905550816003600083815260200190815260200160002060006101000a81548173ffffffffffffffffffffffffffffffffffffffff021916908373ffffffffffffffffffffffffffffffffffffffff160217905550808273ffffffffffffffffffffffffffffffffffffffff16600073ffffffffffffffffffffffffffffffffffffffff167fddf252ad1be2c89b69c2b068fc378daa952ba7f163c4a11628f55a4df523b3ef60405160405180910390a461171a60008383611dda565b5050565b61172782611c09565b611766576040517f08c379a000000000000000000000000000000000000000000000000000000000815260040161175d906130e1565b60405180910390fd5b80600b6000848152602001908152602001600020908051906020019061178d9291906120dc565b505050565b61179a611189565b73ffffffffffffffffffffffffffffffffffffffff166117b8610be6565b73ffffffffffffffffffffffffffffffffffffffff161461180e576040517f08c379a00000000000000000000000000000000000000000000000000000000081526004016118059061314d565b60405180910390fd5b565b600061181b8261098f565b905061182981600084611dd5565b611834600083611191565b6001600460008373ffffffffffffffffffffffffffffffffffffffff1673ffffffffffffffffffffffffffffffffffffffff16815260200190815260200160002060008282546118849190612f0d565b925050819055506003600083815260200190815260200160002060006101000a81549073ffffffffffffffffffffffffffffffffffffffff021916905581600073ffffffffffffffffffffffffffffffffffffffff168273ffffffffffffffffffffffffffffffffffffffff167fddf252ad1be2c89b69c2b068fc378daa952ba7f163c4a11628f55a4df523b3ef60405160405180910390a461192981600084611dda565b5050565b6000600760009054906101000a900473ffffffffffffffffffffffffffffffffffffffff16905081600760006101000a81548173ffffffffffffffffffffffffffffffffffffffff021916908373ffffffffffffffffffffffffffffffffffffffff1602179055508173ffffffffffffffffffffffffffffffffffffffff168173ffffffffffffffffffffffffffffffffffffffff167f8be0079c531659141344cd1fd0a4f28419497f9722a3daafe3b4186f6b6457e060405160405180910390a35050565b8173ffffffffffffffffffffffffffffffffffffffff168373ffffffffffffffffffffffffffffffffffffffff1603611a61576040517f08c379a0000000000000000000000000000000000000000000000000000000008152600401611a58906131b9565b60405180910390fd5b80600660008573ffffffffffffffffffffffffffffffffffffffff1673ffffffffffffffffffffffffffffffffffffffff16815260200190815260200160002060008473ffffffffffffffffffffffffffffffffffffffff1673ffffffffffffffffffffffffffffffffffffffff16815260200190815260200160002060006101000a81548160ff0219169083151502179055508173ffffffffffffffffffffffffffffffffffffffff168373ffffffffffffffffffffffffffffffffffffffff167f17307eab39ab6107e8899845ad3d59bd9653f200f220920489ca2b5937696c3183604051611b5291906122c3565b60405180910390a3505050565b60011515611b6b610cde565b151514611bad576040517f08c379a0000000000000000000000000000000000000000000000000000000008152600401611ba4906129fc565b60405180910390fd5b611bb88484846112df565b611bc484848484611ddf565b611c03576040517f08c379a0000000000000000000000000000000000000000000000000000000008152600401611bfa9061324b565b60405180910390fd5b50505050565b60008073ffffffffffffffffffffffffffffffffffffffff166003600084815260200190815260200160002060009054906101000a900473ffffffffffffffffffffffffffffffffffffffff1673ffffffffffffffffffffffffffffffffffffffff1614159050919050565b6060600c8054611c849061285b565b80601f0160208091040260200160405190810160405280929190818152602001828054611cb09061285b565b8015611cfd5780601f10611cd257610100808354040283529160200191611cfd565b820191906000526020600020905b815481529060010190602001808311611ce057829003601f168201915b5050505050905090565b606060006001611d1684611f66565b01905060008167ffffffffffffffff811115611d3557611d346124bb565b5b6040519080825280601f01601f191660200182016040528015611d675781602001600182028036833780820191505090505b509050600082602001820190505b600115611dca578080600190039150507f3031323334353637383961626364656600000000000000000000000000000000600a86061a8153600a8581611dbe57611dbd61326b565b5b04945060008503611d75575b819350505050919050565b505050565b505050565b6000611e008473ffffffffffffffffffffffffffffffffffffffff166120b9565b15611f59578373ffffffffffffffffffffffffffffffffffffffff1663150b7a02611e29611189565b8786866040518563ffffffff1660e01b8152600401611e4b94939291906132ef565b6020604051808303816000875af1925050508015611e8757506040513d601f19601f82011682018060405250810190611e849190613350565b60015b611f09573d8060008114611eb7576040519150601f19603f3d011682016040523d82523d6000602084013e611ebc565b606091505b506000815103611f01576040517f08c379a0000000000000000000000000000000000000000000000000000000008152600401611ef89061324b565b60405180910390fd5b805181602001fd5b63150b7a0260e01b7bffffffffffffffffffffffffffffffffffffffffffffffffffffffff1916817bffffffffffffffffffffffffffffffffffffffffffffffffffffffff191614915050611f5e565b600190505b949350505050565b600080600090507a184f03e93ff9f4daa797ed6e38ed64bf6a1f0100000000000000008310611fc4577a184f03e93ff9f4daa797ed6e38ed64bf6a1f0100000000000000008381611fba57611fb961326b565b5b0492506040810190505b6d04ee2d6d415b85acef81000000008310612001576d04ee2d6d415b85acef81000000008381611ff757611ff661326b565b5b0492506020810190505b662386f26fc10000831061203057662386f26fc1000083816120265761202561326b565b5b0492506010810190505b6305f5e1008310612059576305f5e100838161204f5761204e61326b565b5b0492506008810190505b612710831061207e5761271083816120745761207361326b565b5b0492506004810190505b606483106120a157606483816120975761209661326b565b5b0492506002810190505b600a83106120b0576001810190505b80915050919050565b6000808273ffffffffffffffffffffffffffffffffffffffff163b119050919050565b8280546120e89061285b565b90600052602060002090601f01602090048101928261210a5760008555612151565b82601f1061212357805160ff1916838001178555612151565b82800160010185558215612151579182015b82811115612150578251825591602001919060010190612135565b5b50905061215e9190612162565b5090565b5b8082111561217b576000816000905550600101612163565b5090565b6000819050919050565b6121928161217f565b82525050565b60006020820190506121ad6000830184612189565b92915050565b600073ffffffffffffffffffffffffffffffffffffffff82169050919050565b60006121de826121b3565b9050919050565b6121ee816121d3565b82525050565b600060208201905061220960008301846121e5565b92915050565b6000604051905090565b600080fd5b600080fd5b60007fffffffff0000000000000000000000000000000000000000000000000000000082169050919050565b61225881612223565b811461226357600080fd5b50565b6000813590506122758161224f565b92915050565b60006020828403121561229157612290612219565b5b600061229f84828501612266565b91505092915050565b60008115159050919050565b6122bd816122a8565b82525050565b60006020820190506122d860008301846122b4565b92915050565b600081519050919050565b600082825260208201905092915050565b60005b838110156123185780820151818401526020810190506122fd565b83811115612327576000848401525b50505050565b6000601f19601f8301169050919050565b6000612349826122de565b61235381856122e9565b93506123638185602086016122fa565b61236c8161232d565b840191505092915050565b60006020820190508181036000830152612391818461233e565b905092915050565b6123a28161217f565b81146123ad57600080fd5b50565b6000813590506123bf81612399565b92915050565b6000602082840312156123db576123da612219565b5b60006123e9848285016123b0565b91505092915050565b6123fb816121d3565b811461240657600080fd5b50565b600081359050612418816123f2565b92915050565b6000806040838503121561243557612434612219565b5b600061244385828601612409565b9250506020612454858286016123b0565b9150509250929050565b60008060006060848603121561247757612476612219565b5b600061248586828701612409565b935050602061249686828701612409565b92505060406124a7868287016123b0565b9150509250925092565b600080fd5b600080fd5b7f4e487b7100000000000000000000000000000000000000000000000000000000600052604160045260246000fd5b6124f38261232d565b810181811067ffffffffffffffff82111715612512576125116124bb565b5b80604052505050565b600061252561220f565b905061253182826124ea565b919050565b600067ffffffffffffffff821115612551576125506124bb565b5b61255a8261232d565b9050602081019050919050565b82818337600083830152505050565b600061258961258484612536565b61251b565b9050828152602081018484840111156125a5576125a46124b6565b5b6125b0848285612567565b509392505050565b600082601f8301126125cd576125cc6124b1565b5b81356125dd848260208601612576565b91505092915050565b6000602082840312156125fc576125fb612219565b5b600082013567ffffffffffffffff81111561261a5761261961221e565b5b612626848285016125b8565b91505092915050565b60006020828403121561264557612644612219565b5b600061265384828501612409565b91505092915050565b612665816122a8565b811461267057600080fd5b50565b6000813590506126828161265c565b92915050565b6000806040838503121561269f5761269e612219565b5b60006126ad85828601612409565b92505060206126be85828601612673565b9150509250929050565b600067ffffffffffffffff8211156126e3576126e26124bb565b5b6126ec8261232d565b9050602081019050919050565b600061270c612707846126c8565b61251b565b905082815260208101848484011115612728576127276124b6565b5b612733848285612567565b509392505050565b600082601f8301126127505761274f6124b1565b5b81356127608482602086016126f9565b91505092915050565b6000806000806080858703121561278357612782612219565b5b600061279187828801612409565b94505060206127a287828801612409565b93505060406127b3878288016123b0565b925050606085013567ffffffffffffffff8111156127d4576127d361221e565b5b6127e08782880161273b565b91505092959194509250565b6000806040838503121561280357612802612219565b5b600061281185828601612409565b925050602061282285828601612409565b9150509250929050565b7f4e487b7100000000000000000000000000000000000000000000000000000000600052602260045260246000fd5b6000600282049050600182168061287357607f821691505b6020821081036128865761288561282c565b5b50919050565b7f4552433732313a20617070726f76616c20746f2063757272656e74206f776e6560008201527f7200000000000000000000000000000000000000000000000000000000000000602082015250565b60006128e86021836122e9565b91506128f38261288c565b604082019050919050565b60006020820190508181036000830152612917816128db565b9050919050565b7f4552433732313a20617070726f76652063616c6c6572206973206e6f7420746f60008201527f6b656e206f776e6572206e6f7220617070726f76656420666f7220616c6c0000602082015250565b600061297a603e836122e9565b91506129858261291e565b604082019050919050565b600060208201905081810360008301526129a98161296d565b9050919050565b7f5472616e73666572204d6574686f64204e6f7420416c6c6f7765640000000000600082015250565b60006129e6601b836122e9565b91506129f1826129b0565b602082019050919050565b60006020820190508181036000830152612a15816129d9565b9050919050565b7f4552433732313a2063616c6c6572206973206e6f7420746f6b656e206f776e6560008201527f72206e6f7220617070726f766564000000000000000000000000000000000000602082015250565b6000612a78602e836122e9565b9150612a8382612a1c565b604082019050919050565b60006020820190508181036000830152612aa781612a6b565b9050919050565b7f4e487b7100000000000000000000000000000000000000000000000000000000600052601160045260246000fd5b6000612ae88261217f565b91507fffffffffffffffffffffffffffffffffffffffffffffffffffffffffffffffff8203612b1a57612b19612aae565b5b600182019050919050565b7f4552433732313a20696e76616c696420746f6b656e2049440000000000000000600082015250565b6000612b5b6018836122e9565b9150612b6682612b25565b602082019050919050565b60006020820190508181036000830152612b8a81612b4e565b9050919050565b7f4552433732313a2061646472657373207a65726f206973206e6f74206120766160008201527f6c6964206f776e65720000000000000000000000000000000000000000000000602082015250565b6000612bed6029836122e9565b9150612bf882612b91565b604082019050919050565b60006020820190508181036000830152612c1c81612be0565b9050919050565b600081519050612c328161265c565b92915050565b600060208284031215612c4e57612c4d612219565b5b6000612c5c84828501612c23565b91505092915050565b7f4552433732314d657461646174613a2055524920717565727920666f72206e6f60008201527f6e6578697374656e7420746f6b656e0000000000000000000000000000000000602082015250565b6000612cc1602f836122e9565b9150612ccc82612c65565b604082019050919050565b60006020820190508181036000830152612cf081612cb4565b9050919050565b600081905092915050565b6000612d0d826122de565b612d178185612cf7565b9350612d278185602086016122fa565b80840191505092915050565b6000612d3f8285612d02565b9150612d4b8284612d02565b91508190509392505050565b7f4f776e61626c653a206e6577206f776e657220697320746865207a65726f206160008201527f6464726573730000000000000000000000000000000000000000000000000000602082015250565b6000612db36026836122e9565b9150612dbe82612d57565b604082019050919050565b60006020820190508181036000830152612de281612da6565b9050919050565b7f4552433732313a207472616e736665722066726f6d20696e636f72726563742060008201527f6f776e6572000000000000000000000000000000000000000000000000000000602082015250565b6000612e456025836122e9565b9150612e5082612de9565b604082019050919050565b60006020820190508181036000830152612e7481612e38565b9050919050565b7f4552433732313a207472616e7366657220746f20746865207a65726f2061646460008201527f7265737300000000000000000000000000000000000000000000000000000000602082015250565b6000612ed76024836122e9565b9150612ee282612e7b565b604082019050919050565b60006020820190508181036000830152612f0681612eca565b9050919050565b6000612f188261217f565b9150612f238361217f565b925082821015612f3657612f35612aae565b5b828203905092915050565b6000612f4c8261217f565b9150612f578361217f565b9250827fffffffffffffffffffffffffffffffffffffffffffffffffffffffffffffffff03821115612f8c57612f8b612aae565b5b828201905092915050565b7f4552433732313a206d696e7420746f20746865207a65726f2061646472657373600082015250565b6000612fcd6020836122e9565b9150612fd882612f97565b602082019050919050565b60006020820190508181036000830152612ffc81612fc0565b9050919050565b7f4552433732313a20746f6b656e20616c7265616479206d696e74656400000000600082015250565b6000613039601c836122e9565b915061304482613003565b602082019050919050565b600060208201905081810360008301526130688161302c565b9050919050565b7f4552433732314d657461646174613a2055524920736574206f66206e6f6e657860008201527f697374656e7420746f6b656e0000000000000000000000000000000000000000602082015250565b60006130cb602c836122e9565b91506130d68261306f565b604082019050919050565b600060208201905081810360008301526130fa816130be565b9050919050565b7f4f776e61626c653a2063616c6c6572206973206e6f7420746865206f776e6572600082015250565b60006131376020836122e9565b915061314282613101565b602082019050919050565b600060208201905081810360008301526131668161312a565b9050919050565b7f4552433732313a20617070726f766520746f2063616c6c657200000000000000600082015250565b60006131a36019836122e9565b91506131ae8261316d565b602082019050919050565b600060208201905081810360008301526131d281613196565b9050919050565b7f4552433732313a207472616e7366657220746f206e6f6e20455243373231526560008201527f63656976657220696d706c656d656e7465720000000000000000000000000000602082015250565b60006132356032836122e9565b9150613240826131d9565b604082019050919050565b6000602082019050818103600083015261326481613228565b9050919050565b7f4e487b7100000000000000000000000000000000000000000000000000000000600052601260045260246000fd5b600081519050919050565b600082825260208201905092915050565b60006132c18261329a565b6132cb81856132a5565b93506132db8185602086016122fa565b6132e48161232d565b840191505092915050565b600060808201905061330460008301876121e5565b61331160208301866121e5565b61331e6040830185612189565b818103606083015261333081846132b6565b905095945050505050565b60008151905061334a8161224f565b92915050565b60006020828403121561336657613365612219565b5b60006133748482850161333b565b9150509291505056fea264697066735822122066b27f6f3babd3ffcea1818e53788d77bc6f8299514666d47378c7b6ef267f6264736f6c634300080e0033",
    "linkReferences": {},
    "deployedLinkReferences": {}
}