{
  "address": "0x57BbeC6b2178F4a62CEB054f2C5eB65880fE99Cd",
  "abi": [
    {
      "inputs": [],
      "name": "Already__Registered",
      "type": "error"
    },
    {
      "inputs": [],
      "name": "Not__EnoughAmount",
      "type": "error"
    },
    {
      "inputs": [],
      "name": "Un__Registered",
      "type": "error"
    },
    {
      "inputs": [],
      "name": "Wrong__User",
      "type": "error"
    },
    {
      "anonymous": false,
      "inputs": [
        {
          "indexed": true,
          "internalType": "address",
          "name": "messageSender",
          "type": "address"
        },
        {
          "indexed": false,
          "internalType": "uint256",
          "name": "signetId",
          "type": "uint256"
        },
        {
          "indexed": false,
          "internalType": "uint256",
          "name": "time",
          "type": "uint256"
        }
      ],
      "name": "MessageDeleted",
      "type": "event"
    },
    {
      "anonymous": false,
      "inputs": [
        {
          "indexed": true,
          "internalType": "address",
          "name": "messageSender",
          "type": "address"
        },
        {
          "indexed": false,
          "internalType": "uint256",
          "name": "messageId",
          "type": "uint256"
        },
        {
          "indexed": false,
          "internalType": "uint256",
          "name": "signetId",
          "type": "uint256"
        },
        {
          "indexed": false,
          "internalType": "string",
          "name": "tokenURI_",
          "type": "string"
        },
        {
          "indexed": false,
          "internalType": "uint256",
          "name": "time",
          "type": "uint256"
        }
      ],
      "name": "NewMessageSent",
      "type": "event"
    },
    {
      "anonymous": false,
      "inputs": [
        {
          "indexed": true,
          "internalType": "address",
          "name": "userAddress",
          "type": "address"
        },
        {
          "indexed": true,
          "internalType": "uint256",
          "name": "userId",
          "type": "uint256"
        },
        {
          "indexed": false,
          "internalType": "bytes",
          "name": "userSig",
          "type": "bytes"
        },
        {
          "indexed": true,
          "internalType": "uint256",
          "name": "timeRegistered",
          "type": "uint256"
        }
      ],
      "name": "UserRegistered",
      "type": "event"
    },
    {
      "inputs": [
        {
          "internalType": "uint256",
          "name": "tokenId",
          "type": "uint256"
        }
      ],
      "name": "deleteMessage",
      "outputs": [
        {
          "internalType": "bool",
          "name": "success",
          "type": "bool"
        }
      ],
      "stateMutability": "nonpayable",
      "type": "function"
    },
    {
      "inputs": [
        {
          "internalType": "string",
          "name": "_name",
          "type": "string"
        },
        {
          "internalType": "string",
          "name": "_version",
          "type": "string"
        },
        {
          "internalType": "address",
          "name": "from",
          "type": "address"
        },
        {
          "internalType": "string",
          "name": "_notice",
          "type": "string"
        },
        {
          "internalType": "bytes",
          "name": "_signature",
          "type": "bytes"
        }
      ],
      "name": "register",
      "outputs": [],
      "stateMutability": "nonpayable",
      "type": "function"
    },
    {
      "inputs": [
        {
          "internalType": "string",
          "name": "tokenURI_",
          "type": "string"
        }
      ],
      "name": "sendMessage",
      "outputs": [
        {
          "internalType": "bool",
          "name": "success",
          "type": "bool"
        }
      ],
      "stateMutability": "payable",
      "type": "function"
    }
  ],
  "transactionHash": "0x95d8260716931140c74ad02a73d2d703e2145c59e002cac6b9ddbdf729039028",
  "args": [],
  "numDeployments": 1,
  "solcInputHash": "ffcf898ede1fb7e7a9698f2494d98ec3",
  "bytecode": "0x608060405234801561001057600080fd5b506115ec806100206000396000f3fe6080604052600436106100345760003560e01c806301d3ac5f14610039578063469c811014610062578063b888690a14610092575b600080fd5b34801561004557600080fd5b50610060600480360381019061005b9190610cdc565b6100cf565b005b61007c60048036038101906100779190610f19565b6101fd565b6040516100899190610f7d565b60405180910390f35b34801561009e57600080fd5b506100b960048036038101906100b49190610fce565b61038a565b6040516100c69190610f7d565b60405180910390f35b600115156100dc336104a8565b15151415610116576040517fef889f1b00000000000000000000000000000000000000000000000000000000815260040160405180910390fd5b600061012a8a8a8a8a8a308b8b8b8b61050f565b90503373ffffffffffffffffffffffffffffffffffffffff168173ffffffffffffffffffffffffffffffffffffffff1614610191576040517ff2dc14c500000000000000000000000000000000000000000000000000000000815260040160405180910390fd5b600061019c336105e2565b905042813373ffffffffffffffffffffffffffffffffffffffff167fff055cb4083448a58b48297be71fde506f76ff7bb9c5c743eb92dc34dbfe70c487876040516101e8929190611039565b60405180910390a45050505050505050505050565b600080151561020b336104a8565b15151415610245576040517fa109b23000000000000000000000000000000000000000000000000000000000815260040160405180910390fd5b61024d610671565b341015610286576040517fda6aaa0400000000000000000000000000000000000000000000000000000000815260040160405180910390fd5b600061029061068c565b73ffffffffffffffffffffffffffffffffffffffff1663de6f24bb33856040518363ffffffff1660e01b81526004016102ca9291906110f4565b602060405180830381600087803b1580156102e457600080fd5b505af11580156102f8573d6000803e3d6000fd5b505050506040513d601f19601f8201168201806040525081019061031c9190611139565b90506000610329336106c4565b90503373ffffffffffffffffffffffffffffffffffffffff167fb8e1da2a43e6217727c7f1b602feb0e1bc5fef0b74c0ad5fac5cecc7ffe7322a838387426040516103779493929190611175565b60405180910390a2600192505050919050565b6000801515610398336104a8565b151514156103d2576040517fa109b23000000000000000000000000000000000000000000000000000000000815260040160405180910390fd5b6103da61068c565b73ffffffffffffffffffffffffffffffffffffffff16636704e98133846040518363ffffffff1660e01b81526004016104149291906111c1565b600060405180830381600087803b15801561042e57600080fd5b505af1158015610442573d6000803e3d6000fd5b5050505061044f33610748565b3373ffffffffffffffffffffffffffffffffffffffff167fd2f5cad582c793e87c10f9f6f1eef2f28c2815246da7c0d3c6ac5db65a7efa2f83426040516104979291906111ea565b60405180910390a260019050919050565b6000806104b36107ab565b90508060180160000160008473ffffffffffffffffffffffffffffffffffffffff1673ffffffffffffffffffffffffffffffffffffffff16815260200190815260200160002060009054906101000a900460ff16915050919050565b6000808b8b604051610522929190611243565b6040518091039020905060008a8a60405161053e929190611243565b6040518091039020905060007f8b73c3c69bb8fe3d512ecc4cf759cc79239f7b179b0ffacaa9a75d522b39400f9050600061057e8484848e8e8e8e6107d8565b90506105ce8188888080601f016020809104026020016040519081016040528093929190818152602001838380828437600081840152601f19601f82011690508083019250505050505050610856565b9450505050509a9950505050505050505050565b6000806105ed6107ab565b905060018160180160000160008573ffffffffffffffffffffffffffffffffffffffff1673ffffffffffffffffffffffffffffffffffffffff16815260200190815260200160002060006101000a81548160ff02191690831515021790555080601a01600001600081546001019190508190555080601a0160000154915050919050565b60008061067c6107ab565b905080601a016004015491505090565b6000806106976107ab565b90508060220160019054906101000a900473ffffffffffffffffffffffffffffffffffffffff1691505090565b6000806106cf6107ab565b905080601a0160010160008154600101919050819055508060180160010160008473ffffffffffffffffffffffffffffffffffffffff1673ffffffffffffffffffffffffffffffffffffffff168152602001908152602001600020600081546001019190508190555080601a0160010154915050919050565b60006107526107ab565b90508060180160010160008373ffffffffffffffffffffffffffffffffffffffff1673ffffffffffffffffffffffffffffffffffffffff1681526020019081526020016000206000815460019003919050819055505050565b6000807f0b7cd5ad917e0ed6e2cd0c1b94ff4beaebb02b4d2d511ede3c9172a0ee7d946590508091505090565b60006108497f78467a64627b3c2cea4682c6768176fe0244cb633bad210e834403a41b6404f786868686604051610810929190611243565b604051809103902060405160200161082b9493929190611275565b6040516020818303038152906040528051906020012089898961087d565b9050979650505050505050565b600080600061086585856108bc565b915091506108728161090e565b819250505092915050565b600061088a848484610a7c565b8560405160200161089c929190611332565b604051602081830303815290604052805190602001209050949350505050565b6000806041835114156108fe5760008060006020860151925060408601519150606086015160001a90506108f287828585610a92565b94509450505050610907565b60006002915091505b9250929050565b6000600481111561092257610921611369565b5b81600481111561093557610934611369565b5b141561094057610a79565b6001600481111561095457610953611369565b5b81600481111561096757610966611369565b5b14156109a8576040517f08c379a000000000000000000000000000000000000000000000000000000000815260040161099f906113e4565b60405180910390fd5b600260048111156109bc576109bb611369565b5b8160048111156109cf576109ce611369565b5b1415610a10576040517f08c379a0000000000000000000000000000000000000000000000000000000008152600401610a0790611450565b60405180910390fd5b60036004811115610a2457610a23611369565b5b816004811115610a3757610a36611369565b5b1415610a78576040517f08c379a0000000000000000000000000000000000000000000000000000000008152600401610a6f906114e2565b60405180910390fd5b5b50565b6000610a89828585610b75565b90509392505050565b6000807f7fffffffffffffffffffffffffffffff5d576e7357a4501ddfe92f46681b20a08360001c1115610acd576000600391509150610b6c565b600060018787878760405160008152602001604052604051610af2949392919061151e565b6020604051602081039080840390855afa158015610b14573d6000803e3d6000fd5b505050602060405103519050600073ffffffffffffffffffffffffffffffffffffffff168173ffffffffffffffffffffffffffffffffffffffff161415610b6357600060019250925050610b6c565b80600092509250505b94509492505050565b60008383834630604051602001610b90959493929190611563565b6040516020818303038152906040528051906020012090509392505050565b6000604051905090565b600080fd5b600080fd5b600080fd5b600080fd5b600080fd5b60008083601f840112610be857610be7610bc3565b5b8235905067ffffffffffffffff811115610c0557610c04610bc8565b5b602083019150836001820283011115610c2157610c20610bcd565b5b9250929050565b600073ffffffffffffffffffffffffffffffffffffffff82169050919050565b6000610c5382610c28565b9050919050565b610c6381610c48565b8114610c6e57600080fd5b50565b600081359050610c8081610c5a565b92915050565b60008083601f840112610c9c57610c9b610bc3565b5b8235905067ffffffffffffffff811115610cb957610cb8610bc8565b5b602083019150836001820283011115610cd557610cd4610bcd565b5b9250929050565b600080600080600080600080600060a08a8c031215610cfe57610cfd610bb9565b5b60008a013567ffffffffffffffff811115610d1c57610d1b610bbe565b5b610d288c828d01610bd2565b995099505060208a013567ffffffffffffffff811115610d4b57610d4a610bbe565b5b610d578c828d01610bd2565b97509750506040610d6a8c828d01610c71565b95505060608a013567ffffffffffffffff811115610d8b57610d8a610bbe565b5b610d978c828d01610bd2565b945094505060808a013567ffffffffffffffff811115610dba57610db9610bbe565b5b610dc68c828d01610c86565b92509250509295985092959850929598565b600080fd5b6000601f19601f8301169050919050565b7f4e487b7100000000000000000000000000000000000000000000000000000000600052604160045260246000fd5b610e2682610ddd565b810181811067ffffffffffffffff82111715610e4557610e44610dee565b5b80604052505050565b6000610e58610baf565b9050610e648282610e1d565b919050565b600067ffffffffffffffff821115610e8457610e83610dee565b5b610e8d82610ddd565b9050602081019050919050565b82818337600083830152505050565b6000610ebc610eb784610e69565b610e4e565b905082815260208101848484011115610ed857610ed7610dd8565b5b610ee3848285610e9a565b509392505050565b600082601f830112610f0057610eff610bc3565b5b8135610f10848260208601610ea9565b91505092915050565b600060208284031215610f2f57610f2e610bb9565b5b600082013567ffffffffffffffff811115610f4d57610f4c610bbe565b5b610f5984828501610eeb565b91505092915050565b60008115159050919050565b610f7781610f62565b82525050565b6000602082019050610f926000830184610f6e565b92915050565b6000819050919050565b610fab81610f98565b8114610fb657600080fd5b50565b600081359050610fc881610fa2565b92915050565b600060208284031215610fe457610fe3610bb9565b5b6000610ff284828501610fb9565b91505092915050565b600082825260208201905092915050565b60006110188385610ffb565b9350611025838584610e9a565b61102e83610ddd565b840190509392505050565b6000602082019050818103600083015261105481848661100c565b90509392505050565b61106681610c48565b82525050565b600081519050919050565b600082825260208201905092915050565b60005b838110156110a657808201518184015260208101905061108b565b838111156110b5576000848401525b50505050565b60006110c68261106c565b6110d08185611077565b93506110e0818560208601611088565b6110e981610ddd565b840191505092915050565b6000604082019050611109600083018561105d565b818103602083015261111b81846110bb565b90509392505050565b60008151905061113381610fa2565b92915050565b60006020828403121561114f5761114e610bb9565b5b600061115d84828501611124565b91505092915050565b61116f81610f98565b82525050565b600060808201905061118a6000830187611166565b6111976020830186611166565b81810360408301526111a981856110bb565b90506111b86060830184611166565b95945050505050565b60006040820190506111d6600083018561105d565b6111e36020830184611166565b9392505050565b60006040820190506111ff6000830185611166565b61120c6020830184611166565b9392505050565b600081905092915050565b600061122a8385611213565b9350611237838584610e9a565b82840190509392505050565b600061125082848661121e565b91508190509392505050565b6000819050919050565b61126f8161125c565b82525050565b600060808201905061128a6000830187611266565b611297602083018661105d565b6112a4604083018561105d565b6112b16060830184611266565b95945050505050565b600081905092915050565b7f1901000000000000000000000000000000000000000000000000000000000000600082015250565b60006112fb6002836112ba565b9150611306826112c5565b600282019050919050565b6000819050919050565b61132c6113278261125c565b611311565b82525050565b600061133d826112ee565b9150611349828561131b565b602082019150611359828461131b565b6020820191508190509392505050565b7f4e487b7100000000000000000000000000000000000000000000000000000000600052602160045260246000fd5b7f45434453413a20696e76616c6964207369676e61747572650000000000000000600082015250565b60006113ce601883611077565b91506113d982611398565b602082019050919050565b600060208201905081810360008301526113fd816113c1565b9050919050565b7f45434453413a20696e76616c6964207369676e6174757265206c656e67746800600082015250565b600061143a601f83611077565b915061144582611404565b602082019050919050565b600060208201905081810360008301526114698161142d565b9050919050565b7f45434453413a20696e76616c6964207369676e6174757265202773272076616c60008201527f7565000000000000000000000000000000000000000000000000000000000000602082015250565b60006114cc602283611077565b91506114d782611470565b604082019050919050565b600060208201905081810360008301526114fb816114bf565b9050919050565b600060ff82169050919050565b61151881611502565b82525050565b60006080820190506115336000830187611266565b611540602083018661150f565b61154d6040830185611266565b61155a6060830184611266565b95945050505050565b600060a0820190506115786000830188611266565b6115856020830187611266565b6115926040830186611266565b61159f6060830185611166565b6115ac608083018461105d565b969550505050505056fea26469706673582212201a717c292b337fc393a3905adb58807ff4d8442a76f5c4120edee9bd3d061bb564736f6c63430008090033",
  "devdoc": {
    "kind": "dev",
    "methods": {},
    "version": 1
  },
  "userdoc": {
    "kind": "user",
    "methods": {},
    "version": 1
  },
  "storageLayout": {
    "storage": [
      {
        "astId": 1721,
        "contract": "contracts/ControllorFacet.sol:ControllorFacet",
        "label": "s",
        "offset": 0,
        "slot": "0",
        "type": "t_struct(AppStorage)9149_storage"
      }
    ],
    "types": {
      "t_address": {
        "encoding": "inplace",
        "label": "address",
        "numberOfBytes": "20"
      },
      "t_array(t_address)dyn_storage": {
        "base": "t_address",
        "encoding": "dynamic_array",
        "label": "address[]",
        "numberOfBytes": "32"
      },
      "t_bool": {
        "encoding": "inplace",
        "label": "bool",
        "numberOfBytes": "1"
      },
      "t_mapping(t_address,t_bool)": {
        "encoding": "mapping",
        "key": "t_address",
        "label": "mapping(address => bool)",
        "numberOfBytes": "32",
        "value": "t_bool"
      },
      "t_mapping(t_address,t_struct(Followers)9189_storage)": {
        "encoding": "mapping",
        "key": "t_address",
        "label": "mapping(address => struct Followers)",
        "numberOfBytes": "32",
        "value": "t_struct(Followers)9189_storage"
      },
      "t_mapping(t_address,t_struct(Following)9196_storage)": {
        "encoding": "mapping",
        "key": "t_address",
        "label": "mapping(address => struct Following)",
        "numberOfBytes": "32",
        "value": "t_struct(Following)9196_storage"
      },
      "t_mapping(t_address,t_struct(nameStruct)9240_storage)": {
        "encoding": "mapping",
        "key": "t_address",
        "label": "mapping(address => struct nameStruct)",
        "numberOfBytes": "32",
        "value": "t_struct(nameStruct)9240_storage"
      },
      "t_mapping(t_address,t_struct(pfpStruct)9251_storage)": {
        "encoding": "mapping",
        "key": "t_address",
        "label": "mapping(address => struct pfpStruct)",
        "numberOfBytes": "32",
        "value": "t_struct(pfpStruct)9251_storage"
      },
      "t_mapping(t_address,t_uint256)": {
        "encoding": "mapping",
        "key": "t_address",
        "label": "mapping(address => uint256)",
        "numberOfBytes": "32",
        "value": "t_uint256"
      },
      "t_mapping(t_string_memory_ptr,t_bool)": {
        "encoding": "mapping",
        "key": "t_string_memory_ptr",
        "label": "mapping(string => bool)",
        "numberOfBytes": "32",
        "value": "t_bool"
      },
      "t_mapping(t_uint256,t_struct(signetinfo)9208_storage)": {
        "encoding": "mapping",
        "key": "t_uint256",
        "label": "mapping(uint256 => struct signetinfo)",
        "numberOfBytes": "32",
        "value": "t_struct(signetinfo)9208_storage"
      },
      "t_string_memory_ptr": {
        "encoding": "bytes",
        "label": "string",
        "numberOfBytes": "32"
      },
      "t_string_storage": {
        "encoding": "bytes",
        "label": "string",
        "numberOfBytes": "32"
      },
      "t_struct(AppStorage)9149_storage": {
        "encoding": "inplace",
        "label": "struct AppStorage",
        "members": [
          {
            "astId": 9115,
            "contract": "contracts/ControllorFacet.sol:ControllorFacet",
            "label": "ps",
            "offset": 0,
            "slot": "0",
            "type": "t_struct(profileStruct)9235_storage"
          },
          {
            "astId": 9118,
            "contract": "contracts/ControllorFacet.sol:ControllorFacet",
            "label": "ns",
            "offset": 0,
            "slot": "2",
            "type": "t_struct(nameStruct)9240_storage"
          },
          {
            "astId": 9121,
            "contract": "contracts/ControllorFacet.sol:ControllorFacet",
            "label": "pfps",
            "offset": 0,
            "slot": "4",
            "type": "t_struct(pfpStruct)9251_storage"
          },
          {
            "astId": 9124,
            "contract": "contracts/ControllorFacet.sol:ControllorFacet",
            "label": "pm",
            "offset": 0,
            "slot": "9",
            "type": "t_struct(profilemap)9266_storage"
          },
          {
            "astId": 9127,
            "contract": "contracts/ControllorFacet.sol:ControllorFacet",
            "label": "flwr",
            "offset": 0,
            "slot": "12",
            "type": "t_struct(Followers)9189_storage"
          },
          {
            "astId": 9130,
            "contract": "contracts/ControllorFacet.sol:ControllorFacet",
            "label": "flwi",
            "offset": 0,
            "slot": "14",
            "type": "t_struct(Following)9196_storage"
          },
          {
            "astId": 9133,
            "contract": "contracts/ControllorFacet.sol:ControllorFacet",
            "label": "signetinfo",
            "offset": 0,
            "slot": "16",
            "type": "t_struct(signetinfo)9208_storage"
          },
          {
            "astId": 9136,
            "contract": "contracts/ControllorFacet.sol:ControllorFacet",
            "label": "fm",
            "offset": 0,
            "slot": "20",
            "type": "t_struct(followMap)9228_storage"
          },
          {
            "astId": 9139,
            "contract": "contracts/ControllorFacet.sol:ControllorFacet",
            "label": "ma",
            "offset": 0,
            "slot": "24",
            "type": "t_struct(mapSignetAddress)9180_storage"
          },
          {
            "astId": 9142,
            "contract": "contracts/ControllorFacet.sol:ControllorFacet",
            "label": "cs",
            "offset": 0,
            "slot": "26",
            "type": "t_struct(controllorStorage)9171_storage"
          },
          {
            "astId": 9144,
            "contract": "contracts/ControllorFacet.sol:ControllorFacet",
            "label": "locked",
            "offset": 0,
            "slot": "34",
            "type": "t_bool"
          },
          {
            "astId": 9146,
            "contract": "contracts/ControllorFacet.sol:ControllorFacet",
            "label": "signetorAddress",
            "offset": 1,
            "slot": "34",
            "type": "t_address"
          },
          {
            "astId": 9148,
            "contract": "contracts/ControllorFacet.sol:ControllorFacet",
            "label": "priceFeedAddress",
            "offset": 0,
            "slot": "35",
            "type": "t_address"
          }
        ],
        "numberOfBytes": "1152"
      },
      "t_struct(Followers)9189_storage": {
        "encoding": "inplace",
        "label": "struct Followers",
        "members": [
          {
            "astId": 9184,
            "contract": "contracts/ControllorFacet.sol:ControllorFacet",
            "label": "followerNum",
            "offset": 0,
            "slot": "0",
            "type": "t_uint256"
          },
          {
            "astId": 9188,
            "contract": "contracts/ControllorFacet.sol:ControllorFacet",
            "label": "whoFollowed",
            "offset": 0,
            "slot": "1",
            "type": "t_mapping(t_address,t_bool)"
          }
        ],
        "numberOfBytes": "64"
      },
      "t_struct(Following)9196_storage": {
        "encoding": "inplace",
        "label": "struct Following",
        "members": [
          {
            "astId": 9191,
            "contract": "contracts/ControllorFacet.sol:ControllorFacet",
            "label": "FollowingNum",
            "offset": 0,
            "slot": "0",
            "type": "t_uint256"
          },
          {
            "astId": 9195,
            "contract": "contracts/ControllorFacet.sol:ControllorFacet",
            "label": "followedWho",
            "offset": 0,
            "slot": "1",
            "type": "t_mapping(t_address,t_bool)"
          }
        ],
        "numberOfBytes": "64"
      },
      "t_struct(controllorStorage)9171_storage": {
        "encoding": "inplace",
        "label": "struct controllorStorage",
        "members": [
          {
            "astId": 9153,
            "contract": "contracts/ControllorFacet.sol:ControllorFacet",
            "label": "totalSignetorsNum",
            "offset": 0,
            "slot": "0",
            "type": "t_uint256"
          },
          {
            "astId": 9155,
            "contract": "contracts/ControllorFacet.sol:ControllorFacet",
            "label": "totalSignetsNum",
            "offset": 0,
            "slot": "1",
            "type": "t_uint256"
          },
          {
            "astId": 9157,
            "contract": "contracts/ControllorFacet.sol:ControllorFacet",
            "label": "appreciateAmount",
            "offset": 0,
            "slot": "2",
            "type": "t_uint256"
          },
          {
            "astId": 9159,
            "contract": "contracts/ControllorFacet.sol:ControllorFacet",
            "label": "commission",
            "offset": 0,
            "slot": "3",
            "type": "t_uint256"
          },
          {
            "astId": 9161,
            "contract": "contracts/ControllorFacet.sol:ControllorFacet",
            "label": "messagePrice",
            "offset": 0,
            "slot": "4",
            "type": "t_uint256"
          },
          {
            "astId": 9163,
            "contract": "contracts/ControllorFacet.sol:ControllorFacet",
            "label": "signetprofileSys",
            "offset": 0,
            "slot": "5",
            "type": "t_address"
          },
          {
            "astId": 9165,
            "contract": "contracts/ControllorFacet.sol:ControllorFacet",
            "label": "signetFollowSys",
            "offset": 0,
            "slot": "6",
            "type": "t_address"
          },
          {
            "astId": 9167,
            "contract": "contracts/ControllorFacet.sol:ControllorFacet",
            "label": "allowTranfer",
            "offset": 20,
            "slot": "6",
            "type": "t_bool"
          },
          {
            "astId": 9170,
            "contract": "contracts/ControllorFacet.sol:ControllorFacet",
            "label": "registerdUserArray",
            "offset": 0,
            "slot": "7",
            "type": "t_array(t_address)dyn_storage"
          }
        ],
        "numberOfBytes": "256"
      },
      "t_struct(followMap)9228_storage": {
        "encoding": "inplace",
        "label": "struct followMap",
        "members": [
          {
            "astId": 9213,
            "contract": "contracts/ControllorFacet.sol:ControllorFacet",
            "label": "follower",
            "offset": 0,
            "slot": "0",
            "type": "t_mapping(t_address,t_struct(Followers)9189_storage)"
          },
          {
            "astId": 9218,
            "contract": "contracts/ControllorFacet.sol:ControllorFacet",
            "label": "following",
            "offset": 0,
            "slot": "1",
            "type": "t_mapping(t_address,t_struct(Following)9196_storage)"
          },
          {
            "astId": 9223,
            "contract": "contracts/ControllorFacet.sol:ControllorFacet",
            "label": "signetState",
            "offset": 0,
            "slot": "2",
            "type": "t_mapping(t_uint256,t_struct(signetinfo)9208_storage)"
          },
          {
            "astId": 9227,
            "contract": "contracts/ControllorFacet.sol:ControllorFacet",
            "label": "Stars",
            "offset": 0,
            "slot": "3",
            "type": "t_mapping(t_address,t_uint256)"
          }
        ],
        "numberOfBytes": "128"
      },
      "t_struct(mapSignetAddress)9180_storage": {
        "encoding": "inplace",
        "label": "struct mapSignetAddress",
        "members": [
          {
            "astId": 9175,
            "contract": "contracts/ControllorFacet.sol:ControllorFacet",
            "label": "register",
            "offset": 0,
            "slot": "0",
            "type": "t_mapping(t_address,t_bool)"
          },
          {
            "astId": 9179,
            "contract": "contracts/ControllorFacet.sol:ControllorFacet",
            "label": "numOfSignetsSent",
            "offset": 0,
            "slot": "1",
            "type": "t_mapping(t_address,t_uint256)"
          }
        ],
        "numberOfBytes": "64"
      },
      "t_struct(nameStruct)9240_storage": {
        "encoding": "inplace",
        "label": "struct nameStruct",
        "members": [
          {
            "astId": 9237,
            "contract": "contracts/ControllorFacet.sol:ControllorFacet",
            "label": "name",
            "offset": 0,
            "slot": "0",
            "type": "t_string_storage"
          },
          {
            "astId": 9239,
            "contract": "contracts/ControllorFacet.sol:ControllorFacet",
            "label": "timeUpdated",
            "offset": 0,
            "slot": "1",
            "type": "t_uint256"
          }
        ],
        "numberOfBytes": "64"
      },
      "t_struct(pfpStruct)9251_storage": {
        "encoding": "inplace",
        "label": "struct pfpStruct",
        "members": [
          {
            "astId": 9242,
            "contract": "contracts/ControllorFacet.sol:ControllorFacet",
            "label": "pfp",
            "offset": 0,
            "slot": "0",
            "type": "t_string_storage"
          },
          {
            "astId": 9244,
            "contract": "contracts/ControllorFacet.sol:ControllorFacet",
            "label": "timeUpdated",
            "offset": 0,
            "slot": "1",
            "type": "t_uint256"
          },
          {
            "astId": 9246,
            "contract": "contracts/ControllorFacet.sol:ControllorFacet",
            "label": "collection",
            "offset": 0,
            "slot": "2",
            "type": "t_address"
          },
          {
            "astId": 9248,
            "contract": "contracts/ControllorFacet.sol:ControllorFacet",
            "label": "tokenId",
            "offset": 0,
            "slot": "3",
            "type": "t_uint256"
          },
          {
            "astId": 9250,
            "contract": "contracts/ControllorFacet.sol:ControllorFacet",
            "label": "typeOf",
            "offset": 0,
            "slot": "4",
            "type": "t_uint256"
          }
        ],
        "numberOfBytes": "160"
      },
      "t_struct(profileStruct)9235_storage": {
        "encoding": "inplace",
        "label": "struct profileStruct",
        "members": [
          {
            "astId": 9232,
            "contract": "contracts/ControllorFacet.sol:ControllorFacet",
            "label": "totalName",
            "offset": 0,
            "slot": "0",
            "type": "t_uint256"
          },
          {
            "astId": 9234,
            "contract": "contracts/ControllorFacet.sol:ControllorFacet",
            "label": "totalpfp",
            "offset": 0,
            "slot": "1",
            "type": "t_uint256"
          }
        ],
        "numberOfBytes": "64"
      },
      "t_struct(profilemap)9266_storage": {
        "encoding": "inplace",
        "label": "struct profilemap",
        "members": [
          {
            "astId": 9256,
            "contract": "contracts/ControllorFacet.sol:ControllorFacet",
            "label": "pfp",
            "offset": 0,
            "slot": "0",
            "type": "t_mapping(t_address,t_struct(pfpStruct)9251_storage)"
          },
          {
            "astId": 9261,
            "contract": "contracts/ControllorFacet.sol:ControllorFacet",
            "label": "name",
            "offset": 0,
            "slot": "1",
            "type": "t_mapping(t_address,t_struct(nameStruct)9240_storage)"
          },
          {
            "astId": 9265,
            "contract": "contracts/ControllorFacet.sol:ControllorFacet",
            "label": "nameused",
            "offset": 0,
            "slot": "2",
            "type": "t_mapping(t_string_memory_ptr,t_bool)"
          }
        ],
        "numberOfBytes": "96"
      },
      "t_struct(signetinfo)9208_storage": {
        "encoding": "inplace",
        "label": "struct signetinfo",
        "members": [
          {
            "astId": 9198,
            "contract": "contracts/ControllorFacet.sol:ControllorFacet",
            "label": "likeNum",
            "offset": 0,
            "slot": "0",
            "type": "t_uint256"
          },
          {
            "astId": 9200,
            "contract": "contracts/ControllorFacet.sol:ControllorFacet",
            "label": "starNum",
            "offset": 0,
            "slot": "1",
            "type": "t_uint256"
          },
          {
            "astId": 9203,
            "contract": "contracts/ControllorFacet.sol:ControllorFacet",
            "label": "starContributors",
            "offset": 0,
            "slot": "2",
            "type": "t_array(t_address)dyn_storage"
          },
          {
            "astId": 9207,
            "contract": "contracts/ControllorFacet.sol:ControllorFacet",
            "label": "likeContributors",
            "offset": 0,
            "slot": "3",
            "type": "t_mapping(t_address,t_bool)"
          }
        ],
        "numberOfBytes": "128"
      },
      "t_uint256": {
        "encoding": "inplace",
        "label": "uint256",
        "numberOfBytes": "32"
      }
    }
  }
}