{
  "address": "0xB92c7b4a25F561Dcfb598a8CDAF4f8310e22bBdB",
  "abi": [
    {
      "inputs": [],
      "name": "Already__Followed",
      "type": "error"
    },
    {
      "inputs": [],
      "name": "Can__NotLike",
      "type": "error"
    },
    {
      "inputs": [],
      "name": "Can__notfollow",
      "type": "error"
    },
    {
      "inputs": [],
      "name": "Never__Followed",
      "type": "error"
    },
    {
      "inputs": [],
      "name": "Not__EnoughAmount",
      "type": "error"
    },
    {
      "inputs": [],
      "name": "Un__Registered",
      "type": "error"
    },
    {
      "inputs": [],
      "name": "Wrong__UserSubmitted",
      "type": "error"
    },
    {
      "anonymous": false,
      "inputs": [
        {
          "indexed": true,
          "internalType": "address",
          "name": "isfollowing",
          "type": "address"
        },
        {
          "indexed": true,
          "internalType": "address",
          "name": "isfollowed",
          "type": "address"
        },
        {
          "indexed": false,
          "internalType": "uint256",
          "name": "time",
          "type": "uint256"
        }
      ],
      "name": "Followed",
      "type": "event"
    },
    {
      "anonymous": false,
      "inputs": [
        {
          "indexed": true,
          "internalType": "address",
          "name": "messageSender",
          "type": "address"
        },
        {
          "indexed": false,
          "internalType": "uint256",
          "name": "signetId",
          "type": "uint256"
        },
        {
          "indexed": true,
          "internalType": "address",
          "name": "signetoraddress",
          "type": "address"
        },
        {
          "indexed": false,
          "internalType": "uint256",
          "name": "time",
          "type": "uint256"
        }
      ],
      "name": "Liked",
      "type": "event"
    },
    {
      "anonymous": false,
      "inputs": [
        {
          "indexed": true,
          "internalType": "address",
          "name": "messageSender",
          "type": "address"
        },
        {
          "indexed": false,
          "internalType": "uint256",
          "name": "signetId",
          "type": "uint256"
        },
        {
          "indexed": true,
          "internalType": "address",
          "name": "signetoraddress",
          "type": "address"
        },
        {
          "indexed": false,
          "internalType": "uint256",
          "name": "time",
          "type": "uint256"
        }
      ],
      "name": "Stared",
      "type": "event"
    },
    {
      "anonymous": false,
      "inputs": [
        {
          "indexed": true,
          "internalType": "address",
          "name": "isunfollowing",
          "type": "address"
        },
        {
          "indexed": true,
          "internalType": "address",
          "name": "isunfollowed",
          "type": "address"
        },
        {
          "indexed": false,
          "internalType": "uint256",
          "name": "time",
          "type": "uint256"
        }
      ],
      "name": "UnFollowed",
      "type": "event"
    },
    {
      "anonymous": false,
      "inputs": [
        {
          "indexed": true,
          "internalType": "address",
          "name": "messageSender",
          "type": "address"
        },
        {
          "indexed": false,
          "internalType": "uint256",
          "name": "signetId",
          "type": "uint256"
        },
        {
          "indexed": true,
          "internalType": "address",
          "name": "signetoraddress",
          "type": "address"
        },
        {
          "indexed": false,
          "internalType": "uint256",
          "name": "time",
          "type": "uint256"
        }
      ],
      "name": "Unlike",
      "type": "event"
    },
    {
      "inputs": [
        {
          "internalType": "address",
          "name": "signetor",
          "type": "address"
        },
        {
          "internalType": "address",
          "name": "followersaddress",
          "type": "address"
        }
      ],
      "name": "checkfollowed",
      "outputs": [
        {
          "internalType": "bool",
          "name": "",
          "type": "bool"
        }
      ],
      "stateMutability": "view",
      "type": "function"
    },
    {
      "inputs": [
        {
          "internalType": "uint256",
          "name": "signetID",
          "type": "uint256"
        },
        {
          "internalType": "address",
          "name": "likedAddress",
          "type": "address"
        }
      ],
      "name": "checkliked",
      "outputs": [
        {
          "internalType": "bool",
          "name": "",
          "type": "bool"
        }
      ],
      "stateMutability": "view",
      "type": "function"
    },
    {
      "inputs": [
        {
          "internalType": "address",
          "name": "signetor",
          "type": "address"
        }
      ],
      "name": "follow",
      "outputs": [],
      "stateMutability": "nonpayable",
      "type": "function"
    },
    {
      "inputs": [
        {
          "internalType": "address",
          "name": "signetor",
          "type": "address"
        }
      ],
      "name": "getFollowersNum",
      "outputs": [
        {
          "internalType": "uint256",
          "name": "",
          "type": "uint256"
        }
      ],
      "stateMutability": "view",
      "type": "function"
    },
    {
      "inputs": [
        {
          "internalType": "address",
          "name": "signetor",
          "type": "address"
        }
      ],
      "name": "getFollowingsNum",
      "outputs": [
        {
          "internalType": "uint256",
          "name": "",
          "type": "uint256"
        }
      ],
      "stateMutability": "view",
      "type": "function"
    },
    {
      "inputs": [
        {
          "internalType": "uint256",
          "name": "signetId",
          "type": "uint256"
        }
      ],
      "name": "getLikedNum",
      "outputs": [
        {
          "internalType": "uint256",
          "name": "",
          "type": "uint256"
        }
      ],
      "stateMutability": "view",
      "type": "function"
    },
    {
      "inputs": [
        {
          "internalType": "uint256",
          "name": "signetId",
          "type": "uint256"
        }
      ],
      "name": "getStarContributor",
      "outputs": [
        {
          "internalType": "address[]",
          "name": "",
          "type": "address[]"
        }
      ],
      "stateMutability": "view",
      "type": "function"
    },
    {
      "inputs": [
        {
          "internalType": "uint256",
          "name": "signetId",
          "type": "uint256"
        }
      ],
      "name": "getStaredNum",
      "outputs": [
        {
          "internalType": "uint256",
          "name": "",
          "type": "uint256"
        }
      ],
      "stateMutability": "view",
      "type": "function"
    },
    {
      "inputs": [
        {
          "internalType": "address",
          "name": "signetor",
          "type": "address"
        }
      ],
      "name": "getStaredNumForSignetor",
      "outputs": [
        {
          "internalType": "uint256",
          "name": "",
          "type": "uint256"
        }
      ],
      "stateMutability": "view",
      "type": "function"
    },
    {
      "inputs": [
        {
          "internalType": "uint256",
          "name": "signetId",
          "type": "uint256"
        },
        {
          "internalType": "address",
          "name": "signetIdOwner",
          "type": "address"
        }
      ],
      "name": "like",
      "outputs": [],
      "stateMutability": "nonpayable",
      "type": "function"
    },
    {
      "inputs": [
        {
          "internalType": "address",
          "name": "signetIdOwner",
          "type": "address"
        },
        {
          "internalType": "uint256",
          "name": "signetId",
          "type": "uint256"
        }
      ],
      "name": "star",
      "outputs": [],
      "stateMutability": "payable",
      "type": "function"
    },
    {
      "inputs": [
        {
          "internalType": "address",
          "name": "signetor",
          "type": "address"
        }
      ],
      "name": "unfollow",
      "outputs": [],
      "stateMutability": "nonpayable",
      "type": "function"
    },
    {
      "inputs": [
        {
          "internalType": "uint256",
          "name": "signetId",
          "type": "uint256"
        },
        {
          "internalType": "address",
          "name": "signetIdOwner",
          "type": "address"
        }
      ],
      "name": "unlike",
      "outputs": [],
      "stateMutability": "nonpayable",
      "type": "function"
    }
  ],
  "transactionHash": "0x06b9de717abd78d1932f51ec9b6c156a3c57704af433924a08ccdd94a88f89b6",
  "args": [],
  "numDeployments": 1,
  "solcInputHash": "ffcf898ede1fb7e7a9698f2494d98ec3",
  "bytecode": "0x608060405234801561001057600080fd5b506120d4806100206000396000f3fe6080604052600436106100c25760003560e01c806352dcdf7e1161007f57806376e262f51161005957806376e262f5146102b05780637ce11598146102ed578063abf723fe14610309578063b20be2f614610346576100c2565b806352dcdf7e146101f957806369ff24ed146102365780636c31555614610273576100c2565b8063015a4ead146100c75780631e59cebb146100f0578063292d8f061461012d57806330c9514a1461016a578063429a9aaa146101a75780634dbf27cc146101d0575b600080fd5b3480156100d357600080fd5b506100ee60048036038101906100e991906119a4565b61036f565b005b3480156100fc57600080fd5b5061011760048036038101906101129190611a07565b6104d6565b6040516101249190611af2565b60405180910390f35b34801561013957600080fd5b50610154600480360381019061014f9190611b14565b6104e8565b6040516101619190611b6f565b60405180910390f35b34801561017657600080fd5b50610191600480360381019061018c9190611a07565b6104fc565b60405161019e9190611b99565b60405180910390f35b3480156101b357600080fd5b506101ce60048036038101906101c99190611bb4565b61050e565b005b3480156101dc57600080fd5b506101f760048036038101906101f291906119a4565b610678565b005b34801561020557600080fd5b50610220600480360381019061021b91906119a4565b6107df565b60405161022d9190611b99565b60405180910390f35b34801561024257600080fd5b5061025d600480360381019061025891906119a4565b6107f1565b60405161026a9190611b99565b60405180910390f35b34801561027f57600080fd5b5061029a60048036038101906102959190611a07565b610803565b6040516102a79190611b99565b60405180910390f35b3480156102bc57600080fd5b506102d760048036038101906102d29190611bb4565b610815565b6040516102e49190611b6f565b60405180910390f35b61030760048036038101906103029190611bf4565b610829565b005b34801561031557600080fd5b50610330600480360381019061032b91906119a4565b610a98565b60405161033d9190611b99565b60405180910390f35b34801561035257600080fd5b5061036d60048036038101906103689190611bb4565b610aaa565b005b6000151561037c33610c14565b151514156103b6576040517fa109b23000000000000000000000000000000000000000000000000000000000815260040160405180910390fd5b8073ffffffffffffffffffffffffffffffffffffffff163373ffffffffffffffffffffffffffffffffffffffff16141561041c576040517f81db306400000000000000000000000000000000000000000000000000000000815260040160405180910390fd5b6000151561042a82336104e8565b15151415610464576040517fd4b1512b00000000000000000000000000000000000000000000000000000000815260040160405180910390fd5b61046e3382610c7b565b8073ffffffffffffffffffffffffffffffffffffffff163373ffffffffffffffffffffffffffffffffffffffff167f20d306252ff521b1e4d2cb81e0d733ec8d0afde3ab6ccbfee9d975179fc95454426040516104cb9190611b99565b60405180910390a350565b60606104e182610e72565b9050919050565b60006104f48383610f28565b905092915050565b600061050782610fd0565b9050919050565b6000151561051b33610c14565b15151415610555576040517fa109b23000000000000000000000000000000000000000000000000000000000815260040160405180910390fd5b8073ffffffffffffffffffffffffffffffffffffffff163373ffffffffffffffffffffffffffffffffffffffff1614156105bb576040517f6ba1f36f00000000000000000000000000000000000000000000000000000000815260040160405180910390fd5b600015156105c98284611001565b15151415610603576040517f35c940b500000000000000000000000000000000000000000000000000000000815260040160405180910390fd5b61060d3383611015565b8073ffffffffffffffffffffffffffffffffffffffff163373ffffffffffffffffffffffffffffffffffffffff167f5af3a717d9ca42ddabc7791e4a0910e15568f7a6ccc2e113f9693782badcdd58844260405161066c929190611c34565b60405180910390a35050565b6000151561068533610c14565b151514156106bf576040517fa109b23000000000000000000000000000000000000000000000000000000000815260040160405180910390fd5b8073ffffffffffffffffffffffffffffffffffffffff163373ffffffffffffffffffffffffffffffffffffffff161415610725576040517f81db306400000000000000000000000000000000000000000000000000000000815260040160405180910390fd5b6001151561073382336104e8565b1515141561076d576040517f9f5ae48900000000000000000000000000000000000000000000000000000000815260040160405180910390fd5b61077733826110c1565b8073ffffffffffffffffffffffffffffffffffffffff163373ffffffffffffffffffffffffffffffffffffffff167f3c6c72719f49f1721deae7d1e022c10b064d4ce00a2d007ee158f1ea9aca4139426040516107d49190611b99565b60405180910390a350565b60006107ea826112b6565b9050919050565b60006107fc82611313565b9050919050565b600061080e82611370565b9050919050565b600061082183836113a1565b905092915050565b6000151561083633610c14565b15151415610870576040517fa109b23000000000000000000000000000000000000000000000000000000000815260040160405180910390fd5b8173ffffffffffffffffffffffffffffffffffffffff163373ffffffffffffffffffffffffffffffffffffffff1614156108d6576040517f6ba1f36f00000000000000000000000000000000000000000000000000000000815260040160405180910390fd5b600015156108e48383611001565b1515141561091e576040517f35c940b500000000000000000000000000000000000000000000000000000000815260040160405180910390fd5b61092661141d565b61092f34611438565b1015610967576040517fda6aaa0400000000000000000000000000000000000000000000000000000000815260040160405180910390fd5b6109723383836114a4565b600061097d346115ad565b905060008373ffffffffffffffffffffffffffffffffffffffff16826040516109a590611c8e565b60006040518083038185875af1925050503d80600081146109e2576040519150601f19603f3d011682016040523d82523d6000602084013e6109e7565b606091505b5050905080610a2b576040517f08c379a0000000000000000000000000000000000000000000000000000000008152600401610a2290611d00565b60405180910390fd5b8373ffffffffffffffffffffffffffffffffffffffff163373ffffffffffffffffffffffffffffffffffffffff167f4985f55a2f28c7fdaaf7c572270a9c26a8dc8060aa387556323af03e3a2501628542604051610a8a929190611c34565b60405180910390a350505050565b6000610aa3826115f2565b9050919050565b60001515610ab733610c14565b15151415610af1576040517fa109b23000000000000000000000000000000000000000000000000000000000815260040160405180910390fd5b8073ffffffffffffffffffffffffffffffffffffffff163373ffffffffffffffffffffffffffffffffffffffff161415610b57576040517f6ba1f36f00000000000000000000000000000000000000000000000000000000815260040160405180910390fd5b60001515610b658284611001565b15151415610b9f576040517f35c940b500000000000000000000000000000000000000000000000000000000815260040160405180910390fd5b610ba9338361164c565b8073ffffffffffffffffffffffffffffffffffffffff163373ffffffffffffffffffffffffffffffffffffffff167f4ab2b086717007ed33b9d96923bc9fd0cab235296de137f5f66c4e97a766a7f28442604051610c08929190611c34565b60405180910390a35050565b600080610c1f6116f7565b90508060180160000160008473ffffffffffffffffffffffffffffffffffffffff1673ffffffffffffffffffffffffffffffffffffffff16815260200190815260200160002060009054906101000a900460ff16915050919050565b6000610c856116f7565b90508060140160000160008373ffffffffffffffffffffffffffffffffffffffff1673ffffffffffffffffffffffffffffffffffffffff16815260200190815260200160002060000160008154600190039190508190555060008160140160000160008473ffffffffffffffffffffffffffffffffffffffff1673ffffffffffffffffffffffffffffffffffffffff16815260200190815260200160002060010160008573ffffffffffffffffffffffffffffffffffffffff1673ffffffffffffffffffffffffffffffffffffffff16815260200190815260200160002060006101000a81548160ff0219169083151502179055508060140160010160008473ffffffffffffffffffffffffffffffffffffffff1673ffffffffffffffffffffffffffffffffffffffff16815260200190815260200160002060000160008154600190039190508190555060008160140160010160008573ffffffffffffffffffffffffffffffffffffffff1673ffffffffffffffffffffffffffffffffffffffff16815260200190815260200160002060010160008473ffffffffffffffffffffffffffffffffffffffff1673ffffffffffffffffffffffffffffffffffffffff16815260200190815260200160002060006101000a81548160ff021916908315150217905550505050565b60606000610e7e6116f7565b9050806014016002016000848152602001908152602001600020600201805480602002602001604051908101604052809291908181526020018280548015610f1b57602002820191906000526020600020905b8160009054906101000a900473ffffffffffffffffffffffffffffffffffffffff1673ffffffffffffffffffffffffffffffffffffffff1681526020019060010190808311610ed1575b5050505050915050919050565b600080610f336116f7565b90508060140160000160008573ffffffffffffffffffffffffffffffffffffffff1673ffffffffffffffffffffffffffffffffffffffff16815260200190815260200160002060010160008473ffffffffffffffffffffffffffffffffffffffff1673ffffffffffffffffffffffffffffffffffffffff16815260200190815260200160002060009054906101000a900460ff1691505092915050565b600080610fdb6116f7565b905080601401600201600084815260200190815260200160002060000154915050919050565b600061100d8383611724565b905092915050565b600061101f6116f7565b9050806014016002016000838152602001908152602001600020600001600081546001900391905081905550600081601401600201600084815260200190815260200160002060030160008573ffffffffffffffffffffffffffffffffffffffff1673ffffffffffffffffffffffffffffffffffffffff16815260200190815260200160002060006101000a81548160ff021916908315150217905550505050565b60006110cb6116f7565b90508060140160000160008373ffffffffffffffffffffffffffffffffffffffff1673ffffffffffffffffffffffffffffffffffffffff168152602001908152602001600020600001600081546001019190508190555060018160140160000160008473ffffffffffffffffffffffffffffffffffffffff1673ffffffffffffffffffffffffffffffffffffffff16815260200190815260200160002060010160008573ffffffffffffffffffffffffffffffffffffffff1673ffffffffffffffffffffffffffffffffffffffff16815260200190815260200160002060006101000a81548160ff0219169083151502179055508060140160010160008473ffffffffffffffffffffffffffffffffffffffff1673ffffffffffffffffffffffffffffffffffffffff168152602001908152602001600020600001600081546001019190508190555060018160140160010160008573ffffffffffffffffffffffffffffffffffffffff1673ffffffffffffffffffffffffffffffffffffffff16815260200190815260200160002060010160008473ffffffffffffffffffffffffffffffffffffffff1673ffffffffffffffffffffffffffffffffffffffff16815260200190815260200160002060006101000a81548160ff021916908315150217905550505050565b6000806112c16116f7565b90508060140160000160008473ffffffffffffffffffffffffffffffffffffffff1673ffffffffffffffffffffffffffffffffffffffff16815260200190815260200160002060000154915050919050565b60008061131e6116f7565b90508060140160010160008473ffffffffffffffffffffffffffffffffffffffff1673ffffffffffffffffffffffffffffffffffffffff16815260200190815260200160002060000154915050919050565b60008061137b6116f7565b905080601401600201600084815260200190815260200160002060010154915050919050565b6000806113ac6116f7565b905080601401600201600085815260200190815260200160002060030160008473ffffffffffffffffffffffffffffffffffffffff1673ffffffffffffffffffffffffffffffffffffffff16815260200190815260200160002060009054906101000a900460ff1691505092915050565b6000806114286116f7565b905080601a016002015491505090565b600080611443611859565b905060006114748260230160009054906101000a900473ffffffffffffffffffffffffffffffffffffffff16611886565b90506000670de0b6b3a7640000858361148d9190611d4f565b6114979190611dd8565b9050809350505050919050565b60006114ae6116f7565b90508060140160030160008473ffffffffffffffffffffffffffffffffffffffff1673ffffffffffffffffffffffffffffffffffffffff16815260200190815260200160002060008154600101919050819055508060140160020160008381526020019081526020016000206001016000815460010191905081905550806014016002016000838152602001908152602001600020600201849080600181540180825580915050600190039060005260206000200160009091909190916101000a81548173ffffffffffffffffffffffffffffffffffffffff021916908373ffffffffffffffffffffffffffffffffffffffff16021790555050505050565b6000806115b8611926565b905060008160646115c99190611e09565b90506000606490508082866115de9190611d4f565b6115e89190611dd8565b9350505050919050565b6000806115fd6116f7565b90508060140160030160008473ffffffffffffffffffffffffffffffffffffffff1673ffffffffffffffffffffffffffffffffffffffff16815260200190815260200160002054915050919050565b60006116566116f7565b90508060140160020160008381526020019081526020016000206000016000815460010191905081905550600181601401600201600084815260200190815260200160002060030160008573ffffffffffffffffffffffffffffffffffffffff1673ffffffffffffffffffffffffffffffffffffffff16815260200190815260200160002060006101000a81548160ff021916908315150217905550505050565b6000807f0b7cd5ad917e0ed6e2cd0c1b94ff4beaebb02b4d2d511ede3c9172a0ee7d946590508091505090565b60008061172f6116f7565b905080601a0160010154831161184757600081601a0160010154146118425760008314611841578373ffffffffffffffffffffffffffffffffffffffff168160220160019054906101000a900473ffffffffffffffffffffffffffffffffffffffff1673ffffffffffffffffffffffffffffffffffffffff16636352211e856040518263ffffffff1660e01b81526004016117ca9190611b99565b60206040518083038186803b1580156117e257600080fd5b505afa1580156117f6573d6000803e3d6000fd5b505050506040513d601f19601f8201168201806040525081019061181a9190611e52565b73ffffffffffffffffffffffffffffffffffffffff161415611840576001915050611853565b5b5b611851565b6000915050611853565b505b92915050565b6000807f0b7cd5ad917e0ed6e2cd0c1b94ff4beaebb02b4d2d511ede3c9172a0ee7d946590508091505090565b6000808273ffffffffffffffffffffffffffffffffffffffff1663feaf968c6040518163ffffffff1660e01b815260040160a06040518083038186803b1580156118cf57600080fd5b505afa1580156118e3573d6000803e3d6000fd5b505050506040513d601f19601f820116820180604052508101906119079190611f0c565b5050509150506402540be4008161191e9190611f87565b915050919050565b6000806119316116f7565b905080601a016003015491505090565b600080fd5b600073ffffffffffffffffffffffffffffffffffffffff82169050919050565b600061197182611946565b9050919050565b61198181611966565b811461198c57600080fd5b50565b60008135905061199e81611978565b92915050565b6000602082840312156119ba576119b9611941565b5b60006119c88482850161198f565b91505092915050565b6000819050919050565b6119e4816119d1565b81146119ef57600080fd5b50565b600081359050611a01816119db565b92915050565b600060208284031215611a1d57611a1c611941565b5b6000611a2b848285016119f2565b91505092915050565b600081519050919050565b600082825260208201905092915050565b6000819050602082019050919050565b611a6981611966565b82525050565b6000611a7b8383611a60565b60208301905092915050565b6000602082019050919050565b6000611a9f82611a34565b611aa98185611a3f565b9350611ab483611a50565b8060005b83811015611ae5578151611acc8882611a6f565b9750611ad783611a87565b925050600181019050611ab8565b5085935050505092915050565b60006020820190508181036000830152611b0c8184611a94565b905092915050565b60008060408385031215611b2b57611b2a611941565b5b6000611b398582860161198f565b9250506020611b4a8582860161198f565b9150509250929050565b60008115159050919050565b611b6981611b54565b82525050565b6000602082019050611b846000830184611b60565b92915050565b611b93816119d1565b82525050565b6000602082019050611bae6000830184611b8a565b92915050565b60008060408385031215611bcb57611bca611941565b5b6000611bd9858286016119f2565b9250506020611bea8582860161198f565b9150509250929050565b60008060408385031215611c0b57611c0a611941565b5b6000611c198582860161198f565b9250506020611c2a858286016119f2565b9150509250929050565b6000604082019050611c496000830185611b8a565b611c566020830184611b8a565b9392505050565b600081905092915050565b50565b6000611c78600083611c5d565b9150611c8382611c68565b600082019050919050565b6000611c9982611c6b565b9150819050919050565b600082825260208201905092915050565b7f43616c6c206661696c6564000000000000000000000000000000000000000000600082015250565b6000611cea600b83611ca3565b9150611cf582611cb4565b602082019050919050565b60006020820190508181036000830152611d1981611cdd565b9050919050565b7f4e487b7100000000000000000000000000000000000000000000000000000000600052601160045260246000fd5b6000611d5a826119d1565b9150611d65836119d1565b9250817fffffffffffffffffffffffffffffffffffffffffffffffffffffffffffffffff0483118215151615611d9e57611d9d611d20565b5b828202905092915050565b7f4e487b7100000000000000000000000000000000000000000000000000000000600052601260045260246000fd5b6000611de3826119d1565b9150611dee836119d1565b925082611dfe57611dfd611da9565b5b828204905092915050565b6000611e14826119d1565b9150611e1f836119d1565b925082821015611e3257611e31611d20565b5b828203905092915050565b600081519050611e4c81611978565b92915050565b600060208284031215611e6857611e67611941565b5b6000611e7684828501611e3d565b91505092915050565b600069ffffffffffffffffffff82169050919050565b611e9e81611e7f565b8114611ea957600080fd5b50565b600081519050611ebb81611e95565b92915050565b6000819050919050565b611ed481611ec1565b8114611edf57600080fd5b50565b600081519050611ef181611ecb565b92915050565b600081519050611f06816119db565b92915050565b600080600080600060a08688031215611f2857611f27611941565b5b6000611f3688828901611eac565b9550506020611f4788828901611ee2565b9450506040611f5888828901611ef7565b9350506060611f6988828901611ef7565b9250506080611f7a88828901611eac565b9150509295509295909350565b6000611f9282611ec1565b9150611f9d83611ec1565b9250827f7fffffffffffffffffffffffffffffffffffffffffffffffffffffffffffffff0482116000841360008413161615611fdc57611fdb611d20565b5b817f8000000000000000000000000000000000000000000000000000000000000000058312600084126000841316161561201957612018611d20565b5b827f8000000000000000000000000000000000000000000000000000000000000000058212600084136000841216161561205657612055611d20565b5b827f7fffffffffffffffffffffffffffffffffffffffffffffffffffffffffffffff058212600084126000841216161561209357612092611d20565b5b82820290509291505056fea2646970667358221220b1c2a09341d7225b106060898168011cc09ec45442eae286ae29d15ca1e187dc64736f6c63430008090033",
  "devdoc": {
    "kind": "dev",
    "methods": {},
    "version": 1
  },
  "userdoc": {
    "kind": "user",
    "methods": {},
    "version": 1
  },
  "storageLayout": {
    "storage": [
      {
        "astId": 1999,
        "contract": "contracts/FollowFacet.sol:FollowFacet",
        "label": "s",
        "offset": 0,
        "slot": "0",
        "type": "t_struct(AppStorage)9149_storage"
      }
    ],
    "types": {
      "t_address": {
        "encoding": "inplace",
        "label": "address",
        "numberOfBytes": "20"
      },
      "t_array(t_address)dyn_storage": {
        "base": "t_address",
        "encoding": "dynamic_array",
        "label": "address[]",
        "numberOfBytes": "32"
      },
      "t_bool": {
        "encoding": "inplace",
        "label": "bool",
        "numberOfBytes": "1"
      },
      "t_mapping(t_address,t_bool)": {
        "encoding": "mapping",
        "key": "t_address",
        "label": "mapping(address => bool)",
        "numberOfBytes": "32",
        "value": "t_bool"
      },
      "t_mapping(t_address,t_struct(Followers)9189_storage)": {
        "encoding": "mapping",
        "key": "t_address",
        "label": "mapping(address => struct Followers)",
        "numberOfBytes": "32",
        "value": "t_struct(Followers)9189_storage"
      },
      "t_mapping(t_address,t_struct(Following)9196_storage)": {
        "encoding": "mapping",
        "key": "t_address",
        "label": "mapping(address => struct Following)",
        "numberOfBytes": "32",
        "value": "t_struct(Following)9196_storage"
      },
      "t_mapping(t_address,t_struct(nameStruct)9240_storage)": {
        "encoding": "mapping",
        "key": "t_address",
        "label": "mapping(address => struct nameStruct)",
        "numberOfBytes": "32",
        "value": "t_struct(nameStruct)9240_storage"
      },
      "t_mapping(t_address,t_struct(pfpStruct)9251_storage)": {
        "encoding": "mapping",
        "key": "t_address",
        "label": "mapping(address => struct pfpStruct)",
        "numberOfBytes": "32",
        "value": "t_struct(pfpStruct)9251_storage"
      },
      "t_mapping(t_address,t_uint256)": {
        "encoding": "mapping",
        "key": "t_address",
        "label": "mapping(address => uint256)",
        "numberOfBytes": "32",
        "value": "t_uint256"
      },
      "t_mapping(t_string_memory_ptr,t_bool)": {
        "encoding": "mapping",
        "key": "t_string_memory_ptr",
        "label": "mapping(string => bool)",
        "numberOfBytes": "32",
        "value": "t_bool"
      },
      "t_mapping(t_uint256,t_struct(signetinfo)9208_storage)": {
        "encoding": "mapping",
        "key": "t_uint256",
        "label": "mapping(uint256 => struct signetinfo)",
        "numberOfBytes": "32",
        "value": "t_struct(signetinfo)9208_storage"
      },
      "t_string_memory_ptr": {
        "encoding": "bytes",
        "label": "string",
        "numberOfBytes": "32"
      },
      "t_string_storage": {
        "encoding": "bytes",
        "label": "string",
        "numberOfBytes": "32"
      },
      "t_struct(AppStorage)9149_storage": {
        "encoding": "inplace",
        "label": "struct AppStorage",
        "members": [
          {
            "astId": 9115,
            "contract": "contracts/FollowFacet.sol:FollowFacet",
            "label": "ps",
            "offset": 0,
            "slot": "0",
            "type": "t_struct(profileStruct)9235_storage"
          },
          {
            "astId": 9118,
            "contract": "contracts/FollowFacet.sol:FollowFacet",
            "label": "ns",
            "offset": 0,
            "slot": "2",
            "type": "t_struct(nameStruct)9240_storage"
          },
          {
            "astId": 9121,
            "contract": "contracts/FollowFacet.sol:FollowFacet",
            "label": "pfps",
            "offset": 0,
            "slot": "4",
            "type": "t_struct(pfpStruct)9251_storage"
          },
          {
            "astId": 9124,
            "contract": "contracts/FollowFacet.sol:FollowFacet",
            "label": "pm",
            "offset": 0,
            "slot": "9",
            "type": "t_struct(profilemap)9266_storage"
          },
          {
            "astId": 9127,
            "contract": "contracts/FollowFacet.sol:FollowFacet",
            "label": "flwr",
            "offset": 0,
            "slot": "12",
            "type": "t_struct(Followers)9189_storage"
          },
          {
            "astId": 9130,
            "contract": "contracts/FollowFacet.sol:FollowFacet",
            "label": "flwi",
            "offset": 0,
            "slot": "14",
            "type": "t_struct(Following)9196_storage"
          },
          {
            "astId": 9133,
            "contract": "contracts/FollowFacet.sol:FollowFacet",
            "label": "signetinfo",
            "offset": 0,
            "slot": "16",
            "type": "t_struct(signetinfo)9208_storage"
          },
          {
            "astId": 9136,
            "contract": "contracts/FollowFacet.sol:FollowFacet",
            "label": "fm",
            "offset": 0,
            "slot": "20",
            "type": "t_struct(followMap)9228_storage"
          },
          {
            "astId": 9139,
            "contract": "contracts/FollowFacet.sol:FollowFacet",
            "label": "ma",
            "offset": 0,
            "slot": "24",
            "type": "t_struct(mapSignetAddress)9180_storage"
          },
          {
            "astId": 9142,
            "contract": "contracts/FollowFacet.sol:FollowFacet",
            "label": "cs",
            "offset": 0,
            "slot": "26",
            "type": "t_struct(controllorStorage)9171_storage"
          },
          {
            "astId": 9144,
            "contract": "contracts/FollowFacet.sol:FollowFacet",
            "label": "locked",
            "offset": 0,
            "slot": "34",
            "type": "t_bool"
          },
          {
            "astId": 9146,
            "contract": "contracts/FollowFacet.sol:FollowFacet",
            "label": "signetorAddress",
            "offset": 1,
            "slot": "34",
            "type": "t_address"
          },
          {
            "astId": 9148,
            "contract": "contracts/FollowFacet.sol:FollowFacet",
            "label": "priceFeedAddress",
            "offset": 0,
            "slot": "35",
            "type": "t_address"
          }
        ],
        "numberOfBytes": "1152"
      },
      "t_struct(Followers)9189_storage": {
        "encoding": "inplace",
        "label": "struct Followers",
        "members": [
          {
            "astId": 9184,
            "contract": "contracts/FollowFacet.sol:FollowFacet",
            "label": "followerNum",
            "offset": 0,
            "slot": "0",
            "type": "t_uint256"
          },
          {
            "astId": 9188,
            "contract": "contracts/FollowFacet.sol:FollowFacet",
            "label": "whoFollowed",
            "offset": 0,
            "slot": "1",
            "type": "t_mapping(t_address,t_bool)"
          }
        ],
        "numberOfBytes": "64"
      },
      "t_struct(Following)9196_storage": {
        "encoding": "inplace",
        "label": "struct Following",
        "members": [
          {
            "astId": 9191,
            "contract": "contracts/FollowFacet.sol:FollowFacet",
            "label": "FollowingNum",
            "offset": 0,
            "slot": "0",
            "type": "t_uint256"
          },
          {
            "astId": 9195,
            "contract": "contracts/FollowFacet.sol:FollowFacet",
            "label": "followedWho",
            "offset": 0,
            "slot": "1",
            "type": "t_mapping(t_address,t_bool)"
          }
        ],
        "numberOfBytes": "64"
      },
      "t_struct(controllorStorage)9171_storage": {
        "encoding": "inplace",
        "label": "struct controllorStorage",
        "members": [
          {
            "astId": 9153,
            "contract": "contracts/FollowFacet.sol:FollowFacet",
            "label": "totalSignetorsNum",
            "offset": 0,
            "slot": "0",
            "type": "t_uint256"
          },
          {
            "astId": 9155,
            "contract": "contracts/FollowFacet.sol:FollowFacet",
            "label": "totalSignetsNum",
            "offset": 0,
            "slot": "1",
            "type": "t_uint256"
          },
          {
            "astId": 9157,
            "contract": "contracts/FollowFacet.sol:FollowFacet",
            "label": "appreciateAmount",
            "offset": 0,
            "slot": "2",
            "type": "t_uint256"
          },
          {
            "astId": 9159,
            "contract": "contracts/FollowFacet.sol:FollowFacet",
            "label": "commission",
            "offset": 0,
            "slot": "3",
            "type": "t_uint256"
          },
          {
            "astId": 9161,
            "contract": "contracts/FollowFacet.sol:FollowFacet",
            "label": "messagePrice",
            "offset": 0,
            "slot": "4",
            "type": "t_uint256"
          },
          {
            "astId": 9163,
            "contract": "contracts/FollowFacet.sol:FollowFacet",
            "label": "signetprofileSys",
            "offset": 0,
            "slot": "5",
            "type": "t_address"
          },
          {
            "astId": 9165,
            "contract": "contracts/FollowFacet.sol:FollowFacet",
            "label": "signetFollowSys",
            "offset": 0,
            "slot": "6",
            "type": "t_address"
          },
          {
            "astId": 9167,
            "contract": "contracts/FollowFacet.sol:FollowFacet",
            "label": "allowTranfer",
            "offset": 20,
            "slot": "6",
            "type": "t_bool"
          },
          {
            "astId": 9170,
            "contract": "contracts/FollowFacet.sol:FollowFacet",
            "label": "registerdUserArray",
            "offset": 0,
            "slot": "7",
            "type": "t_array(t_address)dyn_storage"
          }
        ],
        "numberOfBytes": "256"
      },
      "t_struct(followMap)9228_storage": {
        "encoding": "inplace",
        "label": "struct followMap",
        "members": [
          {
            "astId": 9213,
            "contract": "contracts/FollowFacet.sol:FollowFacet",
            "label": "follower",
            "offset": 0,
            "slot": "0",
            "type": "t_mapping(t_address,t_struct(Followers)9189_storage)"
          },
          {
            "astId": 9218,
            "contract": "contracts/FollowFacet.sol:FollowFacet",
            "label": "following",
            "offset": 0,
            "slot": "1",
            "type": "t_mapping(t_address,t_struct(Following)9196_storage)"
          },
          {
            "astId": 9223,
            "contract": "contracts/FollowFacet.sol:FollowFacet",
            "label": "signetState",
            "offset": 0,
            "slot": "2",
            "type": "t_mapping(t_uint256,t_struct(signetinfo)9208_storage)"
          },
          {
            "astId": 9227,
            "contract": "contracts/FollowFacet.sol:FollowFacet",
            "label": "Stars",
            "offset": 0,
            "slot": "3",
            "type": "t_mapping(t_address,t_uint256)"
          }
        ],
        "numberOfBytes": "128"
      },
      "t_struct(mapSignetAddress)9180_storage": {
        "encoding": "inplace",
        "label": "struct mapSignetAddress",
        "members": [
          {
            "astId": 9175,
            "contract": "contracts/FollowFacet.sol:FollowFacet",
            "label": "register",
            "offset": 0,
            "slot": "0",
            "type": "t_mapping(t_address,t_bool)"
          },
          {
            "astId": 9179,
            "contract": "contracts/FollowFacet.sol:FollowFacet",
            "label": "numOfSignetsSent",
            "offset": 0,
            "slot": "1",
            "type": "t_mapping(t_address,t_uint256)"
          }
        ],
        "numberOfBytes": "64"
      },
      "t_struct(nameStruct)9240_storage": {
        "encoding": "inplace",
        "label": "struct nameStruct",
        "members": [
          {
            "astId": 9237,
            "contract": "contracts/FollowFacet.sol:FollowFacet",
            "label": "name",
            "offset": 0,
            "slot": "0",
            "type": "t_string_storage"
          },
          {
            "astId": 9239,
            "contract": "contracts/FollowFacet.sol:FollowFacet",
            "label": "timeUpdated",
            "offset": 0,
            "slot": "1",
            "type": "t_uint256"
          }
        ],
        "numberOfBytes": "64"
      },
      "t_struct(pfpStruct)9251_storage": {
        "encoding": "inplace",
        "label": "struct pfpStruct",
        "members": [
          {
            "astId": 9242,
            "contract": "contracts/FollowFacet.sol:FollowFacet",
            "label": "pfp",
            "offset": 0,
            "slot": "0",
            "type": "t_string_storage"
          },
          {
            "astId": 9244,
            "contract": "contracts/FollowFacet.sol:FollowFacet",
            "label": "timeUpdated",
            "offset": 0,
            "slot": "1",
            "type": "t_uint256"
          },
          {
            "astId": 9246,
            "contract": "contracts/FollowFacet.sol:FollowFacet",
            "label": "collection",
            "offset": 0,
            "slot": "2",
            "type": "t_address"
          },
          {
            "astId": 9248,
            "contract": "contracts/FollowFacet.sol:FollowFacet",
            "label": "tokenId",
            "offset": 0,
            "slot": "3",
            "type": "t_uint256"
          },
          {
            "astId": 9250,
            "contract": "contracts/FollowFacet.sol:FollowFacet",
            "label": "typeOf",
            "offset": 0,
            "slot": "4",
            "type": "t_uint256"
          }
        ],
        "numberOfBytes": "160"
      },
      "t_struct(profileStruct)9235_storage": {
        "encoding": "inplace",
        "label": "struct profileStruct",
        "members": [
          {
            "astId": 9232,
            "contract": "contracts/FollowFacet.sol:FollowFacet",
            "label": "totalName",
            "offset": 0,
            "slot": "0",
            "type": "t_uint256"
          },
          {
            "astId": 9234,
            "contract": "contracts/FollowFacet.sol:FollowFacet",
            "label": "totalpfp",
            "offset": 0,
            "slot": "1",
            "type": "t_uint256"
          }
        ],
        "numberOfBytes": "64"
      },
      "t_struct(profilemap)9266_storage": {
        "encoding": "inplace",
        "label": "struct profilemap",
        "members": [
          {
            "astId": 9256,
            "contract": "contracts/FollowFacet.sol:FollowFacet",
            "label": "pfp",
            "offset": 0,
            "slot": "0",
            "type": "t_mapping(t_address,t_struct(pfpStruct)9251_storage)"
          },
          {
            "astId": 9261,
            "contract": "contracts/FollowFacet.sol:FollowFacet",
            "label": "name",
            "offset": 0,
            "slot": "1",
            "type": "t_mapping(t_address,t_struct(nameStruct)9240_storage)"
          },
          {
            "astId": 9265,
            "contract": "contracts/FollowFacet.sol:FollowFacet",
            "label": "nameused",
            "offset": 0,
            "slot": "2",
            "type": "t_mapping(t_string_memory_ptr,t_bool)"
          }
        ],
        "numberOfBytes": "96"
      },
      "t_struct(signetinfo)9208_storage": {
        "encoding": "inplace",
        "label": "struct signetinfo",
        "members": [
          {
            "astId": 9198,
            "contract": "contracts/FollowFacet.sol:FollowFacet",
            "label": "likeNum",
            "offset": 0,
            "slot": "0",
            "type": "t_uint256"
          },
          {
            "astId": 9200,
            "contract": "contracts/FollowFacet.sol:FollowFacet",
            "label": "starNum",
            "offset": 0,
            "slot": "1",
            "type": "t_uint256"
          },
          {
            "astId": 9203,
            "contract": "contracts/FollowFacet.sol:FollowFacet",
            "label": "starContributors",
            "offset": 0,
            "slot": "2",
            "type": "t_array(t_address)dyn_storage"
          },
          {
            "astId": 9207,
            "contract": "contracts/FollowFacet.sol:FollowFacet",
            "label": "likeContributors",
            "offset": 0,
            "slot": "3",
            "type": "t_mapping(t_address,t_bool)"
          }
        ],
        "numberOfBytes": "128"
      },
      "t_uint256": {
        "encoding": "inplace",
        "label": "uint256",
        "numberOfBytes": "32"
      }
    }
  }
}