{
  "address": "0xE47F079e28D25A76Db2D1eda6A9CB0293D66A673",
  "abi": [
    {
      "inputs": [],
      "name": "Un__Registered",
      "type": "error"
    },
    {
      "inputs": [],
      "name": "Wrong__Type",
      "type": "error"
    },
    {
      "inputs": [],
      "name": "name__IsNotAvalable",
      "type": "error"
    },
    {
      "inputs": [],
      "name": "name__IsTooLong",
      "type": "error"
    },
    {
      "anonymous": false,
      "inputs": [
        {
          "indexed": true,
          "internalType": "address",
          "name": "userAddress",
          "type": "address"
        },
        {
          "indexed": false,
          "internalType": "string",
          "name": "_name",
          "type": "string"
        },
        {
          "indexed": false,
          "internalType": "string",
          "name": "_pfp",
          "type": "string"
        }
      ],
      "name": "ProfileUpdated",
      "type": "event"
    },
    {
      "inputs": [
        {
          "internalType": "address",
          "name": "signetUserAddress",
          "type": "address"
        }
      ],
      "name": "checkName",
      "outputs": [
        {
          "internalType": "string",
          "name": "",
          "type": "string"
        }
      ],
      "stateMutability": "view",
      "type": "function"
    },
    {
      "inputs": [
        {
          "internalType": "string",
          "name": "_name",
          "type": "string"
        }
      ],
      "name": "checkNameAddress",
      "outputs": [
        {
          "internalType": "bool",
          "name": "",
          "type": "bool"
        },
        {
          "internalType": "address",
          "name": "",
          "type": "address"
        }
      ],
      "stateMutability": "view",
      "type": "function"
    },
    {
      "inputs": [
        {
          "internalType": "string",
          "name": "_name",
          "type": "string"
        }
      ],
      "name": "checkNameAvalable",
      "outputs": [
        {
          "internalType": "bool",
          "name": "",
          "type": "bool"
        }
      ],
      "stateMutability": "view",
      "type": "function"
    },
    {
      "inputs": [
        {
          "internalType": "address",
          "name": "signetUserAddress",
          "type": "address"
        }
      ],
      "name": "checkPfp",
      "outputs": [
        {
          "internalType": "string",
          "name": "",
          "type": "string"
        }
      ],
      "stateMutability": "view",
      "type": "function"
    },
    {
      "inputs": [
        {
          "internalType": "address",
          "name": "signetUserAddress",
          "type": "address"
        }
      ],
      "name": "hasName",
      "outputs": [
        {
          "internalType": "bool",
          "name": "",
          "type": "bool"
        }
      ],
      "stateMutability": "view",
      "type": "function"
    },
    {
      "inputs": [
        {
          "internalType": "address",
          "name": "signetUserAddress",
          "type": "address"
        }
      ],
      "name": "hasPfp",
      "outputs": [
        {
          "internalType": "bool",
          "name": "",
          "type": "bool"
        }
      ],
      "stateMutability": "view",
      "type": "function"
    },
    {
      "inputs": [
        {
          "internalType": "string",
          "name": "_newname",
          "type": "string"
        }
      ],
      "name": "modifyNameForUser",
      "outputs": [],
      "stateMutability": "nonpayable",
      "type": "function"
    },
    {
      "inputs": [
        {
          "internalType": "string",
          "name": "_pfp",
          "type": "string"
        },
        {
          "internalType": "address",
          "name": "_collection",
          "type": "address"
        },
        {
          "internalType": "uint256",
          "name": "_tokenId",
          "type": "uint256"
        },
        {
          "internalType": "uint256",
          "name": "_typeOf",
          "type": "uint256"
        }
      ],
      "name": "modifyPfpForUser",
      "outputs": [],
      "stateMutability": "nonpayable",
      "type": "function"
    }
  ],
  "transactionHash": "0x59080a3277cf0cd7e868afac5ec06a1d210b266fcc52ceb22f23cf1b2afe07b2",
  "args": [],
  "numDeployments": 1,
  "solcInputHash": "ffcf898ede1fb7e7a9698f2494d98ec3",
  "bytecode": "0x608060405234801561001057600080fd5b50611ab7806100206000396000f3fe608060405234801561001057600080fd5b50600436106100885760003560e01c8063aeda352b1161005b578063aeda352b14610126578063c356e39f14610156578063cacdff4314610186578063cb852994146101b657610088565b806327c171781461008d5780633aa5a80e146100a95780639667d65e146100da578063ad4520e71461010a575b600080fd5b6100a760048036038101906100a2919061145f565b6101e6565b005b6100c360048036038101906100be91906114e2565b61049a565b6040516100d1929190611555565b60405180910390f35b6100f460048036038101906100ef919061157e565b6104af565b60405161010191906115ab565b60405180910390f35b610124600480360381019061011f91906114e2565b6104c1565b005b610140600480360381019061013b919061157e565b6105e6565b60405161014d91906115ab565b60405180910390f35b610170600480360381019061016b919061157e565b6105f8565b60405161017d919061164e565b60405180910390f35b6101a0600480360381019061019b91906114e2565b6107f7565b6040516101ad91906115ab565b60405180910390f35b6101d060048036038101906101cb919061157e565b610809565b6040516101dd919061164e565b60405180910390f35b600015156101f33361081b565b1515141561022d576040517fa109b23000000000000000000000000000000000000000000000000000000000815260040160405180910390fd5b6102d1811415801561024157506104838114155b15610278576040517f67a3f4e500000000000000000000000000000000000000000000000000000000815260040160405180910390fd5b6102d181141561039b573373ffffffffffffffffffffffffffffffffffffffff168373ffffffffffffffffffffffffffffffffffffffff16636352211e846040518263ffffffff1660e01b81526004016102d2919061167f565b60206040518083038186803b1580156102ea57600080fd5b505afa1580156102fe573d6000803e3d6000fd5b505050506040513d601f19601f8201168201806040525081019061032291906116af565b73ffffffffffffffffffffffffffffffffffffffff16141561039a5761034b8433848685610882565b3373ffffffffffffffffffffffffffffffffffffffff167f6eb3a1c6a4675ba92d44e090515b1ceea358f26565d2854df0c99c3f5eaf9850856040516103919190611702565b60405180910390a25b5b6104838114156104945760008373ffffffffffffffffffffffffffffffffffffffff1662fdd58e33856040518363ffffffff1660e01b81526004016103e1929190611737565b60206040518083038186803b1580156103f957600080fd5b505afa15801561040d573d6000803e3d6000fd5b505050506040513d601f19601f820116820180604052508101906104319190611775565b1115610493576104448433848685610882565b3373ffffffffffffffffffffffffffffffffffffffff167f6eb3a1c6a4675ba92d44e090515b1ceea358f26565d2854df0c99c3f5eaf98508560405161048a9190611702565b60405180910390a25b5b50505050565b6000806104a683610a71565b91509150915091565b60006104ba82610be3565b9050919050565b600015156104ce3361081b565b15151415610508576040517fa109b23000000000000000000000000000000000000000000000000000000000815260040160405180910390fd5b600f81511115610544576040517f9a4a496f00000000000000000000000000000000000000000000000000000000815260040160405180910390fd5b60001515610551826107f7565b1515141561058b576040517f4b5ac1d100000000000000000000000000000000000000000000000000000000815260040160405180910390fd5b6105958133610c55565b3373ffffffffffffffffffffffffffffffffffffffff167f6eb3a1c6a4675ba92d44e090515b1ceea358f26565d2854df0c99c3f5eaf9850826040516105db91906117a2565b60405180910390a250565b60006105f182610d23565b9050919050565b606060008060008061060986610d95565b93509350935093506102d1811415610707578573ffffffffffffffffffffffffffffffffffffffff168373ffffffffffffffffffffffffffffffffffffffff16636352211e846040518263ffffffff1660e01b815260040161066b919061167f565b60206040518083038186803b15801561068357600080fd5b505afa158015610697573d6000803e3d6000fd5b505050506040513d601f19601f820116820180604052508101906106bb91906116af565b73ffffffffffffffffffffffffffffffffffffffff1614156106e357839450505050506107f2565b6040518060800160405280604b8152602001611a37604b91399450505050506107f2565b6104838114156107d25760008373ffffffffffffffffffffffffffffffffffffffff1662fdd58e88856040518363ffffffff1660e01b815260040161074d929190611737565b60206040518083038186803b15801561076557600080fd5b505afa158015610779573d6000803e3d6000fd5b505050506040513d601f19601f8201168201806040525081019061079d9190611775565b146107ae57839450505050506107f2565b6040518060800160405280604b8152602001611a37604b91399450505050506107f2565b6040518060800160405280604b8152602001611a37604b91399450505050505b919050565b600061080282611002565b9050919050565b606061081482611049565b9050919050565b6000806108266111a1565b90508060180160000160008473ffffffffffffffffffffffffffffffffffffffff1673ffffffffffffffffffffffffffffffffffffffff16815260200190815260200160002060009054906101000a900460ff16915050919050565b600061088c6111a1565b9050806000016001016000815460010191905081905550858160090160000160008773ffffffffffffffffffffffffffffffffffffffff1673ffffffffffffffffffffffffffffffffffffffff16815260200190815260200160002060000190805190602001906108fe9291906111ce565b50428160090160000160008773ffffffffffffffffffffffffffffffffffffffff1673ffffffffffffffffffffffffffffffffffffffff16815260200190815260200160002060010181905550838160090160000160008773ffffffffffffffffffffffffffffffffffffffff1673ffffffffffffffffffffffffffffffffffffffff16815260200190815260200160002060030181905550828160090160000160008773ffffffffffffffffffffffffffffffffffffffff1673ffffffffffffffffffffffffffffffffffffffff16815260200190815260200160002060020160006101000a81548173ffffffffffffffffffffffffffffffffffffffff021916908373ffffffffffffffffffffffffffffffffffffffff160217905550818160090160000160008773ffffffffffffffffffffffffffffffffffffffff1673ffffffffffffffffffffffffffffffffffffffff16815260200190815260200160002060040181905550505050505050565b6000806000610a7e6111a1565b905060005b84604051602001610a949190611813565b6040516020818303038152906040528051906020012082600901600101600084601a016007018481548110610acc57610acb61182a565b5b9060005260206000200160009054906101000a900473ffffffffffffffffffffffffffffffffffffffff1673ffffffffffffffffffffffffffffffffffffffff1673ffffffffffffffffffffffffffffffffffffffff168152602001908152602001600020600001604051602001610b44919061194e565b604051602081830303815290604052805190602001201415610bb157600182601a016007018281548110610b7b57610b7a61182a565b5b9060005260206000200160009054906101000a900473ffffffffffffffffffffffffffffffffffffffff16935093505050610bde565b806001019050600182601a0160070180549050610bce9190611994565b8110610a83576000809350935050505b915091565b600080610bee6111a1565b905060008160090160000160008573ffffffffffffffffffffffffffffffffffffffff1673ffffffffffffffffffffffffffffffffffffffff168152602001908152602001600020600101541115610c4a576001915050610c50565b60009150505b919050565b6000610c5f6111a1565b9050806000016000016000815460010191905081905550828160090160010160008473ffffffffffffffffffffffffffffffffffffffff1673ffffffffffffffffffffffffffffffffffffffff1681526020019081526020016000206000019080519060200190610cd19291906111ce565b50428160090160010160008473ffffffffffffffffffffffffffffffffffffffff1673ffffffffffffffffffffffffffffffffffffffff16815260200190815260200160002060010181905550505050565b600080610d2e6111a1565b905060008160090160010160008573ffffffffffffffffffffffffffffffffffffffff1673ffffffffffffffffffffffffffffffffffffffff168152602001908152602001600020600101541115610d8a576001915050610d90565b60009150505b919050565b6060600080600080610da56111a1565b905060008160090160000160008873ffffffffffffffffffffffffffffffffffffffff1673ffffffffffffffffffffffffffffffffffffffff168152602001908152602001600020600101541115610fd0578060090160000160008773ffffffffffffffffffffffffffffffffffffffff1673ffffffffffffffffffffffffffffffffffffffff1681526020019081526020016000206000018160090160000160008873ffffffffffffffffffffffffffffffffffffffff1673ffffffffffffffffffffffffffffffffffffffff16815260200190815260200160002060020160009054906101000a900473ffffffffffffffffffffffffffffffffffffffff168260090160000160008973ffffffffffffffffffffffffffffffffffffffff1673ffffffffffffffffffffffffffffffffffffffff168152602001908152602001600020600301548360090160000160008a73ffffffffffffffffffffffffffffffffffffffff1673ffffffffffffffffffffffffffffffffffffffff16815260200190815260200160002060040154838054610f4290611888565b80601f0160208091040260200160405190810160405280929190818152602001828054610f6e90611888565b8015610fbb5780601f10610f9057610100808354040283529160200191610fbb565b820191906000526020600020905b815481529060010190602001808311610f9e57829003601f168201915b50505050509350945094509450945050610ffb565b60008060006040518060800160405280604b8152602001611a37604b91399291909450945094509450505b9193509193565b60008061100d6111a1565b905080600901600201836040516110249190611813565b908152602001604051809103902060009054906101000a900460ff1615915050919050565b606060006110556111a1565b905060008160090160010160008573ffffffffffffffffffffffffffffffffffffffff1673ffffffffffffffffffffffffffffffffffffffff16815260200190815260200160002060010154111561117f578060090160010160008473ffffffffffffffffffffffffffffffffffffffff1673ffffffffffffffffffffffffffffffffffffffff16815260200190815260200160002060000180546110f990611888565b80601f016020809104026020016040519081016040528092919081815260200182805461112590611888565b80156111725780601f1061114757610100808354040283529160200191611172565b820191906000526020600020905b81548152906001019060200180831161115557829003601f168201915b505050505091505061119c565b6040518060800160405280604c81526020016119eb604c91399150505b919050565b6000807f0b7cd5ad917e0ed6e2cd0c1b94ff4beaebb02b4d2d511ede3c9172a0ee7d946590508091505090565b8280546111da90611888565b90600052602060002090601f0160209004810192826111fc5760008555611243565b82601f1061121557805160ff1916838001178555611243565b82800160010185558215611243579182015b82811115611242578251825591602001919060010190611227565b5b5090506112509190611254565b5090565b5b8082111561126d576000816000905550600101611255565b5090565b6000604051905090565b600080fd5b600080fd5b600080fd5b600080fd5b6000601f19601f8301169050919050565b7f4e487b7100000000000000000000000000000000000000000000000000000000600052604160045260246000fd5b6112d88261128f565b810181811067ffffffffffffffff821117156112f7576112f66112a0565b5b80604052505050565b600061130a611271565b905061131682826112cf565b919050565b600067ffffffffffffffff821115611336576113356112a0565b5b61133f8261128f565b9050602081019050919050565b82818337600083830152505050565b600061136e6113698461131b565b611300565b90508281526020810184848401111561138a5761138961128a565b5b61139584828561134c565b509392505050565b600082601f8301126113b2576113b1611285565b5b81356113c284826020860161135b565b91505092915050565b600073ffffffffffffffffffffffffffffffffffffffff82169050919050565b60006113f6826113cb565b9050919050565b611406816113eb565b811461141157600080fd5b50565b600081359050611423816113fd565b92915050565b6000819050919050565b61143c81611429565b811461144757600080fd5b50565b60008135905061145981611433565b92915050565b600080600080608085870312156114795761147861127b565b5b600085013567ffffffffffffffff81111561149757611496611280565b5b6114a38782880161139d565b94505060206114b487828801611414565b93505060406114c58782880161144a565b92505060606114d68782880161144a565b91505092959194509250565b6000602082840312156114f8576114f761127b565b5b600082013567ffffffffffffffff81111561151657611515611280565b5b6115228482850161139d565b91505092915050565b60008115159050919050565b6115408161152b565b82525050565b61154f816113eb565b82525050565b600060408201905061156a6000830185611537565b6115776020830184611546565b9392505050565b6000602082840312156115945761159361127b565b5b60006115a284828501611414565b91505092915050565b60006020820190506115c06000830184611537565b92915050565b600081519050919050565b600082825260208201905092915050565b60005b838110156116005780820151818401526020810190506115e5565b8381111561160f576000848401525b50505050565b6000611620826115c6565b61162a81856115d1565b935061163a8185602086016115e2565b6116438161128f565b840191505092915050565b600060208201905081810360008301526116688184611615565b905092915050565b61167981611429565b82525050565b60006020820190506116946000830184611670565b92915050565b6000815190506116a9816113fd565b92915050565b6000602082840312156116c5576116c461127b565b5b60006116d38482850161169a565b91505092915050565b50565b60006116ec6000836115d1565b91506116f7826116dc565b600082019050919050565b6000604082019050818103600083015261171b816116df565b9050818103602083015261172f8184611615565b905092915050565b600060408201905061174c6000830185611546565b6117596020830184611670565b9392505050565b60008151905061176f81611433565b92915050565b60006020828403121561178b5761178a61127b565b5b600061179984828501611760565b91505092915050565b600060408201905081810360008301526117bc8184611615565b905081810360208301526117cf816116df565b905092915050565b600081905092915050565b60006117ed826115c6565b6117f781856117d7565b93506118078185602086016115e2565b80840191505092915050565b600061181f82846117e2565b915081905092915050565b7f4e487b7100000000000000000000000000000000000000000000000000000000600052603260045260246000fd5b7f4e487b7100000000000000000000000000000000000000000000000000000000600052602260045260246000fd5b600060028204905060018216806118a057607f821691505b602082108114156118b4576118b3611859565b5b50919050565b60008190508160005260206000209050919050565b600081546118dc81611888565b6118e681866117d7565b94506001821660008114611901576001811461191257611945565b60ff19831686528186019350611945565b61191b856118ba565b60005b8381101561193d5781548189015260018201915060208101905061191e565b838801955050505b50505092915050565b600061195a82846118cf565b915081905092915050565b7f4e487b7100000000000000000000000000000000000000000000000000000000600052601160045260246000fd5b600061199f82611429565b91506119aa83611429565b9250827fffffffffffffffffffffffffffffffffffffffffffffffffffffffffffffffff038211156119df576119de611965565b5b82820190509291505056fe596f7520736565696e672074686973206d65737361676520697320626563756173652074686973206164647265737320646f6e2774206861766520616e79206e616d65206372656174656421596f7520736565696e672074686973206d65737361676520697320626563756173652074686973206164647265737320646f6e2774206861766520616e7920706670206372656174656421a2646970667358221220b1da55943f711e8991cd446329c8f62ffde31f1d3037fc700f524c41f32fd03264736f6c63430008090033",
  "devdoc": {
    "kind": "dev",
    "methods": {},
    "version": 1
  },
  "userdoc": {
    "kind": "user",
    "methods": {},
    "version": 1
  },
  "storageLayout": {
    "storage": [
      {
        "astId": 2560,
        "contract": "contracts/ProfileFacet.sol:ProfileFacet",
        "label": "s",
        "offset": 0,
        "slot": "0",
        "type": "t_struct(AppStorage)9149_storage"
      }
    ],
    "types": {
      "t_address": {
        "encoding": "inplace",
        "label": "address",
        "numberOfBytes": "20"
      },
      "t_array(t_address)dyn_storage": {
        "base": "t_address",
        "encoding": "dynamic_array",
        "label": "address[]",
        "numberOfBytes": "32"
      },
      "t_bool": {
        "encoding": "inplace",
        "label": "bool",
        "numberOfBytes": "1"
      },
      "t_mapping(t_address,t_bool)": {
        "encoding": "mapping",
        "key": "t_address",
        "label": "mapping(address => bool)",
        "numberOfBytes": "32",
        "value": "t_bool"
      },
      "t_mapping(t_address,t_struct(Followers)9189_storage)": {
        "encoding": "mapping",
        "key": "t_address",
        "label": "mapping(address => struct Followers)",
        "numberOfBytes": "32",
        "value": "t_struct(Followers)9189_storage"
      },
      "t_mapping(t_address,t_struct(Following)9196_storage)": {
        "encoding": "mapping",
        "key": "t_address",
        "label": "mapping(address => struct Following)",
        "numberOfBytes": "32",
        "value": "t_struct(Following)9196_storage"
      },
      "t_mapping(t_address,t_struct(nameStruct)9240_storage)": {
        "encoding": "mapping",
        "key": "t_address",
        "label": "mapping(address => struct nameStruct)",
        "numberOfBytes": "32",
        "value": "t_struct(nameStruct)9240_storage"
      },
      "t_mapping(t_address,t_struct(pfpStruct)9251_storage)": {
        "encoding": "mapping",
        "key": "t_address",
        "label": "mapping(address => struct pfpStruct)",
        "numberOfBytes": "32",
        "value": "t_struct(pfpStruct)9251_storage"
      },
      "t_mapping(t_address,t_uint256)": {
        "encoding": "mapping",
        "key": "t_address",
        "label": "mapping(address => uint256)",
        "numberOfBytes": "32",
        "value": "t_uint256"
      },
      "t_mapping(t_string_memory_ptr,t_bool)": {
        "encoding": "mapping",
        "key": "t_string_memory_ptr",
        "label": "mapping(string => bool)",
        "numberOfBytes": "32",
        "value": "t_bool"
      },
      "t_mapping(t_uint256,t_struct(signetinfo)9208_storage)": {
        "encoding": "mapping",
        "key": "t_uint256",
        "label": "mapping(uint256 => struct signetinfo)",
        "numberOfBytes": "32",
        "value": "t_struct(signetinfo)9208_storage"
      },
      "t_string_memory_ptr": {
        "encoding": "bytes",
        "label": "string",
        "numberOfBytes": "32"
      },
      "t_string_storage": {
        "encoding": "bytes",
        "label": "string",
        "numberOfBytes": "32"
      },
      "t_struct(AppStorage)9149_storage": {
        "encoding": "inplace",
        "label": "struct AppStorage",
        "members": [
          {
            "astId": 9115,
            "contract": "contracts/ProfileFacet.sol:ProfileFacet",
            "label": "ps",
            "offset": 0,
            "slot": "0",
            "type": "t_struct(profileStruct)9235_storage"
          },
          {
            "astId": 9118,
            "contract": "contracts/ProfileFacet.sol:ProfileFacet",
            "label": "ns",
            "offset": 0,
            "slot": "2",
            "type": "t_struct(nameStruct)9240_storage"
          },
          {
            "astId": 9121,
            "contract": "contracts/ProfileFacet.sol:ProfileFacet",
            "label": "pfps",
            "offset": 0,
            "slot": "4",
            "type": "t_struct(pfpStruct)9251_storage"
          },
          {
            "astId": 9124,
            "contract": "contracts/ProfileFacet.sol:ProfileFacet",
            "label": "pm",
            "offset": 0,
            "slot": "9",
            "type": "t_struct(profilemap)9266_storage"
          },
          {
            "astId": 9127,
            "contract": "contracts/ProfileFacet.sol:ProfileFacet",
            "label": "flwr",
            "offset": 0,
            "slot": "12",
            "type": "t_struct(Followers)9189_storage"
          },
          {
            "astId": 9130,
            "contract": "contracts/ProfileFacet.sol:ProfileFacet",
            "label": "flwi",
            "offset": 0,
            "slot": "14",
            "type": "t_struct(Following)9196_storage"
          },
          {
            "astId": 9133,
            "contract": "contracts/ProfileFacet.sol:ProfileFacet",
            "label": "signetinfo",
            "offset": 0,
            "slot": "16",
            "type": "t_struct(signetinfo)9208_storage"
          },
          {
            "astId": 9136,
            "contract": "contracts/ProfileFacet.sol:ProfileFacet",
            "label": "fm",
            "offset": 0,
            "slot": "20",
            "type": "t_struct(followMap)9228_storage"
          },
          {
            "astId": 9139,
            "contract": "contracts/ProfileFacet.sol:ProfileFacet",
            "label": "ma",
            "offset": 0,
            "slot": "24",
            "type": "t_struct(mapSignetAddress)9180_storage"
          },
          {
            "astId": 9142,
            "contract": "contracts/ProfileFacet.sol:ProfileFacet",
            "label": "cs",
            "offset": 0,
            "slot": "26",
            "type": "t_struct(controllorStorage)9171_storage"
          },
          {
            "astId": 9144,
            "contract": "contracts/ProfileFacet.sol:ProfileFacet",
            "label": "locked",
            "offset": 0,
            "slot": "34",
            "type": "t_bool"
          },
          {
            "astId": 9146,
            "contract": "contracts/ProfileFacet.sol:ProfileFacet",
            "label": "signetorAddress",
            "offset": 1,
            "slot": "34",
            "type": "t_address"
          },
          {
            "astId": 9148,
            "contract": "contracts/ProfileFacet.sol:ProfileFacet",
            "label": "priceFeedAddress",
            "offset": 0,
            "slot": "35",
            "type": "t_address"
          }
        ],
        "numberOfBytes": "1152"
      },
      "t_struct(Followers)9189_storage": {
        "encoding": "inplace",
        "label": "struct Followers",
        "members": [
          {
            "astId": 9184,
            "contract": "contracts/ProfileFacet.sol:ProfileFacet",
            "label": "followerNum",
            "offset": 0,
            "slot": "0",
            "type": "t_uint256"
          },
          {
            "astId": 9188,
            "contract": "contracts/ProfileFacet.sol:ProfileFacet",
            "label": "whoFollowed",
            "offset": 0,
            "slot": "1",
            "type": "t_mapping(t_address,t_bool)"
          }
        ],
        "numberOfBytes": "64"
      },
      "t_struct(Following)9196_storage": {
        "encoding": "inplace",
        "label": "struct Following",
        "members": [
          {
            "astId": 9191,
            "contract": "contracts/ProfileFacet.sol:ProfileFacet",
            "label": "FollowingNum",
            "offset": 0,
            "slot": "0",
            "type": "t_uint256"
          },
          {
            "astId": 9195,
            "contract": "contracts/ProfileFacet.sol:ProfileFacet",
            "label": "followedWho",
            "offset": 0,
            "slot": "1",
            "type": "t_mapping(t_address,t_bool)"
          }
        ],
        "numberOfBytes": "64"
      },
      "t_struct(controllorStorage)9171_storage": {
        "encoding": "inplace",
        "label": "struct controllorStorage",
        "members": [
          {
            "astId": 9153,
            "contract": "contracts/ProfileFacet.sol:ProfileFacet",
            "label": "totalSignetorsNum",
            "offset": 0,
            "slot": "0",
            "type": "t_uint256"
          },
          {
            "astId": 9155,
            "contract": "contracts/ProfileFacet.sol:ProfileFacet",
            "label": "totalSignetsNum",
            "offset": 0,
            "slot": "1",
            "type": "t_uint256"
          },
          {
            "astId": 9157,
            "contract": "contracts/ProfileFacet.sol:ProfileFacet",
            "label": "appreciateAmount",
            "offset": 0,
            "slot": "2",
            "type": "t_uint256"
          },
          {
            "astId": 9159,
            "contract": "contracts/ProfileFacet.sol:ProfileFacet",
            "label": "commission",
            "offset": 0,
            "slot": "3",
            "type": "t_uint256"
          },
          {
            "astId": 9161,
            "contract": "contracts/ProfileFacet.sol:ProfileFacet",
            "label": "messagePrice",
            "offset": 0,
            "slot": "4",
            "type": "t_uint256"
          },
          {
            "astId": 9163,
            "contract": "contracts/ProfileFacet.sol:ProfileFacet",
            "label": "signetprofileSys",
            "offset": 0,
            "slot": "5",
            "type": "t_address"
          },
          {
            "astId": 9165,
            "contract": "contracts/ProfileFacet.sol:ProfileFacet",
            "label": "signetFollowSys",
            "offset": 0,
            "slot": "6",
            "type": "t_address"
          },
          {
            "astId": 9167,
            "contract": "contracts/ProfileFacet.sol:ProfileFacet",
            "label": "allowTranfer",
            "offset": 20,
            "slot": "6",
            "type": "t_bool"
          },
          {
            "astId": 9170,
            "contract": "contracts/ProfileFacet.sol:ProfileFacet",
            "label": "registerdUserArray",
            "offset": 0,
            "slot": "7",
            "type": "t_array(t_address)dyn_storage"
          }
        ],
        "numberOfBytes": "256"
      },
      "t_struct(followMap)9228_storage": {
        "encoding": "inplace",
        "label": "struct followMap",
        "members": [
          {
            "astId": 9213,
            "contract": "contracts/ProfileFacet.sol:ProfileFacet",
            "label": "follower",
            "offset": 0,
            "slot": "0",
            "type": "t_mapping(t_address,t_struct(Followers)9189_storage)"
          },
          {
            "astId": 9218,
            "contract": "contracts/ProfileFacet.sol:ProfileFacet",
            "label": "following",
            "offset": 0,
            "slot": "1",
            "type": "t_mapping(t_address,t_struct(Following)9196_storage)"
          },
          {
            "astId": 9223,
            "contract": "contracts/ProfileFacet.sol:ProfileFacet",
            "label": "signetState",
            "offset": 0,
            "slot": "2",
            "type": "t_mapping(t_uint256,t_struct(signetinfo)9208_storage)"
          },
          {
            "astId": 9227,
            "contract": "contracts/ProfileFacet.sol:ProfileFacet",
            "label": "Stars",
            "offset": 0,
            "slot": "3",
            "type": "t_mapping(t_address,t_uint256)"
          }
        ],
        "numberOfBytes": "128"
      },
      "t_struct(mapSignetAddress)9180_storage": {
        "encoding": "inplace",
        "label": "struct mapSignetAddress",
        "members": [
          {
            "astId": 9175,
            "contract": "contracts/ProfileFacet.sol:ProfileFacet",
            "label": "register",
            "offset": 0,
            "slot": "0",
            "type": "t_mapping(t_address,t_bool)"
          },
          {
            "astId": 9179,
            "contract": "contracts/ProfileFacet.sol:ProfileFacet",
            "label": "numOfSignetsSent",
            "offset": 0,
            "slot": "1",
            "type": "t_mapping(t_address,t_uint256)"
          }
        ],
        "numberOfBytes": "64"
      },
      "t_struct(nameStruct)9240_storage": {
        "encoding": "inplace",
        "label": "struct nameStruct",
        "members": [
          {
            "astId": 9237,
            "contract": "contracts/ProfileFacet.sol:ProfileFacet",
            "label": "name",
            "offset": 0,
            "slot": "0",
            "type": "t_string_storage"
          },
          {
            "astId": 9239,
            "contract": "contracts/ProfileFacet.sol:ProfileFacet",
            "label": "timeUpdated",
            "offset": 0,
            "slot": "1",
            "type": "t_uint256"
          }
        ],
        "numberOfBytes": "64"
      },
      "t_struct(pfpStruct)9251_storage": {
        "encoding": "inplace",
        "label": "struct pfpStruct",
        "members": [
          {
            "astId": 9242,
            "contract": "contracts/ProfileFacet.sol:ProfileFacet",
            "label": "pfp",
            "offset": 0,
            "slot": "0",
            "type": "t_string_storage"
          },
          {
            "astId": 9244,
            "contract": "contracts/ProfileFacet.sol:ProfileFacet",
            "label": "timeUpdated",
            "offset": 0,
            "slot": "1",
            "type": "t_uint256"
          },
          {
            "astId": 9246,
            "contract": "contracts/ProfileFacet.sol:ProfileFacet",
            "label": "collection",
            "offset": 0,
            "slot": "2",
            "type": "t_address"
          },
          {
            "astId": 9248,
            "contract": "contracts/ProfileFacet.sol:ProfileFacet",
            "label": "tokenId",
            "offset": 0,
            "slot": "3",
            "type": "t_uint256"
          },
          {
            "astId": 9250,
            "contract": "contracts/ProfileFacet.sol:ProfileFacet",
            "label": "typeOf",
            "offset": 0,
            "slot": "4",
            "type": "t_uint256"
          }
        ],
        "numberOfBytes": "160"
      },
      "t_struct(profileStruct)9235_storage": {
        "encoding": "inplace",
        "label": "struct profileStruct",
        "members": [
          {
            "astId": 9232,
            "contract": "contracts/ProfileFacet.sol:ProfileFacet",
            "label": "totalName",
            "offset": 0,
            "slot": "0",
            "type": "t_uint256"
          },
          {
            "astId": 9234,
            "contract": "contracts/ProfileFacet.sol:ProfileFacet",
            "label": "totalpfp",
            "offset": 0,
            "slot": "1",
            "type": "t_uint256"
          }
        ],
        "numberOfBytes": "64"
      },
      "t_struct(profilemap)9266_storage": {
        "encoding": "inplace",
        "label": "struct profilemap",
        "members": [
          {
            "astId": 9256,
            "contract": "contracts/ProfileFacet.sol:ProfileFacet",
            "label": "pfp",
            "offset": 0,
            "slot": "0",
            "type": "t_mapping(t_address,t_struct(pfpStruct)9251_storage)"
          },
          {
            "astId": 9261,
            "contract": "contracts/ProfileFacet.sol:ProfileFacet",
            "label": "name",
            "offset": 0,
            "slot": "1",
            "type": "t_mapping(t_address,t_struct(nameStruct)9240_storage)"
          },
          {
            "astId": 9265,
            "contract": "contracts/ProfileFacet.sol:ProfileFacet",
            "label": "nameused",
            "offset": 0,
            "slot": "2",
            "type": "t_mapping(t_string_memory_ptr,t_bool)"
          }
        ],
        "numberOfBytes": "96"
      },
      "t_struct(signetinfo)9208_storage": {
        "encoding": "inplace",
        "label": "struct signetinfo",
        "members": [
          {
            "astId": 9198,
            "contract": "contracts/ProfileFacet.sol:ProfileFacet",
            "label": "likeNum",
            "offset": 0,
            "slot": "0",
            "type": "t_uint256"
          },
          {
            "astId": 9200,
            "contract": "contracts/ProfileFacet.sol:ProfileFacet",
            "label": "starNum",
            "offset": 0,
            "slot": "1",
            "type": "t_uint256"
          },
          {
            "astId": 9203,
            "contract": "contracts/ProfileFacet.sol:ProfileFacet",
            "label": "starContributors",
            "offset": 0,
            "slot": "2",
            "type": "t_array(t_address)dyn_storage"
          },
          {
            "astId": 9207,
            "contract": "contracts/ProfileFacet.sol:ProfileFacet",
            "label": "likeContributors",
            "offset": 0,
            "slot": "3",
            "type": "t_mapping(t_address,t_bool)"
          }
        ],
        "numberOfBytes": "128"
      },
      "t_uint256": {
        "encoding": "inplace",
        "label": "uint256",
        "numberOfBytes": "32"
      }
    }
  }
}