{
  "address": "0xf53B6145246810ee99E5A75E720550A0f38c0E00",
  "abi": [
    {
      "inputs": [],
      "stateMutability": "nonpayable",
      "type": "constructor"
    },
    {
      "inputs": [],
      "name": "name__IsNotAvalable",
      "type": "error"
    },
    {
      "inputs": [],
      "name": "name__IsTooLong",
      "type": "error"
    },
    {
      "inputs": [],
      "name": "not__FromSignetControllor",
      "type": "error"
    },
    {
      "anonymous": false,
      "inputs": [
        {
          "indexed": true,
          "internalType": "address",
          "name": "messageSender",
          "type": "address"
        },
        {
          "indexed": true,
          "internalType": "string",
          "name": "_name",
          "type": "string"
        },
        {
          "indexed": true,
          "internalType": "string",
          "name": "_pfp",
          "type": "string"
        }
      ],
      "name": "ProfileUpdated",
      "type": "event"
    },
    {
      "inputs": [
        {
          "internalType": "address",
          "name": "signetUserAddress",
          "type": "address"
        }
      ],
      "name": "checkName",
      "outputs": [
        {
          "internalType": "string",
          "name": "",
          "type": "string"
        }
      ],
      "stateMutability": "view",
      "type": "function"
    },
    {
      "inputs": [
        {
          "internalType": "string",
          "name": "_name",
          "type": "string"
        }
      ],
      "name": "checkNameAvalable",
      "outputs": [
        {
          "internalType": "bool",
          "name": "",
          "type": "bool"
        }
      ],
      "stateMutability": "view",
      "type": "function"
    },
    {
      "inputs": [
        {
          "internalType": "address",
          "name": "signetUserAddress",
          "type": "address"
        }
      ],
      "name": "checkPfp",
      "outputs": [
        {
          "internalType": "string",
          "name": "",
          "type": "string"
        }
      ],
      "stateMutability": "view",
      "type": "function"
    },
    {
      "inputs": [
        {
          "internalType": "string",
          "name": "_name",
          "type": "string"
        }
      ],
      "name": "findNameId",
      "outputs": [
        {
          "internalType": "uint256",
          "name": "id",
          "type": "uint256"
        }
      ],
      "stateMutability": "view",
      "type": "function"
    },
    {
      "inputs": [
        {
          "internalType": "string",
          "name": "_pfp",
          "type": "string"
        }
      ],
      "name": "findPfpId",
      "outputs": [
        {
          "internalType": "uint256",
          "name": "id",
          "type": "uint256"
        }
      ],
      "stateMutability": "view",
      "type": "function"
    },
    {
      "inputs": [
        {
          "internalType": "address",
          "name": "signetUserAddress",
          "type": "address"
        }
      ],
      "name": "hasName",
      "outputs": [
        {
          "internalType": "bool",
          "name": "",
          "type": "bool"
        }
      ],
      "stateMutability": "view",
      "type": "function"
    },
    {
      "inputs": [
        {
          "internalType": "address",
          "name": "signetUserAddress",
          "type": "address"
        }
      ],
      "name": "hasPfp",
      "outputs": [
        {
          "internalType": "bool",
          "name": "",
          "type": "bool"
        }
      ],
      "stateMutability": "view",
      "type": "function"
    },
    {
      "inputs": [
        {
          "internalType": "string",
          "name": "_newname",
          "type": "string"
        },
        {
          "internalType": "address",
          "name": "signetUserAddress",
          "type": "address"
        }
      ],
      "name": "modifyNameForUser",
      "outputs": [],
      "stateMutability": "nonpayable",
      "type": "function"
    },
    {
      "inputs": [
        {
          "internalType": "string",
          "name": "_pfp",
          "type": "string"
        },
        {
          "internalType": "address",
          "name": "signetUserAddress",
          "type": "address"
        }
      ],
      "name": "modifyPfpForUser",
      "outputs": [],
      "stateMutability": "nonpayable",
      "type": "function"
    },
    {
      "inputs": [
        {
          "internalType": "uint256",
          "name": "",
          "type": "uint256"
        }
      ],
      "name": "name",
      "outputs": [
        {
          "internalType": "string",
          "name": "name",
          "type": "string"
        },
        {
          "internalType": "uint256",
          "name": "timeUpdated",
          "type": "uint256"
        },
        {
          "internalType": "address",
          "name": "owner",
          "type": "address"
        }
      ],
      "stateMutability": "view",
      "type": "function"
    },
    {
      "inputs": [],
      "name": "owner",
      "outputs": [
        {
          "internalType": "address",
          "name": "",
          "type": "address"
        }
      ],
      "stateMutability": "view",
      "type": "function"
    },
    {
      "inputs": [
        {
          "internalType": "uint256",
          "name": "",
          "type": "uint256"
        }
      ],
      "name": "pfp",
      "outputs": [
        {
          "internalType": "string",
          "name": "pfp",
          "type": "string"
        },
        {
          "internalType": "uint256",
          "name": "timeUpdated",
          "type": "uint256"
        },
        {
          "internalType": "address",
          "name": "owner",
          "type": "address"
        }
      ],
      "stateMutability": "view",
      "type": "function"
    },
    {
      "inputs": [
        {
          "internalType": "address",
          "name": "_signetControllor",
          "type": "address"
        }
      ],
      "name": "setSignetControllor",
      "outputs": [],
      "stateMutability": "nonpayable",
      "type": "function"
    },
    {
      "inputs": [],
      "name": "signetControllor",
      "outputs": [
        {
          "internalType": "address",
          "name": "",
          "type": "address"
        }
      ],
      "stateMutability": "view",
      "type": "function"
    },
    {
      "inputs": [],
      "name": "totalName",
      "outputs": [
        {
          "internalType": "uint256",
          "name": "",
          "type": "uint256"
        }
      ],
      "stateMutability": "view",
      "type": "function"
    },
    {
      "inputs": [],
      "name": "totalpfp",
      "outputs": [
        {
          "internalType": "uint256",
          "name": "",
          "type": "uint256"
        }
      ],
      "stateMutability": "view",
      "type": "function"
    }
  ],
  "transactionHash": "0x0ef74991b9e13f40ccfad610caecdd178b7bf096077a461566eec93ebe7c4700",
  "args": [],
  "numDeployments": 3,
  "solcInputHash": "4076232b8552124ac96dee4cb4e66816",
  "bytecode": "0x608060405234801561001057600080fd5b50600160008190555033600260006101000a81548173ffffffffffffffffffffffffffffffffffffffff021916908373ffffffffffffffffffffffffffffffffffffffff160217905550611af1806100696000396000f3fe608060405234801561001057600080fd5b50600436106100ff5760003560e01c8063aeda352b11610097578063cb85299411610066578063cb852994146102d6578063d5329f7914610306578063d535d7a714610322578063e0a9090514610354576100ff565b8063aeda352b14610228578063b84e286514610258578063c356e39f14610276578063cacdff43146102a6576100ff565b80633dcd6423116100d35780633dcd6423146101a057806350e8e06e146101bc5780638da5cb5b146101da5780639667d65e146101f8576100ff565b8062ad800c1461010457806301f5883c1461013657806313a0bbe91461015457806338c3721a14610184575b600080fd5b61011e6004803603810190610119919061133d565b610384565b60405161012d93929190611453565b60405180910390f35b61013e610456565b60405161014b9190611491565b60405180910390f35b61016e600480360381019061016991906115e1565b61047c565b60405161017b919061162a565b60405180910390f35b61019e60048036038101906101999190611671565b610529565b005b6101ba60048036038101906101b591906116cd565b610855565b005b6101c4610929565b6040516101d1919061162a565b60405180910390f35b6101e261092f565b6040516101ef9190611491565b60405180910390f35b610212600480360381019061020d91906116cd565b610955565b60405161021f9190611715565b60405180910390f35b610242600480360381019061023d91906116cd565b610a04565b60405161024f9190611715565b60405180910390f35b610260610ab3565b60405161026d919061162a565b60405180910390f35b610290600480360381019061028b91906116cd565b610ab9565b60405161029d9190611730565b60405180910390f35b6102c060048036038101906102bb91906115e1565b610c19565b6040516102cd9190611715565b60405180910390f35b6102f060048036038101906102eb91906116cd565b610cc7565b6040516102fd9190611730565b60405180910390f35b610320600480360381019061031b9190611671565b610e27565b005b61033c6004803603810190610337919061133d565b6110d1565b60405161034b93929190611453565b60405180910390f35b61036e600480360381019061036991906115e1565b6111a3565b60405161037b919061162a565b60405180910390f35b60056020528060005260406000206000915090508060000180546103a790611781565b80601f01602080910402602001604051908101604052809291908181526020018280546103d390611781565b80156104205780601f106103f557610100808354040283529160200191610420565b820191906000526020600020905b81548152906001019060200180831161040357829003601f168201915b5050505050908060010154908060020160009054906101000a900473ffffffffffffffffffffffffffffffffffffffff16905083565b600160009054906101000a900473ffffffffffffffffffffffffffffffffffffffff1681565b600080600090505b600160035461049391906117e1565b81101561051e57826040516020016104ab9190611873565b60405160208183030381529060405280519060200120600560008381526020019081526020016000206000016040516020016104e7919061191e565b604051602081830303815290604052805190602001200361050b5780915050610524565b808061051690611935565b915050610484565b50600090505b919050565b600160009054906101000a900473ffffffffffffffffffffffffffffffffffffffff1673ffffffffffffffffffffffffffffffffffffffff163373ffffffffffffffffffffffffffffffffffffffff16146105b0576040517f2b85f34b00000000000000000000000000000000000000000000000000000000815260040160405180910390fd5b600c825111156105ec576040517f9a4a496f00000000000000000000000000000000000000000000000000000000815260040160405180910390fd5b600015156105f983610c19565b151503610632576040517f4b5ac1d100000000000000000000000000000000000000000000000000000000815260040160405180910390fd5b6000151561063f82610a04565b15150361076d576003600081548092919061065990611935565b919050555081600560006003548152602001908152602001600020600001908051906020019061068a929190611250565b5042600560006003548152602001908152602001600020600101819055508060056000600354815260200190815260200160002060020160006101000a81548173ffffffffffffffffffffffffffffffffffffffff021916908373ffffffffffffffffffffffffffffffffffffffff16021790555060405161070b906119a3565b6040518091039020826040516107219190611873565b60405180910390208273ffffffffffffffffffffffffffffffffffffffff167f6eb3a1c6a4675ba92d44e090515b1ceea358f26565d2854df0c99c3f5eaf985060405160405180910390a45b6001151561077a82610a04565b15150361085157600061078c82610cc7565b905060006107998261047c565b9050836005600083815260200190815260200160002060000190805190602001906107c5929190611250565b504260056000838152602001908152602001600020600101819055506040516107ed906119a3565b6040518091039020846040516108039190611873565b60405180910390208473ffffffffffffffffffffffffffffffffffffffff167f6eb3a1c6a4675ba92d44e090515b1ceea358f26565d2854df0c99c3f5eaf985060405160405180910390a450505b5050565b600260009054906101000a900473ffffffffffffffffffffffffffffffffffffffff1673ffffffffffffffffffffffffffffffffffffffff163373ffffffffffffffffffffffffffffffffffffffff16146108e5576040517f08c379a00000000000000000000000000000000000000000000000000000000081526004016108dc90611a04565b60405180910390fd5b80600160006101000a81548173ffffffffffffffffffffffffffffffffffffffff021916908373ffffffffffffffffffffffffffffffffffffffff16021790555050565b60035481565b600260009054906101000a900473ffffffffffffffffffffffffffffffffffffffff1681565b600080600090505b600160045461096c91906117e1565b8110156109f9578273ffffffffffffffffffffffffffffffffffffffff166006600083815260200190815260200160002060020160009054906101000a900473ffffffffffffffffffffffffffffffffffffffff1673ffffffffffffffffffffffffffffffffffffffff16036109e65760019150506109ff565b80806109f190611935565b91505061095d565b50600090505b919050565b600080600090505b6001600354610a1b91906117e1565b811015610aa8578273ffffffffffffffffffffffffffffffffffffffff166005600083815260200190815260200160002060020160009054906101000a900473ffffffffffffffffffffffffffffffffffffffff1673ffffffffffffffffffffffffffffffffffffffff1603610a95576001915050610aae565b8080610aa090611935565b915050610a0c565b50600090505b919050565b60045481565b606060005b6001600454610acd91906117e1565b811015610bf7578273ffffffffffffffffffffffffffffffffffffffff166006600083815260200190815260200160002060020160009054906101000a900473ffffffffffffffffffffffffffffffffffffffff1673ffffffffffffffffffffffffffffffffffffffff1603610be457600660008281526020019081526020016000206000018054610b5e90611781565b80601f0160208091040260200160405190810160405280929190818152602001828054610b8a90611781565b8015610bd75780601f10610bac57610100808354040283529160200191610bd7565b820191906000526020600020905b815481529060010190602001808311610bba57829003601f168201915b5050505050915050610c14565b8080610bef90611935565b915050610abe565b506040518060800160405280604b8152602001611a71604b913990505b919050565b600080600090505b6001600354610c3091906117e1565b811015610cbc5782604051602001610c489190611873565b6040516020818303038152906040528051906020012060056000838152602001908152602001600020600001604051602001610c84919061191e565b6040516020818303038152906040528051906020012003610ca9576000915050610cc2565b8080610cb490611935565b915050610c21565b50600190505b919050565b606060005b6001600354610cdb91906117e1565b811015610e05578273ffffffffffffffffffffffffffffffffffffffff166005600083815260200190815260200160002060020160009054906101000a900473ffffffffffffffffffffffffffffffffffffffff1673ffffffffffffffffffffffffffffffffffffffff1603610df257600560008281526020019081526020016000206000018054610d6c90611781565b80601f0160208091040260200160405190810160405280929190818152602001828054610d9890611781565b8015610de55780601f10610dba57610100808354040283529160200191610de5565b820191906000526020600020905b815481529060010190602001808311610dc857829003601f168201915b5050505050915050610e22565b8080610dfd90611935565b915050610ccc565b506040518060800160405280604c8152602001611a25604c913990505b919050565b600160009054906101000a900473ffffffffffffffffffffffffffffffffffffffff1673ffffffffffffffffffffffffffffffffffffffff163373ffffffffffffffffffffffffffffffffffffffff1614610eae576040517f2b85f34b00000000000000000000000000000000000000000000000000000000815260040160405180910390fd5b60001515610ebb82610955565b151503610fe95760046000815480929190610ed590611935565b9190505550816006600060045481526020019081526020016000206000019080519060200190610f06929190611250565b5042600660006004548152602001908152602001600020600101819055508060066000600454815260200190815260200160002060020160006101000a81548173ffffffffffffffffffffffffffffffffffffffff021916908373ffffffffffffffffffffffffffffffffffffffff16021790555081604051610f899190611873565b6040518091039020604051610f9d906119a3565b60405180910390208273ffffffffffffffffffffffffffffffffffffffff167f6eb3a1c6a4675ba92d44e090515b1ceea358f26565d2854df0c99c3f5eaf985060405160405180910390a45b60011515610ff682610955565b1515036110cd57600061100882610ab9565b90506000611015826111a3565b905083600660008381526020019081526020016000206000019080519060200190611041929190611250565b504260066000838152602001908152602001600020600101819055508360405161106b9190611873565b604051809103902060405161107f906119a3565b60405180910390208473ffffffffffffffffffffffffffffffffffffffff167f6eb3a1c6a4675ba92d44e090515b1ceea358f26565d2854df0c99c3f5eaf985060405160405180910390a450505b5050565b60066020528060005260406000206000915090508060000180546110f490611781565b80601f016020809104026020016040519081016040528092919081815260200182805461112090611781565b801561116d5780601f106111425761010080835404028352916020019161116d565b820191906000526020600020905b81548152906001019060200180831161115057829003601f168201915b5050505050908060010154908060020160009054906101000a900473ffffffffffffffffffffffffffffffffffffffff16905083565b600080600090505b60016004546111ba91906117e1565b81101561124557826040516020016111d29190611873565b604051602081830303815290604052805190602001206006600083815260200190815260200160002060000160405160200161120e919061191e565b6040516020818303038152906040528051906020012003611232578091505061124b565b808061123d90611935565b9150506111ab565b50600090505b919050565b82805461125c90611781565b90600052602060002090601f01602090048101928261127e57600085556112c5565b82601f1061129757805160ff19168380011785556112c5565b828001600101855582156112c5579182015b828111156112c45782518255916020019190600101906112a9565b5b5090506112d291906112d6565b5090565b5b808211156112ef5760008160009055506001016112d7565b5090565b6000604051905090565b600080fd5b600080fd5b6000819050919050565b61131a81611307565b811461132557600080fd5b50565b60008135905061133781611311565b92915050565b600060208284031215611353576113526112fd565b5b600061136184828501611328565b91505092915050565b600081519050919050565b600082825260208201905092915050565b60005b838110156113a4578082015181840152602081019050611389565b838111156113b3576000848401525b50505050565b6000601f19601f8301169050919050565b60006113d58261136a565b6113df8185611375565b93506113ef818560208601611386565b6113f8816113b9565b840191505092915050565b61140c81611307565b82525050565b600073ffffffffffffffffffffffffffffffffffffffff82169050919050565b600061143d82611412565b9050919050565b61144d81611432565b82525050565b6000606082019050818103600083015261146d81866113ca565b905061147c6020830185611403565b6114896040830184611444565b949350505050565b60006020820190506114a66000830184611444565b92915050565b600080fd5b600080fd5b7f4e487b7100000000000000000000000000000000000000000000000000000000600052604160045260246000fd5b6114ee826113b9565b810181811067ffffffffffffffff8211171561150d5761150c6114b6565b5b80604052505050565b60006115206112f3565b905061152c82826114e5565b919050565b600067ffffffffffffffff82111561154c5761154b6114b6565b5b611555826113b9565b9050602081019050919050565b82818337600083830152505050565b600061158461157f84611531565b611516565b9050828152602081018484840111156115a05761159f6114b1565b5b6115ab848285611562565b509392505050565b600082601f8301126115c8576115c76114ac565b5b81356115d8848260208601611571565b91505092915050565b6000602082840312156115f7576115f66112fd565b5b600082013567ffffffffffffffff81111561161557611614611302565b5b611621848285016115b3565b91505092915050565b600060208201905061163f6000830184611403565b92915050565b61164e81611432565b811461165957600080fd5b50565b60008135905061166b81611645565b92915050565b60008060408385031215611688576116876112fd565b5b600083013567ffffffffffffffff8111156116a6576116a5611302565b5b6116b2858286016115b3565b92505060206116c38582860161165c565b9150509250929050565b6000602082840312156116e3576116e26112fd565b5b60006116f18482850161165c565b91505092915050565b60008115159050919050565b61170f816116fa565b82525050565b600060208201905061172a6000830184611706565b92915050565b6000602082019050818103600083015261174a81846113ca565b905092915050565b7f4e487b7100000000000000000000000000000000000000000000000000000000600052602260045260246000fd5b6000600282049050600182168061179957607f821691505b6020821081036117ac576117ab611752565b5b50919050565b7f4e487b7100000000000000000000000000000000000000000000000000000000600052601160045260246000fd5b60006117ec82611307565b91506117f783611307565b9250827fffffffffffffffffffffffffffffffffffffffffffffffffffffffffffffffff0382111561182c5761182b6117b2565b5b828201905092915050565b600081905092915050565b600061184d8261136a565b6118578185611837565b9350611867818560208601611386565b80840191505092915050565b600061187f8284611842565b915081905092915050565b60008190508160005260206000209050919050565b600081546118ac81611781565b6118b68186611837565b945060018216600081146118d157600181146118e257611915565b60ff19831686528186019350611915565b6118eb8561188a565b60005b8381101561190d578154818901526001820191506020810190506118ee565b838801955050505b50505092915050565b600061192a828461189f565b915081905092915050565b600061194082611307565b91507fffffffffffffffffffffffffffffffffffffffffffffffffffffffffffffffff8203611972576119716117b2565b5b600182019050919050565b50565b600061198d600083611837565b91506119988261197d565b600082019050919050565b60006119ae82611980565b9150819050919050565b7f77726f6e67206f776e6572206164647265737300000000000000000000000000600082015250565b60006119ee601383611375565b91506119f9826119b8565b602082019050919050565b60006020820190508181036000830152611a1d816119e1565b905091905056fe596f7520736565696e672074686973206d65737361676520697320626563756173652074686973206164647265737320646f6e2774206861766520616e79206e616d65206372656174656421596f7520736565696e672074686973206d65737361676520697320626563756173652074686973206164647265737320646f6e2774206861766520616e7920706670206372656174656421a26469706673582212201336640e2123a05c10cc4864d5026703708cf4a4dfd1803c5e03ef46b785e4bb64736f6c634300080e0033",
  "devdoc": {
    "kind": "dev",
    "methods": {},
    "version": 1
  },
  "userdoc": {
    "kind": "user",
    "methods": {},
    "version": 1
  },
  "storageLayout": {
    "storage": [
      {
        "astId": 169,
        "contract": "contracts/core/SignetProfileSys.sol:SignetProfileSys",
        "label": "_status",
        "offset": 0,
        "slot": "0",
        "type": "t_uint256"
      },
      {
        "astId": 3883,
        "contract": "contracts/core/SignetProfileSys.sol:SignetProfileSys",
        "label": "signetControllor",
        "offset": 0,
        "slot": "1",
        "type": "t_address"
      },
      {
        "astId": 3885,
        "contract": "contracts/core/SignetProfileSys.sol:SignetProfileSys",
        "label": "owner",
        "offset": 0,
        "slot": "2",
        "type": "t_address"
      },
      {
        "astId": 3887,
        "contract": "contracts/core/SignetProfileSys.sol:SignetProfileSys",
        "label": "totalName",
        "offset": 0,
        "slot": "3",
        "type": "t_uint256"
      },
      {
        "astId": 3889,
        "contract": "contracts/core/SignetProfileSys.sol:SignetProfileSys",
        "label": "totalpfp",
        "offset": 0,
        "slot": "4",
        "type": "t_uint256"
      },
      {
        "astId": 3901,
        "contract": "contracts/core/SignetProfileSys.sol:SignetProfileSys",
        "label": "name",
        "offset": 0,
        "slot": "5",
        "type": "t_mapping(t_uint256,t_struct(nameStruct)3896_storage)"
      },
      {
        "astId": 3913,
        "contract": "contracts/core/SignetProfileSys.sol:SignetProfileSys",
        "label": "pfp",
        "offset": 0,
        "slot": "6",
        "type": "t_mapping(t_uint256,t_struct(pfpStruct)3908_storage)"
      }
    ],
    "types": {
      "t_address": {
        "encoding": "inplace",
        "label": "address",
        "numberOfBytes": "20"
      },
      "t_mapping(t_uint256,t_struct(nameStruct)3896_storage)": {
        "encoding": "mapping",
        "key": "t_uint256",
        "label": "mapping(uint256 => struct SignetProfileSys.nameStruct)",
        "numberOfBytes": "32",
        "value": "t_struct(nameStruct)3896_storage"
      },
      "t_mapping(t_uint256,t_struct(pfpStruct)3908_storage)": {
        "encoding": "mapping",
        "key": "t_uint256",
        "label": "mapping(uint256 => struct SignetProfileSys.pfpStruct)",
        "numberOfBytes": "32",
        "value": "t_struct(pfpStruct)3908_storage"
      },
      "t_string_storage": {
        "encoding": "bytes",
        "label": "string",
        "numberOfBytes": "32"
      },
      "t_struct(nameStruct)3896_storage": {
        "encoding": "inplace",
        "label": "struct SignetProfileSys.nameStruct",
        "members": [
          {
            "astId": 3891,
            "contract": "contracts/core/SignetProfileSys.sol:SignetProfileSys",
            "label": "name",
            "offset": 0,
            "slot": "0",
            "type": "t_string_storage"
          },
          {
            "astId": 3893,
            "contract": "contracts/core/SignetProfileSys.sol:SignetProfileSys",
            "label": "timeUpdated",
            "offset": 0,
            "slot": "1",
            "type": "t_uint256"
          },
          {
            "astId": 3895,
            "contract": "contracts/core/SignetProfileSys.sol:SignetProfileSys",
            "label": "owner",
            "offset": 0,
            "slot": "2",
            "type": "t_address"
          }
        ],
        "numberOfBytes": "96"
      },
      "t_struct(pfpStruct)3908_storage": {
        "encoding": "inplace",
        "label": "struct SignetProfileSys.pfpStruct",
        "members": [
          {
            "astId": 3903,
            "contract": "contracts/core/SignetProfileSys.sol:SignetProfileSys",
            "label": "pfp",
            "offset": 0,
            "slot": "0",
            "type": "t_string_storage"
          },
          {
            "astId": 3905,
            "contract": "contracts/core/SignetProfileSys.sol:SignetProfileSys",
            "label": "timeUpdated",
            "offset": 0,
            "slot": "1",
            "type": "t_uint256"
          },
          {
            "astId": 3907,
            "contract": "contracts/core/SignetProfileSys.sol:SignetProfileSys",
            "label": "owner",
            "offset": 0,
            "slot": "2",
            "type": "t_address"
          }
        ],
        "numberOfBytes": "96"
      },
      "t_uint256": {
        "encoding": "inplace",
        "label": "uint256",
        "numberOfBytes": "32"
      }
    }
  }
}