{
  "address": "0x1952A8046B1e549CC05E680283219e855CAf1d9b",
  "abi": [
    {
      "inputs": [
        {
          "internalType": "address",
          "name": "_signetprofileSys",
          "type": "address"
        },
        {
          "internalType": "address",
          "name": "_signetFollowSys",
          "type": "address"
        }
      ],
      "stateMutability": "nonpayable",
      "type": "constructor"
    },
    {
      "inputs": [],
      "name": "Contract__Created",
      "type": "error"
    },
    {
      "inputs": [],
      "name": "No__ContractCreated",
      "type": "error"
    },
    {
      "inputs": [],
      "name": "Wrong__Contract",
      "type": "error"
    },
    {
      "anonymous": false,
      "inputs": [
        {
          "indexed": true,
          "internalType": "address",
          "name": "creatoraddress",
          "type": "address"
        },
        {
          "indexed": true,
          "internalType": "address",
          "name": "collectionaddress",
          "type": "address"
        }
      ],
      "name": "CollectionCreated",
      "type": "event"
    },
    {
      "anonymous": false,
      "inputs": [
        {
          "indexed": true,
          "internalType": "address",
          "name": "messageSender",
          "type": "address"
        },
        {
          "indexed": true,
          "internalType": "address",
          "name": "signetoraddress",
          "type": "address"
        },
        {
          "indexed": false,
          "internalType": "uint256",
          "name": "messageId",
          "type": "uint256"
        },
        {
          "indexed": false,
          "internalType": "uint256",
          "name": "signetId",
          "type": "uint256"
        },
        {
          "indexed": false,
          "internalType": "string",
          "name": "tokenURI_",
          "type": "string"
        },
        {
          "indexed": false,
          "internalType": "uint256",
          "name": "time",
          "type": "uint256"
        }
      ],
      "name": "NewMessageSent",
      "type": "event"
    },
    {
      "anonymous": false,
      "inputs": [
        {
          "indexed": true,
          "internalType": "address",
          "name": "previousOwner",
          "type": "address"
        },
        {
          "indexed": true,
          "internalType": "address",
          "name": "newOwner",
          "type": "address"
        }
      ],
      "name": "OwnershipTransferred",
      "type": "event"
    },
    {
      "inputs": [],
      "name": "TotalSignetorsNum",
      "outputs": [
        {
          "internalType": "uint256",
          "name": "",
          "type": "uint256"
        }
      ],
      "stateMutability": "view",
      "type": "function"
    },
    {
      "inputs": [
        {
          "internalType": "address",
          "name": "signetUserAddress",
          "type": "address"
        }
      ],
      "name": "checkName",
      "outputs": [
        {
          "internalType": "string",
          "name": "",
          "type": "string"
        }
      ],
      "stateMutability": "view",
      "type": "function"
    },
    {
      "inputs": [
        {
          "internalType": "string",
          "name": "_name",
          "type": "string"
        }
      ],
      "name": "checkNameAvalable",
      "outputs": [
        {
          "internalType": "bool",
          "name": "",
          "type": "bool"
        }
      ],
      "stateMutability": "view",
      "type": "function"
    },
    {
      "inputs": [
        {
          "internalType": "address",
          "name": "signetUserAddress",
          "type": "address"
        }
      ],
      "name": "checkPfp",
      "outputs": [
        {
          "internalType": "string",
          "name": "",
          "type": "string"
        }
      ],
      "stateMutability": "view",
      "type": "function"
    },
    {
      "inputs": [
        {
          "internalType": "address",
          "name": "signetor",
          "type": "address"
        },
        {
          "internalType": "address",
          "name": "followersaddress",
          "type": "address"
        }
      ],
      "name": "checkfollowed",
      "outputs": [
        {
          "internalType": "bool",
          "name": "",
          "type": "bool"
        }
      ],
      "stateMutability": "view",
      "type": "function"
    },
    {
      "inputs": [
        {
          "internalType": "uint256",
          "name": "signetID",
          "type": "uint256"
        },
        {
          "internalType": "address",
          "name": "likedAddress",
          "type": "address"
        }
      ],
      "name": "checkliked",
      "outputs": [
        {
          "internalType": "bool",
          "name": "",
          "type": "bool"
        }
      ],
      "stateMutability": "view",
      "type": "function"
    },
    {
      "inputs": [
        {
          "internalType": "address",
          "name": "",
          "type": "address"
        }
      ],
      "name": "collectionContractList",
      "outputs": [
        {
          "internalType": "address",
          "name": "owner",
          "type": "address"
        }
      ],
      "stateMutability": "view",
      "type": "function"
    },
    {
      "inputs": [
        {
          "internalType": "string",
          "name": "_name",
          "type": "string"
        },
        {
          "internalType": "string",
          "name": "_symbol",
          "type": "string"
        }
      ],
      "name": "controllorCreateSignetor",
      "outputs": [],
      "stateMutability": "nonpayable",
      "type": "function"
    },
    {
      "inputs": [
        {
          "internalType": "address",
          "name": "signetor",
          "type": "address"
        }
      ],
      "name": "follow",
      "outputs": [],
      "stateMutability": "nonpayable",
      "type": "function"
    },
    {
      "inputs": [
        {
          "internalType": "address",
          "name": "signetor",
          "type": "address"
        }
      ],
      "name": "getFollowers",
      "outputs": [
        {
          "internalType": "address[]",
          "name": "",
          "type": "address[]"
        }
      ],
      "stateMutability": "view",
      "type": "function"
    },
    {
      "inputs": [
        {
          "internalType": "address",
          "name": "signetor",
          "type": "address"
        }
      ],
      "name": "getFollowersNum",
      "outputs": [
        {
          "internalType": "uint256",
          "name": "",
          "type": "uint256"
        }
      ],
      "stateMutability": "view",
      "type": "function"
    },
    {
      "inputs": [
        {
          "internalType": "address",
          "name": "signetor",
          "type": "address"
        }
      ],
      "name": "getFollowings",
      "outputs": [
        {
          "internalType": "address[]",
          "name": "",
          "type": "address[]"
        }
      ],
      "stateMutability": "view",
      "type": "function"
    },
    {
      "inputs": [
        {
          "internalType": "address",
          "name": "signetor",
          "type": "address"
        }
      ],
      "name": "getFollowingsNum",
      "outputs": [
        {
          "internalType": "uint256",
          "name": "",
          "type": "uint256"
        }
      ],
      "stateMutability": "view",
      "type": "function"
    },
    {
      "inputs": [
        {
          "internalType": "uint256",
          "name": "SignetId",
          "type": "uint256"
        }
      ],
      "name": "getLikeContributor",
      "outputs": [
        {
          "internalType": "address[]",
          "name": "",
          "type": "address[]"
        }
      ],
      "stateMutability": "view",
      "type": "function"
    },
    {
      "inputs": [
        {
          "internalType": "uint256",
          "name": "SignetId",
          "type": "uint256"
        }
      ],
      "name": "getLikedNum",
      "outputs": [
        {
          "internalType": "uint256",
          "name": "",
          "type": "uint256"
        }
      ],
      "stateMutability": "view",
      "type": "function"
    },
    {
      "inputs": [
        {
          "internalType": "address",
          "name": "contractOwner",
          "type": "address"
        }
      ],
      "name": "getOwnerContractForSignetor",
      "outputs": [
        {
          "internalType": "address",
          "name": "",
          "type": "address"
        }
      ],
      "stateMutability": "view",
      "type": "function"
    },
    {
      "inputs": [
        {
          "internalType": "address",
          "name": "contractOwner",
          "type": "address"
        }
      ],
      "name": "getOwnerNumContractOfSignetor",
      "outputs": [
        {
          "internalType": "uint256",
          "name": "",
          "type": "uint256"
        }
      ],
      "stateMutability": "view",
      "type": "function"
    },
    {
      "inputs": [
        {
          "internalType": "uint256",
          "name": "SignetId",
          "type": "uint256"
        }
      ],
      "name": "getStarContributor",
      "outputs": [
        {
          "internalType": "address[]",
          "name": "",
          "type": "address[]"
        }
      ],
      "stateMutability": "view",
      "type": "function"
    },
    {
      "inputs": [
        {
          "internalType": "uint256",
          "name": "SignetId",
          "type": "uint256"
        }
      ],
      "name": "getStaredNum",
      "outputs": [
        {
          "internalType": "uint256",
          "name": "",
          "type": "uint256"
        }
      ],
      "stateMutability": "view",
      "type": "function"
    },
    {
      "inputs": [
        {
          "internalType": "address",
          "name": "SignetorAddress",
          "type": "address"
        }
      ],
      "name": "getStaredNumForSignetor",
      "outputs": [
        {
          "internalType": "uint256",
          "name": "",
          "type": "uint256"
        }
      ],
      "stateMutability": "view",
      "type": "function"
    },
    {
      "inputs": [
        {
          "internalType": "address",
          "name": "signetUserAddress",
          "type": "address"
        }
      ],
      "name": "hasName",
      "outputs": [
        {
          "internalType": "bool",
          "name": "",
          "type": "bool"
        }
      ],
      "stateMutability": "view",
      "type": "function"
    },
    {
      "inputs": [
        {
          "internalType": "address",
          "name": "signetUserAddress",
          "type": "address"
        }
      ],
      "name": "hasPfp",
      "outputs": [
        {
          "internalType": "bool",
          "name": "",
          "type": "bool"
        }
      ],
      "stateMutability": "view",
      "type": "function"
    },
    {
      "inputs": [
        {
          "internalType": "address",
          "name": "SignetIdOwner",
          "type": "address"
        },
        {
          "internalType": "uint256",
          "name": "SignetId",
          "type": "uint256"
        }
      ],
      "name": "like",
      "outputs": [],
      "stateMutability": "nonpayable",
      "type": "function"
    },
    {
      "inputs": [
        {
          "internalType": "string",
          "name": "_newname",
          "type": "string"
        }
      ],
      "name": "modifyNameForUser",
      "outputs": [],
      "stateMutability": "nonpayable",
      "type": "function"
    },
    {
      "inputs": [
        {
          "internalType": "string",
          "name": "_newpfp",
          "type": "string"
        }
      ],
      "name": "modifyPfpForUser",
      "outputs": [],
      "stateMutability": "nonpayable",
      "type": "function"
    },
    {
      "inputs": [],
      "name": "owner",
      "outputs": [
        {
          "internalType": "address",
          "name": "",
          "type": "address"
        }
      ],
      "stateMutability": "view",
      "type": "function"
    },
    {
      "inputs": [],
      "name": "renounceOwnership",
      "outputs": [],
      "stateMutability": "nonpayable",
      "type": "function"
    },
    {
      "inputs": [
        {
          "internalType": "address",
          "name": "addr",
          "type": "address"
        },
        {
          "internalType": "string",
          "name": "tokenURI_",
          "type": "string"
        }
      ],
      "name": "sendmessage",
      "outputs": [
        {
          "internalType": "bool",
          "name": "success",
          "type": "bool"
        }
      ],
      "stateMutability": "nonpayable",
      "type": "function"
    },
    {
      "inputs": [
        {
          "internalType": "address",
          "name": "SignetIdOwner",
          "type": "address"
        },
        {
          "internalType": "uint256",
          "name": "SignetId",
          "type": "uint256"
        }
      ],
      "name": "star",
      "outputs": [],
      "stateMutability": "payable",
      "type": "function"
    },
    {
      "inputs": [
        {
          "internalType": "address",
          "name": "newOwner",
          "type": "address"
        }
      ],
      "name": "transferOwnership",
      "outputs": [],
      "stateMutability": "nonpayable",
      "type": "function"
    },
    {
      "inputs": [
        {
          "internalType": "address",
          "name": "signetor",
          "type": "address"
        }
      ],
      "name": "unfollow",
      "outputs": [],
      "stateMutability": "nonpayable",
      "type": "function"
    },
    {
      "inputs": [
        {
          "internalType": "address",
          "name": "SignetIdOwner",
          "type": "address"
        },
        {
          "internalType": "uint256",
          "name": "SignetId",
          "type": "uint256"
        }
      ],
      "name": "unlike",
      "outputs": [],
      "stateMutability": "nonpayable",
      "type": "function"
    }
  ],
  "transactionHash": "0x6951834a6e44e9fc0ecaf6740f8e4ec3ad0f18e3ee531451b19929da7655779f",
  "args": [
    "0xf53B6145246810ee99E5A75E720550A0f38c0E00",
    "0x7c3FFEdd23710188be6e2eFdaC4a7d2fFA04523c"
  ],
  "numDeployments": 18,
  "solcInputHash": "361a081809d3b26d485b9ed86e58b75b",
  "bytecode": "0x60806040523480156200001157600080fd5b50604051620075f3380380620075f383398181016040528101906200003791906200036f565b60016000819055506200005f620000536200022960201b60201c565b6200023160201b60201c565b6040516200006d90620002f7565b604051809103906000f0801580156200008a573d6000803e3d6000fd5b50600360006101000a81548173ffffffffffffffffffffffffffffffffffffffff021916908373ffffffffffffffffffffffffffffffffffffffff160217905550600360009054906101000a900473ffffffffffffffffffffffffffffffffffffffff1673ffffffffffffffffffffffffffffffffffffffff166366d11c1a6040518163ffffffff1660e01b8152600401602060405180830381865afa15801562000139573d6000803e3d6000fd5b505050506040513d601f19601f820116820180604052508101906200015f9190620003b6565b600460006101000a81548173ffffffffffffffffffffffffffffffffffffffff021916908373ffffffffffffffffffffffffffffffffffffffff16021790555081600660006101000a81548173ffffffffffffffffffffffffffffffffffffffff021916908373ffffffffffffffffffffffffffffffffffffffff16021790555080600760006101000a81548173ffffffffffffffffffffffffffffffffffffffff021916908373ffffffffffffffffffffffffffffffffffffffff1602179055505050620003e8565b600033905090565b6000600160009054906101000a900473ffffffffffffffffffffffffffffffffffffffff16905081600160006101000a81548173ffffffffffffffffffffffffffffffffffffffff021916908373ffffffffffffffffffffffffffffffffffffffff1602179055508173ffffffffffffffffffffffffffffffffffffffff168173ffffffffffffffffffffffffffffffffffffffff167f8be0079c531659141344cd1fd0a4f28419497f9722a3daafe3b4186f6b6457e060405160405180910390a35050565b61441d80620031d683390190565b600080fd5b600073ffffffffffffffffffffffffffffffffffffffff82169050919050565b600062000337826200030a565b9050919050565b62000349816200032a565b81146200035557600080fd5b50565b60008151905062000369816200033e565b92915050565b6000806040838503121562000389576200038862000305565b5b6000620003998582860162000358565b9250506020620003ac8582860162000358565b9150509250929050565b600060208284031215620003cf57620003ce62000305565b5b6000620003df8482850162000358565b91505092915050565b612dde80620003f86000396000f3fe6080604052600436106101e35760003560e01c80639667d65e11610102578063c2fe202211610095578063cca22f7911610064578063cca22f79146107c3578063d8fb768b14610800578063e4626c8f1461082b578063f2fde38b14610854576101e3565b8063c2fe2022146106cf578063c356e39f1461070c578063cacdff4314610749578063cb85299414610786576101e3565b8063ad4520e7116100d1578063ad4520e714610617578063aeda352b14610640578063aee99a861461067d578063b0ee502f146106a6576101e3565b80639667d65e146105235780639679a3c8146105605780639f71d03c1461059d578063abf723fe146105da576101e3565b8063611763911161017a57806376e262f51161014957806376e262f5146104625780637ce115981461049f5780638143c1f5146104bb5780638da5cb5b146104f8576101e3565b8063611763911461039457806369ff24ed146103d15780636c3155561461040e578063715018a61461044b576101e3565b80633958b30f116101b65780633958b30f146102c85780634dbf27cc146102f157806352dcdf7e1461031a5780635a9eb28914610357576101e3565b8063015a4ead146101e85780631e59cebb14610211578063292d8f061461024e57806330c9514a1461028b575b600080fd5b3480156101f457600080fd5b5061020f600480360381019061020a91906121b0565b61087d565b005b34801561021d57600080fd5b5061023860048036038101906102339190612213565b610951565b60405161024591906122fe565b60405180910390f35b34801561025a57600080fd5b5061027560048036038101906102709190612320565b6109fb565b604051610282919061237b565b60405180910390f35b34801561029757600080fd5b506102b260048036038101906102ad9190612213565b610aa3565b6040516102bf91906123a5565b60405180910390f35b3480156102d457600080fd5b506102ef60048036038101906102ea9190612506565b610b48565b005b3480156102fd57600080fd5b50610318600480360381019061031391906121b0565b610d5d565b005b34801561032657600080fd5b50610341600480360381019061033c91906121b0565b610e31565b60405161034e91906123a5565b60405180910390f35b34801561036357600080fd5b5061037e6004803603810190610379919061257e565b610ed6565b60405161038b919061237b565b60405180910390f35b3480156103a057600080fd5b506103bb60048036038101906103b69190612213565b61118e565b6040516103c891906122fe565b60405180910390f35b3480156103dd57600080fd5b506103f860048036038101906103f391906121b0565b611238565b60405161040591906123a5565b60405180910390f35b34801561041a57600080fd5b5061043560048036038101906104309190612213565b6112dd565b60405161044291906123a5565b60405180910390f35b34801561045757600080fd5b50610460611382565b005b34801561046e57600080fd5b50610489600480360381019061048491906125da565b611396565b604051610496919061237b565b60405180910390f35b6104b960048036038101906104b4919061261a565b61143e565b005b3480156104c757600080fd5b506104e260048036038101906104dd91906121b0565b611516565b6040516104ef91906123a5565b60405180910390f35b34801561050457600080fd5b5061050d6115c0565b60405161051a9190612669565b60405180910390f35b34801561052f57600080fd5b5061054a600480360381019061054591906121b0565b6115ea565b604051610557919061237b565b60405180910390f35b34801561056c57600080fd5b50610587600480360381019061058291906121b0565b61168f565b6040516105949190612669565b60405180910390f35b3480156105a957600080fd5b506105c460048036038101906105bf91906121b0565b61173e565b6040516105d19190612669565b60405180910390f35b3480156105e657600080fd5b5061060160048036038101906105fc91906121b0565b61177c565b60405161060e91906123a5565b60405180910390f35b34801561062357600080fd5b5061063e60048036038101906106399190612684565b611821565b005b34801561064c57600080fd5b50610667600480360381019061066291906121b0565b6118f5565b604051610674919061237b565b60405180910390f35b34801561068957600080fd5b506106a4600480360381019061069f9190612684565b61199a565b005b3480156106b257600080fd5b506106cd60048036038101906106c8919061261a565b611a6e565b005b3480156106db57600080fd5b506106f660048036038101906106f191906121b0565b611b45565b60405161070391906122fe565b60405180910390f35b34801561071857600080fd5b50610733600480360381019061072e91906121b0565b611bef565b6040516107409190612755565b60405180910390f35b34801561075557600080fd5b50610770600480360381019061076b9190612684565b611c99565b60405161077d919061237b565b60405180910390f35b34801561079257600080fd5b506107ad60048036038101906107a891906121b0565b611d3e565b6040516107ba9190612755565b60405180910390f35b3480156107cf57600080fd5b506107ea60048036038101906107e591906121b0565b611de8565b6040516107f791906122fe565b60405180910390f35b34801561080c57600080fd5b50610815611e92565b60405161082291906123a5565b60405180910390f35b34801561083757600080fd5b50610852600480360381019061084d919061261a565b611e98565b005b34801561086057600080fd5b5061087b600480360381019061087691906121b0565b611f6f565b005b600061088833611516565b036108bf576040517f1b9ad8d100000000000000000000000000000000000000000000000000000000815260040160405180910390fd5b600760009054906101000a900473ffffffffffffffffffffffffffffffffffffffff1673ffffffffffffffffffffffffffffffffffffffff1663c9f4b84a33836040518363ffffffff1660e01b815260040161091c929190612777565b600060405180830381600087803b15801561093657600080fd5b505af115801561094a573d6000803e3d6000fd5b5050505050565b6060600760009054906101000a900473ffffffffffffffffffffffffffffffffffffffff1673ffffffffffffffffffffffffffffffffffffffff16631e59cebb836040518263ffffffff1660e01b81526004016109ae91906123a5565b600060405180830381865afa1580156109cb573d6000803e3d6000fd5b505050506040513d6000823e3d601f19601f820116820180604052508101906109f4919061287d565b9050919050565b6000600760009054906101000a900473ffffffffffffffffffffffffffffffffffffffff1673ffffffffffffffffffffffffffffffffffffffff1663292d8f0684846040518363ffffffff1660e01b8152600401610a5a929190612777565b602060405180830381865afa158015610a77573d6000803e3d6000fd5b505050506040513d601f19601f82011682018060405250810190610a9b91906128f2565b905092915050565b6000600760009054906101000a900473ffffffffffffffffffffffffffffffffffffffff1673ffffffffffffffffffffffffffffffffffffffff166330c9514a836040518263ffffffff1660e01b8152600401610b0091906123a5565b602060405180830381865afa158015610b1d573d6000803e3d6000fd5b505050506040513d601f19601f82011682018060405250810190610b419190612934565b9050919050565b6000610b5333611516565b14610b8a576040517f43d73cc300000000000000000000000000000000000000000000000000000000815260040160405180910390fd5b6000600460009054906101000a900473ffffffffffffffffffffffffffffffffffffffff1673ffffffffffffffffffffffffffffffffffffffff16632bb85f6b8484336040518463ffffffff1660e01b8152600401610beb93929190612961565b6060604051808303816000875af1158015610c0a573d6000803e3d6000fd5b505050506040513d601f19601f82011682018060405250810190610c2e91906129a6565b5091505060056000815480929190610c4590612a28565b9190505550600060405180602001604052803373ffffffffffffffffffffffffffffffffffffffff16815250905080600860008473ffffffffffffffffffffffffffffffffffffffff1673ffffffffffffffffffffffffffffffffffffffff16815260200190815260200160002060008201518160000160006101000a81548173ffffffffffffffffffffffffffffffffffffffff021916908373ffffffffffffffffffffffffffffffffffffffff1602179055509050508173ffffffffffffffffffffffffffffffffffffffff163373ffffffffffffffffffffffffffffffffffffffff167f5d0de243db1669e3a7056744cd715c625f0c1c348736c2c2d53d0ddebff1a6c760405160405180910390a350505050565b6000610d6833611516565b03610d9f576040517f1b9ad8d100000000000000000000000000000000000000000000000000000000815260040160405180910390fd5b600760009054906101000a900473ffffffffffffffffffffffffffffffffffffffff1673ffffffffffffffffffffffffffffffffffffffff166399d147c233836040518363ffffffff1660e01b8152600401610dfc929190612777565b600060405180830381600087803b158015610e1657600080fd5b505af1158015610e2a573d6000803e3d6000fd5b5050505050565b6000600760009054906101000a900473ffffffffffffffffffffffffffffffffffffffff1673ffffffffffffffffffffffffffffffffffffffff166352dcdf7e836040518263ffffffff1660e01b8152600401610e8e9190612669565b602060405180830381865afa158015610eab573d6000803e3d6000fd5b505050506040513d601f19601f82011682018060405250810190610ecf9190612934565b9050919050565b600080610ee233611516565b03610f19576040517f1b9ad8d100000000000000000000000000000000000000000000000000000000815260040160405180910390fd5b6000610f243361168f565b90508073ffffffffffffffffffffffffffffffffffffffff168473ffffffffffffffffffffffffffffffffffffffff1614610f8b576040517f4fe77a0b00000000000000000000000000000000000000000000000000000000815260040160405180910390fd5b83600260006101000a81548173ffffffffffffffffffffffffffffffffffffffff021916908373ffffffffffffffffffffffffffffffffffffffff1602179055506000600260009054906101000a900473ffffffffffffffffffffffffffffffffffffffff1673ffffffffffffffffffffffffffffffffffffffff166323cbe4d6856040518263ffffffff1660e01b81526004016110299190612755565b6020604051808303816000875af1158015611048573d6000803e3d6000fd5b505050506040513d601f19601f8201168201806040525081019061106c9190612934565b905060004290506000600760009054906101000a900473ffffffffffffffffffffffffffffffffffffffff1673ffffffffffffffffffffffffffffffffffffffff16633776c824336040518263ffffffff1660e01b81526004016110d09190612669565b6020604051808303816000875af11580156110ef573d6000803e3d6000fd5b505050506040513d601f19601f820116820180604052508101906111139190612934565b90508673ffffffffffffffffffffffffffffffffffffffff163373ffffffffffffffffffffffffffffffffffffffff167f0e7f8f6e7e17f7389c542dc3a4de2ddb085234ce39b24e52345aa4c22e7c2ba385848a876040516111789493929190612a70565b60405180910390a3600194505050505092915050565b6060600760009054906101000a900473ffffffffffffffffffffffffffffffffffffffff1673ffffffffffffffffffffffffffffffffffffffff166361176391836040518263ffffffff1660e01b81526004016111eb91906123a5565b600060405180830381865afa158015611208573d6000803e3d6000fd5b505050506040513d6000823e3d601f19601f82011682018060405250810190611231919061287d565b9050919050565b6000600760009054906101000a900473ffffffffffffffffffffffffffffffffffffffff1673ffffffffffffffffffffffffffffffffffffffff166369ff24ed836040518263ffffffff1660e01b81526004016112959190612669565b602060405180830381865afa1580156112b2573d6000803e3d6000fd5b505050506040513d601f19601f820116820180604052508101906112d69190612934565b9050919050565b6000600760009054906101000a900473ffffffffffffffffffffffffffffffffffffffff1673ffffffffffffffffffffffffffffffffffffffff16636c315556836040518263ffffffff1660e01b815260040161133a91906123a5565b602060405180830381865afa158015611357573d6000803e3d6000fd5b505050506040513d601f19601f8201168201806040525081019061137b9190612934565b9050919050565b61138a611ff2565b6113946000612070565b565b6000600760009054906101000a900473ffffffffffffffffffffffffffffffffffffffff1673ffffffffffffffffffffffffffffffffffffffff166376e262f584846040518363ffffffff1660e01b81526004016113f5929190612abc565b602060405180830381865afa158015611412573d6000803e3d6000fd5b505050506040513d601f19601f8201168201806040525081019061143691906128f2565b905092915050565b600061144933611516565b03611480576040517f1b9ad8d100000000000000000000000000000000000000000000000000000000815260040160405180910390fd5b600760009054906101000a900473ffffffffffffffffffffffffffffffffffffffff1673ffffffffffffffffffffffffffffffffffffffff1663c8ec3dc1343385856040518563ffffffff1660e01b81526004016114e093929190612ae5565b6000604051808303818588803b1580156114f957600080fd5b505af115801561150d573d6000803e3d6000fd5b50505050505050565b600080600460009054906101000a900473ffffffffffffffffffffffffffffffffffffffff1673ffffffffffffffffffffffffffffffffffffffff16635c284dc0846040518263ffffffff1660e01b81526004016115749190612669565b602060405180830381865afa158015611591573d6000803e3d6000fd5b505050506040513d601f19601f820116820180604052508101906115b59190612934565b905080915050919050565b6000600160009054906101000a900473ffffffffffffffffffffffffffffffffffffffff16905090565b6000600660009054906101000a900473ffffffffffffffffffffffffffffffffffffffff1673ffffffffffffffffffffffffffffffffffffffff16639667d65e836040518263ffffffff1660e01b81526004016116479190612669565b602060405180830381865afa158015611664573d6000803e3d6000fd5b505050506040513d601f19601f8201168201806040525081019061168891906128f2565b9050919050565b600080600460009054906101000a900473ffffffffffffffffffffffffffffffffffffffff1673ffffffffffffffffffffffffffffffffffffffff16636f7fd7ab6000856040518363ffffffff1660e01b81526004016116f0929190612b61565b606060405180830381865afa15801561170d573d6000803e3d6000fd5b505050506040513d601f19601f8201168201806040525081019061173191906129a6565b5091505080915050919050565b60086020528060005260406000206000915090508060000160009054906101000a900473ffffffffffffffffffffffffffffffffffffffff16905081565b6000600760009054906101000a900473ffffffffffffffffffffffffffffffffffffffff1673ffffffffffffffffffffffffffffffffffffffff1663abf723fe836040518263ffffffff1660e01b81526004016117d99190612669565b602060405180830381865afa1580156117f6573d6000803e3d6000fd5b505050506040513d601f19601f8201168201806040525081019061181a9190612934565b9050919050565b600061182c33611516565b03611863576040517f1b9ad8d100000000000000000000000000000000000000000000000000000000815260040160405180910390fd5b600660009054906101000a900473ffffffffffffffffffffffffffffffffffffffff1673ffffffffffffffffffffffffffffffffffffffff166338c3721a82336040518363ffffffff1660e01b81526004016118c0929190612b8a565b600060405180830381600087803b1580156118da57600080fd5b505af11580156118ee573d6000803e3d6000fd5b5050505050565b6000600660009054906101000a900473ffffffffffffffffffffffffffffffffffffffff1673ffffffffffffffffffffffffffffffffffffffff1663aeda352b836040518263ffffffff1660e01b81526004016119529190612669565b602060405180830381865afa15801561196f573d6000803e3d6000fd5b505050506040513d601f19601f8201168201806040525081019061199391906128f2565b9050919050565b60006119a533611516565b036119dc576040517f1b9ad8d100000000000000000000000000000000000000000000000000000000815260040160405180910390fd5b600660009054906101000a900473ffffffffffffffffffffffffffffffffffffffff1673ffffffffffffffffffffffffffffffffffffffff1663d5329f7982336040518363ffffffff1660e01b8152600401611a39929190612b8a565b600060405180830381600087803b158015611a5357600080fd5b505af1158015611a67573d6000803e3d6000fd5b5050505050565b6000611a7933611516565b03611ab0576040517f1b9ad8d100000000000000000000000000000000000000000000000000000000815260040160405180910390fd5b600760009054906101000a900473ffffffffffffffffffffffffffffffffffffffff1673ffffffffffffffffffffffffffffffffffffffff16631ae98eb93383856040518463ffffffff1660e01b8152600401611b0f93929190612bba565b600060405180830381600087803b158015611b2957600080fd5b505af1158015611b3d573d6000803e3d6000fd5b505050505050565b6060600760009054906101000a900473ffffffffffffffffffffffffffffffffffffffff1673ffffffffffffffffffffffffffffffffffffffff1663c2fe2022836040518263ffffffff1660e01b8152600401611ba29190612669565b600060405180830381865afa158015611bbf573d6000803e3d6000fd5b505050506040513d6000823e3d601f19601f82011682018060405250810190611be8919061287d565b9050919050565b6060600660009054906101000a900473ffffffffffffffffffffffffffffffffffffffff1673ffffffffffffffffffffffffffffffffffffffff1663c356e39f836040518263ffffffff1660e01b8152600401611c4c9190612669565b600060405180830381865afa158015611c69573d6000803e3d6000fd5b505050506040513d6000823e3d601f19601f82011682018060405250810190611c929190612c61565b9050919050565b6000600660009054906101000a900473ffffffffffffffffffffffffffffffffffffffff1673ffffffffffffffffffffffffffffffffffffffff1663cacdff43836040518263ffffffff1660e01b8152600401611cf69190612755565b602060405180830381865afa158015611d13573d6000803e3d6000fd5b505050506040513d601f19601f82011682018060405250810190611d3791906128f2565b9050919050565b6060600660009054906101000a900473ffffffffffffffffffffffffffffffffffffffff1673ffffffffffffffffffffffffffffffffffffffff1663cb852994836040518263ffffffff1660e01b8152600401611d9b9190612669565b600060405180830381865afa158015611db8573d6000803e3d6000fd5b505050506040513d6000823e3d601f19601f82011682018060405250810190611de19190612c61565b9050919050565b6060600760009054906101000a900473ffffffffffffffffffffffffffffffffffffffff1673ffffffffffffffffffffffffffffffffffffffff1663cca22f79836040518263ffffffff1660e01b8152600401611e459190612669565b600060405180830381865afa158015611e62573d6000803e3d6000fd5b505050506040513d6000823e3d601f19601f82011682018060405250810190611e8b919061287d565b9050919050565b60055481565b6000611ea333611516565b03611eda576040517f1b9ad8d100000000000000000000000000000000000000000000000000000000815260040160405180910390fd5b600760009054906101000a900473ffffffffffffffffffffffffffffffffffffffff1673ffffffffffffffffffffffffffffffffffffffff166318ed10133383856040518463ffffffff1660e01b8152600401611f3993929190612bba565b600060405180830381600087803b158015611f5357600080fd5b505af1158015611f67573d6000803e3d6000fd5b505050505050565b611f77611ff2565b600073ffffffffffffffffffffffffffffffffffffffff168173ffffffffffffffffffffffffffffffffffffffff1603611fe6576040517f08c379a0000000000000000000000000000000000000000000000000000000008152600401611fdd90612d1c565b60405180910390fd5b611fef81612070565b50565b611ffa612136565b73ffffffffffffffffffffffffffffffffffffffff166120186115c0565b73ffffffffffffffffffffffffffffffffffffffff161461206e576040517f08c379a000000000000000000000000000000000000000000000000000000000815260040161206590612d88565b60405180910390fd5b565b6000600160009054906101000a900473ffffffffffffffffffffffffffffffffffffffff16905081600160006101000a81548173ffffffffffffffffffffffffffffffffffffffff021916908373ffffffffffffffffffffffffffffffffffffffff1602179055508173ffffffffffffffffffffffffffffffffffffffff168173ffffffffffffffffffffffffffffffffffffffff167f8be0079c531659141344cd1fd0a4f28419497f9722a3daafe3b4186f6b6457e060405160405180910390a35050565b600033905090565b6000604051905090565b600080fd5b600080fd5b600073ffffffffffffffffffffffffffffffffffffffff82169050919050565b600061217d82612152565b9050919050565b61218d81612172565b811461219857600080fd5b50565b6000813590506121aa81612184565b92915050565b6000602082840312156121c6576121c5612148565b5b60006121d48482850161219b565b91505092915050565b6000819050919050565b6121f0816121dd565b81146121fb57600080fd5b50565b60008135905061220d816121e7565b92915050565b60006020828403121561222957612228612148565b5b6000612237848285016121fe565b91505092915050565b600081519050919050565b600082825260208201905092915050565b6000819050602082019050919050565b61227581612172565b82525050565b6000612287838361226c565b60208301905092915050565b6000602082019050919050565b60006122ab82612240565b6122b5818561224b565b93506122c08361225c565b8060005b838110156122f15781516122d8888261227b565b97506122e383612293565b9250506001810190506122c4565b5085935050505092915050565b6000602082019050818103600083015261231881846122a0565b905092915050565b6000806040838503121561233757612336612148565b5b60006123458582860161219b565b92505060206123568582860161219b565b9150509250929050565b60008115159050919050565b61237581612360565b82525050565b6000602082019050612390600083018461236c565b92915050565b61239f816121dd565b82525050565b60006020820190506123ba6000830184612396565b92915050565b600080fd5b600080fd5b6000601f19601f8301169050919050565b7f4e487b7100000000000000000000000000000000000000000000000000000000600052604160045260246000fd5b612413826123ca565b810181811067ffffffffffffffff82111715612432576124316123db565b5b80604052505050565b600061244561213e565b9050612451828261240a565b919050565b600067ffffffffffffffff821115612471576124706123db565b5b61247a826123ca565b9050602081019050919050565b82818337600083830152505050565b60006124a96124a484612456565b61243b565b9050828152602081018484840111156124c5576124c46123c5565b5b6124d0848285612487565b509392505050565b600082601f8301126124ed576124ec6123c0565b5b81356124fd848260208601612496565b91505092915050565b6000806040838503121561251d5761251c612148565b5b600083013567ffffffffffffffff81111561253b5761253a61214d565b5b612547858286016124d8565b925050602083013567ffffffffffffffff8111156125685761256761214d565b5b612574858286016124d8565b9150509250929050565b6000806040838503121561259557612594612148565b5b60006125a38582860161219b565b925050602083013567ffffffffffffffff8111156125c4576125c361214d565b5b6125d0858286016124d8565b9150509250929050565b600080604083850312156125f1576125f0612148565b5b60006125ff858286016121fe565b92505060206126108582860161219b565b9150509250929050565b6000806040838503121561263157612630612148565b5b600061263f8582860161219b565b9250506020612650858286016121fe565b9150509250929050565b61266381612172565b82525050565b600060208201905061267e600083018461265a565b92915050565b60006020828403121561269a57612699612148565b5b600082013567ffffffffffffffff8111156126b8576126b761214d565b5b6126c4848285016124d8565b91505092915050565b600081519050919050565b600082825260208201905092915050565b60005b838110156127075780820151818401526020810190506126ec565b83811115612716576000848401525b50505050565b6000612727826126cd565b61273181856126d8565b93506127418185602086016126e9565b61274a816123ca565b840191505092915050565b6000602082019050818103600083015261276f818461271c565b905092915050565b600060408201905061278c600083018561265a565b612799602083018461265a565b9392505050565b600067ffffffffffffffff8211156127bb576127ba6123db565b5b602082029050602081019050919050565b600080fd5b6000815190506127e081612184565b92915050565b60006127f96127f4846127a0565b61243b565b9050808382526020820190506020840283018581111561281c5761281b6127cc565b5b835b81811015612845578061283188826127d1565b84526020840193505060208101905061281e565b5050509392505050565b600082601f830112612864576128636123c0565b5b81516128748482602086016127e6565b91505092915050565b60006020828403121561289357612892612148565b5b600082015167ffffffffffffffff8111156128b1576128b061214d565b5b6128bd8482850161284f565b91505092915050565b6128cf81612360565b81146128da57600080fd5b50565b6000815190506128ec816128c6565b92915050565b60006020828403121561290857612907612148565b5b6000612916848285016128dd565b91505092915050565b60008151905061292e816121e7565b92915050565b60006020828403121561294a57612949612148565b5b60006129588482850161291f565b91505092915050565b6000606082019050818103600083015261297b818661271c565b9050818103602083015261298f818561271c565b905061299e604083018461265a565b949350505050565b6000806000606084860312156129bf576129be612148565b5b60006129cd868287016127d1565b93505060206129de868287016127d1565b92505060406129ef8682870161291f565b9150509250925092565b7f4e487b7100000000000000000000000000000000000000000000000000000000600052601160045260246000fd5b6000612a33826121dd565b91507fffffffffffffffffffffffffffffffffffffffffffffffffffffffffffffffff8203612a6557612a646129f9565b5b600182019050919050565b6000608082019050612a856000830187612396565b612a926020830186612396565b8181036040830152612aa4818561271c565b9050612ab36060830184612396565b95945050505050565b6000604082019050612ad16000830185612396565b612ade602083018461265a565b9392505050565b6000606082019050612afa600083018661265a565b612b07602083018561265a565b612b146040830184612396565b949350505050565b6000819050919050565b6000819050919050565b6000612b4b612b46612b4184612b1c565b612b26565b6121dd565b9050919050565b612b5b81612b30565b82525050565b6000604082019050612b766000830185612b52565b612b83602083018461265a565b9392505050565b60006040820190508181036000830152612ba4818561271c565b9050612bb3602083018461265a565b9392505050565b6000606082019050612bcf600083018661265a565b612bdc6020830185612396565b612be9604083018461265a565b949350505050565b6000612c04612bff84612456565b61243b565b905082815260208101848484011115612c2057612c1f6123c5565b5b612c2b8482856126e9565b509392505050565b600082601f830112612c4857612c476123c0565b5b8151612c58848260208601612bf1565b91505092915050565b600060208284031215612c7757612c76612148565b5b600082015167ffffffffffffffff811115612c9557612c9461214d565b5b612ca184828501612c33565b91505092915050565b7f4f776e61626c653a206e6577206f776e657220697320746865207a65726f206160008201527f6464726573730000000000000000000000000000000000000000000000000000602082015250565b6000612d066026836126d8565b9150612d1182612caa565b604082019050919050565b60006020820190508181036000830152612d3581612cf9565b9050919050565b7f4f776e61626c653a2063616c6c6572206973206e6f7420746865206f776e6572600082015250565b6000612d726020836126d8565b9150612d7d82612d3c565b602082019050919050565b60006020820190508181036000830152612da181612d65565b905091905056fea2646970667358221220acd939b134dba1deca185dd2bdc72de98bd553a4011c1a6edaaf63ed32e4a33b64736f6c634300080e0033608060405234801561001057600080fd5b5033600160006101000a81548173ffffffffffffffffffffffffffffffffffffffff021916908373ffffffffffffffffffffffffffffffffffffffff16021790555061006061006560201b60201c565b6100a8565b30600260006101000a81548173ffffffffffffffffffffffffffffffffffffffff021916908373ffffffffffffffffffffffffffffffffffffffff160217905550565b614366806100b76000396000f3fe60806040523480156200001157600080fd5b50600436106200005e5760003560e01c80632bb85f6b14620000635780632cc0a402146200009b5780635c284dc014620000bd57806366d11c1a14620000f35780636f7fd7ab1462000115575b600080fd5b6200008160048036038101906200007b9190620008aa565b6200014d565b604051620000929392919062000970565b60405180910390f35b620000a5620004a9565b604051620000b49190620009ad565b60405180910390f35b620000db6004803603810190620000d59190620009ca565b620004cf565b604051620000ea9190620009fc565b60405180910390f35b620000fd620004ed565b6040516200010c9190620009ad565b60405180910390f35b6200013360048036038101906200012d919062000a4a565b62000513565b604051620001449392919062000970565b60405180910390f35b600080600033600160006101000a81548173ffffffffffffffffffffffffffffffffffffffff021916908373ffffffffffffffffffffffffffffffffffffffff160217905550600080878787600160009054906101000a900473ffffffffffffffffffffffffffffffffffffffff16604051620001ca90620006c1565b620001d9949392919062000b24565b604051809103906000f080158015620001f6573d6000803e3d6000fd5b506000806101000a81548173ffffffffffffffffffffffffffffffffffffffff021916908373ffffffffffffffffffffffffffffffffffffffff16021790555060008054906101000a900473ffffffffffffffffffffffffffffffffffffffff1673ffffffffffffffffffffffffffffffffffffffff1663ffb0958d6040518163ffffffff1660e01b8152600401602060405180830381865afa158015620002a2573d6000803e3d6000fd5b505050506040513d601f19601f82011682018060405250810190620002c8919062000b96565b9150859050600360008773ffffffffffffffffffffffffffffffffffffffff1673ffffffffffffffffffffffffffffffffffffffff1681526020019081526020016000206000016000815480929190620003229062000bf7565b9190505550600060405180606001604052808873ffffffffffffffffffffffffffffffffffffffff1681526020018473ffffffffffffffffffffffffffffffffffffffff168152602001600160ff168152509050600360008873ffffffffffffffffffffffffffffffffffffffff1673ffffffffffffffffffffffffffffffffffffffff16815260200190815260200160002060010181908060018154018082558091505060019003906000526020600020906002020160009091909190915060008201518160000160006101000a81548173ffffffffffffffffffffffffffffffffffffffff021916908373ffffffffffffffffffffffffffffffffffffffff16021790555060208201518160010160006101000a81548173ffffffffffffffffffffffffffffffffffffffff021916908373ffffffffffffffffffffffffffffffffffffffff16021790555060408201518160010160146101000a81548160ff021916908360ff16021790555050508183600195509550955050505093509350939050565b600160009054906101000a900473ffffffffffffffffffffffffffffffffffffffff1681565b60036020528060005260406000206000915090508060000154905081565b600260009054906101000a900473ffffffffffffffffffffffffffffffffffffffff1681565b600080600080600360008673ffffffffffffffffffffffffffffffffffffffff1673ffffffffffffffffffffffffffffffffffffffff168152602001908152602001600020600101868154811062000570576200056f62000c44565b5b906000526020600020906002020160000160009054906101000a900473ffffffffffffffffffffffffffffffffffffffff1690506000600360008773ffffffffffffffffffffffffffffffffffffffff1673ffffffffffffffffffffffffffffffffffffffff1681526020019081526020016000206001018781548110620005fd57620005fc62000c44565b5b906000526020600020906002020160010160009054906101000a900473ffffffffffffffffffffffffffffffffffffffff1690506000600360008873ffffffffffffffffffffffffffffffffffffffff1673ffffffffffffffffffffffffffffffffffffffff16815260200190815260200160002060010188815481106200068a576200068962000c44565b5b906000526020600020906002020160010160149054906101000a900460ff1660ff1690508282829550955095505050509250925092565b6136bd8062000c7483390190565b6000604051905090565b600080fd5b600080fd5b600080fd5b600080fd5b6000601f19601f8301169050919050565b7f4e487b7100000000000000000000000000000000000000000000000000000000600052604160045260246000fd5b6200073882620006ed565b810181811067ffffffffffffffff821117156200075a5762000759620006fe565b5b80604052505050565b60006200076f620006cf565b90506200077d82826200072d565b919050565b600067ffffffffffffffff821115620007a0576200079f620006fe565b5b620007ab82620006ed565b9050602081019050919050565b82818337600083830152505050565b6000620007de620007d88462000782565b62000763565b905082815260208101848484011115620007fd57620007fc620006e8565b5b6200080a848285620007b8565b509392505050565b600082601f8301126200082a5762000829620006e3565b5b81356200083c848260208601620007c7565b91505092915050565b600073ffffffffffffffffffffffffffffffffffffffff82169050919050565b6000620008728262000845565b9050919050565b620008848162000865565b81146200089057600080fd5b50565b600081359050620008a48162000879565b92915050565b600080600060608486031215620008c657620008c5620006d9565b5b600084013567ffffffffffffffff811115620008e757620008e6620006de565b5b620008f58682870162000812565b935050602084013567ffffffffffffffff811115620009195762000918620006de565b5b620009278682870162000812565b92505060406200093a8682870162000893565b9150509250925092565b6200094f8162000865565b82525050565b6000819050919050565b6200096a8162000955565b82525050565b600060608201905062000987600083018662000944565b62000996602083018562000944565b620009a560408301846200095f565b949350505050565b6000602082019050620009c4600083018462000944565b92915050565b600060208284031215620009e357620009e2620006d9565b5b6000620009f38482850162000893565b91505092915050565b600060208201905062000a1360008301846200095f565b92915050565b62000a248162000955565b811462000a3057600080fd5b50565b60008135905062000a448162000a19565b92915050565b6000806040838503121562000a645762000a63620006d9565b5b600062000a748582860162000a33565b925050602062000a878582860162000893565b9150509250929050565b600081519050919050565b600082825260208201905092915050565b60005b8381101562000acd57808201518184015260208101905062000ab0565b8381111562000add576000848401525b50505050565b600062000af08262000a91565b62000afc818562000a9c565b935062000b0e81856020860162000aad565b62000b1981620006ed565b840191505092915050565b6000608082019050818103600083015262000b40818762000ae3565b9050818103602083015262000b56818662000ae3565b905062000b67604083018562000944565b62000b76606083018462000944565b95945050505050565b60008151905062000b908162000879565b92915050565b60006020828403121562000baf5762000bae620006d9565b5b600062000bbf8482850162000b7f565b91505092915050565b7f4e487b7100000000000000000000000000000000000000000000000000000000600052601160045260246000fd5b600062000c048262000955565b91507fffffffffffffffffffffffffffffffffffffffffffffffffffffffffffffffff820362000c395762000c3862000bc8565b5b600182019050919050565b7f4e487b7100000000000000000000000000000000000000000000000000000000600052603260045260246000fdfe60806040523480156200001157600080fd5b50604051620036bd380380620036bd83398181016040528101906200003791906200060d565b83838160009080519060200190620000519291906200035b565b5080600190805190602001906200006a9291906200035b565b5050506200008d62000081620000f960201b60201c565b6200010160201b60201c565b6200009d620001c760201b60201c565b620000ae826200020a60201b60201c565b80600860006101000a81548173ffffffffffffffffffffffffffffffffffffffff021916908373ffffffffffffffffffffffffffffffffffffffff160217905550505050506200083c565b600033905090565b6000600660009054906101000a900473ffffffffffffffffffffffffffffffffffffffff16905081600660006101000a81548173ffffffffffffffffffffffffffffffffffffffff021916908373ffffffffffffffffffffffffffffffffffffffff1602179055508173ffffffffffffffffffffffffffffffffffffffff168173ffffffffffffffffffffffffffffffffffffffff167f8be0079c531659141344cd1fd0a4f28419497f9722a3daafe3b4186f6b6457e060405160405180910390a35050565b30600760006101000a81548173ffffffffffffffffffffffffffffffffffffffff021916908373ffffffffffffffffffffffffffffffffffffffff160217905550565b6200021a620002a060201b60201c565b600073ffffffffffffffffffffffffffffffffffffffff168173ffffffffffffffffffffffffffffffffffffffff16036200028c576040517f08c379a0000000000000000000000000000000000000000000000000000000008152600401620002839062000744565b60405180910390fd5b6200029d816200010160201b60201c565b50565b620002b0620000f960201b60201c565b73ffffffffffffffffffffffffffffffffffffffff16620002d66200033160201b60201c565b73ffffffffffffffffffffffffffffffffffffffff16146200032f576040517f08c379a00000000000000000000000000000000000000000000000000000000081526004016200032690620007b6565b60405180910390fd5b565b6000600660009054906101000a900473ffffffffffffffffffffffffffffffffffffffff16905090565b828054620003699062000807565b90600052602060002090601f0160209004810192826200038d5760008555620003d9565b82601f10620003a857805160ff1916838001178555620003d9565b82800160010185558215620003d9579182015b82811115620003d8578251825591602001919060010190620003bb565b5b509050620003e89190620003ec565b5090565b5b8082111562000407576000816000905550600101620003ed565b5090565b6000604051905090565b600080fd5b600080fd5b600080fd5b600080fd5b6000601f19601f8301169050919050565b7f4e487b7100000000000000000000000000000000000000000000000000000000600052604160045260246000fd5b620004748262000429565b810181811067ffffffffffffffff821117156200049657620004956200043a565b5b80604052505050565b6000620004ab6200040b565b9050620004b9828262000469565b919050565b600067ffffffffffffffff821115620004dc57620004db6200043a565b5b620004e78262000429565b9050602081019050919050565b60005b8381101562000514578082015181840152602081019050620004f7565b8381111562000524576000848401525b50505050565b6000620005416200053b84620004be565b6200049f565b90508281526020810184848401111562000560576200055f62000424565b5b6200056d848285620004f4565b509392505050565b600082601f8301126200058d576200058c6200041f565b5b81516200059f8482602086016200052a565b91505092915050565b600073ffffffffffffffffffffffffffffffffffffffff82169050919050565b6000620005d582620005a8565b9050919050565b620005e781620005c8565b8114620005f357600080fd5b50565b6000815190506200060781620005dc565b92915050565b600080600080608085870312156200062a576200062962000415565b5b600085015167ffffffffffffffff8111156200064b576200064a6200041a565b5b620006598782880162000575565b945050602085015167ffffffffffffffff8111156200067d576200067c6200041a565b5b6200068b8782880162000575565b93505060406200069e87828801620005f6565b9250506060620006b187828801620005f6565b91505092959194509250565b600082825260208201905092915050565b7f4f776e61626c653a206e6577206f776e657220697320746865207a65726f206160008201527f6464726573730000000000000000000000000000000000000000000000000000602082015250565b60006200072c602683620006bd565b91506200073982620006ce565b604082019050919050565b600060208201905081810360008301526200075f816200071d565b9050919050565b7f4f776e61626c653a2063616c6c6572206973206e6f7420746865206f776e6572600082015250565b60006200079e602083620006bd565b9150620007ab8262000766565b602082019050919050565b60006020820190508181036000830152620007d1816200078f565b9050919050565b7f4e487b7100000000000000000000000000000000000000000000000000000000600052602260045260246000fd5b600060028204905060018216806200082057607f821691505b602082108103620008365762000835620007d8565b5b50919050565b612e71806200084c6000396000f3fe608060405234801561001057600080fd5b50600436106101365760003560e01c806370a08231116100b8578063a22cb4651161007c578063a22cb4651461033b578063b88d4fde14610357578063c87b56dd14610373578063e985e9c5146103a3578063f2fde38b146103d3578063ffb0958d146103ef57610136565b806370a08231146102a7578063715018a6146102d75780638da5cb5b146102e157806395d89b41146102ff578063975073ba1461031d57610136565b806323b872dd116100ff57806323b872dd146101f357806323cbe4d61461020f57806342842e0e1461023f57806355f804b31461025b5780636352211e1461027757610136565b806204586c1461013b57806301ffc9a71461015957806306fdde0314610189578063081812fc146101a7578063095ea7b3146101d7575b600080fd5b61014361040d565b6040516101509190611c73565b60405180910390f35b610173600480360381019061016e9190611cfa565b610413565b6040516101809190611d42565b60405180910390f35b6101916104f5565b60405161019e9190611df6565b60405180910390f35b6101c160048036038101906101bc9190611e44565b610587565b6040516101ce9190611eb2565b60405180910390f35b6101f160048036038101906101ec9190611ef9565b6105cd565b005b61020d60048036038101906102089190611f39565b6106e4565b005b610229600480360381019061022491906120c1565b610744565b6040516102369190611c73565b60405180910390f35b61025960048036038101906102549190611f39565b610814565b005b610275600480360381019061027091906120c1565b610834565b005b610291600480360381019061028c9190611e44565b610856565b60405161029e9190611eb2565b60405180910390f35b6102c160048036038101906102bc919061210a565b610907565b6040516102ce9190611c73565b60405180910390f35b6102df6109be565b005b6102e96109d2565b6040516102f69190611eb2565b60405180910390f35b6103076109fc565b6040516103149190611df6565b60405180910390f35b610325610a8e565b6040516103329190611eb2565b60405180910390f35b61035560048036038101906103509190612163565b610ab4565b005b610371600480360381019061036c9190612244565b610aca565b005b61038d60048036038101906103889190611e44565b610b2c565b60405161039a9190611df6565b60405180910390f35b6103bd60048036038101906103b891906122c7565b610c9e565b6040516103ca9190611d42565b60405180910390f35b6103ed60048036038101906103e8919061210a565b610d32565b005b6103f7610db5565b6040516104049190611eb2565b60405180910390f35b60095481565b60007f80ac58cd000000000000000000000000000000000000000000000000000000007bffffffffffffffffffffffffffffffffffffffffffffffffffffffff1916827bffffffffffffffffffffffffffffffffffffffffffffffffffffffff191614806104de57507f5b5e139f000000000000000000000000000000000000000000000000000000007bffffffffffffffffffffffffffffffffffffffffffffffffffffffff1916827bffffffffffffffffffffffffffffffffffffffffffffffffffffffff1916145b806104ee57506104ed82610ddb565b5b9050919050565b60606000805461050490612336565b80601f016020809104026020016040519081016040528092919081815260200182805461053090612336565b801561057d5780601f106105525761010080835404028352916020019161057d565b820191906000526020600020905b81548152906001019060200180831161056057829003601f168201915b5050505050905090565b600061059282610e45565b6004600083815260200190815260200160002060009054906101000a900473ffffffffffffffffffffffffffffffffffffffff169050919050565b60006105d882610856565b90508073ffffffffffffffffffffffffffffffffffffffff168373ffffffffffffffffffffffffffffffffffffffff1603610648576040517f08c379a000000000000000000000000000000000000000000000000000000000815260040161063f906123d9565b60405180910390fd5b8073ffffffffffffffffffffffffffffffffffffffff16610667610e90565b73ffffffffffffffffffffffffffffffffffffffff161480610696575061069581610690610e90565b610c9e565b5b6106d5576040517f08c379a00000000000000000000000000000000000000000000000000000000081526004016106cc9061246b565b60405180910390fd5b6106df8383610e98565b505050565b6106f56106ef610e90565b82610f51565b610734576040517f08c379a000000000000000000000000000000000000000000000000000000000815260040161072b906124fd565b60405180910390fd5b61073f838383610fe6565b505050565b6000600860009054906101000a900473ffffffffffffffffffffffffffffffffffffffff1673ffffffffffffffffffffffffffffffffffffffff163373ffffffffffffffffffffffffffffffffffffffff16146107cd576040517f3cfd317500000000000000000000000000000000000000000000000000000000815260040160405180910390fd5b600960008154809291906107e09061254c565b919050555060006107ef6109d2565b90506107fd8160095461124c565b61080960095484611425565b600954915050919050565b61082f83838360405180602001604052806000815250610aca565b505050565b61083c611499565b80600b9080519060200190610852929190611bb7565b5050565b6000806002600084815260200190815260200160002060009054906101000a900473ffffffffffffffffffffffffffffffffffffffff169050600073ffffffffffffffffffffffffffffffffffffffff168173ffffffffffffffffffffffffffffffffffffffff16036108fe576040517f08c379a00000000000000000000000000000000000000000000000000000000081526004016108f5906125e0565b60405180910390fd5b80915050919050565b60008073ffffffffffffffffffffffffffffffffffffffff168273ffffffffffffffffffffffffffffffffffffffff1603610977576040517f08c379a000000000000000000000000000000000000000000000000000000000815260040161096e90612672565b60405180910390fd5b600360008373ffffffffffffffffffffffffffffffffffffffff1673ffffffffffffffffffffffffffffffffffffffff168152602001908152602001600020549050919050565b6109c6611499565b6109d06000611517565b565b6000600660009054906101000a900473ffffffffffffffffffffffffffffffffffffffff16905090565b606060018054610a0b90612336565b80601f0160208091040260200160405190810160405280929190818152602001828054610a3790612336565b8015610a845780601f10610a5957610100808354040283529160200191610a84565b820191906000526020600020905b815481529060010190602001808311610a6757829003601f168201915b5050505050905090565b600860009054906101000a900473ffffffffffffffffffffffffffffffffffffffff1681565b610ac6610abf610e90565b83836115dd565b5050565b610adb610ad5610e90565b83610f51565b610b1a576040517f08c379a0000000000000000000000000000000000000000000000000000000008152600401610b11906124fd565b60405180910390fd5b610b2684848484611749565b50505050565b6060610b37826117a5565b610b76576040517f08c379a0000000000000000000000000000000000000000000000000000000008152600401610b6d90612704565b60405180910390fd5b6000600a60008481526020019081526020016000208054610b9690612336565b80601f0160208091040260200160405190810160405280929190818152602001828054610bc290612336565b8015610c0f5780601f10610be457610100808354040283529160200191610c0f565b820191906000526020600020905b815481529060010190602001808311610bf257829003601f168201915b505050505090506000610c20611811565b90506000815103610c35578192505050610c99565b600082511115610c6a578082604051602001610c52929190612760565b60405160208183030381529060405292505050610c99565b80610c74856118a3565b604051602001610c85929190612760565b604051602081830303815290604052925050505b919050565b6000600560008473ffffffffffffffffffffffffffffffffffffffff1673ffffffffffffffffffffffffffffffffffffffff16815260200190815260200160002060008373ffffffffffffffffffffffffffffffffffffffff1673ffffffffffffffffffffffffffffffffffffffff16815260200190815260200160002060009054906101000a900460ff16905092915050565b610d3a611499565b600073ffffffffffffffffffffffffffffffffffffffff168173ffffffffffffffffffffffffffffffffffffffff1603610da9576040517f08c379a0000000000000000000000000000000000000000000000000000000008152600401610da0906127f6565b60405180910390fd5b610db281611517565b50565b600760009054906101000a900473ffffffffffffffffffffffffffffffffffffffff1681565b60007f01ffc9a7000000000000000000000000000000000000000000000000000000007bffffffffffffffffffffffffffffffffffffffffffffffffffffffff1916827bffffffffffffffffffffffffffffffffffffffffffffffffffffffff1916149050919050565b610e4e816117a5565b610e8d576040517f08c379a0000000000000000000000000000000000000000000000000000000008152600401610e84906125e0565b60405180910390fd5b50565b600033905090565b816004600083815260200190815260200160002060006101000a81548173ffffffffffffffffffffffffffffffffffffffff021916908373ffffffffffffffffffffffffffffffffffffffff160217905550808273ffffffffffffffffffffffffffffffffffffffff16610f0b83610856565b73ffffffffffffffffffffffffffffffffffffffff167f8c5be1e5ebec7d5bd14f71427d1e84f3dd0314c0f7b2291e5b200ac8c7c3b92560405160405180910390a45050565b600080610f5d83610856565b90508073ffffffffffffffffffffffffffffffffffffffff168473ffffffffffffffffffffffffffffffffffffffff161480610f9f5750610f9e8185610c9e565b5b80610fdd57508373ffffffffffffffffffffffffffffffffffffffff16610fc584610587565b73ffffffffffffffffffffffffffffffffffffffff16145b91505092915050565b8273ffffffffffffffffffffffffffffffffffffffff1661100682610856565b73ffffffffffffffffffffffffffffffffffffffff161461105c576040517f08c379a000000000000000000000000000000000000000000000000000000000815260040161105390612888565b60405180910390fd5b600073ffffffffffffffffffffffffffffffffffffffff168273ffffffffffffffffffffffffffffffffffffffff16036110cb576040517f08c379a00000000000000000000000000000000000000000000000000000000081526004016110c29061291a565b60405180910390fd5b6110d6838383611a03565b6110e1600082610e98565b6001600360008573ffffffffffffffffffffffffffffffffffffffff1673ffffffffffffffffffffffffffffffffffffffff1681526020019081526020016000206000828254611131919061293a565b925050819055506001600360008473ffffffffffffffffffffffffffffffffffffffff1673ffffffffffffffffffffffffffffffffffffffff1681526020019081526020016000206000828254611188919061296e565b92505081905550816002600083815260200190815260200160002060006101000a81548173ffffffffffffffffffffffffffffffffffffffff021916908373ffffffffffffffffffffffffffffffffffffffff160217905550808273ffffffffffffffffffffffffffffffffffffffff168473ffffffffffffffffffffffffffffffffffffffff167fddf252ad1be2c89b69c2b068fc378daa952ba7f163c4a11628f55a4df523b3ef60405160405180910390a4611247838383611a08565b505050565b600073ffffffffffffffffffffffffffffffffffffffff168273ffffffffffffffffffffffffffffffffffffffff16036112bb576040517f08c379a00000000000000000000000000000000000000000000000000000000081526004016112b290612a10565b60405180910390fd5b6112c4816117a5565b15611304576040517f08c379a00000000000000000000000000000000000000000000000000000000081526004016112fb90612a7c565b60405180910390fd5b61131060008383611a03565b6001600360008473ffffffffffffffffffffffffffffffffffffffff1673ffffffffffffffffffffffffffffffffffffffff1681526020019081526020016000206000828254611360919061296e565b92505081905550816002600083815260200190815260200160002060006101000a81548173ffffffffffffffffffffffffffffffffffffffff021916908373ffffffffffffffffffffffffffffffffffffffff160217905550808273ffffffffffffffffffffffffffffffffffffffff16600073ffffffffffffffffffffffffffffffffffffffff167fddf252ad1be2c89b69c2b068fc378daa952ba7f163c4a11628f55a4df523b3ef60405160405180910390a461142160008383611a08565b5050565b61142e826117a5565b61146d576040517f08c379a000000000000000000000000000000000000000000000000000000000815260040161146490612b0e565b60405180910390fd5b80600a60008481526020019081526020016000209080519060200190611494929190611bb7565b505050565b6114a1610e90565b73ffffffffffffffffffffffffffffffffffffffff166114bf6109d2565b73ffffffffffffffffffffffffffffffffffffffff1614611515576040517f08c379a000000000000000000000000000000000000000000000000000000000815260040161150c90612b7a565b60405180910390fd5b565b6000600660009054906101000a900473ffffffffffffffffffffffffffffffffffffffff16905081600660006101000a81548173ffffffffffffffffffffffffffffffffffffffff021916908373ffffffffffffffffffffffffffffffffffffffff1602179055508173ffffffffffffffffffffffffffffffffffffffff168173ffffffffffffffffffffffffffffffffffffffff167f8be0079c531659141344cd1fd0a4f28419497f9722a3daafe3b4186f6b6457e060405160405180910390a35050565b8173ffffffffffffffffffffffffffffffffffffffff168373ffffffffffffffffffffffffffffffffffffffff160361164b576040517f08c379a000000000000000000000000000000000000000000000000000000000815260040161164290612be6565b60405180910390fd5b80600560008573ffffffffffffffffffffffffffffffffffffffff1673ffffffffffffffffffffffffffffffffffffffff16815260200190815260200160002060008473ffffffffffffffffffffffffffffffffffffffff1673ffffffffffffffffffffffffffffffffffffffff16815260200190815260200160002060006101000a81548160ff0219169083151502179055508173ffffffffffffffffffffffffffffffffffffffff168373ffffffffffffffffffffffffffffffffffffffff167f17307eab39ab6107e8899845ad3d59bd9653f200f220920489ca2b5937696c318360405161173c9190611d42565b60405180910390a3505050565b611754848484610fe6565b61176084848484611a0d565b61179f576040517f08c379a000000000000000000000000000000000000000000000000000000000815260040161179690612c78565b60405180910390fd5b50505050565b60008073ffffffffffffffffffffffffffffffffffffffff166002600084815260200190815260200160002060009054906101000a900473ffffffffffffffffffffffffffffffffffffffff1673ffffffffffffffffffffffffffffffffffffffff1614159050919050565b6060600b805461182090612336565b80601f016020809104026020016040519081016040528092919081815260200182805461184c90612336565b80156118995780601f1061186e57610100808354040283529160200191611899565b820191906000526020600020905b81548152906001019060200180831161187c57829003601f168201915b5050505050905090565b6060600082036118ea576040518060400160405280600181526020017f300000000000000000000000000000000000000000000000000000000000000081525090506119fe565b600082905060005b6000821461191c5780806119059061254c565b915050600a826119159190612cc7565b91506118f2565b60008167ffffffffffffffff81111561193857611937611f96565b5b6040519080825280601f01601f19166020018201604052801561196a5781602001600182028036833780820191505090505b5090505b600085146119f757600182611983919061293a565b9150600a856119929190612cf8565b603061199e919061296e565b60f81b8183815181106119b4576119b3612d29565b5b60200101907effffffffffffffffffffffffffffffffffffffffffffffffffffffffffffff1916908160001a905350600a856119f09190612cc7565b945061196e565b8093505050505b919050565b505050565b505050565b6000611a2e8473ffffffffffffffffffffffffffffffffffffffff16611b94565b15611b87578373ffffffffffffffffffffffffffffffffffffffff1663150b7a02611a57610e90565b8786866040518563ffffffff1660e01b8152600401611a799493929190612dad565b6020604051808303816000875af1925050508015611ab557506040513d601f19601f82011682018060405250810190611ab29190612e0e565b60015b611b37573d8060008114611ae5576040519150601f19603f3d011682016040523d82523d6000602084013e611aea565b606091505b506000815103611b2f576040517f08c379a0000000000000000000000000000000000000000000000000000000008152600401611b2690612c78565b60405180910390fd5b805181602001fd5b63150b7a0260e01b7bffffffffffffffffffffffffffffffffffffffffffffffffffffffff1916817bffffffffffffffffffffffffffffffffffffffffffffffffffffffff191614915050611b8c565b600190505b949350505050565b6000808273ffffffffffffffffffffffffffffffffffffffff163b119050919050565b828054611bc390612336565b90600052602060002090601f016020900481019282611be55760008555611c2c565b82601f10611bfe57805160ff1916838001178555611c2c565b82800160010185558215611c2c579182015b82811115611c2b578251825591602001919060010190611c10565b5b509050611c399190611c3d565b5090565b5b80821115611c56576000816000905550600101611c3e565b5090565b6000819050919050565b611c6d81611c5a565b82525050565b6000602082019050611c886000830184611c64565b92915050565b6000604051905090565b600080fd5b600080fd5b60007fffffffff0000000000000000000000000000000000000000000000000000000082169050919050565b611cd781611ca2565b8114611ce257600080fd5b50565b600081359050611cf481611cce565b92915050565b600060208284031215611d1057611d0f611c98565b5b6000611d1e84828501611ce5565b91505092915050565b60008115159050919050565b611d3c81611d27565b82525050565b6000602082019050611d576000830184611d33565b92915050565b600081519050919050565b600082825260208201905092915050565b60005b83811015611d97578082015181840152602081019050611d7c565b83811115611da6576000848401525b50505050565b6000601f19601f8301169050919050565b6000611dc882611d5d565b611dd28185611d68565b9350611de2818560208601611d79565b611deb81611dac565b840191505092915050565b60006020820190508181036000830152611e108184611dbd565b905092915050565b611e2181611c5a565b8114611e2c57600080fd5b50565b600081359050611e3e81611e18565b92915050565b600060208284031215611e5a57611e59611c98565b5b6000611e6884828501611e2f565b91505092915050565b600073ffffffffffffffffffffffffffffffffffffffff82169050919050565b6000611e9c82611e71565b9050919050565b611eac81611e91565b82525050565b6000602082019050611ec76000830184611ea3565b92915050565b611ed681611e91565b8114611ee157600080fd5b50565b600081359050611ef381611ecd565b92915050565b60008060408385031215611f1057611f0f611c98565b5b6000611f1e85828601611ee4565b9250506020611f2f85828601611e2f565b9150509250929050565b600080600060608486031215611f5257611f51611c98565b5b6000611f6086828701611ee4565b9350506020611f7186828701611ee4565b9250506040611f8286828701611e2f565b9150509250925092565b600080fd5b600080fd5b7f4e487b7100000000000000000000000000000000000000000000000000000000600052604160045260246000fd5b611fce82611dac565b810181811067ffffffffffffffff82111715611fed57611fec611f96565b5b80604052505050565b6000612000611c8e565b905061200c8282611fc5565b919050565b600067ffffffffffffffff82111561202c5761202b611f96565b5b61203582611dac565b9050602081019050919050565b82818337600083830152505050565b600061206461205f84612011565b611ff6565b9050828152602081018484840111156120805761207f611f91565b5b61208b848285612042565b509392505050565b600082601f8301126120a8576120a7611f8c565b5b81356120b8848260208601612051565b91505092915050565b6000602082840312156120d7576120d6611c98565b5b600082013567ffffffffffffffff8111156120f5576120f4611c9d565b5b61210184828501612093565b91505092915050565b6000602082840312156121205761211f611c98565b5b600061212e84828501611ee4565b91505092915050565b61214081611d27565b811461214b57600080fd5b50565b60008135905061215d81612137565b92915050565b6000806040838503121561217a57612179611c98565b5b600061218885828601611ee4565b92505060206121998582860161214e565b9150509250929050565b600067ffffffffffffffff8211156121be576121bd611f96565b5b6121c782611dac565b9050602081019050919050565b60006121e76121e2846121a3565b611ff6565b90508281526020810184848401111561220357612202611f91565b5b61220e848285612042565b509392505050565b600082601f83011261222b5761222a611f8c565b5b813561223b8482602086016121d4565b91505092915050565b6000806000806080858703121561225e5761225d611c98565b5b600061226c87828801611ee4565b945050602061227d87828801611ee4565b935050604061228e87828801611e2f565b925050606085013567ffffffffffffffff8111156122af576122ae611c9d565b5b6122bb87828801612216565b91505092959194509250565b600080604083850312156122de576122dd611c98565b5b60006122ec85828601611ee4565b92505060206122fd85828601611ee4565b9150509250929050565b7f4e487b7100000000000000000000000000000000000000000000000000000000600052602260045260246000fd5b6000600282049050600182168061234e57607f821691505b60208210810361236157612360612307565b5b50919050565b7f4552433732313a20617070726f76616c20746f2063757272656e74206f776e6560008201527f7200000000000000000000000000000000000000000000000000000000000000602082015250565b60006123c3602183611d68565b91506123ce82612367565b604082019050919050565b600060208201905081810360008301526123f2816123b6565b9050919050565b7f4552433732313a20617070726f76652063616c6c6572206973206e6f7420746f60008201527f6b656e206f776e6572206e6f7220617070726f76656420666f7220616c6c0000602082015250565b6000612455603e83611d68565b9150612460826123f9565b604082019050919050565b6000602082019050818103600083015261248481612448565b9050919050565b7f4552433732313a2063616c6c6572206973206e6f7420746f6b656e206f776e6560008201527f72206e6f7220617070726f766564000000000000000000000000000000000000602082015250565b60006124e7602e83611d68565b91506124f28261248b565b604082019050919050565b60006020820190508181036000830152612516816124da565b9050919050565b7f4e487b7100000000000000000000000000000000000000000000000000000000600052601160045260246000fd5b600061255782611c5a565b91507fffffffffffffffffffffffffffffffffffffffffffffffffffffffffffffffff82036125895761258861251d565b5b600182019050919050565b7f4552433732313a20696e76616c696420746f6b656e2049440000000000000000600082015250565b60006125ca601883611d68565b91506125d582612594565b602082019050919050565b600060208201905081810360008301526125f9816125bd565b9050919050565b7f4552433732313a2061646472657373207a65726f206973206e6f74206120766160008201527f6c6964206f776e65720000000000000000000000000000000000000000000000602082015250565b600061265c602983611d68565b915061266782612600565b604082019050919050565b6000602082019050818103600083015261268b8161264f565b9050919050565b7f4552433732314d657461646174613a2055524920717565727920666f72206e6f60008201527f6e6578697374656e7420746f6b656e0000000000000000000000000000000000602082015250565b60006126ee602f83611d68565b91506126f982612692565b604082019050919050565b6000602082019050818103600083015261271d816126e1565b9050919050565b600081905092915050565b600061273a82611d5d565b6127448185612724565b9350612754818560208601611d79565b80840191505092915050565b600061276c828561272f565b9150612778828461272f565b91508190509392505050565b7f4f776e61626c653a206e6577206f776e657220697320746865207a65726f206160008201527f6464726573730000000000000000000000000000000000000000000000000000602082015250565b60006127e0602683611d68565b91506127eb82612784565b604082019050919050565b6000602082019050818103600083015261280f816127d3565b9050919050565b7f4552433732313a207472616e736665722066726f6d20696e636f72726563742060008201527f6f776e6572000000000000000000000000000000000000000000000000000000602082015250565b6000612872602583611d68565b915061287d82612816565b604082019050919050565b600060208201905081810360008301526128a181612865565b9050919050565b7f4552433732313a207472616e7366657220746f20746865207a65726f2061646460008201527f7265737300000000000000000000000000000000000000000000000000000000602082015250565b6000612904602483611d68565b915061290f826128a8565b604082019050919050565b60006020820190508181036000830152612933816128f7565b9050919050565b600061294582611c5a565b915061295083611c5a565b9250828210156129635761296261251d565b5b828203905092915050565b600061297982611c5a565b915061298483611c5a565b9250827fffffffffffffffffffffffffffffffffffffffffffffffffffffffffffffffff038211156129b9576129b861251d565b5b828201905092915050565b7f4552433732313a206d696e7420746f20746865207a65726f2061646472657373600082015250565b60006129fa602083611d68565b9150612a05826129c4565b602082019050919050565b60006020820190508181036000830152612a29816129ed565b9050919050565b7f4552433732313a20746f6b656e20616c7265616479206d696e74656400000000600082015250565b6000612a66601c83611d68565b9150612a7182612a30565b602082019050919050565b60006020820190508181036000830152612a9581612a59565b9050919050565b7f4552433732314d657461646174613a2055524920736574206f66206e6f6e657860008201527f697374656e7420746f6b656e0000000000000000000000000000000000000000602082015250565b6000612af8602c83611d68565b9150612b0382612a9c565b604082019050919050565b60006020820190508181036000830152612b2781612aeb565b9050919050565b7f4f776e61626c653a2063616c6c6572206973206e6f7420746865206f776e6572600082015250565b6000612b64602083611d68565b9150612b6f82612b2e565b602082019050919050565b60006020820190508181036000830152612b9381612b57565b9050919050565b7f4552433732313a20617070726f766520746f2063616c6c657200000000000000600082015250565b6000612bd0601983611d68565b9150612bdb82612b9a565b602082019050919050565b60006020820190508181036000830152612bff81612bc3565b9050919050565b7f4552433732313a207472616e7366657220746f206e6f6e20455243373231526560008201527f63656976657220696d706c656d656e7465720000000000000000000000000000602082015250565b6000612c62603283611d68565b9150612c6d82612c06565b604082019050919050565b60006020820190508181036000830152612c9181612c55565b9050919050565b7f4e487b7100000000000000000000000000000000000000000000000000000000600052601260045260246000fd5b6000612cd282611c5a565b9150612cdd83611c5a565b925082612ced57612cec612c98565b5b828204905092915050565b6000612d0382611c5a565b9150612d0e83611c5a565b925082612d1e57612d1d612c98565b5b828206905092915050565b7f4e487b7100000000000000000000000000000000000000000000000000000000600052603260045260246000fd5b600081519050919050565b600082825260208201905092915050565b6000612d7f82612d58565b612d898185612d63565b9350612d99818560208601611d79565b612da281611dac565b840191505092915050565b6000608082019050612dc26000830187611ea3565b612dcf6020830186611ea3565b612ddc6040830185611c64565b8181036060830152612dee8184612d74565b905095945050505050565b600081519050612e0881611cce565b92915050565b600060208284031215612e2457612e23611c98565b5b6000612e3284828501612df9565b9150509291505056fea264697066735822122093f0f4a8f03017ba5402f3cde530eecd023567d7fd47edeb7dd87c4742d78d2c64736f6c634300080e0033a26469706673582212209403e1e71d47ef6a0a443c28a8246d744883ab68b8c497d8b3e70848df0198fd64736f6c634300080e0033",
  "devdoc": {
    "kind": "dev",
    "methods": {
      "owner()": {
        "details": "Returns the address of the current owner."
      },
      "renounceOwnership()": {
        "details": "Leaves the contract without owner. It will not be possible to call `onlyOwner` functions anymore. Can only be called by the current owner. NOTE: Renouncing ownership will leave the contract without an owner, thereby removing any functionality that is only available to the owner."
      },
      "transferOwnership(address)": {
        "details": "Transfers ownership of the contract to a new account (`newOwner`). Can only be called by the current owner."
      }
    },
    "version": 1
  },
  "userdoc": {
    "kind": "user",
    "methods": {},
    "version": 1
  },
  "storageLayout": {
    "storage": [
      {
        "astId": 169,
        "contract": "contracts/core/SignetControllor.sol:SignetControllor",
        "label": "_status",
        "offset": 0,
        "slot": "0",
        "type": "t_uint256"
      },
      {
        "astId": 53,
        "contract": "contracts/core/SignetControllor.sol:SignetControllor",
        "label": "_owner",
        "offset": 0,
        "slot": "1",
        "type": "t_address"
      },
      {
        "astId": 1955,
        "contract": "contracts/core/SignetControllor.sol:SignetControllor",
        "label": "sSignetor",
        "offset": 0,
        "slot": "2",
        "type": "t_contract(Signetor)4678"
      },
      {
        "astId": 1958,
        "contract": "contracts/core/SignetControllor.sol:SignetControllor",
        "label": "ST",
        "offset": 0,
        "slot": "3",
        "type": "t_contract(Signetors)4864"
      },
      {
        "astId": 1961,
        "contract": "contracts/core/SignetControllor.sol:SignetControllor",
        "label": "STCrator",
        "offset": 0,
        "slot": "4",
        "type": "t_contract(Signetors)4864"
      },
      {
        "astId": 1963,
        "contract": "contracts/core/SignetControllor.sol:SignetControllor",
        "label": "TotalSignetorsNum",
        "offset": 0,
        "slot": "5",
        "type": "t_uint256"
      },
      {
        "astId": 1965,
        "contract": "contracts/core/SignetControllor.sol:SignetControllor",
        "label": "signetprofileSys",
        "offset": 0,
        "slot": "6",
        "type": "t_address"
      },
      {
        "astId": 1967,
        "contract": "contracts/core/SignetControllor.sol:SignetControllor",
        "label": "signetFollowSys",
        "offset": 0,
        "slot": "7",
        "type": "t_address"
      },
      {
        "astId": 1975,
        "contract": "contracts/core/SignetControllor.sol:SignetControllor",
        "label": "collectionContractList",
        "offset": 0,
        "slot": "8",
        "type": "t_mapping(t_address,t_struct(ownerstruct)1970_storage)"
      }
    ],
    "types": {
      "t_address": {
        "encoding": "inplace",
        "label": "address",
        "numberOfBytes": "20"
      },
      "t_contract(Signetor)4678": {
        "encoding": "inplace",
        "label": "contract Signetor",
        "numberOfBytes": "20"
      },
      "t_contract(Signetors)4864": {
        "encoding": "inplace",
        "label": "contract Signetors",
        "numberOfBytes": "20"
      },
      "t_mapping(t_address,t_struct(ownerstruct)1970_storage)": {
        "encoding": "mapping",
        "key": "t_address",
        "label": "mapping(address => struct SignetControllor.ownerstruct)",
        "numberOfBytes": "32",
        "value": "t_struct(ownerstruct)1970_storage"
      },
      "t_struct(ownerstruct)1970_storage": {
        "encoding": "inplace",
        "label": "struct SignetControllor.ownerstruct",
        "members": [
          {
            "astId": 1969,
            "contract": "contracts/core/SignetControllor.sol:SignetControllor",
            "label": "owner",
            "offset": 0,
            "slot": "0",
            "type": "t_address"
          }
        ],
        "numberOfBytes": "32"
      },
      "t_uint256": {
        "encoding": "inplace",
        "label": "uint256",
        "numberOfBytes": "32"
      }
    }
  }
}