{
  "address": "0x2208F9fCe07eB569806f264bC784ecb486698BfF",
  "abi": [
    {
      "inputs": [],
      "name": "Not_Owner",
      "type": "error"
    },
    {
      "inputs": [
        {
          "internalType": "address",
          "name": "_priceFeedAddress",
          "type": "address"
        }
      ],
      "name": "_init",
      "outputs": [],
      "stateMutability": "nonpayable",
      "type": "function"
    },
    {
      "inputs": [
        {
          "internalType": "address",
          "name": "_user",
          "type": "address"
        }
      ],
      "name": "checkNumOfSignetsSent",
      "outputs": [
        {
          "internalType": "uint256",
          "name": "",
          "type": "uint256"
        }
      ],
      "stateMutability": "view",
      "type": "function"
    },
    {
      "inputs": [
        {
          "internalType": "address",
          "name": "_user",
          "type": "address"
        }
      ],
      "name": "checkRegistered",
      "outputs": [
        {
          "internalType": "bool",
          "name": "",
          "type": "bool"
        }
      ],
      "stateMutability": "view",
      "type": "function"
    },
    {
      "inputs": [],
      "name": "getAllowedTranfer",
      "outputs": [
        {
          "internalType": "bool",
          "name": "",
          "type": "bool"
        }
      ],
      "stateMutability": "view",
      "type": "function"
    },
    {
      "inputs": [],
      "name": "getAppreciateAmount",
      "outputs": [
        {
          "internalType": "string",
          "name": "",
          "type": "string"
        }
      ],
      "stateMutability": "view",
      "type": "function"
    },
    {
      "inputs": [],
      "name": "getPriceFeedAddress",
      "outputs": [
        {
          "internalType": "address",
          "name": "",
          "type": "address"
        }
      ],
      "stateMutability": "view",
      "type": "function"
    },
    {
      "inputs": [],
      "name": "getStarCommission",
      "outputs": [
        {
          "internalType": "string",
          "name": "",
          "type": "string"
        }
      ],
      "stateMutability": "view",
      "type": "function"
    },
    {
      "inputs": [],
      "name": "getTotalSignetorNum",
      "outputs": [
        {
          "internalType": "uint256",
          "name": "",
          "type": "uint256"
        }
      ],
      "stateMutability": "view",
      "type": "function"
    },
    {
      "inputs": [],
      "name": "getTotalSignetsNum",
      "outputs": [
        {
          "internalType": "uint256",
          "name": "",
          "type": "uint256"
        }
      ],
      "stateMutability": "view",
      "type": "function"
    },
    {
      "inputs": [],
      "name": "getValueForSendMessage",
      "outputs": [
        {
          "internalType": "uint256",
          "name": "",
          "type": "uint256"
        }
      ],
      "stateMutability": "view",
      "type": "function"
    },
    {
      "inputs": [],
      "name": "setAllowedTranfer",
      "outputs": [],
      "stateMutability": "nonpayable",
      "type": "function"
    },
    {
      "inputs": [],
      "name": "setNotAllowedTranfer",
      "outputs": [],
      "stateMutability": "nonpayable",
      "type": "function"
    },
    {
      "inputs": [
        {
          "internalType": "address",
          "name": "_priceFeedAddress",
          "type": "address"
        }
      ],
      "name": "setPriceFeedAddress",
      "outputs": [],
      "stateMutability": "nonpayable",
      "type": "function"
    },
    {
      "inputs": [
        {
          "internalType": "uint256",
          "name": "_amountInDollar",
          "type": "uint256"
        }
      ],
      "name": "setStarAmountToSend",
      "outputs": [],
      "stateMutability": "nonpayable",
      "type": "function"
    },
    {
      "inputs": [
        {
          "internalType": "uint256",
          "name": "_starCommisionPercent",
          "type": "uint256"
        }
      ],
      "name": "setStarCommision",
      "outputs": [],
      "stateMutability": "nonpayable",
      "type": "function"
    },
    {
      "inputs": [
        {
          "internalType": "uint256",
          "name": "_messagePriceInWei",
          "type": "uint256"
        }
      ],
      "name": "setValueForSendMessage",
      "outputs": [],
      "stateMutability": "nonpayable",
      "type": "function"
    },
    {
      "inputs": [
        {
          "internalType": "address",
          "name": "_erc1155ContractAddress",
          "type": "address"
        },
        {
          "internalType": "uint256",
          "name": "_id",
          "type": "uint256"
        },
        {
          "internalType": "uint256",
          "name": "_amount",
          "type": "uint256"
        },
        {
          "internalType": "address",
          "name": "_to",
          "type": "address"
        }
      ],
      "name": "withdrawERC1155Token",
      "outputs": [],
      "stateMutability": "nonpayable",
      "type": "function"
    },
    {
      "inputs": [
        {
          "internalType": "address",
          "name": "_erc20ContractAddress",
          "type": "address"
        },
        {
          "internalType": "uint256",
          "name": "_amount",
          "type": "uint256"
        },
        {
          "internalType": "address",
          "name": "_to",
          "type": "address"
        }
      ],
      "name": "withdrawERC20Token",
      "outputs": [],
      "stateMutability": "nonpayable",
      "type": "function"
    },
    {
      "inputs": [
        {
          "internalType": "address",
          "name": "_erc721ContractAddress",
          "type": "address"
        },
        {
          "internalType": "uint256",
          "name": "_tokenId",
          "type": "uint256"
        },
        {
          "internalType": "address",
          "name": "_to",
          "type": "address"
        }
      ],
      "name": "withdrawERC721Token",
      "outputs": [],
      "stateMutability": "nonpayable",
      "type": "function"
    },
    {
      "inputs": [
        {
          "internalType": "uint256",
          "name": "_amount",
          "type": "uint256"
        }
      ],
      "name": "withdrawFunds",
      "outputs": [],
      "stateMutability": "nonpayable",
      "type": "function"
    }
  ],
  "transactionHash": "0xedd72f81a3b7b0148abb0d58d8328950ae91fdba74a1f00114a486c5bba6a114",
  "args": [],
  "numDeployments": 1,
  "solcInputHash": "ffcf898ede1fb7e7a9698f2494d98ec3",
  "bytecode": "0x608060405234801561001057600080fd5b50615aa7806100206000396000f3fe60806040523480156200001157600080fd5b5060043610620001475760003560e01c806372b0a2e211620000bd578063b7c3a903116200007b578063b7c3a9031462000310578063c56c3ae11462000332578063ed915ea11462000368578063ee2574af1462000388578063f04e2b4514620003be5762000147565b806372b0a2e2146200027e578063766eefad14620002a057806396a8ef9e14620002c257806398a394ca14620002e25780639d79bfa614620003045762000147565b8063205b5a98116200010b578063205b5a9814620001da5780632d301e9014620001fc57806348e007f6146200021c5780635cd13e3d146200023c5780636fe80ed5146200025c5762000147565b8062cf5db4146200014c5780630db295ed146200016c5780630f0f30b21462000178578063155dd5ee146200019a5780631795e5f114620001ba575b600080fd5b6200016a600480360381019062000164919062001738565b620003de565b005b62000176620004d4565b005b6200018262000557565b6040516200019191906200177b565b60405180910390f35b620001b86004803603810190620001b29190620017d3565b62000568565b005b620001d86004803603810190620001d2919062001805565b620006a2565b005b620001e462000792565b604051620001f391906200191b565b60405180910390f35b6200021a6004803603810190620002149190620017d3565b6200082f565b005b6200023a6004803603810190620002349190620017d3565b620008f8565b005b6200025a6004803603810190620002549190620017d3565b620009c2565b005b6200026662000aa0565b6040516200027591906200191b565b60405180910390f35b6200028862000b28565b60405162000297919062001950565b60405180910390f35b620002aa62000b39565b604051620002b9919062001950565b60405180910390f35b620002e06004803603810190620002da91906200196d565b62000b4a565b005b620002ec62000ca8565b604051620002fb9190620019e6565b60405180910390f35b6200030e62000cb9565b005b6200031a62000d3c565b60405162000329919062001950565b60405180910390f35b6200035060048036038101906200034a919062001738565b62000d4d565b6040516200035f919062001950565b60405180910390f35b6200038660048036038101906200038091906200196d565b62000d61565b005b620003a66004803603810190620003a0919062001738565b62000f4c565b604051620003b59190620019e6565b60405180910390f35b620003dc6004803603810190620003d6919062001738565b62000f60565b005b6000620003ea620010b3565b90503373ffffffffffffffffffffffffffffffffffffffff168173ffffffffffffffffffffffffffffffffffffffff161462000452576040517fa7b495d200000000000000000000000000000000000000000000000000000000815260040160405180910390fd5b600073ffffffffffffffffffffffffffffffffffffffff168273ffffffffffffffffffffffffffffffffffffffff161415620004c5576040517f08c379a0000000000000000000000000000000000000000000000000000000008152600401620004bc9062001a53565b60405180910390fd5b620004d082620010c4565b5050565b6000620004e0620010b3565b90503373ffffffffffffffffffffffffffffffffffffffff168173ffffffffffffffffffffffffffffffffffffffff161462000548576040517fa7b495d200000000000000000000000000000000000000000000000000000000815260040160405180910390fd5b62000554600162001119565b50565b6000620005636200114a565b905090565b600062000574620010b3565b90503373ffffffffffffffffffffffffffffffffffffffff168173ffffffffffffffffffffffffffffffffffffffff1614620005dc576040517fa7b495d200000000000000000000000000000000000000000000000000000000815260040160405180910390fd5b81471015620005ea57600080fd5b60003373ffffffffffffffffffffffffffffffffffffffff1683604051620006129062001aaa565b60006040518083038185875af1925050503d806000811462000651576040519150601f19603f3d011682016040523d82523d6000602084013e62000656565b606091505b50509050806200069d576040517f08c379a0000000000000000000000000000000000000000000000000000000008152600401620006949062001b11565b60405180910390fd5b505050565b6000620006ae620010b3565b90503373ffffffffffffffffffffffffffffffffffffffff168173ffffffffffffffffffffffffffffffffffffffff161462000716576040517fa7b495d200000000000000000000000000000000000000000000000000000000815260040160405180910390fd5b8473ffffffffffffffffffffffffffffffffffffffff1663f242432a308487876040518563ffffffff1660e01b815260040162000757949392919062001b6b565b600060405180830381600087803b1580156200077257600080fd5b505af115801562000787573d6000803e3d6000fd5b505050505050505050565b60606000670de0b6b3a7640000620007a962001184565b620007b5919062001c2b565b905060008111620007fc576040518060400160405280600281526020017f302400000000000000000000000000000000000000000000000000000000000081525062000829565b6200080781620011a1565b60405160200162000819919062001cf5565b6040516020818303038152906040525b91505090565b60006200083b620010b3565b90503373ffffffffffffffffffffffffffffffffffffffff168173ffffffffffffffffffffffffffffffffffffffff1614620008a3576040517fa7b495d200000000000000000000000000000000000000000000000000000000815260040160405180910390fd5b60648210620008e9576040517f08c379a0000000000000000000000000000000000000000000000000000000008152600401620008e09062001a53565b60405180910390fd5b620008f48262001286565b5050565b600062000904620010b3565b90503373ffffffffffffffffffffffffffffffffffffffff168173ffffffffffffffffffffffffffffffffffffffff16146200096c576040517fa7b495d200000000000000000000000000000000000000000000000000000000815260040160405180910390fd5b6000821015620009b3576040517f08c379a0000000000000000000000000000000000000000000000000000000008152600401620009aa9062001a53565b60405180910390fd5b620009be82620012a4565b5050565b6000620009ce620010b3565b90503373ffffffffffffffffffffffffffffffffffffffff168173ffffffffffffffffffffffffffffffffffffffff161462000a36576040517fa7b495d200000000000000000000000000000000000000000000000000000000815260040160405180910390fd5b6000821162000a7c576040517f08c379a000000000000000000000000000000000000000000000000000000000815260040162000a739062001a53565b60405180910390fd5b62000a9c670de0b6b3a76400008362000a96919062001d1b565b620012c2565b5050565b6060600062000aae620012e0565b90506000811162000af5576040518060400160405280600281526020017f302500000000000000000000000000000000000000000000000000000000000081525062000b22565b62000b0081620011a1565b60405160200162000b12919062001dcc565b6040516020818303038152906040525b91505090565b600062000b34620012fd565b905090565b600062000b456200131a565b905090565b600062000b56620010b3565b90503373ffffffffffffffffffffffffffffffffffffffff168173ffffffffffffffffffffffffffffffffffffffff161462000bbe576040517fa7b495d200000000000000000000000000000000000000000000000000000000815260040160405180910390fd5b8373ffffffffffffffffffffffffffffffffffffffff1663095ea7b383856040518363ffffffff1660e01b815260040162000bfb92919062001df2565b600060405180830381600087803b15801562000c1657600080fd5b505af115801562000c2b573d6000803e3d6000fd5b505050508373ffffffffffffffffffffffffffffffffffffffff166342842e0e3084866040518463ffffffff1660e01b815260040162000c6e9392919062001e1f565b600060405180830381600087803b15801562000c8957600080fd5b505af115801562000c9e573d6000803e3d6000fd5b5050505050505050565b600062000cb462001337565b905090565b600062000cc5620010b3565b90503373ffffffffffffffffffffffffffffffffffffffff168173ffffffffffffffffffffffffffffffffffffffff161462000d2d576040517fa7b495d200000000000000000000000000000000000000000000000000000000815260040160405180910390fd5b62000d39600062001119565b50565b600062000d4862001361565b905090565b600062000d5a826200137e565b9050919050565b600062000d6d620010b3565b90503373ffffffffffffffffffffffffffffffffffffffff168173ffffffffffffffffffffffffffffffffffffffff161462000dd5576040517fa7b495d200000000000000000000000000000000000000000000000000000000815260040160405180910390fd5b8373ffffffffffffffffffffffffffffffffffffffff1663095ea7b330856040518363ffffffff1660e01b815260040162000e1292919062001df2565b602060405180830381600087803b15801562000e2d57600080fd5b505af115801562000e42573d6000803e3d6000fd5b505050506040513d601f19601f8201168201806040525081019062000e68919062001e8d565b5060008473ffffffffffffffffffffffffffffffffffffffff166323b872dd3085876040518463ffffffff1660e01b815260040162000eaa9392919062001e1f565b602060405180830381600087803b15801562000ec557600080fd5b505af115801562000eda573d6000803e3d6000fd5b505050506040513d601f19601f8201168201806040525081019062000f00919062001e8d565b90508062000f45576040517f08c379a000000000000000000000000000000000000000000000000000000000815260040162000f3c9062001f0f565b60405180910390fd5b5050505050565b600062000f5982620013da565b9050919050565b600062000f6c620010b3565b90503373ffffffffffffffffffffffffffffffffffffffff168173ffffffffffffffffffffffffffffffffffffffff161462000fd4576040517fa7b495d200000000000000000000000000000000000000000000000000000000815260040160405180910390fd5b60003060405162000fe590620016c0565b62000ff1919062001fd1565b604051809103906000f0801580156200100e573d6000803e3d6000fd5b50905060008173ffffffffffffffffffffffffffffffffffffffff1663ffb0958d6040518163ffffffff1660e01b815260040160206040518083038186803b1580156200105a57600080fd5b505afa1580156200106f573d6000803e3d6000fd5b505050506040513d601f19601f820116820180604052508101906200109591906200202f565b9050620010a284620003de565b620010ad8162001443565b50505050565b6000620010bf62001498565b905090565b6000620010d0620014cd565b9050818160230160006101000a81548173ffffffffffffffffffffffffffffffffffffffff021916908373ffffffffffffffffffffffffffffffffffffffff1602179055505050565b600062001125620014fa565b90508181601a0160060160146101000a81548160ff0219169083151502179055505050565b60008062001157620014cd565b90508060230160009054906101000a900473ffffffffffffffffffffffffffffffffffffffff1691505090565b60008062001191620014fa565b905080601a016002015491505090565b606060006001620011b28462001527565b01905060008167ffffffffffffffff811115620011d457620011d362002061565b5b6040519080825280601f01601f191660200182016040528015620012075781602001600182028036833780820191505090505b509050600082602001820190505b6001156200127b578080600190039150507f3031323334353637383961626364656600000000000000000000000000000000600a86061a8153600a858162001262576200126162001bcd565b5b049450600085141562001275576200127b565b62001215565b819350505050919050565b600062001292620014fa565b90508181601a01600301819055505050565b6000620012b0620014fa565b90508181601a01600401819055505050565b6000620012ce620014fa565b90508181601a01600201819055505050565b600080620012ed620014fa565b905080601a016003015491505090565b6000806200130a620014fa565b905080601a016004015491505090565b60008062001327620014fa565b905080601a016000015491505090565b60008062001344620014fa565b905080601a0160060160149054906101000a900460ff1691505090565b6000806200136e620014fa565b905080601a016001015491505090565b6000806200138b620014fa565b90508060180160010160008473ffffffffffffffffffffffffffffffffffffffff1673ffffffffffffffffffffffffffffffffffffffff16815260200190815260200160002054915050919050565b600080620013e7620014fa565b90508060180160000160008473ffffffffffffffffffffffffffffffffffffffff1673ffffffffffffffffffffffffffffffffffffffff16815260200190815260200160002060009054906101000a900460ff16915050919050565b60006200144f620014fa565b9050818160220160016101000a81548173ffffffffffffffffffffffffffffffffffffffff021916908373ffffffffffffffffffffffffffffffffffffffff1602179055505050565b6000620014a462001693565b60040160009054906101000a900473ffffffffffffffffffffffffffffffffffffffff16905090565b6000807f0b7cd5ad917e0ed6e2cd0c1b94ff4beaebb02b4d2d511ede3c9172a0ee7d946590508091505090565b6000807f0b7cd5ad917e0ed6e2cd0c1b94ff4beaebb02b4d2d511ede3c9172a0ee7d946590508091505090565b600080600090507a184f03e93ff9f4daa797ed6e38ed64bf6a1f010000000000000000831062001589577a184f03e93ff9f4daa797ed6e38ed64bf6a1f01000000000000000083816200157f576200157e62001bcd565b5b0492506040810190505b6d04ee2d6d415b85acef81000000008310620015ca576d04ee2d6d415b85acef81000000008381620015c057620015bf62001bcd565b5b0492506020810190505b662386f26fc100008310620015fd57662386f26fc100008381620015f357620015f262001bcd565b5b0492506010810190505b6305f5e10083106200162a576305f5e100838162001620576200161f62001bcd565b5b0492506008810190505b61271083106200165357612710838162001649576200164862001bcd565b5b0492506004810190505b606483106200167a576064838162001670576200166f62001bcd565b5b0492506002810190505b600a83106200168a576001810190505b80915050919050565b6000807fc8fcad8db84d3cc18b4c41d551ea0ee66dd599cde068d998e57d5e09332c131c90508091505090565b6139e1806200209183390190565b600080fd5b600073ffffffffffffffffffffffffffffffffffffffff82169050919050565b60006200170082620016d3565b9050919050565b6200171281620016f3565b81146200171e57600080fd5b50565b600081359050620017328162001707565b92915050565b600060208284031215620017515762001750620016ce565b5b6000620017618482850162001721565b91505092915050565b6200177581620016f3565b82525050565b60006020820190506200179260008301846200176a565b92915050565b6000819050919050565b620017ad8162001798565b8114620017b957600080fd5b50565b600081359050620017cd81620017a2565b92915050565b600060208284031215620017ec57620017eb620016ce565b5b6000620017fc84828501620017bc565b91505092915050565b60008060008060808587031215620018225762001821620016ce565b5b6000620018328782880162001721565b94505060206200184587828801620017bc565b93505060406200185887828801620017bc565b92505060606200186b8782880162001721565b91505092959194509250565b600081519050919050565b600082825260208201905092915050565b60005b83811015620018b357808201518184015260208101905062001896565b83811115620018c3576000848401525b50505050565b6000601f19601f8301169050919050565b6000620018e78262001877565b620018f3818562001882565b93506200190581856020860162001893565b6200191081620018c9565b840191505092915050565b60006020820190508181036000830152620019378184620018da565b905092915050565b6200194a8162001798565b82525050565b60006020820190506200196760008301846200193f565b92915050565b600080600060608486031215620019895762001988620016ce565b5b6000620019998682870162001721565b9350506020620019ac86828701620017bc565b9250506040620019bf8682870162001721565b9150509250925092565b60008115159050919050565b620019e081620019c9565b82525050565b6000602082019050620019fd6000830184620019d5565b92915050565b7f57726f6e6720417267756d656e747320476976656e0000000000000000000000600082015250565b600062001a3b60158362001882565b915062001a488262001a03565b602082019050919050565b6000602082019050818103600083015262001a6e8162001a2c565b9050919050565b600081905092915050565b50565b600062001a9260008362001a75565b915062001a9f8262001a80565b600082019050919050565b600062001ab78262001a83565b9150819050919050565b7f43616c6c206661696c6564000000000000000000000000000000000000000000600082015250565b600062001af9600b8362001882565b915062001b068262001ac1565b602082019050919050565b6000602082019050818103600083015262001b2c8162001aea565b9050919050565b600082825260208201905092915050565b600062001b5360008362001b33565b915062001b608262001a80565b600082019050919050565b600060a08201905062001b8260008301876200176a565b62001b9160208301866200176a565b62001ba060408301856200193f565b62001baf60608301846200193f565b818103608083015262001bc28162001b44565b905095945050505050565b7f4e487b7100000000000000000000000000000000000000000000000000000000600052601260045260246000fd5b7f4e487b7100000000000000000000000000000000000000000000000000000000600052601160045260246000fd5b600062001c388262001798565b915062001c458362001798565b92508262001c585762001c5762001bcd565b5b828204905092915050565b600081905092915050565b600062001c7b8262001877565b62001c87818562001c63565b935062001c9981856020860162001893565b80840191505092915050565b7f2400000000000000000000000000000000000000000000000000000000000000600082015250565b600062001cdd60018362001c63565b915062001cea8262001ca5565b600182019050919050565b600062001d03828462001c6e565b915062001d108262001cce565b915081905092915050565b600062001d288262001798565b915062001d358362001798565b9250817fffffffffffffffffffffffffffffffffffffffffffffffffffffffffffffffff048311821515161562001d715762001d7062001bfc565b5b828202905092915050565b7f2500000000000000000000000000000000000000000000000000000000000000600082015250565b600062001db460018362001c63565b915062001dc18262001d7c565b600182019050919050565b600062001dda828462001c6e565b915062001de78262001da5565b915081905092915050565b600060408201905062001e0960008301856200176a565b62001e1860208301846200193f565b9392505050565b600060608201905062001e3660008301866200176a565b62001e4560208301856200176a565b62001e5460408301846200193f565b949350505050565b62001e6781620019c9565b811462001e7357600080fd5b50565b60008151905062001e878162001e5c565b92915050565b60006020828403121562001ea65762001ea5620016ce565b5b600062001eb68482850162001e76565b91505092915050565b7f5472616e73666572206661696c65640000000000000000000000000000000000600082015250565b600062001ef7600f8362001882565b915062001f048262001ebf565b602082019050919050565b6000602082019050818103600083015262001f2a8162001ee8565b9050919050565b7f5369676e65746f72000000000000000000000000000000000000000000000000600082015250565b600062001f6960088362001882565b915062001f768262001f31565b602082019050919050565b7f5354000000000000000000000000000000000000000000000000000000000000600082015250565b600062001fb960028362001882565b915062001fc68262001f81565b602082019050919050565b6000606082019050818103600083015262001fec8162001f5a565b90508181036020830152620020018162001faa565b90506200201260408301846200176a565b92915050565b600081519050620020298162001707565b92915050565b600060208284031215620020485762002047620016ce565b5b6000620020588482850162002018565b91505092915050565b7f4e487b7100000000000000000000000000000000000000000000000000000000600052604160045260246000fdfe60806040523480156200001157600080fd5b50604051620039e1380380620039e18339818101604052810190620000379190620004ec565b8282828260019080519060200190620000529291906200023a565b5081600290805190602001906200006b9291906200023a565b50806000806101000a81548173ffffffffffffffffffffffffffffffffffffffff021916908373ffffffffffffffffffffffffffffffffffffffff160217905550505050620000cf620000c36200012960201b60201c565b6200013160201b60201c565b620000df620001f760201b60201c565b80600960006101000a81548173ffffffffffffffffffffffffffffffffffffffff021916908373ffffffffffffffffffffffffffffffffffffffff160217905550505050620005eb565b600033905090565b6000600760009054906101000a900473ffffffffffffffffffffffffffffffffffffffff16905081600760006101000a81548173ffffffffffffffffffffffffffffffffffffffff021916908373ffffffffffffffffffffffffffffffffffffffff1602179055508173ffffffffffffffffffffffffffffffffffffffff168173ffffffffffffffffffffffffffffffffffffffff167f8be0079c531659141344cd1fd0a4f28419497f9722a3daafe3b4186f6b6457e060405160405180910390a35050565b30600860006101000a81548173ffffffffffffffffffffffffffffffffffffffff021916908373ffffffffffffffffffffffffffffffffffffffff160217905550565b8280546200024890620005b5565b90600052602060002090601f0160209004810192826200026c5760008555620002b8565b82601f106200028757805160ff1916838001178555620002b8565b82800160010185558215620002b8579182015b82811115620002b75782518255916020019190600101906200029a565b5b509050620002c79190620002cb565b5090565b5b80821115620002e6576000816000905550600101620002cc565b5090565b6000604051905090565b600080fd5b600080fd5b600080fd5b600080fd5b6000601f19601f8301169050919050565b7f4e487b7100000000000000000000000000000000000000000000000000000000600052604160045260246000fd5b620003538262000308565b810181811067ffffffffffffffff8211171562000375576200037462000319565b5b80604052505050565b60006200038a620002ea565b905062000398828262000348565b919050565b600067ffffffffffffffff821115620003bb57620003ba62000319565b5b620003c68262000308565b9050602081019050919050565b60005b83811015620003f3578082015181840152602081019050620003d6565b8381111562000403576000848401525b50505050565b6000620004206200041a846200039d565b6200037e565b9050828152602081018484840111156200043f576200043e62000303565b5b6200044c848285620003d3565b509392505050565b600082601f8301126200046c576200046b620002fe565b5b81516200047e84826020860162000409565b91505092915050565b600073ffffffffffffffffffffffffffffffffffffffff82169050919050565b6000620004b48262000487565b9050919050565b620004c681620004a7565b8114620004d257600080fd5b50565b600081519050620004e681620004bb565b92915050565b600080600060608486031215620005085762000507620002f4565b5b600084015167ffffffffffffffff811115620005295762000528620002f9565b5b620005378682870162000454565b935050602084015167ffffffffffffffff8111156200055b576200055a620002f9565b5b620005698682870162000454565b92505060406200057c86828701620004d5565b9150509250925092565b7f4e487b7100000000000000000000000000000000000000000000000000000000600052602260045260246000fd5b60006002820490506001821680620005ce57607f821691505b60208210811415620005e557620005e462000586565b5b50919050565b6133e680620005fb6000396000f3fe608060405234801561001057600080fd5b50600436106101575760003560e01c8063715018a6116100c3578063b88d4fde1161007c578063b88d4fde146103a0578063c87b56dd146103bc578063de6f24bb146103ec578063e985e9c51461041c578063f2fde38b1461044c578063ffb0958d1461046857610157565b8063715018a6146103025780638da5cb5b1461030c57806395d89b411461032a578063975073ba14610348578063a22cb46514610366578063b4aa7ca21461038257610157565b806323b872dd1161011557806323b872dd1461023257806342842e0e1461024e57806355f804b31461026a5780636352211e146102865780636704e981146102b657806370a08231146102d257610157565b806204586c1461015c57806301f5883c1461017a57806301ffc9a71461019857806306fdde03146101c8578063081812fc146101e6578063095ea7b314610216575b600080fd5b610164610486565b60405161017191906121b6565b60405180910390f35b61018261048c565b60405161018f9190612212565b60405180910390f35b6101b260048036038101906101ad9190612299565b6104b0565b6040516101bf91906122e1565b60405180910390f35b6101d0610592565b6040516101dd9190612395565b60405180910390f35b61020060048036038101906101fb91906123e3565b610624565b60405161020d9190612212565b60405180910390f35b610230600480360381019061022b919061243c565b61066a565b005b61024c6004803603810190610247919061247c565b610782565b005b6102686004803603810190610263919061247c565b610830565b005b610284600480360381019061027f9190612604565b61089e565b005b6102a0600480360381019061029b91906123e3565b6108c0565b6040516102ad9190612212565b60405180910390f35b6102d060048036038101906102cb919061243c565b610972565b005b6102ec60048036038101906102e7919061264d565b610a4e565b6040516102f991906121b6565b60405180910390f35b61030a610b06565b005b610314610b1a565b6040516103219190612212565b60405180910390f35b610332610b44565b60405161033f9190612395565b60405180910390f35b610350610bd6565b60405161035d9190612212565b60405180910390f35b610380600480360381019061037b91906126a6565b610bfc565b005b61038a610c12565b60405161039791906122e1565b60405180910390f35b6103ba60048036038101906103b59190612787565b610cb8565b005b6103d660048036038101906103d191906123e3565b610d68565b6040516103e39190612395565b60405180910390f35b6104066004803603810190610401919061280a565b610edb565b60405161041391906121b6565b60405180910390f35b61043660048036038101906104319190612866565b610f97565b60405161044391906122e1565b60405180910390f35b6104666004803603810190610461919061264d565b61102b565b005b6104706110af565b60405161047d9190612212565b60405180910390f35b600a5481565b60008054906101000a900473ffffffffffffffffffffffffffffffffffffffff1681565b60007f80ac58cd000000000000000000000000000000000000000000000000000000007bffffffffffffffffffffffffffffffffffffffffffffffffffffffff1916827bffffffffffffffffffffffffffffffffffffffffffffffffffffffff1916148061057b57507f5b5e139f000000000000000000000000000000000000000000000000000000007bffffffffffffffffffffffffffffffffffffffffffffffffffffffff1916827bffffffffffffffffffffffffffffffffffffffffffffffffffffffff1916145b8061058b575061058a826110d5565b5b9050919050565b6060600180546105a1906128d5565b80601f01602080910402602001604051908101604052809291908181526020018280546105cd906128d5565b801561061a5780601f106105ef5761010080835404028352916020019161061a565b820191906000526020600020905b8154815290600101906020018083116105fd57829003601f168201915b5050505050905090565b600061062f8261113f565b6005600083815260200190815260200160002060009054906101000a900473ffffffffffffffffffffffffffffffffffffffff169050919050565b6000610675826108c0565b90508073ffffffffffffffffffffffffffffffffffffffff168373ffffffffffffffffffffffffffffffffffffffff1614156106e6576040517f08c379a00000000000000000000000000000000000000000000000000000000081526004016106dd90612979565b60405180910390fd5b8073ffffffffffffffffffffffffffffffffffffffff1661070561118a565b73ffffffffffffffffffffffffffffffffffffffff16148061073457506107338161072e61118a565b610f97565b5b610773576040517f08c379a000000000000000000000000000000000000000000000000000000000815260040161076a90612a0b565b60405180910390fd5b61077d8383611192565b505050565b6001151561078e610c12565b1515146107d0576040517f08c379a00000000000000000000000000000000000000000000000000000000081526004016107c790612a77565b60405180910390fd5b6107e16107db61118a565b8261124b565b610820576040517f08c379a000000000000000000000000000000000000000000000000000000000815260040161081790612b09565b60405180910390fd5b61082b8383836112e0565b505050565b6001151561083c610c12565b15151461087e576040517f08c379a000000000000000000000000000000000000000000000000000000000815260040161087590612a77565b60405180910390fd5b61089983838360405180602001604052806000815250610cb8565b505050565b6108a6611547565b80600c90805190602001906108bc9291906120fa565b5050565b6000806003600084815260200190815260200160002060009054906101000a900473ffffffffffffffffffffffffffffffffffffffff169050600073ffffffffffffffffffffffffffffffffffffffff168173ffffffffffffffffffffffffffffffffffffffff161415610969576040517f08c379a000000000000000000000000000000000000000000000000000000000815260040161096090612b75565b60405180910390fd5b80915050919050565b600960009054906101000a900473ffffffffffffffffffffffffffffffffffffffff1673ffffffffffffffffffffffffffffffffffffffff163373ffffffffffffffffffffffffffffffffffffffff16146109f9576040517f3cfd317500000000000000000000000000000000000000000000000000000000815260040160405180910390fd5b60001515610a07838361124b565b15151415610a41576040517f4c7b9a8f00000000000000000000000000000000000000000000000000000000815260040160405180910390fd5b610a4a816115c5565b5050565b60008073ffffffffffffffffffffffffffffffffffffffff168273ffffffffffffffffffffffffffffffffffffffff161415610abf576040517f08c379a0000000000000000000000000000000000000000000000000000000008152600401610ab690612c07565b60405180910390fd5b600460008373ffffffffffffffffffffffffffffffffffffffff1673ffffffffffffffffffffffffffffffffffffffff168152602001908152602001600020549050919050565b610b0e611547565b610b1860006116e2565b565b6000600760009054906101000a900473ffffffffffffffffffffffffffffffffffffffff16905090565b606060028054610b53906128d5565b80601f0160208091040260200160405190810160405280929190818152602001828054610b7f906128d5565b8015610bcc5780601f10610ba157610100808354040283529160200191610bcc565b820191906000526020600020905b815481529060010190602001808311610baf57829003601f168201915b5050505050905090565b600960009054906101000a900473ffffffffffffffffffffffffffffffffffffffff1681565b610c0e610c0761118a565b83836117a8565b5050565b60008060009054906101000a900473ffffffffffffffffffffffffffffffffffffffff1673ffffffffffffffffffffffffffffffffffffffff166398a394ca6040518163ffffffff1660e01b815260040160206040518083038186803b158015610c7b57600080fd5b505afa158015610c8f573d6000803e3d6000fd5b505050506040513d601f19601f82011682018060405250810190610cb39190612c3c565b905090565b60011515610cc4610c12565b151514610d06576040517f08c379a0000000000000000000000000000000000000000000000000000000008152600401610cfd90612a77565b60405180910390fd5b610d17610d1161118a565b8361124b565b610d56576040517f08c379a0000000000000000000000000000000000000000000000000000000008152600401610d4d90612b09565b60405180910390fd5b610d6284848484611915565b50505050565b6060610d73826119bf565b610db2576040517f08c379a0000000000000000000000000000000000000000000000000000000008152600401610da990612cdb565b60405180910390fd5b6000600b60008481526020019081526020016000208054610dd2906128d5565b80601f0160208091040260200160405190810160405280929190818152602001828054610dfe906128d5565b8015610e4b5780601f10610e2057610100808354040283529160200191610e4b565b820191906000526020600020905b815481529060010190602001808311610e2e57829003601f168201915b505050505090506000610e5c611a2b565b9050600081511415610e72578192505050610ed6565b600082511115610ea7578082604051602001610e8f929190612d37565b60405160208183030381529060405292505050610ed6565b80610eb185611abd565b604051602001610ec2929190612d37565b604051602081830303815290604052925050505b919050565b6000600960009054906101000a900473ffffffffffffffffffffffffffffffffffffffff1673ffffffffffffffffffffffffffffffffffffffff163373ffffffffffffffffffffffffffffffffffffffff1614610f64576040517f3cfd317500000000000000000000000000000000000000000000000000000000815260040160405180910390fd5b600a6000815460010191905081905550610f8083600a54611b95565b610f8c600a5483611d6f565b600a54905092915050565b6000600660008473ffffffffffffffffffffffffffffffffffffffff1673ffffffffffffffffffffffffffffffffffffffff16815260200190815260200160002060008373ffffffffffffffffffffffffffffffffffffffff1673ffffffffffffffffffffffffffffffffffffffff16815260200190815260200160002060009054906101000a900460ff16905092915050565b611033611547565b600073ffffffffffffffffffffffffffffffffffffffff168173ffffffffffffffffffffffffffffffffffffffff1614156110a3576040517f08c379a000000000000000000000000000000000000000000000000000000000815260040161109a90612dcd565b60405180910390fd5b6110ac816116e2565b50565b600860009054906101000a900473ffffffffffffffffffffffffffffffffffffffff1681565b60007f01ffc9a7000000000000000000000000000000000000000000000000000000007bffffffffffffffffffffffffffffffffffffffffffffffffffffffff1916827bffffffffffffffffffffffffffffffffffffffffffffffffffffffff1916149050919050565b611148816119bf565b611187576040517f08c379a000000000000000000000000000000000000000000000000000000000815260040161117e90612b75565b60405180910390fd5b50565b600033905090565b816005600083815260200190815260200160002060006101000a81548173ffffffffffffffffffffffffffffffffffffffff021916908373ffffffffffffffffffffffffffffffffffffffff160217905550808273ffffffffffffffffffffffffffffffffffffffff16611205836108c0565b73ffffffffffffffffffffffffffffffffffffffff167f8c5be1e5ebec7d5bd14f71427d1e84f3dd0314c0f7b2291e5b200ac8c7c3b92560405160405180910390a45050565b600080611257836108c0565b90508073ffffffffffffffffffffffffffffffffffffffff168473ffffffffffffffffffffffffffffffffffffffff16148061129957506112988185610f97565b5b806112d757508373ffffffffffffffffffffffffffffffffffffffff166112bf84610624565b73ffffffffffffffffffffffffffffffffffffffff16145b91505092915050565b8273ffffffffffffffffffffffffffffffffffffffff16611300826108c0565b73ffffffffffffffffffffffffffffffffffffffff1614611356576040517f08c379a000000000000000000000000000000000000000000000000000000000815260040161134d90612e5f565b60405180910390fd5b600073ffffffffffffffffffffffffffffffffffffffff168273ffffffffffffffffffffffffffffffffffffffff1614156113c6576040517f08c379a00000000000000000000000000000000000000000000000000000000081526004016113bd90612ef1565b60405180910390fd5b6113d1838383611de3565b6113dc600082611192565b6001600460008573ffffffffffffffffffffffffffffffffffffffff1673ffffffffffffffffffffffffffffffffffffffff168152602001908152602001600020600082825461142c9190612f40565b925050819055506001600460008473ffffffffffffffffffffffffffffffffffffffff1673ffffffffffffffffffffffffffffffffffffffff16815260200190815260200160002060008282546114839190612f74565b92505081905550816003600083815260200190815260200160002060006101000a81548173ffffffffffffffffffffffffffffffffffffffff021916908373ffffffffffffffffffffffffffffffffffffffff160217905550808273ffffffffffffffffffffffffffffffffffffffff168473ffffffffffffffffffffffffffffffffffffffff167fddf252ad1be2c89b69c2b068fc378daa952ba7f163c4a11628f55a4df523b3ef60405160405180910390a4611542838383611de8565b505050565b61154f61118a565b73ffffffffffffffffffffffffffffffffffffffff1661156d610b1a565b73ffffffffffffffffffffffffffffffffffffffff16146115c3576040517f08c379a00000000000000000000000000000000000000000000000000000000081526004016115ba90613016565b60405180910390fd5b565b60006115d0826108c0565b90506115de81600084611de3565b6115e9600083611192565b6001600460008373ffffffffffffffffffffffffffffffffffffffff1673ffffffffffffffffffffffffffffffffffffffff16815260200190815260200160002060008282546116399190612f40565b925050819055506003600083815260200190815260200160002060006101000a81549073ffffffffffffffffffffffffffffffffffffffff021916905581600073ffffffffffffffffffffffffffffffffffffffff168273ffffffffffffffffffffffffffffffffffffffff167fddf252ad1be2c89b69c2b068fc378daa952ba7f163c4a11628f55a4df523b3ef60405160405180910390a46116de81600084611de8565b5050565b6000600760009054906101000a900473ffffffffffffffffffffffffffffffffffffffff16905081600760006101000a81548173ffffffffffffffffffffffffffffffffffffffff021916908373ffffffffffffffffffffffffffffffffffffffff1602179055508173ffffffffffffffffffffffffffffffffffffffff168173ffffffffffffffffffffffffffffffffffffffff167f8be0079c531659141344cd1fd0a4f28419497f9722a3daafe3b4186f6b6457e060405160405180910390a35050565b8173ffffffffffffffffffffffffffffffffffffffff168373ffffffffffffffffffffffffffffffffffffffff161415611817576040517f08c379a000000000000000000000000000000000000000000000000000000000815260040161180e90613082565b60405180910390fd5b80600660008573ffffffffffffffffffffffffffffffffffffffff1673ffffffffffffffffffffffffffffffffffffffff16815260200190815260200160002060008473ffffffffffffffffffffffffffffffffffffffff1673ffffffffffffffffffffffffffffffffffffffff16815260200190815260200160002060006101000a81548160ff0219169083151502179055508173ffffffffffffffffffffffffffffffffffffffff168373ffffffffffffffffffffffffffffffffffffffff167f17307eab39ab6107e8899845ad3d59bd9653f200f220920489ca2b5937696c318360405161190891906122e1565b60405180910390a3505050565b60011515611921610c12565b151514611963576040517f08c379a000000000000000000000000000000000000000000000000000000000815260040161195a90612a77565b60405180910390fd5b61196e8484846112e0565b61197a84848484611ded565b6119b9576040517f08c379a00000000000000000000000000000000000000000000000000000000081526004016119b090613114565b60405180910390fd5b50505050565b60008073ffffffffffffffffffffffffffffffffffffffff166003600084815260200190815260200160002060009054906101000a900473ffffffffffffffffffffffffffffffffffffffff1673ffffffffffffffffffffffffffffffffffffffff1614159050919050565b6060600c8054611a3a906128d5565b80601f0160208091040260200160405190810160405280929190818152602001828054611a66906128d5565b8015611ab35780601f10611a8857610100808354040283529160200191611ab3565b820191906000526020600020905b815481529060010190602001808311611a9657829003601f168201915b5050505050905090565b606060006001611acc84611f84565b01905060008167ffffffffffffffff811115611aeb57611aea6124d9565b5b6040519080825280601f01601f191660200182016040528015611b1d5781602001600182028036833780820191505090505b509050600082602001820190505b600115611b8a578080600190039150507f3031323334353637383961626364656600000000000000000000000000000000600a86061a8153600a8581611b7457611b73613134565b5b0494506000851415611b8557611b8a565b611b2b565b819350505050919050565b600073ffffffffffffffffffffffffffffffffffffffff168273ffffffffffffffffffffffffffffffffffffffff161415611c05576040517f08c379a0000000000000000000000000000000000000000000000000000000008152600401611bfc906131af565b60405180910390fd5b611c0e816119bf565b15611c4e576040517f08c379a0000000000000000000000000000000000000000000000000000000008152600401611c459061321b565b60405180910390fd5b611c5a60008383611de3565b6001600460008473ffffffffffffffffffffffffffffffffffffffff1673ffffffffffffffffffffffffffffffffffffffff1681526020019081526020016000206000828254611caa9190612f74565b92505081905550816003600083815260200190815260200160002060006101000a81548173ffffffffffffffffffffffffffffffffffffffff021916908373ffffffffffffffffffffffffffffffffffffffff160217905550808273ffffffffffffffffffffffffffffffffffffffff16600073ffffffffffffffffffffffffffffffffffffffff167fddf252ad1be2c89b69c2b068fc378daa952ba7f163c4a11628f55a4df523b3ef60405160405180910390a4611d6b60008383611de8565b5050565b611d78826119bf565b611db7576040517f08c379a0000000000000000000000000000000000000000000000000000000008152600401611dae906132ad565b60405180910390fd5b80600b60008481526020019081526020016000209080519060200190611dde9291906120fa565b505050565b505050565b505050565b6000611e0e8473ffffffffffffffffffffffffffffffffffffffff166120d7565b15611f77578373ffffffffffffffffffffffffffffffffffffffff1663150b7a02611e3761118a565b8786866040518563ffffffff1660e01b8152600401611e599493929190613322565b602060405180830381600087803b158015611e7357600080fd5b505af1925050508015611ea457506040513d601f19601f82011682018060405250810190611ea19190613383565b60015b611f27573d8060008114611ed4576040519150601f19603f3d011682016040523d82523d6000602084013e611ed9565b606091505b50600081511415611f1f576040517f08c379a0000000000000000000000000000000000000000000000000000000008152600401611f1690613114565b60405180910390fd5b805181602001fd5b63150b7a0260e01b7bffffffffffffffffffffffffffffffffffffffffffffffffffffffff1916817bffffffffffffffffffffffffffffffffffffffffffffffffffffffff191614915050611f7c565b600190505b949350505050565b600080600090507a184f03e93ff9f4daa797ed6e38ed64bf6a1f0100000000000000008310611fe2577a184f03e93ff9f4daa797ed6e38ed64bf6a1f0100000000000000008381611fd857611fd7613134565b5b0492506040810190505b6d04ee2d6d415b85acef8100000000831061201f576d04ee2d6d415b85acef8100000000838161201557612014613134565b5b0492506020810190505b662386f26fc10000831061204e57662386f26fc10000838161204457612043613134565b5b0492506010810190505b6305f5e1008310612077576305f5e100838161206d5761206c613134565b5b0492506008810190505b612710831061209c57612710838161209257612091613134565b5b0492506004810190505b606483106120bf57606483816120b5576120b4613134565b5b0492506002810190505b600a83106120ce576001810190505b80915050919050565b6000808273ffffffffffffffffffffffffffffffffffffffff163b119050919050565b828054612106906128d5565b90600052602060002090601f016020900481019282612128576000855561216f565b82601f1061214157805160ff191683800117855561216f565b8280016001018555821561216f579182015b8281111561216e578251825591602001919060010190612153565b5b50905061217c9190612180565b5090565b5b80821115612199576000816000905550600101612181565b5090565b6000819050919050565b6121b08161219d565b82525050565b60006020820190506121cb60008301846121a7565b92915050565b600073ffffffffffffffffffffffffffffffffffffffff82169050919050565b60006121fc826121d1565b9050919050565b61220c816121f1565b82525050565b60006020820190506122276000830184612203565b92915050565b6000604051905090565b600080fd5b600080fd5b60007fffffffff0000000000000000000000000000000000000000000000000000000082169050919050565b61227681612241565b811461228157600080fd5b50565b6000813590506122938161226d565b92915050565b6000602082840312156122af576122ae612237565b5b60006122bd84828501612284565b91505092915050565b60008115159050919050565b6122db816122c6565b82525050565b60006020820190506122f660008301846122d2565b92915050565b600081519050919050565b600082825260208201905092915050565b60005b8381101561233657808201518184015260208101905061231b565b83811115612345576000848401525b50505050565b6000601f19601f8301169050919050565b6000612367826122fc565b6123718185612307565b9350612381818560208601612318565b61238a8161234b565b840191505092915050565b600060208201905081810360008301526123af818461235c565b905092915050565b6123c08161219d565b81146123cb57600080fd5b50565b6000813590506123dd816123b7565b92915050565b6000602082840312156123f9576123f8612237565b5b6000612407848285016123ce565b91505092915050565b612419816121f1565b811461242457600080fd5b50565b60008135905061243681612410565b92915050565b6000806040838503121561245357612452612237565b5b600061246185828601612427565b9250506020612472858286016123ce565b9150509250929050565b60008060006060848603121561249557612494612237565b5b60006124a386828701612427565b93505060206124b486828701612427565b92505060406124c5868287016123ce565b9150509250925092565b600080fd5b600080fd5b7f4e487b7100000000000000000000000000000000000000000000000000000000600052604160045260246000fd5b6125118261234b565b810181811067ffffffffffffffff821117156125305761252f6124d9565b5b80604052505050565b600061254361222d565b905061254f8282612508565b919050565b600067ffffffffffffffff82111561256f5761256e6124d9565b5b6125788261234b565b9050602081019050919050565b82818337600083830152505050565b60006125a76125a284612554565b612539565b9050828152602081018484840111156125c3576125c26124d4565b5b6125ce848285612585565b509392505050565b600082601f8301126125eb576125ea6124cf565b5b81356125fb848260208601612594565b91505092915050565b60006020828403121561261a57612619612237565b5b600082013567ffffffffffffffff8111156126385761263761223c565b5b612644848285016125d6565b91505092915050565b60006020828403121561266357612662612237565b5b600061267184828501612427565b91505092915050565b612683816122c6565b811461268e57600080fd5b50565b6000813590506126a08161267a565b92915050565b600080604083850312156126bd576126bc612237565b5b60006126cb85828601612427565b92505060206126dc85828601612691565b9150509250929050565b600067ffffffffffffffff821115612701576127006124d9565b5b61270a8261234b565b9050602081019050919050565b600061272a612725846126e6565b612539565b905082815260208101848484011115612746576127456124d4565b5b612751848285612585565b509392505050565b600082601f83011261276e5761276d6124cf565b5b813561277e848260208601612717565b91505092915050565b600080600080608085870312156127a1576127a0612237565b5b60006127af87828801612427565b94505060206127c087828801612427565b93505060406127d1878288016123ce565b925050606085013567ffffffffffffffff8111156127f2576127f161223c565b5b6127fe87828801612759565b91505092959194509250565b6000806040838503121561282157612820612237565b5b600061282f85828601612427565b925050602083013567ffffffffffffffff8111156128505761284f61223c565b5b61285c858286016125d6565b9150509250929050565b6000806040838503121561287d5761287c612237565b5b600061288b85828601612427565b925050602061289c85828601612427565b9150509250929050565b7f4e487b7100000000000000000000000000000000000000000000000000000000600052602260045260246000fd5b600060028204905060018216806128ed57607f821691505b60208210811415612901576129006128a6565b5b50919050565b7f4552433732313a20617070726f76616c20746f2063757272656e74206f776e6560008201527f7200000000000000000000000000000000000000000000000000000000000000602082015250565b6000612963602183612307565b915061296e82612907565b604082019050919050565b6000602082019050818103600083015261299281612956565b9050919050565b7f4552433732313a20617070726f76652063616c6c6572206973206e6f7420746f60008201527f6b656e206f776e6572206e6f7220617070726f76656420666f7220616c6c0000602082015250565b60006129f5603e83612307565b9150612a0082612999565b604082019050919050565b60006020820190508181036000830152612a24816129e8565b9050919050565b7f5472616e73666572204d6574686f64204e6f7420416c6c6f7765640000000000600082015250565b6000612a61601b83612307565b9150612a6c82612a2b565b602082019050919050565b60006020820190508181036000830152612a9081612a54565b9050919050565b7f4552433732313a2063616c6c6572206973206e6f7420746f6b656e206f776e6560008201527f72206e6f7220617070726f766564000000000000000000000000000000000000602082015250565b6000612af3602e83612307565b9150612afe82612a97565b604082019050919050565b60006020820190508181036000830152612b2281612ae6565b9050919050565b7f4552433732313a20696e76616c696420746f6b656e2049440000000000000000600082015250565b6000612b5f601883612307565b9150612b6a82612b29565b602082019050919050565b60006020820190508181036000830152612b8e81612b52565b9050919050565b7f4552433732313a2061646472657373207a65726f206973206e6f74206120766160008201527f6c6964206f776e65720000000000000000000000000000000000000000000000602082015250565b6000612bf1602983612307565b9150612bfc82612b95565b604082019050919050565b60006020820190508181036000830152612c2081612be4565b9050919050565b600081519050612c368161267a565b92915050565b600060208284031215612c5257612c51612237565b5b6000612c6084828501612c27565b91505092915050565b7f4552433732314d657461646174613a2055524920717565727920666f72206e6f60008201527f6e6578697374656e7420746f6b656e0000000000000000000000000000000000602082015250565b6000612cc5602f83612307565b9150612cd082612c69565b604082019050919050565b60006020820190508181036000830152612cf481612cb8565b9050919050565b600081905092915050565b6000612d11826122fc565b612d1b8185612cfb565b9350612d2b818560208601612318565b80840191505092915050565b6000612d438285612d06565b9150612d4f8284612d06565b91508190509392505050565b7f4f776e61626c653a206e6577206f776e657220697320746865207a65726f206160008201527f6464726573730000000000000000000000000000000000000000000000000000602082015250565b6000612db7602683612307565b9150612dc282612d5b565b604082019050919050565b60006020820190508181036000830152612de681612daa565b9050919050565b7f4552433732313a207472616e736665722066726f6d20696e636f72726563742060008201527f6f776e6572000000000000000000000000000000000000000000000000000000602082015250565b6000612e49602583612307565b9150612e5482612ded565b604082019050919050565b60006020820190508181036000830152612e7881612e3c565b9050919050565b7f4552433732313a207472616e7366657220746f20746865207a65726f2061646460008201527f7265737300000000000000000000000000000000000000000000000000000000602082015250565b6000612edb602483612307565b9150612ee682612e7f565b604082019050919050565b60006020820190508181036000830152612f0a81612ece565b9050919050565b7f4e487b7100000000000000000000000000000000000000000000000000000000600052601160045260246000fd5b6000612f4b8261219d565b9150612f568361219d565b925082821015612f6957612f68612f11565b5b828203905092915050565b6000612f7f8261219d565b9150612f8a8361219d565b9250827fffffffffffffffffffffffffffffffffffffffffffffffffffffffffffffffff03821115612fbf57612fbe612f11565b5b828201905092915050565b7f4f776e61626c653a2063616c6c6572206973206e6f7420746865206f776e6572600082015250565b6000613000602083612307565b915061300b82612fca565b602082019050919050565b6000602082019050818103600083015261302f81612ff3565b9050919050565b7f4552433732313a20617070726f766520746f2063616c6c657200000000000000600082015250565b600061306c601983612307565b915061307782613036565b602082019050919050565b6000602082019050818103600083015261309b8161305f565b9050919050565b7f4552433732313a207472616e7366657220746f206e6f6e20455243373231526560008201527f63656976657220696d706c656d656e7465720000000000000000000000000000602082015250565b60006130fe603283612307565b9150613109826130a2565b604082019050919050565b6000602082019050818103600083015261312d816130f1565b9050919050565b7f4e487b7100000000000000000000000000000000000000000000000000000000600052601260045260246000fd5b7f4552433732313a206d696e7420746f20746865207a65726f2061646472657373600082015250565b6000613199602083612307565b91506131a482613163565b602082019050919050565b600060208201905081810360008301526131c88161318c565b9050919050565b7f4552433732313a20746f6b656e20616c7265616479206d696e74656400000000600082015250565b6000613205601c83612307565b9150613210826131cf565b602082019050919050565b60006020820190508181036000830152613234816131f8565b9050919050565b7f4552433732314d657461646174613a2055524920736574206f66206e6f6e657860008201527f697374656e7420746f6b656e0000000000000000000000000000000000000000602082015250565b6000613297602c83612307565b91506132a28261323b565b604082019050919050565b600060208201905081810360008301526132c68161328a565b9050919050565b600081519050919050565b600082825260208201905092915050565b60006132f4826132cd565b6132fe81856132d8565b935061330e818560208601612318565b6133178161234b565b840191505092915050565b60006080820190506133376000830187612203565b6133446020830186612203565b61335160408301856121a7565b818103606083015261336381846132e9565b905095945050505050565b60008151905061337d8161226d565b92915050565b60006020828403121561339957613398612237565b5b60006133a78482850161336e565b9150509291505056fea26469706673582212201fe5b8ab948e615be348618ba4d2fd91db5cfab3cf4cd3aa2156f12dd77bae8c64736f6c63430008090033a2646970667358221220bc204a44386db0eaa3a37d9754162c09171583dfb47068c61c73225a3d74cf9764736f6c63430008090033",
  "devdoc": {
    "kind": "dev",
    "methods": {},
    "version": 1
  },
  "userdoc": {
    "kind": "user",
    "methods": {},
    "version": 1
  },
  "storageLayout": {
    "storage": [
      {
        "astId": 3148,
        "contract": "contracts/VaultFaucet.sol:VaultFaucet",
        "label": "s",
        "offset": 0,
        "slot": "0",
        "type": "t_struct(AppStorage)9149_storage"
      }
    ],
    "types": {
      "t_address": {
        "encoding": "inplace",
        "label": "address",
        "numberOfBytes": "20"
      },
      "t_array(t_address)dyn_storage": {
        "base": "t_address",
        "encoding": "dynamic_array",
        "label": "address[]",
        "numberOfBytes": "32"
      },
      "t_bool": {
        "encoding": "inplace",
        "label": "bool",
        "numberOfBytes": "1"
      },
      "t_mapping(t_address,t_bool)": {
        "encoding": "mapping",
        "key": "t_address",
        "label": "mapping(address => bool)",
        "numberOfBytes": "32",
        "value": "t_bool"
      },
      "t_mapping(t_address,t_struct(Followers)9189_storage)": {
        "encoding": "mapping",
        "key": "t_address",
        "label": "mapping(address => struct Followers)",
        "numberOfBytes": "32",
        "value": "t_struct(Followers)9189_storage"
      },
      "t_mapping(t_address,t_struct(Following)9196_storage)": {
        "encoding": "mapping",
        "key": "t_address",
        "label": "mapping(address => struct Following)",
        "numberOfBytes": "32",
        "value": "t_struct(Following)9196_storage"
      },
      "t_mapping(t_address,t_struct(nameStruct)9240_storage)": {
        "encoding": "mapping",
        "key": "t_address",
        "label": "mapping(address => struct nameStruct)",
        "numberOfBytes": "32",
        "value": "t_struct(nameStruct)9240_storage"
      },
      "t_mapping(t_address,t_struct(pfpStruct)9251_storage)": {
        "encoding": "mapping",
        "key": "t_address",
        "label": "mapping(address => struct pfpStruct)",
        "numberOfBytes": "32",
        "value": "t_struct(pfpStruct)9251_storage"
      },
      "t_mapping(t_address,t_uint256)": {
        "encoding": "mapping",
        "key": "t_address",
        "label": "mapping(address => uint256)",
        "numberOfBytes": "32",
        "value": "t_uint256"
      },
      "t_mapping(t_string_memory_ptr,t_bool)": {
        "encoding": "mapping",
        "key": "t_string_memory_ptr",
        "label": "mapping(string => bool)",
        "numberOfBytes": "32",
        "value": "t_bool"
      },
      "t_mapping(t_uint256,t_struct(signetinfo)9208_storage)": {
        "encoding": "mapping",
        "key": "t_uint256",
        "label": "mapping(uint256 => struct signetinfo)",
        "numberOfBytes": "32",
        "value": "t_struct(signetinfo)9208_storage"
      },
      "t_string_memory_ptr": {
        "encoding": "bytes",
        "label": "string",
        "numberOfBytes": "32"
      },
      "t_string_storage": {
        "encoding": "bytes",
        "label": "string",
        "numberOfBytes": "32"
      },
      "t_struct(AppStorage)9149_storage": {
        "encoding": "inplace",
        "label": "struct AppStorage",
        "members": [
          {
            "astId": 9115,
            "contract": "contracts/VaultFaucet.sol:VaultFaucet",
            "label": "ps",
            "offset": 0,
            "slot": "0",
            "type": "t_struct(profileStruct)9235_storage"
          },
          {
            "astId": 9118,
            "contract": "contracts/VaultFaucet.sol:VaultFaucet",
            "label": "ns",
            "offset": 0,
            "slot": "2",
            "type": "t_struct(nameStruct)9240_storage"
          },
          {
            "astId": 9121,
            "contract": "contracts/VaultFaucet.sol:VaultFaucet",
            "label": "pfps",
            "offset": 0,
            "slot": "4",
            "type": "t_struct(pfpStruct)9251_storage"
          },
          {
            "astId": 9124,
            "contract": "contracts/VaultFaucet.sol:VaultFaucet",
            "label": "pm",
            "offset": 0,
            "slot": "9",
            "type": "t_struct(profilemap)9266_storage"
          },
          {
            "astId": 9127,
            "contract": "contracts/VaultFaucet.sol:VaultFaucet",
            "label": "flwr",
            "offset": 0,
            "slot": "12",
            "type": "t_struct(Followers)9189_storage"
          },
          {
            "astId": 9130,
            "contract": "contracts/VaultFaucet.sol:VaultFaucet",
            "label": "flwi",
            "offset": 0,
            "slot": "14",
            "type": "t_struct(Following)9196_storage"
          },
          {
            "astId": 9133,
            "contract": "contracts/VaultFaucet.sol:VaultFaucet",
            "label": "signetinfo",
            "offset": 0,
            "slot": "16",
            "type": "t_struct(signetinfo)9208_storage"
          },
          {
            "astId": 9136,
            "contract": "contracts/VaultFaucet.sol:VaultFaucet",
            "label": "fm",
            "offset": 0,
            "slot": "20",
            "type": "t_struct(followMap)9228_storage"
          },
          {
            "astId": 9139,
            "contract": "contracts/VaultFaucet.sol:VaultFaucet",
            "label": "ma",
            "offset": 0,
            "slot": "24",
            "type": "t_struct(mapSignetAddress)9180_storage"
          },
          {
            "astId": 9142,
            "contract": "contracts/VaultFaucet.sol:VaultFaucet",
            "label": "cs",
            "offset": 0,
            "slot": "26",
            "type": "t_struct(controllorStorage)9171_storage"
          },
          {
            "astId": 9144,
            "contract": "contracts/VaultFaucet.sol:VaultFaucet",
            "label": "locked",
            "offset": 0,
            "slot": "34",
            "type": "t_bool"
          },
          {
            "astId": 9146,
            "contract": "contracts/VaultFaucet.sol:VaultFaucet",
            "label": "signetorAddress",
            "offset": 1,
            "slot": "34",
            "type": "t_address"
          },
          {
            "astId": 9148,
            "contract": "contracts/VaultFaucet.sol:VaultFaucet",
            "label": "priceFeedAddress",
            "offset": 0,
            "slot": "35",
            "type": "t_address"
          }
        ],
        "numberOfBytes": "1152"
      },
      "t_struct(Followers)9189_storage": {
        "encoding": "inplace",
        "label": "struct Followers",
        "members": [
          {
            "astId": 9184,
            "contract": "contracts/VaultFaucet.sol:VaultFaucet",
            "label": "followerNum",
            "offset": 0,
            "slot": "0",
            "type": "t_uint256"
          },
          {
            "astId": 9188,
            "contract": "contracts/VaultFaucet.sol:VaultFaucet",
            "label": "whoFollowed",
            "offset": 0,
            "slot": "1",
            "type": "t_mapping(t_address,t_bool)"
          }
        ],
        "numberOfBytes": "64"
      },
      "t_struct(Following)9196_storage": {
        "encoding": "inplace",
        "label": "struct Following",
        "members": [
          {
            "astId": 9191,
            "contract": "contracts/VaultFaucet.sol:VaultFaucet",
            "label": "FollowingNum",
            "offset": 0,
            "slot": "0",
            "type": "t_uint256"
          },
          {
            "astId": 9195,
            "contract": "contracts/VaultFaucet.sol:VaultFaucet",
            "label": "followedWho",
            "offset": 0,
            "slot": "1",
            "type": "t_mapping(t_address,t_bool)"
          }
        ],
        "numberOfBytes": "64"
      },
      "t_struct(controllorStorage)9171_storage": {
        "encoding": "inplace",
        "label": "struct controllorStorage",
        "members": [
          {
            "astId": 9153,
            "contract": "contracts/VaultFaucet.sol:VaultFaucet",
            "label": "totalSignetorsNum",
            "offset": 0,
            "slot": "0",
            "type": "t_uint256"
          },
          {
            "astId": 9155,
            "contract": "contracts/VaultFaucet.sol:VaultFaucet",
            "label": "totalSignetsNum",
            "offset": 0,
            "slot": "1",
            "type": "t_uint256"
          },
          {
            "astId": 9157,
            "contract": "contracts/VaultFaucet.sol:VaultFaucet",
            "label": "appreciateAmount",
            "offset": 0,
            "slot": "2",
            "type": "t_uint256"
          },
          {
            "astId": 9159,
            "contract": "contracts/VaultFaucet.sol:VaultFaucet",
            "label": "commission",
            "offset": 0,
            "slot": "3",
            "type": "t_uint256"
          },
          {
            "astId": 9161,
            "contract": "contracts/VaultFaucet.sol:VaultFaucet",
            "label": "messagePrice",
            "offset": 0,
            "slot": "4",
            "type": "t_uint256"
          },
          {
            "astId": 9163,
            "contract": "contracts/VaultFaucet.sol:VaultFaucet",
            "label": "signetprofileSys",
            "offset": 0,
            "slot": "5",
            "type": "t_address"
          },
          {
            "astId": 9165,
            "contract": "contracts/VaultFaucet.sol:VaultFaucet",
            "label": "signetFollowSys",
            "offset": 0,
            "slot": "6",
            "type": "t_address"
          },
          {
            "astId": 9167,
            "contract": "contracts/VaultFaucet.sol:VaultFaucet",
            "label": "allowTranfer",
            "offset": 20,
            "slot": "6",
            "type": "t_bool"
          },
          {
            "astId": 9170,
            "contract": "contracts/VaultFaucet.sol:VaultFaucet",
            "label": "registerdUserArray",
            "offset": 0,
            "slot": "7",
            "type": "t_array(t_address)dyn_storage"
          }
        ],
        "numberOfBytes": "256"
      },
      "t_struct(followMap)9228_storage": {
        "encoding": "inplace",
        "label": "struct followMap",
        "members": [
          {
            "astId": 9213,
            "contract": "contracts/VaultFaucet.sol:VaultFaucet",
            "label": "follower",
            "offset": 0,
            "slot": "0",
            "type": "t_mapping(t_address,t_struct(Followers)9189_storage)"
          },
          {
            "astId": 9218,
            "contract": "contracts/VaultFaucet.sol:VaultFaucet",
            "label": "following",
            "offset": 0,
            "slot": "1",
            "type": "t_mapping(t_address,t_struct(Following)9196_storage)"
          },
          {
            "astId": 9223,
            "contract": "contracts/VaultFaucet.sol:VaultFaucet",
            "label": "signetState",
            "offset": 0,
            "slot": "2",
            "type": "t_mapping(t_uint256,t_struct(signetinfo)9208_storage)"
          },
          {
            "astId": 9227,
            "contract": "contracts/VaultFaucet.sol:VaultFaucet",
            "label": "Stars",
            "offset": 0,
            "slot": "3",
            "type": "t_mapping(t_address,t_uint256)"
          }
        ],
        "numberOfBytes": "128"
      },
      "t_struct(mapSignetAddress)9180_storage": {
        "encoding": "inplace",
        "label": "struct mapSignetAddress",
        "members": [
          {
            "astId": 9175,
            "contract": "contracts/VaultFaucet.sol:VaultFaucet",
            "label": "register",
            "offset": 0,
            "slot": "0",
            "type": "t_mapping(t_address,t_bool)"
          },
          {
            "astId": 9179,
            "contract": "contracts/VaultFaucet.sol:VaultFaucet",
            "label": "numOfSignetsSent",
            "offset": 0,
            "slot": "1",
            "type": "t_mapping(t_address,t_uint256)"
          }
        ],
        "numberOfBytes": "64"
      },
      "t_struct(nameStruct)9240_storage": {
        "encoding": "inplace",
        "label": "struct nameStruct",
        "members": [
          {
            "astId": 9237,
            "contract": "contracts/VaultFaucet.sol:VaultFaucet",
            "label": "name",
            "offset": 0,
            "slot": "0",
            "type": "t_string_storage"
          },
          {
            "astId": 9239,
            "contract": "contracts/VaultFaucet.sol:VaultFaucet",
            "label": "timeUpdated",
            "offset": 0,
            "slot": "1",
            "type": "t_uint256"
          }
        ],
        "numberOfBytes": "64"
      },
      "t_struct(pfpStruct)9251_storage": {
        "encoding": "inplace",
        "label": "struct pfpStruct",
        "members": [
          {
            "astId": 9242,
            "contract": "contracts/VaultFaucet.sol:VaultFaucet",
            "label": "pfp",
            "offset": 0,
            "slot": "0",
            "type": "t_string_storage"
          },
          {
            "astId": 9244,
            "contract": "contracts/VaultFaucet.sol:VaultFaucet",
            "label": "timeUpdated",
            "offset": 0,
            "slot": "1",
            "type": "t_uint256"
          },
          {
            "astId": 9246,
            "contract": "contracts/VaultFaucet.sol:VaultFaucet",
            "label": "collection",
            "offset": 0,
            "slot": "2",
            "type": "t_address"
          },
          {
            "astId": 9248,
            "contract": "contracts/VaultFaucet.sol:VaultFaucet",
            "label": "tokenId",
            "offset": 0,
            "slot": "3",
            "type": "t_uint256"
          },
          {
            "astId": 9250,
            "contract": "contracts/VaultFaucet.sol:VaultFaucet",
            "label": "typeOf",
            "offset": 0,
            "slot": "4",
            "type": "t_uint256"
          }
        ],
        "numberOfBytes": "160"
      },
      "t_struct(profileStruct)9235_storage": {
        "encoding": "inplace",
        "label": "struct profileStruct",
        "members": [
          {
            "astId": 9232,
            "contract": "contracts/VaultFaucet.sol:VaultFaucet",
            "label": "totalName",
            "offset": 0,
            "slot": "0",
            "type": "t_uint256"
          },
          {
            "astId": 9234,
            "contract": "contracts/VaultFaucet.sol:VaultFaucet",
            "label": "totalpfp",
            "offset": 0,
            "slot": "1",
            "type": "t_uint256"
          }
        ],
        "numberOfBytes": "64"
      },
      "t_struct(profilemap)9266_storage": {
        "encoding": "inplace",
        "label": "struct profilemap",
        "members": [
          {
            "astId": 9256,
            "contract": "contracts/VaultFaucet.sol:VaultFaucet",
            "label": "pfp",
            "offset": 0,
            "slot": "0",
            "type": "t_mapping(t_address,t_struct(pfpStruct)9251_storage)"
          },
          {
            "astId": 9261,
            "contract": "contracts/VaultFaucet.sol:VaultFaucet",
            "label": "name",
            "offset": 0,
            "slot": "1",
            "type": "t_mapping(t_address,t_struct(nameStruct)9240_storage)"
          },
          {
            "astId": 9265,
            "contract": "contracts/VaultFaucet.sol:VaultFaucet",
            "label": "nameused",
            "offset": 0,
            "slot": "2",
            "type": "t_mapping(t_string_memory_ptr,t_bool)"
          }
        ],
        "numberOfBytes": "96"
      },
      "t_struct(signetinfo)9208_storage": {
        "encoding": "inplace",
        "label": "struct signetinfo",
        "members": [
          {
            "astId": 9198,
            "contract": "contracts/VaultFaucet.sol:VaultFaucet",
            "label": "likeNum",
            "offset": 0,
            "slot": "0",
            "type": "t_uint256"
          },
          {
            "astId": 9200,
            "contract": "contracts/VaultFaucet.sol:VaultFaucet",
            "label": "starNum",
            "offset": 0,
            "slot": "1",
            "type": "t_uint256"
          },
          {
            "astId": 9203,
            "contract": "contracts/VaultFaucet.sol:VaultFaucet",
            "label": "starContributors",
            "offset": 0,
            "slot": "2",
            "type": "t_array(t_address)dyn_storage"
          },
          {
            "astId": 9207,
            "contract": "contracts/VaultFaucet.sol:VaultFaucet",
            "label": "likeContributors",
            "offset": 0,
            "slot": "3",
            "type": "t_mapping(t_address,t_bool)"
          }
        ],
        "numberOfBytes": "128"
      },
      "t_uint256": {
        "encoding": "inplace",
        "label": "uint256",
        "numberOfBytes": "32"
      }
    }
  }
}