{
    "address": "0xF6834ba002Db1E0E1f943D43f2920623815b4e7C",
    "abi": [
        {
            "inputs": [],
            "stateMutability": "nonpayable",
            "type": "constructor"
        },
        {
            "anonymous": false,
            "inputs": [
                {
                    "indexed": true,
                    "internalType": "address",
                    "name": "creatoraddress",
                    "type": "address"
                },
                {
                    "indexed": true,
                    "internalType": "address",
                    "name": "collectionaddress",
                    "type": "address"
                },
                {
                    "indexed": true,
                    "internalType": "uint256",
                    "name": "typeofcollection",
                    "type": "uint256"
                }
            ],
            "name": "CollectionCreated",
            "type": "event"
        },
        {
            "anonymous": false,
            "inputs": [
                {
                    "indexed": true,
                    "internalType": "address",
                    "name": "previousOwner",
                    "type": "address"
                },
                {
                    "indexed": true,
                    "internalType": "address",
                    "name": "newOwner",
                    "type": "address"
                }
            ],
            "name": "OwnershipTransferred",
            "type": "event"
        },
        {
            "inputs": [],
            "name": "CRCrator",
            "outputs": [
                {
                    "internalType": "contract FinesseCratorCR",
                    "name": "",
                    "type": "address"
                }
            ],
            "stateMutability": "view",
            "type": "function"
        },
        {
            "inputs": [],
            "name": "NCRCrator",
            "outputs": [
                {
                    "internalType": "contract FinesseCratorNCR",
                    "name": "",
                    "type": "address"
                }
            ],
            "stateMutability": "view",
            "type": "function"
        },
        {
            "inputs": [],
            "name": "TotalCRContract",
            "outputs": [
                {
                    "internalType": "uint256",
                    "name": "",
                    "type": "uint256"
                }
            ],
            "stateMutability": "view",
            "type": "function"
        },
        {
            "inputs": [],
            "name": "TotalContractNum",
            "outputs": [
                {
                    "internalType": "uint256",
                    "name": "",
                    "type": "uint256"
                }
            ],
            "stateMutability": "view",
            "type": "function"
        },
        {
            "inputs": [],
            "name": "TotalNCRContract",
            "outputs": [
                {
                    "internalType": "uint256",
                    "name": "",
                    "type": "uint256"
                }
            ],
            "stateMutability": "view",
            "type": "function"
        },
        {
            "inputs": [
                {
                    "internalType": "address",
                    "name": "",
                    "type": "address"
                }
            ],
            "name": "collectionContractList",
            "outputs": [
                {
                    "internalType": "address",
                    "name": "owner",
                    "type": "address"
                },
                {
                    "internalType": "uint8",
                    "name": "typeofcollection",
                    "type": "uint8"
                }
            ],
            "stateMutability": "view",
            "type": "function"
        },
        {
            "inputs": [
                {
                    "internalType": "string",
                    "name": "_name",
                    "type": "string"
                },
                {
                    "internalType": "string",
                    "name": "_symbol",
                    "type": "string"
                }
            ],
            "name": "controllorCreateCopyRightCollection",
            "outputs": [],
            "stateMutability": "nonpayable",
            "type": "function"
        },
        {
            "inputs": [
                {
                    "internalType": "string",
                    "name": "_name",
                    "type": "string"
                }
            ],
            "name": "controllorCreateNonCopyRightCollection",
            "outputs": [],
            "stateMutability": "nonpayable",
            "type": "function"
        },
        {
            "inputs": [
                {
                    "internalType": "uint256",
                    "name": "noOfContract",
                    "type": "uint256"
                },
                {
                    "internalType": "address",
                    "name": "contractOwner",
                    "type": "address"
                }
            ],
            "name": "getOwnerContractForCopyRight",
            "outputs": [
                {
                    "internalType": "address",
                    "name": "",
                    "type": "address"
                },
                {
                    "internalType": "uint256",
                    "name": "",
                    "type": "uint256"
                }
            ],
            "stateMutability": "view",
            "type": "function"
        },
        {
            "inputs": [
                {
                    "internalType": "uint256",
                    "name": "noOfContract",
                    "type": "uint256"
                },
                {
                    "internalType": "address",
                    "name": "contractOwner",
                    "type": "address"
                }
            ],
            "name": "getOwnerContractForNonCopyRight",
            "outputs": [
                {
                    "internalType": "address",
                    "name": "",
                    "type": "address"
                },
                {
                    "internalType": "uint256",
                    "name": "",
                    "type": "uint256"
                }
            ],
            "stateMutability": "view",
            "type": "function"
        },
        {
            "inputs": [
                {
                    "internalType": "address",
                    "name": "contractOwner",
                    "type": "address"
                }
            ],
            "name": "getOwnerNumContractOfCopyRight",
            "outputs": [
                {
                    "internalType": "uint256",
                    "name": "",
                    "type": "uint256"
                }
            ],
            "stateMutability": "view",
            "type": "function"
        },
        {
            "inputs": [
                {
                    "internalType": "address",
                    "name": "contractOwner",
                    "type": "address"
                }
            ],
            "name": "getOwnerNumContractOfNonCopyRight",
            "outputs": [
                {
                    "internalType": "uint256",
                    "name": "",
                    "type": "uint256"
                }
            ],
            "stateMutability": "view",
            "type": "function"
        },
        {
            "inputs": [],
            "name": "owner",
            "outputs": [
                {
                    "internalType": "address",
                    "name": "",
                    "type": "address"
                }
            ],
            "stateMutability": "view",
            "type": "function"
        },
        {
            "inputs": [],
            "name": "renounceOwnership",
            "outputs": [],
            "stateMutability": "nonpayable",
            "type": "function"
        },
        {
            "inputs": [
                {
                    "internalType": "address",
                    "name": "newOwner",
                    "type": "address"
                }
            ],
            "name": "transferOwnership",
            "outputs": [],
            "stateMutability": "nonpayable",
            "type": "function"
        }
    ],
    "transactionHash": "0x4340bae532240ee078fcd97f421f3162572e5c14474abe9e2d764c7b0f5f8b0d",
    "args": [],
    "numDeployments": 1,
    "solcInputHash": "f308a4d391039d057aed99c048b52131",
    "bytecode": "0x60806040523480156200001157600080fd5b5060016000819055506200003a6200002e620002c060201b60201c565b620002c860201b60201c565b60405162000048906200038e565b604051809103906000f08015801562000065573d6000803e3d6000fd5b50600260006101000a81548173ffffffffffffffffffffffffffffffffffffffff021916908373ffffffffffffffffffffffffffffffffffffffff160217905550604051620000b4906200039c565b604051809103906000f080158015620000d1573d6000803e3d6000fd5b50600360006101000a81548173ffffffffffffffffffffffffffffffffffffffff021916908373ffffffffffffffffffffffffffffffffffffffff160217905550600260009054906101000a900473ffffffffffffffffffffffffffffffffffffffff1673ffffffffffffffffffffffffffffffffffffffff166366d11c1a6040518163ffffffff1660e01b8152600401602060405180830381865afa15801562000180573d6000803e3d6000fd5b505050506040513d601f19601f82011682018060405250810190620001a6919062000414565b600460006101000a81548173ffffffffffffffffffffffffffffffffffffffff021916908373ffffffffffffffffffffffffffffffffffffffff160217905550600360009054906101000a900473ffffffffffffffffffffffffffffffffffffffff1673ffffffffffffffffffffffffffffffffffffffff166366d11c1a6040518163ffffffff1660e01b8152600401602060405180830381865afa15801562000254573d6000803e3d6000fd5b505050506040513d601f19601f820116820180604052508101906200027a919062000414565b600560006101000a81548173ffffffffffffffffffffffffffffffffffffffff021916908373ffffffffffffffffffffffffffffffffffffffff16021790555062000446565b600033905090565b6000600160009054906101000a900473ffffffffffffffffffffffffffffffffffffffff16905081600160006101000a81548173ffffffffffffffffffffffffffffffffffffffff021916908373ffffffffffffffffffffffffffffffffffffffff1602179055508173ffffffffffffffffffffffffffffffffffffffff168173ffffffffffffffffffffffffffffffffffffffff167f8be0079c531659141344cd1fd0a4f28419497f9722a3daafe3b4186f6b6457e060405160405180910390a35050565b6142c0806200191583390190565b614ae78062005bd583390190565b600080fd5b600073ffffffffffffffffffffffffffffffffffffffff82169050919050565b6000620003dc82620003af565b9050919050565b620003ee81620003cf565b8114620003fa57600080fd5b50565b6000815190506200040e81620003e3565b92915050565b6000602082840312156200042d576200042c620003aa565b5b60006200043d84828501620003fd565b91505092915050565b6114bf80620004566000396000f3fe608060405234801561001057600080fd5b50600436106100f55760003560e01c80639f71d03c11610097578063debd952211610066578063debd952214610278578063e2d059d9146102a9578063f2939130146102c7578063f2fde38b146102e3576100f5565b80639f71d03c146101ca578063b5d189ef146101fb578063c88d62681461022c578063d7f2fe431461025c576100f5565b8063715018a6116100d3578063715018a6146101545780638da5cb5b1461015e5780638fd0bc8d1461017c5780639a1fcc611461019a576100f5565b806304f2201a146100fa5780634e281d97146101185780635636ffee14610136575b600080fd5b6101026102ff565b60405161010f9190610cc9565b60405180910390f35b610120610305565b60405161012d9190610d63565b60405180910390f35b61013e61032b565b60405161014b9190610cc9565b60405180910390f35b61015c610331565b005b610166610345565b6040516101739190610d9f565b60405180910390f35b61018461036f565b6040516101919190610cc9565b60405180910390f35b6101b460048036038101906101af9190610dfa565b610375565b6040516101c19190610cc9565b60405180910390f35b6101e460048036038101906101df9190610dfa565b61041f565b6040516101f2929190610e43565b60405180910390f35b61021560048036038101906102109190610e98565b610470565b604051610223929190610ed8565b60405180910390f35b61024660048036038101906102419190610dfa565b610528565b6040516102539190610cc9565b60405180910390f35b61027660048036038101906102719190611047565b6105d2565b005b610292600480360381019061028d9190610e98565b6107ec565b6040516102a0929190610ed8565b60405180910390f35b6102b16108a4565b6040516102be91906110e0565b60405180910390f35b6102e160048036038101906102dc91906110fb565b6108ca565b005b6102fd60048036038101906102f89190610dfa565b610ae1565b005b60065481565b600560009054906101000a900473ffffffffffffffffffffffffffffffffffffffff1681565b60085481565b610339610b64565b6103436000610be2565b565b6000600160009054906101000a900473ffffffffffffffffffffffffffffffffffffffff16905090565b60075481565b600080600460009054906101000a900473ffffffffffffffffffffffffffffffffffffffff1673ffffffffffffffffffffffffffffffffffffffff16635c284dc0846040518263ffffffff1660e01b81526004016103d39190610d9f565b602060405180830381865afa1580156103f0573d6000803e3d6000fd5b505050506040513d601f19601f820116820180604052508101906104149190611159565b905080915050919050565b60096020528060005260406000206000915090508060000160009054906101000a900473ffffffffffffffffffffffffffffffffffffffff16908060000160149054906101000a900460ff16905082565b600080600080600460009054906101000a900473ffffffffffffffffffffffffffffffffffffffff1673ffffffffffffffffffffffffffffffffffffffff16636f7fd7ab87876040518363ffffffff1660e01b81526004016104d3929190611186565b606060405180830381865afa1580156104f0573d6000803e3d6000fd5b505050506040513d601f19601f8201168201806040525081019061051491906111c4565b925092505081819350935050509250929050565b600080600560009054906101000a900473ffffffffffffffffffffffffffffffffffffffff1673ffffffffffffffffffffffffffffffffffffffff16635c284dc0846040518263ffffffff1660e01b81526004016105869190610d9f565b602060405180830381865afa1580156105a3573d6000803e3d6000fd5b505050506040513d601f19601f820116820180604052508101906105c79190611159565b905080915050919050565b600080600460009054906101000a900473ffffffffffffffffffffffffffffffffffffffff1673ffffffffffffffffffffffffffffffffffffffff16630bfecf778585336040518463ffffffff1660e01b81526004016106349392919061129f565b6060604051808303816000875af1158015610653573d6000803e3d6000fd5b505050506040513d601f19601f8201168201806040525081019061067791906111c4565b92509250506006600081548092919061068f90611313565b9190505550600860008154809291906106a790611313565b9190505550600060405180604001604052803373ffffffffffffffffffffffffffffffffffffffff168152602001600160ff16815250905080600960008573ffffffffffffffffffffffffffffffffffffffff1673ffffffffffffffffffffffffffffffffffffffff16815260200190815260200160002060008201518160000160006101000a81548173ffffffffffffffffffffffffffffffffffffffff021916908373ffffffffffffffffffffffffffffffffffffffff16021790555060208201518160000160146101000a81548160ff021916908360ff160217905550905050818373ffffffffffffffffffffffffffffffffffffffff163373ffffffffffffffffffffffffffffffffffffffff167f93a608c8bfcad69f5ee4571770f2e1a9aa36634ac23d49afc1c5085b7bfc2a0d60405160405180910390a45050505050565b600080600080600560009054906101000a900473ffffffffffffffffffffffffffffffffffffffff1673ffffffffffffffffffffffffffffffffffffffff16636f7fd7ab87876040518363ffffffff1660e01b815260040161084f929190611186565b606060405180830381865afa15801561086c573d6000803e3d6000fd5b505050506040513d601f19601f8201168201806040525081019061089091906111c4565b925092505081819350935050509250929050565b600460009054906101000a900473ffffffffffffffffffffffffffffffffffffffff1681565b600080600560009054906101000a900473ffffffffffffffffffffffffffffffffffffffff1673ffffffffffffffffffffffffffffffffffffffff16637487d4d184336040518363ffffffff1660e01b815260040161092a92919061135b565b6060604051808303816000875af1158015610949573d6000803e3d6000fd5b505050506040513d601f19601f8201168201806040525081019061096d91906111c4565b92509250506006600081548092919061098590611313565b91905055506007600081548092919061099d90611313565b9190505550600060405180604001604052803373ffffffffffffffffffffffffffffffffffffffff168152602001600060ff16815250905080600960008573ffffffffffffffffffffffffffffffffffffffff1673ffffffffffffffffffffffffffffffffffffffff16815260200190815260200160002060008201518160000160006101000a81548173ffffffffffffffffffffffffffffffffffffffff021916908373ffffffffffffffffffffffffffffffffffffffff16021790555060208201518160000160146101000a81548160ff021916908360ff160217905550905050818373ffffffffffffffffffffffffffffffffffffffff163373ffffffffffffffffffffffffffffffffffffffff167f93a608c8bfcad69f5ee4571770f2e1a9aa36634ac23d49afc1c5085b7bfc2a0d60405160405180910390a450505050565b610ae9610b64565b600073ffffffffffffffffffffffffffffffffffffffff168173ffffffffffffffffffffffffffffffffffffffff1603610b58576040517f08c379a0000000000000000000000000000000000000000000000000000000008152600401610b4f906113fd565b60405180910390fd5b610b6181610be2565b50565b610b6c610ca8565b73ffffffffffffffffffffffffffffffffffffffff16610b8a610345565b73ffffffffffffffffffffffffffffffffffffffff1614610be0576040517f08c379a0000000000000000000000000000000000000000000000000000000008152600401610bd790611469565b60405180910390fd5b565b6000600160009054906101000a900473ffffffffffffffffffffffffffffffffffffffff16905081600160006101000a81548173ffffffffffffffffffffffffffffffffffffffff021916908373ffffffffffffffffffffffffffffffffffffffff1602179055508173ffffffffffffffffffffffffffffffffffffffff168173ffffffffffffffffffffffffffffffffffffffff167f8be0079c531659141344cd1fd0a4f28419497f9722a3daafe3b4186f6b6457e060405160405180910390a35050565b600033905090565b6000819050919050565b610cc381610cb0565b82525050565b6000602082019050610cde6000830184610cba565b92915050565b600073ffffffffffffffffffffffffffffffffffffffff82169050919050565b6000819050919050565b6000610d29610d24610d1f84610ce4565b610d04565b610ce4565b9050919050565b6000610d3b82610d0e565b9050919050565b6000610d4d82610d30565b9050919050565b610d5d81610d42565b82525050565b6000602082019050610d786000830184610d54565b92915050565b6000610d8982610ce4565b9050919050565b610d9981610d7e565b82525050565b6000602082019050610db46000830184610d90565b92915050565b6000604051905090565b600080fd5b600080fd5b610dd781610d7e565b8114610de257600080fd5b50565b600081359050610df481610dce565b92915050565b600060208284031215610e1057610e0f610dc4565b5b6000610e1e84828501610de5565b91505092915050565b600060ff82169050919050565b610e3d81610e27565b82525050565b6000604082019050610e586000830185610d90565b610e656020830184610e34565b9392505050565b610e7581610cb0565b8114610e8057600080fd5b50565b600081359050610e9281610e6c565b92915050565b60008060408385031215610eaf57610eae610dc4565b5b6000610ebd85828601610e83565b9250506020610ece85828601610de5565b9150509250929050565b6000604082019050610eed6000830185610d90565b610efa6020830184610cba565b9392505050565b600080fd5b600080fd5b6000601f19601f8301169050919050565b7f4e487b7100000000000000000000000000000000000000000000000000000000600052604160045260246000fd5b610f5482610f0b565b810181811067ffffffffffffffff82111715610f7357610f72610f1c565b5b80604052505050565b6000610f86610dba565b9050610f928282610f4b565b919050565b600067ffffffffffffffff821115610fb257610fb1610f1c565b5b610fbb82610f0b565b9050602081019050919050565b82818337600083830152505050565b6000610fea610fe584610f97565b610f7c565b90508281526020810184848401111561100657611005610f06565b5b611011848285610fc8565b509392505050565b600082601f83011261102e5761102d610f01565b5b813561103e848260208601610fd7565b91505092915050565b6000806040838503121561105e5761105d610dc4565b5b600083013567ffffffffffffffff81111561107c5761107b610dc9565b5b61108885828601611019565b925050602083013567ffffffffffffffff8111156110a9576110a8610dc9565b5b6110b585828601611019565b9150509250929050565b60006110ca82610d30565b9050919050565b6110da816110bf565b82525050565b60006020820190506110f560008301846110d1565b92915050565b60006020828403121561111157611110610dc4565b5b600082013567ffffffffffffffff81111561112f5761112e610dc9565b5b61113b84828501611019565b91505092915050565b60008151905061115381610e6c565b92915050565b60006020828403121561116f5761116e610dc4565b5b600061117d84828501611144565b91505092915050565b600060408201905061119b6000830185610cba565b6111a86020830184610d90565b9392505050565b6000815190506111be81610dce565b92915050565b6000806000606084860312156111dd576111dc610dc4565b5b60006111eb868287016111af565b93505060206111fc868287016111af565b925050604061120d86828701611144565b9150509250925092565b600081519050919050565b600082825260208201905092915050565b60005b83811015611251578082015181840152602081019050611236565b83811115611260576000848401525b50505050565b600061127182611217565b61127b8185611222565b935061128b818560208601611233565b61129481610f0b565b840191505092915050565b600060608201905081810360008301526112b98186611266565b905081810360208301526112cd8185611266565b90506112dc6040830184610d90565b949350505050565b7f4e487b7100000000000000000000000000000000000000000000000000000000600052601160045260246000fd5b600061131e82610cb0565b91507fffffffffffffffffffffffffffffffffffffffffffffffffffffffffffffffff82036113505761134f6112e4565b5b600182019050919050565b600060408201905081810360008301526113758185611266565b90506113846020830184610d90565b9392505050565b7f4f776e61626c653a206e6577206f776e657220697320746865207a65726f206160008201527f6464726573730000000000000000000000000000000000000000000000000000602082015250565b60006113e7602683611222565b91506113f28261138b565b604082019050919050565b60006020820190508181036000830152611416816113da565b9050919050565b7f4f776e61626c653a2063616c6c6572206973206e6f7420746865206f776e6572600082015250565b6000611453602083611222565b915061145e8261141d565b602082019050919050565b6000602082019050818103600083015261148281611446565b905091905056fea26469706673582212203baa666b1824bca9aa9cc505af99f545829cda18c5ad4328cbb8259df9d1809464736f6c634300080e0033608060405234801561001057600080fd5b5033600160006101000a81548173ffffffffffffffffffffffffffffffffffffffff021916908373ffffffffffffffffffffffffffffffffffffffff16021790555061006061006560201b60201c565b6100a8565b30600260006101000a81548173ffffffffffffffffffffffffffffffffffffffff021916908373ffffffffffffffffffffffffffffffffffffffff160217905550565b614209806100b76000396000f3fe60806040523480156200001157600080fd5b50600436106200005e5760003560e01c80630bfecf7714620000635780632cc0a402146200009b5780635c284dc014620000bd57806366d11c1a14620000f35780636f7fd7ab1462000115575b600080fd5b6200008160048036038101906200007b919062000886565b6200014d565b60405162000092939291906200094c565b60405180910390f35b620000a562000485565b604051620000b4919062000989565b60405180910390f35b620000db6004803603810190620000d59190620009a6565b620004ab565b604051620000ea9190620009d8565b60405180910390f35b620000fd620004c9565b6040516200010c919062000989565b60405180910390f35b6200013360048036038101906200012d919062000a26565b620004ef565b60405162000144939291906200094c565b60405180910390f35b600080600033600160006101000a81548173ffffffffffffffffffffffffffffffffffffffff021916908373ffffffffffffffffffffffffffffffffffffffff160217905550600080878787604051620001a7906200069d565b620001b59392919062000b00565b604051809103906000f080158015620001d2573d6000803e3d6000fd5b506000806101000a81548173ffffffffffffffffffffffffffffffffffffffff021916908373ffffffffffffffffffffffffffffffffffffffff16021790555060008054906101000a900473ffffffffffffffffffffffffffffffffffffffff1673ffffffffffffffffffffffffffffffffffffffff166324d974bc6040518163ffffffff1660e01b8152600401602060405180830381865afa1580156200027e573d6000803e3d6000fd5b505050506040513d601f19601f82011682018060405250810190620002a4919062000b62565b9150859050600360008773ffffffffffffffffffffffffffffffffffffffff1673ffffffffffffffffffffffffffffffffffffffff1681526020019081526020016000206000016000815480929190620002fe9062000bc3565b9190505550600060405180606001604052808873ffffffffffffffffffffffffffffffffffffffff1681526020018473ffffffffffffffffffffffffffffffffffffffff168152602001600160ff168152509050600360008873ffffffffffffffffffffffffffffffffffffffff1673ffffffffffffffffffffffffffffffffffffffff16815260200190815260200160002060010181908060018154018082558091505060019003906000526020600020906002020160009091909190915060008201518160000160006101000a81548173ffffffffffffffffffffffffffffffffffffffff021916908373ffffffffffffffffffffffffffffffffffffffff16021790555060208201518160010160006101000a81548173ffffffffffffffffffffffffffffffffffffffff021916908373ffffffffffffffffffffffffffffffffffffffff16021790555060408201518160010160146101000a81548160ff021916908360ff16021790555050508183600195509550955050505093509350939050565b600160009054906101000a900473ffffffffffffffffffffffffffffffffffffffff1681565b60036020528060005260406000206000915090508060000154905081565b600260009054906101000a900473ffffffffffffffffffffffffffffffffffffffff1681565b600080600080600360008673ffffffffffffffffffffffffffffffffffffffff1673ffffffffffffffffffffffffffffffffffffffff16815260200190815260200160002060010186815481106200054c576200054b62000c10565b5b906000526020600020906002020160000160009054906101000a900473ffffffffffffffffffffffffffffffffffffffff1690506000600360008773ffffffffffffffffffffffffffffffffffffffff1673ffffffffffffffffffffffffffffffffffffffff1681526020019081526020016000206001018781548110620005d957620005d862000c10565b5b906000526020600020906002020160010160009054906101000a900473ffffffffffffffffffffffffffffffffffffffff1690506000600360008873ffffffffffffffffffffffffffffffffffffffff1673ffffffffffffffffffffffffffffffffffffffff168152602001908152602001600020600101888154811062000666576200066562000c10565b5b906000526020600020906002020160010160149054906101000a900460ff1660ff1690508282829550955095505050509250925092565b6135948062000c4083390190565b6000604051905090565b600080fd5b600080fd5b600080fd5b600080fd5b6000601f19601f8301169050919050565b7f4e487b7100000000000000000000000000000000000000000000000000000000600052604160045260246000fd5b6200071482620006c9565b810181811067ffffffffffffffff82111715620007365762000735620006da565b5b80604052505050565b60006200074b620006ab565b905062000759828262000709565b919050565b600067ffffffffffffffff8211156200077c576200077b620006da565b5b6200078782620006c9565b9050602081019050919050565b82818337600083830152505050565b6000620007ba620007b4846200075e565b6200073f565b905082815260208101848484011115620007d957620007d8620006c4565b5b620007e684828562000794565b509392505050565b600082601f830112620008065762000805620006bf565b5b813562000818848260208601620007a3565b91505092915050565b600073ffffffffffffffffffffffffffffffffffffffff82169050919050565b60006200084e8262000821565b9050919050565b620008608162000841565b81146200086c57600080fd5b50565b600081359050620008808162000855565b92915050565b600080600060608486031215620008a257620008a1620006b5565b5b600084013567ffffffffffffffff811115620008c357620008c2620006ba565b5b620008d186828701620007ee565b935050602084013567ffffffffffffffff811115620008f557620008f4620006ba565b5b6200090386828701620007ee565b925050604062000916868287016200086f565b9150509250925092565b6200092b8162000841565b82525050565b6000819050919050565b620009468162000931565b82525050565b600060608201905062000963600083018662000920565b62000972602083018562000920565b6200098160408301846200093b565b949350505050565b6000602082019050620009a0600083018462000920565b92915050565b600060208284031215620009bf57620009be620006b5565b5b6000620009cf848285016200086f565b91505092915050565b6000602082019050620009ef60008301846200093b565b92915050565b62000a008162000931565b811462000a0c57600080fd5b50565b60008135905062000a2081620009f5565b92915050565b6000806040838503121562000a405762000a3f620006b5565b5b600062000a508582860162000a0f565b925050602062000a63858286016200086f565b9150509250929050565b600081519050919050565b600082825260208201905092915050565b60005b8381101562000aa957808201518184015260208101905062000a8c565b8381111562000ab9576000848401525b50505050565b600062000acc8262000a6d565b62000ad8818562000a78565b935062000aea81856020860162000a89565b62000af581620006c9565b840191505092915050565b6000606082019050818103600083015262000b1c818662000abf565b9050818103602083015262000b32818562000abf565b905062000b43604083018462000920565b949350505050565b60008151905062000b5c8162000855565b92915050565b60006020828403121562000b7b5762000b7a620006b5565b5b600062000b8b8482850162000b4b565b91505092915050565b7f4e487b7100000000000000000000000000000000000000000000000000000000600052601160045260246000fd5b600062000bd08262000931565b91507fffffffffffffffffffffffffffffffffffffffffffffffffffffffffffffffff820362000c055762000c0462000b94565b5b600182019050919050565b7f4e487b7100000000000000000000000000000000000000000000000000000000600052603260045260246000fdfe60806040523480156200001157600080fd5b5060405162003594380380620035948339818101604052810190620000379190620005cb565b828281600090805190602001906200005192919062000319565b5080600190805190602001906200006a92919062000319565b5050506200008d62000081620000b760201b60201c565b620000bf60201b60201c565b6200009d6200018560201b60201c565b620000ae81620001c860201b60201c565b505050620007e4565b600033905090565b6000600660009054906101000a900473ffffffffffffffffffffffffffffffffffffffff16905081600660006101000a81548173ffffffffffffffffffffffffffffffffffffffff021916908373ffffffffffffffffffffffffffffffffffffffff1602179055508173ffffffffffffffffffffffffffffffffffffffff168173ffffffffffffffffffffffffffffffffffffffff167f8be0079c531659141344cd1fd0a4f28419497f9722a3daafe3b4186f6b6457e060405160405180910390a35050565b30600760006101000a81548173ffffffffffffffffffffffffffffffffffffffff021916908373ffffffffffffffffffffffffffffffffffffffff160217905550565b620001d86200025e60201b60201c565b600073ffffffffffffffffffffffffffffffffffffffff168173ffffffffffffffffffffffffffffffffffffffff16036200024a576040517f08c379a00000000000000000000000000000000000000000000000000000000081526004016200024190620006ec565b60405180910390fd5b6200025b81620000bf60201b60201c565b50565b6200026e620000b760201b60201c565b73ffffffffffffffffffffffffffffffffffffffff1662000294620002ef60201b60201c565b73ffffffffffffffffffffffffffffffffffffffff1614620002ed576040517f08c379a0000000000000000000000000000000000000000000000000000000008152600401620002e4906200075e565b60405180910390fd5b565b6000600660009054906101000a900473ffffffffffffffffffffffffffffffffffffffff16905090565b8280546200032790620007af565b90600052602060002090601f0160209004810192826200034b576000855562000397565b82601f106200036657805160ff191683800117855562000397565b8280016001018555821562000397579182015b828111156200039657825182559160200191906001019062000379565b5b509050620003a69190620003aa565b5090565b5b80821115620003c5576000816000905550600101620003ab565b5090565b6000604051905090565b600080fd5b600080fd5b600080fd5b600080fd5b6000601f19601f8301169050919050565b7f4e487b7100000000000000000000000000000000000000000000000000000000600052604160045260246000fd5b6200043282620003e7565b810181811067ffffffffffffffff82111715620004545762000453620003f8565b5b80604052505050565b600062000469620003c9565b905062000477828262000427565b919050565b600067ffffffffffffffff8211156200049a5762000499620003f8565b5b620004a582620003e7565b9050602081019050919050565b60005b83811015620004d2578082015181840152602081019050620004b5565b83811115620004e2576000848401525b50505050565b6000620004ff620004f9846200047c565b6200045d565b9050828152602081018484840111156200051e576200051d620003e2565b5b6200052b848285620004b2565b509392505050565b600082601f8301126200054b576200054a620003dd565b5b81516200055d848260208601620004e8565b91505092915050565b600073ffffffffffffffffffffffffffffffffffffffff82169050919050565b6000620005938262000566565b9050919050565b620005a58162000586565b8114620005b157600080fd5b50565b600081519050620005c5816200059a565b92915050565b600080600060608486031215620005e757620005e6620003d3565b5b600084015167ffffffffffffffff811115620006085762000607620003d8565b5b620006168682870162000533565b935050602084015167ffffffffffffffff8111156200063a5762000639620003d8565b5b620006488682870162000533565b92505060406200065b86828701620005b4565b9150509250925092565b600082825260208201905092915050565b7f4f776e61626c653a206e6577206f776e657220697320746865207a65726f206160008201527f6464726573730000000000000000000000000000000000000000000000000000602082015250565b6000620006d460268362000665565b9150620006e18262000676565b604082019050919050565b600060208201905081810360008301526200070781620006c5565b9050919050565b7f4f776e61626c653a2063616c6c6572206973206e6f7420746865206f776e6572600082015250565b60006200074660208362000665565b915062000753826200070e565b602082019050919050565b60006020820190508181036000830152620007798162000737565b9050919050565b7f4e487b7100000000000000000000000000000000000000000000000000000000600052602260045260246000fd5b60006002820490506001821680620007c857607f821691505b602082108103620007de57620007dd62000780565b5b50919050565b612da080620007f46000396000f3fe608060405234801561001057600080fd5b50600436106101215760003560e01c806370a08231116100ad578063b88d4fde11610071578063b88d4fde146102f4578063c87b56dd14610310578063d3fc986414610340578063e985e9c51461035c578063f2fde38b1461038c57610121565b806370a0823114610262578063715018a6146102925780638da5cb5b1461029c57806395d89b41146102ba578063a22cb465146102d857610121565b806323b872dd116100f457806323b872dd146101c057806324d974bc146101dc57806342842e0e146101fa57806355f804b3146102165780636352211e1461023257610121565b806301ffc9a71461012657806306fdde0314610156578063081812fc14610174578063095ea7b3146101a4575b600080fd5b610140600480360381019061013b9190611b86565b6103a8565b60405161014d9190611bce565b60405180910390f35b61015e61048a565b60405161016b9190611c82565b60405180910390f35b61018e60048036038101906101899190611cda565b61051c565b60405161019b9190611d48565b60405180910390f35b6101be60048036038101906101b99190611d8f565b610562565b005b6101da60048036038101906101d59190611dcf565b610679565b005b6101e46106d9565b6040516101f19190611d48565b60405180910390f35b610214600480360381019061020f9190611dcf565b6106ff565b005b610230600480360381019061022b9190611f57565b61071f565b005b61024c60048036038101906102479190611cda565b610741565b6040516102599190611d48565b60405180910390f35b61027c60048036038101906102779190611fa0565b6107f2565b6040516102899190611fdc565b60405180910390f35b61029a6108a9565b005b6102a46108bd565b6040516102b19190611d48565b60405180910390f35b6102c26108e7565b6040516102cf9190611c82565b60405180910390f35b6102f260048036038101906102ed9190612023565b610979565b005b61030e60048036038101906103099190612104565b61098f565b005b61032a60048036038101906103259190611cda565b6109f1565b6040516103379190611c82565b60405180910390f35b61035a60048036038101906103559190612187565b610b63565b005b610376600480360381019061037191906121f6565b610b84565b6040516103839190611bce565b60405180910390f35b6103a660048036038101906103a19190611fa0565b610c18565b005b60007f80ac58cd000000000000000000000000000000000000000000000000000000007bffffffffffffffffffffffffffffffffffffffffffffffffffffffff1916827bffffffffffffffffffffffffffffffffffffffffffffffffffffffff1916148061047357507f5b5e139f000000000000000000000000000000000000000000000000000000007bffffffffffffffffffffffffffffffffffffffffffffffffffffffff1916827bffffffffffffffffffffffffffffffffffffffffffffffffffffffff1916145b80610483575061048282610c9b565b5b9050919050565b60606000805461049990612265565b80601f01602080910402602001604051908101604052809291908181526020018280546104c590612265565b80156105125780601f106104e757610100808354040283529160200191610512565b820191906000526020600020905b8154815290600101906020018083116104f557829003601f168201915b5050505050905090565b600061052782610d05565b6004600083815260200190815260200160002060009054906101000a900473ffffffffffffffffffffffffffffffffffffffff169050919050565b600061056d82610741565b90508073ffffffffffffffffffffffffffffffffffffffff168373ffffffffffffffffffffffffffffffffffffffff16036105dd576040517f08c379a00000000000000000000000000000000000000000000000000000000081526004016105d490612308565b60405180910390fd5b8073ffffffffffffffffffffffffffffffffffffffff166105fc610d50565b73ffffffffffffffffffffffffffffffffffffffff16148061062b575061062a81610625610d50565b610b84565b5b61066a576040517f08c379a00000000000000000000000000000000000000000000000000000000081526004016106619061239a565b60405180910390fd5b6106748383610d58565b505050565b61068a610684610d50565b82610e11565b6106c9576040517f08c379a00000000000000000000000000000000000000000000000000000000081526004016106c09061242c565b60405180910390fd5b6106d4838383610ea6565b505050565b600760009054906101000a900473ffffffffffffffffffffffffffffffffffffffff1681565b61071a8383836040518060200160405280600081525061098f565b505050565b61072761110c565b806009908051906020019061073d929190611a77565b5050565b6000806002600084815260200190815260200160002060009054906101000a900473ffffffffffffffffffffffffffffffffffffffff169050600073ffffffffffffffffffffffffffffffffffffffff168173ffffffffffffffffffffffffffffffffffffffff16036107e9576040517f08c379a00000000000000000000000000000000000000000000000000000000081526004016107e090612498565b60405180910390fd5b80915050919050565b60008073ffffffffffffffffffffffffffffffffffffffff168273ffffffffffffffffffffffffffffffffffffffff1603610862576040517f08c379a00000000000000000000000000000000000000000000000000000000081526004016108599061252a565b60405180910390fd5b600360008373ffffffffffffffffffffffffffffffffffffffff1673ffffffffffffffffffffffffffffffffffffffff168152602001908152602001600020549050919050565b6108b161110c565b6108bb600061118a565b565b6000600660009054906101000a900473ffffffffffffffffffffffffffffffffffffffff16905090565b6060600180546108f690612265565b80601f016020809104026020016040519081016040528092919081815260200182805461092290612265565b801561096f5780601f106109445761010080835404028352916020019161096f565b820191906000526020600020905b81548152906001019060200180831161095257829003601f168201915b5050505050905090565b61098b610984610d50565b8383611250565b5050565b6109a061099a610d50565b83610e11565b6109df576040517f08c379a00000000000000000000000000000000000000000000000000000000081526004016109d69061242c565b60405180910390fd5b6109eb848484846113bc565b50505050565b60606109fc82611418565b610a3b576040517f08c379a0000000000000000000000000000000000000000000000000000000008152600401610a32906125bc565b60405180910390fd5b6000600860008481526020019081526020016000208054610a5b90612265565b80601f0160208091040260200160405190810160405280929190818152602001828054610a8790612265565b8015610ad45780601f10610aa957610100808354040283529160200191610ad4565b820191906000526020600020905b815481529060010190602001808311610ab757829003601f168201915b505050505090506000610ae5611484565b90506000815103610afa578192505050610b5e565b600082511115610b2f578082604051602001610b17929190612618565b60405160208183030381529060405292505050610b5e565b80610b3985611516565b604051602001610b4a929190612618565b604051602081830303815290604052925050505b919050565b610b6b61110c565b610b758383611676565b610b7f828261184f565b505050565b6000600560008473ffffffffffffffffffffffffffffffffffffffff1673ffffffffffffffffffffffffffffffffffffffff16815260200190815260200160002060008373ffffffffffffffffffffffffffffffffffffffff1673ffffffffffffffffffffffffffffffffffffffff16815260200190815260200160002060009054906101000a900460ff16905092915050565b610c2061110c565b600073ffffffffffffffffffffffffffffffffffffffff168173ffffffffffffffffffffffffffffffffffffffff1603610c8f576040517f08c379a0000000000000000000000000000000000000000000000000000000008152600401610c86906126ae565b60405180910390fd5b610c988161118a565b50565b60007f01ffc9a7000000000000000000000000000000000000000000000000000000007bffffffffffffffffffffffffffffffffffffffffffffffffffffffff1916827bffffffffffffffffffffffffffffffffffffffffffffffffffffffff1916149050919050565b610d0e81611418565b610d4d576040517f08c379a0000000000000000000000000000000000000000000000000000000008152600401610d4490612498565b60405180910390fd5b50565b600033905090565b816004600083815260200190815260200160002060006101000a81548173ffffffffffffffffffffffffffffffffffffffff021916908373ffffffffffffffffffffffffffffffffffffffff160217905550808273ffffffffffffffffffffffffffffffffffffffff16610dcb83610741565b73ffffffffffffffffffffffffffffffffffffffff167f8c5be1e5ebec7d5bd14f71427d1e84f3dd0314c0f7b2291e5b200ac8c7c3b92560405160405180910390a45050565b600080610e1d83610741565b90508073ffffffffffffffffffffffffffffffffffffffff168473ffffffffffffffffffffffffffffffffffffffff161480610e5f5750610e5e8185610b84565b5b80610e9d57508373ffffffffffffffffffffffffffffffffffffffff16610e858461051c565b73ffffffffffffffffffffffffffffffffffffffff16145b91505092915050565b8273ffffffffffffffffffffffffffffffffffffffff16610ec682610741565b73ffffffffffffffffffffffffffffffffffffffff1614610f1c576040517f08c379a0000000000000000000000000000000000000000000000000000000008152600401610f1390612740565b60405180910390fd5b600073ffffffffffffffffffffffffffffffffffffffff168273ffffffffffffffffffffffffffffffffffffffff1603610f8b576040517f08c379a0000000000000000000000000000000000000000000000000000000008152600401610f82906127d2565b60405180910390fd5b610f968383836118c3565b610fa1600082610d58565b6001600360008573ffffffffffffffffffffffffffffffffffffffff1673ffffffffffffffffffffffffffffffffffffffff1681526020019081526020016000206000828254610ff19190612821565b925050819055506001600360008473ffffffffffffffffffffffffffffffffffffffff1673ffffffffffffffffffffffffffffffffffffffff16815260200190815260200160002060008282546110489190612855565b92505081905550816002600083815260200190815260200160002060006101000a81548173ffffffffffffffffffffffffffffffffffffffff021916908373ffffffffffffffffffffffffffffffffffffffff160217905550808273ffffffffffffffffffffffffffffffffffffffff168473ffffffffffffffffffffffffffffffffffffffff167fddf252ad1be2c89b69c2b068fc378daa952ba7f163c4a11628f55a4df523b3ef60405160405180910390a46111078383836118c8565b505050565b611114610d50565b73ffffffffffffffffffffffffffffffffffffffff166111326108bd565b73ffffffffffffffffffffffffffffffffffffffff1614611188576040517f08c379a000000000000000000000000000000000000000000000000000000000815260040161117f906128f7565b60405180910390fd5b565b6000600660009054906101000a900473ffffffffffffffffffffffffffffffffffffffff16905081600660006101000a81548173ffffffffffffffffffffffffffffffffffffffff021916908373ffffffffffffffffffffffffffffffffffffffff1602179055508173ffffffffffffffffffffffffffffffffffffffff168173ffffffffffffffffffffffffffffffffffffffff167f8be0079c531659141344cd1fd0a4f28419497f9722a3daafe3b4186f6b6457e060405160405180910390a35050565b8173ffffffffffffffffffffffffffffffffffffffff168373ffffffffffffffffffffffffffffffffffffffff16036112be576040517f08c379a00000000000000000000000000000000000000000000000000000000081526004016112b590612963565b60405180910390fd5b80600560008573ffffffffffffffffffffffffffffffffffffffff1673ffffffffffffffffffffffffffffffffffffffff16815260200190815260200160002060008473ffffffffffffffffffffffffffffffffffffffff1673ffffffffffffffffffffffffffffffffffffffff16815260200190815260200160002060006101000a81548160ff0219169083151502179055508173ffffffffffffffffffffffffffffffffffffffff168373ffffffffffffffffffffffffffffffffffffffff167f17307eab39ab6107e8899845ad3d59bd9653f200f220920489ca2b5937696c31836040516113af9190611bce565b60405180910390a3505050565b6113c7848484610ea6565b6113d3848484846118cd565b611412576040517f08c379a0000000000000000000000000000000000000000000000000000000008152600401611409906129f5565b60405180910390fd5b50505050565b60008073ffffffffffffffffffffffffffffffffffffffff166002600084815260200190815260200160002060009054906101000a900473ffffffffffffffffffffffffffffffffffffffff1673ffffffffffffffffffffffffffffffffffffffff1614159050919050565b60606009805461149390612265565b80601f01602080910402602001604051908101604052809291908181526020018280546114bf90612265565b801561150c5780601f106114e15761010080835404028352916020019161150c565b820191906000526020600020905b8154815290600101906020018083116114ef57829003601f168201915b5050505050905090565b60606000820361155d576040518060400160405280600181526020017f30000000000000000000000000000000000000000000000000000000000000008152509050611671565b600082905060005b6000821461158f57808061157890612a15565b915050600a826115889190612a8c565b9150611565565b60008167ffffffffffffffff8111156115ab576115aa611e2c565b5b6040519080825280601f01601f1916602001820160405280156115dd5781602001600182028036833780820191505090505b5090505b6000851461166a576001826115f69190612821565b9150600a856116059190612abd565b60306116119190612855565b60f81b81838151811061162757611626612aee565b5b60200101907effffffffffffffffffffffffffffffffffffffffffffffffffffffffffffff1916908160001a905350600a856116639190612a8c565b94506115e1565b8093505050505b919050565b600073ffffffffffffffffffffffffffffffffffffffff168273ffffffffffffffffffffffffffffffffffffffff16036116e5576040517f08c379a00000000000000000000000000000000000000000000000000000000081526004016116dc90612b69565b60405180910390fd5b6116ee81611418565b1561172e576040517f08c379a000000000000000000000000000000000000000000000000000000000815260040161172590612bd5565b60405180910390fd5b61173a600083836118c3565b6001600360008473ffffffffffffffffffffffffffffffffffffffff1673ffffffffffffffffffffffffffffffffffffffff168152602001908152602001600020600082825461178a9190612855565b92505081905550816002600083815260200190815260200160002060006101000a81548173ffffffffffffffffffffffffffffffffffffffff021916908373ffffffffffffffffffffffffffffffffffffffff160217905550808273ffffffffffffffffffffffffffffffffffffffff16600073ffffffffffffffffffffffffffffffffffffffff167fddf252ad1be2c89b69c2b068fc378daa952ba7f163c4a11628f55a4df523b3ef60405160405180910390a461184b600083836118c8565b5050565b61185882611418565b611897576040517f08c379a000000000000000000000000000000000000000000000000000000000815260040161188e90612c67565b60405180910390fd5b806008600084815260200190815260200160002090805190602001906118be929190611a77565b505050565b505050565b505050565b60006118ee8473ffffffffffffffffffffffffffffffffffffffff16611a54565b15611a47578373ffffffffffffffffffffffffffffffffffffffff1663150b7a02611917610d50565b8786866040518563ffffffff1660e01b81526004016119399493929190612cdc565b6020604051808303816000875af192505050801561197557506040513d601f19601f820116820180604052508101906119729190612d3d565b60015b6119f7573d80600081146119a5576040519150601f19603f3d011682016040523d82523d6000602084013e6119aa565b606091505b5060008151036119ef576040517f08c379a00000000000000000000000000000000000000000000000000000000081526004016119e6906129f5565b60405180910390fd5b805181602001fd5b63150b7a0260e01b7bffffffffffffffffffffffffffffffffffffffffffffffffffffffff1916817bffffffffffffffffffffffffffffffffffffffffffffffffffffffff191614915050611a4c565b600190505b949350505050565b6000808273ffffffffffffffffffffffffffffffffffffffff163b119050919050565b828054611a8390612265565b90600052602060002090601f016020900481019282611aa55760008555611aec565b82601f10611abe57805160ff1916838001178555611aec565b82800160010185558215611aec579182015b82811115611aeb578251825591602001919060010190611ad0565b5b509050611af99190611afd565b5090565b5b80821115611b16576000816000905550600101611afe565b5090565b6000604051905090565b600080fd5b600080fd5b60007fffffffff0000000000000000000000000000000000000000000000000000000082169050919050565b611b6381611b2e565b8114611b6e57600080fd5b50565b600081359050611b8081611b5a565b92915050565b600060208284031215611b9c57611b9b611b24565b5b6000611baa84828501611b71565b91505092915050565b60008115159050919050565b611bc881611bb3565b82525050565b6000602082019050611be36000830184611bbf565b92915050565b600081519050919050565b600082825260208201905092915050565b60005b83811015611c23578082015181840152602081019050611c08565b83811115611c32576000848401525b50505050565b6000601f19601f8301169050919050565b6000611c5482611be9565b611c5e8185611bf4565b9350611c6e818560208601611c05565b611c7781611c38565b840191505092915050565b60006020820190508181036000830152611c9c8184611c49565b905092915050565b6000819050919050565b611cb781611ca4565b8114611cc257600080fd5b50565b600081359050611cd481611cae565b92915050565b600060208284031215611cf057611cef611b24565b5b6000611cfe84828501611cc5565b91505092915050565b600073ffffffffffffffffffffffffffffffffffffffff82169050919050565b6000611d3282611d07565b9050919050565b611d4281611d27565b82525050565b6000602082019050611d5d6000830184611d39565b92915050565b611d6c81611d27565b8114611d7757600080fd5b50565b600081359050611d8981611d63565b92915050565b60008060408385031215611da657611da5611b24565b5b6000611db485828601611d7a565b9250506020611dc585828601611cc5565b9150509250929050565b600080600060608486031215611de857611de7611b24565b5b6000611df686828701611d7a565b9350506020611e0786828701611d7a565b9250506040611e1886828701611cc5565b9150509250925092565b600080fd5b600080fd5b7f4e487b7100000000000000000000000000000000000000000000000000000000600052604160045260246000fd5b611e6482611c38565b810181811067ffffffffffffffff82111715611e8357611e82611e2c565b5b80604052505050565b6000611e96611b1a565b9050611ea28282611e5b565b919050565b600067ffffffffffffffff821115611ec257611ec1611e2c565b5b611ecb82611c38565b9050602081019050919050565b82818337600083830152505050565b6000611efa611ef584611ea7565b611e8c565b905082815260208101848484011115611f1657611f15611e27565b5b611f21848285611ed8565b509392505050565b600082601f830112611f3e57611f3d611e22565b5b8135611f4e848260208601611ee7565b91505092915050565b600060208284031215611f6d57611f6c611b24565b5b600082013567ffffffffffffffff811115611f8b57611f8a611b29565b5b611f9784828501611f29565b91505092915050565b600060208284031215611fb657611fb5611b24565b5b6000611fc484828501611d7a565b91505092915050565b611fd681611ca4565b82525050565b6000602082019050611ff16000830184611fcd565b92915050565b61200081611bb3565b811461200b57600080fd5b50565b60008135905061201d81611ff7565b92915050565b6000806040838503121561203a57612039611b24565b5b600061204885828601611d7a565b92505060206120598582860161200e565b9150509250929050565b600067ffffffffffffffff82111561207e5761207d611e2c565b5b61208782611c38565b9050602081019050919050565b60006120a76120a284612063565b611e8c565b9050828152602081018484840111156120c3576120c2611e27565b5b6120ce848285611ed8565b509392505050565b600082601f8301126120eb576120ea611e22565b5b81356120fb848260208601612094565b91505092915050565b6000806000806080858703121561211e5761211d611b24565b5b600061212c87828801611d7a565b945050602061213d87828801611d7a565b935050604061214e87828801611cc5565b925050606085013567ffffffffffffffff81111561216f5761216e611b29565b5b61217b878288016120d6565b91505092959194509250565b6000806000606084860312156121a05761219f611b24565b5b60006121ae86828701611d7a565b93505060206121bf86828701611cc5565b925050604084013567ffffffffffffffff8111156121e0576121df611b29565b5b6121ec86828701611f29565b9150509250925092565b6000806040838503121561220d5761220c611b24565b5b600061221b85828601611d7a565b925050602061222c85828601611d7a565b9150509250929050565b7f4e487b7100000000000000000000000000000000000000000000000000000000600052602260045260246000fd5b6000600282049050600182168061227d57607f821691505b6020821081036122905761228f612236565b5b50919050565b7f4552433732313a20617070726f76616c20746f2063757272656e74206f776e6560008201527f7200000000000000000000000000000000000000000000000000000000000000602082015250565b60006122f2602183611bf4565b91506122fd82612296565b604082019050919050565b60006020820190508181036000830152612321816122e5565b9050919050565b7f4552433732313a20617070726f76652063616c6c6572206973206e6f7420746f60008201527f6b656e206f776e6572206e6f7220617070726f76656420666f7220616c6c0000602082015250565b6000612384603e83611bf4565b915061238f82612328565b604082019050919050565b600060208201905081810360008301526123b381612377565b9050919050565b7f4552433732313a2063616c6c6572206973206e6f7420746f6b656e206f776e6560008201527f72206e6f7220617070726f766564000000000000000000000000000000000000602082015250565b6000612416602e83611bf4565b9150612421826123ba565b604082019050919050565b6000602082019050818103600083015261244581612409565b9050919050565b7f4552433732313a20696e76616c696420746f6b656e2049440000000000000000600082015250565b6000612482601883611bf4565b915061248d8261244c565b602082019050919050565b600060208201905081810360008301526124b181612475565b9050919050565b7f4552433732313a2061646472657373207a65726f206973206e6f74206120766160008201527f6c6964206f776e65720000000000000000000000000000000000000000000000602082015250565b6000612514602983611bf4565b915061251f826124b8565b604082019050919050565b6000602082019050818103600083015261254381612507565b9050919050565b7f4552433732314d657461646174613a2055524920717565727920666f72206e6f60008201527f6e6578697374656e7420746f6b656e0000000000000000000000000000000000602082015250565b60006125a6602f83611bf4565b91506125b18261254a565b604082019050919050565b600060208201905081810360008301526125d581612599565b9050919050565b600081905092915050565b60006125f282611be9565b6125fc81856125dc565b935061260c818560208601611c05565b80840191505092915050565b600061262482856125e7565b915061263082846125e7565b91508190509392505050565b7f4f776e61626c653a206e6577206f776e657220697320746865207a65726f206160008201527f6464726573730000000000000000000000000000000000000000000000000000602082015250565b6000612698602683611bf4565b91506126a38261263c565b604082019050919050565b600060208201905081810360008301526126c78161268b565b9050919050565b7f4552433732313a207472616e736665722066726f6d20696e636f72726563742060008201527f6f776e6572000000000000000000000000000000000000000000000000000000602082015250565b600061272a602583611bf4565b9150612735826126ce565b604082019050919050565b600060208201905081810360008301526127598161271d565b9050919050565b7f4552433732313a207472616e7366657220746f20746865207a65726f2061646460008201527f7265737300000000000000000000000000000000000000000000000000000000602082015250565b60006127bc602483611bf4565b91506127c782612760565b604082019050919050565b600060208201905081810360008301526127eb816127af565b9050919050565b7f4e487b7100000000000000000000000000000000000000000000000000000000600052601160045260246000fd5b600061282c82611ca4565b915061283783611ca4565b92508282101561284a576128496127f2565b5b828203905092915050565b600061286082611ca4565b915061286b83611ca4565b9250827fffffffffffffffffffffffffffffffffffffffffffffffffffffffffffffffff038211156128a05761289f6127f2565b5b828201905092915050565b7f4f776e61626c653a2063616c6c6572206973206e6f7420746865206f776e6572600082015250565b60006128e1602083611bf4565b91506128ec826128ab565b602082019050919050565b60006020820190508181036000830152612910816128d4565b9050919050565b7f4552433732313a20617070726f766520746f2063616c6c657200000000000000600082015250565b600061294d601983611bf4565b915061295882612917565b602082019050919050565b6000602082019050818103600083015261297c81612940565b9050919050565b7f4552433732313a207472616e7366657220746f206e6f6e20455243373231526560008201527f63656976657220696d706c656d656e7465720000000000000000000000000000602082015250565b60006129df603283611bf4565b91506129ea82612983565b604082019050919050565b60006020820190508181036000830152612a0e816129d2565b9050919050565b6000612a2082611ca4565b91507fffffffffffffffffffffffffffffffffffffffffffffffffffffffffffffffff8203612a5257612a516127f2565b5b600182019050919050565b7f4e487b7100000000000000000000000000000000000000000000000000000000600052601260045260246000fd5b6000612a9782611ca4565b9150612aa283611ca4565b925082612ab257612ab1612a5d565b5b828204905092915050565b6000612ac882611ca4565b9150612ad383611ca4565b925082612ae357612ae2612a5d565b5b828206905092915050565b7f4e487b7100000000000000000000000000000000000000000000000000000000600052603260045260246000fd5b7f4552433732313a206d696e7420746f20746865207a65726f2061646472657373600082015250565b6000612b53602083611bf4565b9150612b5e82612b1d565b602082019050919050565b60006020820190508181036000830152612b8281612b46565b9050919050565b7f4552433732313a20746f6b656e20616c7265616479206d696e74656400000000600082015250565b6000612bbf601c83611bf4565b9150612bca82612b89565b602082019050919050565b60006020820190508181036000830152612bee81612bb2565b9050919050565b7f4552433732314d657461646174613a2055524920736574206f66206e6f6e657860008201527f697374656e7420746f6b656e0000000000000000000000000000000000000000602082015250565b6000612c51602c83611bf4565b9150612c5c82612bf5565b604082019050919050565b60006020820190508181036000830152612c8081612c44565b9050919050565b600081519050919050565b600082825260208201905092915050565b6000612cae82612c87565b612cb88185612c92565b9350612cc8818560208601611c05565b612cd181611c38565b840191505092915050565b6000608082019050612cf16000830187611d39565b612cfe6020830186611d39565b612d0b6040830185611fcd565b8181036060830152612d1d8184612ca3565b905095945050505050565b600081519050612d3781611b5a565b92915050565b600060208284031215612d5357612d52611b24565b5b6000612d6184828501612d28565b9150509291505056fea26469706673582212205d093ab2ce52066f4db3d852da76c43fcc96561140920665dd212c5a3ec3ef5364736f6c634300080e0033a264697066735822122044eb5db3ae106ec48ea517a1cf4d39fa6af16716a4c5e2dccbc254ca9612a37764736f6c634300080e0033608060405234801561001057600080fd5b5033600160006101000a81548173ffffffffffffffffffffffffffffffffffffffff021916908373ffffffffffffffffffffffffffffffffffffffff16021790555061006061006560201b60201c565b6100a8565b30600260006101000a81548173ffffffffffffffffffffffffffffffffffffffff021916908373ffffffffffffffffffffffffffffffffffffffff160217905550565b614a30806100b76000396000f3fe60806040523480156200001157600080fd5b50600436106200005e5760003560e01c80632cc0a40214620000635780635c284dc0146200008557806366d11c1a14620000bb5780636f7fd7ab14620000dd5780637487d4d11462000115575b600080fd5b6200006d6200014d565b6040516200007c9190620006ec565b60405180910390f35b620000a360048036038101906200009d91906200074e565b62000173565b604051620000b291906200079b565b60405180910390f35b620000c562000191565b604051620000d49190620006ec565b60405180910390f35b620000fb6004803603810190620000f59190620007e9565b620001b7565b6040516200010c9392919062000830565b60405180910390f35b6200013360048036038101906200012d9190620009cf565b62000365565b604051620001449392919062000830565b60405180910390f35b600160009054906101000a900473ffffffffffffffffffffffffffffffffffffffff1681565b60036020528060005260406000206000915090508060000154905081565b600260009054906101000a900473ffffffffffffffffffffffffffffffffffffffff1681565b600080600080600360008673ffffffffffffffffffffffffffffffffffffffff1673ffffffffffffffffffffffffffffffffffffffff168152602001908152602001600020600101868154811062000214576200021362000a35565b5b906000526020600020906002020160000160009054906101000a900473ffffffffffffffffffffffffffffffffffffffff1690506000600360008773ffffffffffffffffffffffffffffffffffffffff1673ffffffffffffffffffffffffffffffffffffffff1681526020019081526020016000206001018781548110620002a157620002a062000a35565b5b906000526020600020906002020160010160009054906101000a900473ffffffffffffffffffffffffffffffffffffffff1690506000600360008873ffffffffffffffffffffffffffffffffffffffff1673ffffffffffffffffffffffffffffffffffffffff16815260200190815260200160002060010188815481106200032e576200032d62000a35565b5b906000526020600020906002020160010160149054906101000a900460ff1660ff1690508282829550955095505050509250925092565b600080600033600160006101000a81548173ffffffffffffffffffffffffffffffffffffffff021916908373ffffffffffffffffffffffffffffffffffffffff1602179055506000808686604051620003be9062000699565b620003cb92919062000af7565b604051809103906000f080158015620003e8573d6000803e3d6000fd5b506000806101000a81548173ffffffffffffffffffffffffffffffffffffffff021916908373ffffffffffffffffffffffffffffffffffffffff16021790555060008054906101000a900473ffffffffffffffffffffffffffffffffffffffff1673ffffffffffffffffffffffffffffffffffffffff1663b46c7a0d6040518163ffffffff1660e01b8152600401602060405180830381865afa15801562000494573d6000803e3d6000fd5b505050506040513d601f19601f82011682018060405250810190620004ba919062000b42565b9150859050600360008773ffffffffffffffffffffffffffffffffffffffff1673ffffffffffffffffffffffffffffffffffffffff1681526020019081526020016000206000016000815480929190620005149062000ba3565b9190505550600060405180606001604052808873ffffffffffffffffffffffffffffffffffffffff1681526020018473ffffffffffffffffffffffffffffffffffffffff168152602001600060ff168152509050600360008873ffffffffffffffffffffffffffffffffffffffff1673ffffffffffffffffffffffffffffffffffffffff16815260200190815260200160002060010181908060018154018082558091505060019003906000526020600020906002020160009091909190915060008201518160000160006101000a81548173ffffffffffffffffffffffffffffffffffffffff021916908373ffffffffffffffffffffffffffffffffffffffff16021790555060208201518160010160006101000a81548173ffffffffffffffffffffffffffffffffffffffff021916908373ffffffffffffffffffffffffffffffffffffffff16021790555060408201518160010160146101000a81548160ff021916908360ff1602179055505050818360009550955095505050509250925092565b613e0a8062000bf183390190565b600073ffffffffffffffffffffffffffffffffffffffff82169050919050565b6000620006d482620006a7565b9050919050565b620006e681620006c7565b82525050565b6000602082019050620007036000830184620006db565b92915050565b6000604051905090565b600080fd5b600080fd5b6200072881620006c7565b81146200073457600080fd5b50565b60008135905062000748816200071d565b92915050565b60006020828403121562000767576200076662000713565b5b6000620007778482850162000737565b91505092915050565b6000819050919050565b620007958162000780565b82525050565b6000602082019050620007b260008301846200078a565b92915050565b620007c38162000780565b8114620007cf57600080fd5b50565b600081359050620007e381620007b8565b92915050565b6000806040838503121562000803576200080262000713565b5b60006200081385828601620007d2565b9250506020620008268582860162000737565b9150509250929050565b6000606082019050620008476000830186620006db565b620008566020830185620006db565b6200086560408301846200078a565b949350505050565b600080fd5b600080fd5b6000601f19601f8301169050919050565b7f4e487b7100000000000000000000000000000000000000000000000000000000600052604160045260246000fd5b620008c28262000877565b810181811067ffffffffffffffff82111715620008e457620008e362000888565b5b80604052505050565b6000620008f962000709565b9050620009078282620008b7565b919050565b600067ffffffffffffffff8211156200092a576200092962000888565b5b620009358262000877565b9050602081019050919050565b82818337600083830152505050565b60006200096862000962846200090c565b620008ed565b90508281526020810184848401111562000987576200098662000872565b5b6200099484828562000942565b509392505050565b600082601f830112620009b457620009b36200086d565b5b8135620009c684826020860162000951565b91505092915050565b60008060408385031215620009e957620009e862000713565b5b600083013567ffffffffffffffff81111562000a0a5762000a0962000718565b5b62000a18858286016200099c565b925050602062000a2b8582860162000737565b9150509250929050565b7f4e487b7100000000000000000000000000000000000000000000000000000000600052603260045260246000fd5b600081519050919050565b600082825260208201905092915050565b60005b8381101562000aa057808201518184015260208101905062000a83565b8381111562000ab0576000848401525b50505050565b600062000ac38262000a64565b62000acf818562000a6f565b935062000ae181856020860162000a80565b62000aec8162000877565b840191505092915050565b6000604082019050818103600083015262000b13818562000ab6565b905062000b246020830184620006db565b9392505050565b60008151905062000b3c816200071d565b92915050565b60006020828403121562000b5b5762000b5a62000713565b5b600062000b6b8482850162000b2b565b91505092915050565b7f4e487b7100000000000000000000000000000000000000000000000000000000600052601160045260246000fd5b600062000bb08262000780565b91507fffffffffffffffffffffffffffffffffffffffffffffffffffffffffffffffff820362000be55762000be462000b74565b5b60018201905091905056fe60806040523480156200001157600080fd5b5060405162003e0a38038062003e0a8339818101604052810190620000379190620005c3565b8162000049816200009360201b60201c565b506200006a6200005e620000af60201b60201c565b620000b760201b60201c565b6200007a6200017d60201b60201c565b6200008b81620001c060201b60201c565b5050620007a8565b8060029080519060200190620000ab92919062000311565b5050565b600033905090565b6000600360009054906101000a900473ffffffffffffffffffffffffffffffffffffffff16905081600360006101000a81548173ffffffffffffffffffffffffffffffffffffffff021916908373ffffffffffffffffffffffffffffffffffffffff1602179055508173ffffffffffffffffffffffffffffffffffffffff168173ffffffffffffffffffffffffffffffffffffffff167f8be0079c531659141344cd1fd0a4f28419497f9722a3daafe3b4186f6b6457e060405160405180910390a35050565b30600460006101000a81548173ffffffffffffffffffffffffffffffffffffffff021916908373ffffffffffffffffffffffffffffffffffffffff160217905550565b620001d06200025660201b60201c565b600073ffffffffffffffffffffffffffffffffffffffff168173ffffffffffffffffffffffffffffffffffffffff160362000242576040517f08c379a00000000000000000000000000000000000000000000000000000000081526004016200023990620006b0565b60405180910390fd5b6200025381620000b760201b60201c565b50565b62000266620000af60201b60201c565b73ffffffffffffffffffffffffffffffffffffffff166200028c620002e760201b60201c565b73ffffffffffffffffffffffffffffffffffffffff1614620002e5576040517f08c379a0000000000000000000000000000000000000000000000000000000008152600401620002dc9062000722565b60405180910390fd5b565b6000600360009054906101000a900473ffffffffffffffffffffffffffffffffffffffff16905090565b8280546200031f9062000773565b90600052602060002090601f0160209004810192826200034357600085556200038f565b82601f106200035e57805160ff19168380011785556200038f565b828001600101855582156200038f579182015b828111156200038e57825182559160200191906001019062000371565b5b5090506200039e9190620003a2565b5090565b5b80821115620003bd576000816000905550600101620003a3565b5090565b6000604051905090565b600080fd5b600080fd5b600080fd5b600080fd5b6000601f19601f8301169050919050565b7f4e487b7100000000000000000000000000000000000000000000000000000000600052604160045260246000fd5b6200042a82620003df565b810181811067ffffffffffffffff821117156200044c576200044b620003f0565b5b80604052505050565b600062000461620003c1565b90506200046f82826200041f565b919050565b600067ffffffffffffffff821115620004925762000491620003f0565b5b6200049d82620003df565b9050602081019050919050565b60005b83811015620004ca578082015181840152602081019050620004ad565b83811115620004da576000848401525b50505050565b6000620004f7620004f18462000474565b62000455565b905082815260208101848484011115620005165762000515620003da565b5b62000523848285620004aa565b509392505050565b600082601f830112620005435762000542620003d5565b5b815162000555848260208601620004e0565b91505092915050565b600073ffffffffffffffffffffffffffffffffffffffff82169050919050565b60006200058b826200055e565b9050919050565b6200059d816200057e565b8114620005a957600080fd5b50565b600081519050620005bd8162000592565b92915050565b60008060408385031215620005dd57620005dc620003cb565b5b600083015167ffffffffffffffff811115620005fe57620005fd620003d0565b5b6200060c858286016200052b565b92505060206200061f85828601620005ac565b9150509250929050565b600082825260208201905092915050565b7f4f776e61626c653a206e6577206f776e657220697320746865207a65726f206160008201527f6464726573730000000000000000000000000000000000000000000000000000602082015250565b60006200069860268362000629565b9150620006a5826200063a565b604082019050919050565b60006020820190508181036000830152620006cb8162000689565b9050919050565b7f4f776e61626c653a2063616c6c6572206973206e6f7420746865206f776e6572600082015250565b60006200070a60208362000629565b91506200071782620006d2565b602082019050919050565b600060208201905081810360008301526200073d81620006fb565b9050919050565b7f4e487b7100000000000000000000000000000000000000000000000000000000600052602260045260246000fd5b600060028204905060018216806200078c57607f821691505b602082108103620007a257620007a162000744565b5b50919050565b61365280620007b86000396000f3fe608060405234801561001057600080fd5b50600436106100ff5760003560e01c8063715018a611610097578063e985e9c511610066578063e985e9c514610296578063f242432a146102c6578063f2fde38b146102e2578063f5298aca146102fe576100ff565b8063715018a6146102345780638da5cb5b1461023e578063a22cb4651461025c578063b46c7a0d14610278576100ff565b8063156e29f6116100d3578063156e29f6146101b05780632eb2c2d6146101cc5780634e1273f4146101e85780636b20c45414610218576100ff565b8062fdd58e1461010457806301ffc9a71461013457806302fe5305146101645780630e89341c14610180575b600080fd5b61011e6004803603810190610119919061201c565b61031a565b60405161012b919061206b565b60405180910390f35b61014e600480360381019061014991906120de565b6103e2565b60405161015b9190612126565b60405180910390f35b61017e60048036038101906101799190612287565b6104c4565b005b61019a600480360381019061019591906122d0565b6104d8565b6040516101a79190612385565b60405180910390f35b6101ca60048036038101906101c591906123a7565b61056c565b005b6101e660048036038101906101e19190612563565b610594565b005b61020260048036038101906101fd91906126f5565b610635565b60405161020f919061282b565b60405180910390f35b610232600480360381019061022d919061284d565b61074e565b005b61023c6107eb565b005b6102466107ff565b60405161025391906128e7565b60405180910390f35b6102766004803603810190610271919061292e565b610829565b005b61028061083f565b60405161028d91906128e7565b60405180910390f35b6102b060048036038101906102ab919061296e565b610865565b6040516102bd9190612126565b60405180910390f35b6102e060048036038101906102db91906129ae565b6108f9565b005b6102fc60048036038101906102f79190612a45565b61099a565b005b610318600480360381019061031391906123a7565b610a1d565b005b60008073ffffffffffffffffffffffffffffffffffffffff168373ffffffffffffffffffffffffffffffffffffffff160361038a576040517f08c379a000000000000000000000000000000000000000000000000000000000815260040161038190612ae4565b60405180910390fd5b60008083815260200190815260200160002060008473ffffffffffffffffffffffffffffffffffffffff1673ffffffffffffffffffffffffffffffffffffffff16815260200190815260200160002054905092915050565b60007fd9b67a26000000000000000000000000000000000000000000000000000000007bffffffffffffffffffffffffffffffffffffffffffffffffffffffff1916827bffffffffffffffffffffffffffffffffffffffffffffffffffffffff191614806104ad57507f0e89341c000000000000000000000000000000000000000000000000000000007bffffffffffffffffffffffffffffffffffffffffffffffffffffffff1916827bffffffffffffffffffffffffffffffffffffffffffffffffffffffff1916145b806104bd57506104bc82610aba565b5b9050919050565b6104cc610b24565b6104d581610ba2565b50565b6060600280546104e790612b33565b80601f016020809104026020016040519081016040528092919081815260200182805461051390612b33565b80156105605780601f1061053557610100808354040283529160200191610560565b820191906000526020600020905b81548152906001019060200180831161054357829003601f168201915b50505050509050919050565b610574610b24565b61058f83828460405180602001604052806000815250610bbc565b505050565b61059c610d6c565b73ffffffffffffffffffffffffffffffffffffffff168573ffffffffffffffffffffffffffffffffffffffff1614806105e257506105e1856105dc610d6c565b610865565b5b610621576040517f08c379a000000000000000000000000000000000000000000000000000000000815260040161061890612bd6565b60405180910390fd5b61062e8585858585610d74565b5050505050565b6060815183511461067b576040517f08c379a000000000000000000000000000000000000000000000000000000000815260040161067290612c68565b60405180910390fd5b6000835167ffffffffffffffff8111156106985761069761215c565b5b6040519080825280602002602001820160405280156106c65781602001602082028036833780820191505090505b50905060005b8451811015610743576107138582815181106106eb576106ea612c88565b5b602002602001015185838151811061070657610705612c88565b5b602002602001015161031a565b82828151811061072657610725612c88565b5b6020026020010181815250508061073c90612ce6565b90506106cc565b508091505092915050565b610756610d6c565b73ffffffffffffffffffffffffffffffffffffffff168373ffffffffffffffffffffffffffffffffffffffff16148061079c575061079b83610796610d6c565b610865565b5b6107db576040517f08c379a00000000000000000000000000000000000000000000000000000000081526004016107d290612bd6565b60405180910390fd5b6107e6838383611095565b505050565b6107f3610b24565b6107fd6000611363565b565b6000600360009054906101000a900473ffffffffffffffffffffffffffffffffffffffff16905090565b61083b610834610d6c565b8383611429565b5050565b600460009054906101000a900473ffffffffffffffffffffffffffffffffffffffff1681565b6000600160008473ffffffffffffffffffffffffffffffffffffffff1673ffffffffffffffffffffffffffffffffffffffff16815260200190815260200160002060008373ffffffffffffffffffffffffffffffffffffffff1673ffffffffffffffffffffffffffffffffffffffff16815260200190815260200160002060009054906101000a900460ff16905092915050565b610901610d6c565b73ffffffffffffffffffffffffffffffffffffffff168573ffffffffffffffffffffffffffffffffffffffff161480610947575061094685610941610d6c565b610865565b5b610986576040517f08c379a000000000000000000000000000000000000000000000000000000000815260040161097d90612bd6565b60405180910390fd5b6109938585858585611595565b5050505050565b6109a2610b24565b600073ffffffffffffffffffffffffffffffffffffffff168173ffffffffffffffffffffffffffffffffffffffff1603610a11576040517f08c379a0000000000000000000000000000000000000000000000000000000008152600401610a0890612da0565b60405180910390fd5b610a1a81611363565b50565b610a25610d6c565b73ffffffffffffffffffffffffffffffffffffffff168373ffffffffffffffffffffffffffffffffffffffff161480610a6b5750610a6a83610a65610d6c565b610865565b5b610aaa576040517f08c379a0000000000000000000000000000000000000000000000000000000008152600401610aa190612bd6565b60405180910390fd5b610ab5838383611830565b505050565b60007f01ffc9a7000000000000000000000000000000000000000000000000000000007bffffffffffffffffffffffffffffffffffffffffffffffffffffffff1916827bffffffffffffffffffffffffffffffffffffffffffffffffffffffff1916149050919050565b610b2c610d6c565b73ffffffffffffffffffffffffffffffffffffffff16610b4a6107ff565b73ffffffffffffffffffffffffffffffffffffffff1614610ba0576040517f08c379a0000000000000000000000000000000000000000000000000000000008152600401610b9790612e0c565b60405180910390fd5b565b8060029080519060200190610bb8929190611ed1565b5050565b600073ffffffffffffffffffffffffffffffffffffffff168473ffffffffffffffffffffffffffffffffffffffff1603610c2b576040517f08c379a0000000000000000000000000000000000000000000000000000000008152600401610c2290612e9e565b60405180910390fd5b6000610c35610d6c565b90506000610c4285611a76565b90506000610c4f85611a76565b9050610c6083600089858589611af0565b8460008088815260200190815260200160002060008973ffffffffffffffffffffffffffffffffffffffff1673ffffffffffffffffffffffffffffffffffffffff1681526020019081526020016000206000828254610cbf9190612ebe565b925050819055508673ffffffffffffffffffffffffffffffffffffffff16600073ffffffffffffffffffffffffffffffffffffffff168473ffffffffffffffffffffffffffffffffffffffff167fc3d58168c5ae7397731d063d5bbf3d657854427343f4c083240f7aacaa2d0f628989604051610d3d929190612f14565b60405180910390a4610d5483600089858589611af8565b610d6383600089898989611b00565b50505050505050565b600033905090565b8151835114610db8576040517f08c379a0000000000000000000000000000000000000000000000000000000008152600401610daf90612faf565b60405180910390fd5b600073ffffffffffffffffffffffffffffffffffffffff168473ffffffffffffffffffffffffffffffffffffffff1603610e27576040517f08c379a0000000000000000000000000000000000000000000000000000000008152600401610e1e90613041565b60405180910390fd5b6000610e31610d6c565b9050610e41818787878787611af0565b60005b8451811015610ff2576000858281518110610e6257610e61612c88565b5b602002602001015190506000858381518110610e8157610e80612c88565b5b60200260200101519050600080600084815260200190815260200160002060008b73ffffffffffffffffffffffffffffffffffffffff1673ffffffffffffffffffffffffffffffffffffffff16815260200190815260200160002054905081811015610f22576040517f08c379a0000000000000000000000000000000000000000000000000000000008152600401610f19906130d3565b60405180910390fd5b81810360008085815260200190815260200160002060008c73ffffffffffffffffffffffffffffffffffffffff1673ffffffffffffffffffffffffffffffffffffffff168152602001908152602001600020819055508160008085815260200190815260200160002060008b73ffffffffffffffffffffffffffffffffffffffff1673ffffffffffffffffffffffffffffffffffffffff1681526020019081526020016000206000828254610fd79190612ebe565b9250508190555050505080610feb90612ce6565b9050610e44565b508473ffffffffffffffffffffffffffffffffffffffff168673ffffffffffffffffffffffffffffffffffffffff168273ffffffffffffffffffffffffffffffffffffffff167f4a39dc06d4c0dbc64b70af90fd698a233a518aa5d07e595d983b8c0526c8f7fb87876040516110699291906130f3565b60405180910390a461107f818787878787611af8565b61108d818787878787611cd7565b505050505050565b600073ffffffffffffffffffffffffffffffffffffffff168373ffffffffffffffffffffffffffffffffffffffff1603611104576040517f08c379a00000000000000000000000000000000000000000000000000000000081526004016110fb9061319c565b60405180910390fd5b8051825114611148576040517f08c379a000000000000000000000000000000000000000000000000000000000815260040161113f90612faf565b60405180910390fd5b6000611152610d6c565b905061117281856000868660405180602001604052806000815250611af0565b60005b83518110156112bf57600084828151811061119357611192612c88565b5b6020026020010151905060008483815181106111b2576111b1612c88565b5b60200260200101519050600080600084815260200190815260200160002060008973ffffffffffffffffffffffffffffffffffffffff1673ffffffffffffffffffffffffffffffffffffffff16815260200190815260200160002054905081811015611253576040517f08c379a000000000000000000000000000000000000000000000000000000000815260040161124a9061322e565b60405180910390fd5b81810360008085815260200190815260200160002060008a73ffffffffffffffffffffffffffffffffffffffff1673ffffffffffffffffffffffffffffffffffffffff1681526020019081526020016000208190555050505080806112b790612ce6565b915050611175565b50600073ffffffffffffffffffffffffffffffffffffffff168473ffffffffffffffffffffffffffffffffffffffff168273ffffffffffffffffffffffffffffffffffffffff167f4a39dc06d4c0dbc64b70af90fd698a233a518aa5d07e595d983b8c0526c8f7fb86866040516113379291906130f3565b60405180910390a461135d81856000868660405180602001604052806000815250611af8565b50505050565b6000600360009054906101000a900473ffffffffffffffffffffffffffffffffffffffff16905081600360006101000a81548173ffffffffffffffffffffffffffffffffffffffff021916908373ffffffffffffffffffffffffffffffffffffffff1602179055508173ffffffffffffffffffffffffffffffffffffffff168173ffffffffffffffffffffffffffffffffffffffff167f8be0079c531659141344cd1fd0a4f28419497f9722a3daafe3b4186f6b6457e060405160405180910390a35050565b8173ffffffffffffffffffffffffffffffffffffffff168373ffffffffffffffffffffffffffffffffffffffff1603611497576040517f08c379a000000000000000000000000000000000000000000000000000000000815260040161148e906132c0565b60405180910390fd5b80600160008573ffffffffffffffffffffffffffffffffffffffff1673ffffffffffffffffffffffffffffffffffffffff16815260200190815260200160002060008473ffffffffffffffffffffffffffffffffffffffff1673ffffffffffffffffffffffffffffffffffffffff16815260200190815260200160002060006101000a81548160ff0219169083151502179055508173ffffffffffffffffffffffffffffffffffffffff168373ffffffffffffffffffffffffffffffffffffffff167f17307eab39ab6107e8899845ad3d59bd9653f200f220920489ca2b5937696c31836040516115889190612126565b60405180910390a3505050565b600073ffffffffffffffffffffffffffffffffffffffff168473ffffffffffffffffffffffffffffffffffffffff1603611604576040517f08c379a00000000000000000000000000000000000000000000000000000000081526004016115fb90613041565b60405180910390fd5b600061160e610d6c565b9050600061161b85611a76565b9050600061162885611a76565b9050611638838989858589611af0565b600080600088815260200190815260200160002060008a73ffffffffffffffffffffffffffffffffffffffff1673ffffffffffffffffffffffffffffffffffffffff168152602001908152602001600020549050858110156116cf576040517f08c379a00000000000000000000000000000000000000000000000000000000081526004016116c6906130d3565b60405180910390fd5b85810360008089815260200190815260200160002060008b73ffffffffffffffffffffffffffffffffffffffff1673ffffffffffffffffffffffffffffffffffffffff168152602001908152602001600020819055508560008089815260200190815260200160002060008a73ffffffffffffffffffffffffffffffffffffffff1673ffffffffffffffffffffffffffffffffffffffff16815260200190815260200160002060008282546117849190612ebe565b925050819055508773ffffffffffffffffffffffffffffffffffffffff168973ffffffffffffffffffffffffffffffffffffffff168573ffffffffffffffffffffffffffffffffffffffff167fc3d58168c5ae7397731d063d5bbf3d657854427343f4c083240f7aacaa2d0f628a8a604051611801929190612f14565b60405180910390a4611817848a8a86868a611af8565b611825848a8a8a8a8a611b00565b505050505050505050565b600073ffffffffffffffffffffffffffffffffffffffff168373ffffffffffffffffffffffffffffffffffffffff160361189f576040517f08c379a00000000000000000000000000000000000000000000000000000000081526004016118969061319c565b60405180910390fd5b60006118a9610d6c565b905060006118b684611a76565b905060006118c384611a76565b90506118e383876000858560405180602001604052806000815250611af0565b600080600087815260200190815260200160002060008873ffffffffffffffffffffffffffffffffffffffff1673ffffffffffffffffffffffffffffffffffffffff1681526020019081526020016000205490508481101561197a576040517f08c379a00000000000000000000000000000000000000000000000000000000081526004016119719061322e565b60405180910390fd5b84810360008088815260200190815260200160002060008973ffffffffffffffffffffffffffffffffffffffff1673ffffffffffffffffffffffffffffffffffffffff16815260200190815260200160002081905550600073ffffffffffffffffffffffffffffffffffffffff168773ffffffffffffffffffffffffffffffffffffffff168573ffffffffffffffffffffffffffffffffffffffff167fc3d58168c5ae7397731d063d5bbf3d657854427343f4c083240f7aacaa2d0f628989604051611a47929190612f14565b60405180910390a4611a6d84886000868660405180602001604052806000815250611af8565b50505050505050565b60606000600167ffffffffffffffff811115611a9557611a9461215c565b5b604051908082528060200260200182016040528015611ac35781602001602082028036833780820191505090505b5090508281600081518110611adb57611ada612c88565b5b60200260200101818152505080915050919050565b505050505050565b505050505050565b611b1f8473ffffffffffffffffffffffffffffffffffffffff16611eae565b15611ccf578373ffffffffffffffffffffffffffffffffffffffff1663f23a6e6187878686866040518663ffffffff1660e01b8152600401611b65959493929190613335565b6020604051808303816000875af1925050508015611ba157506040513d601f19601f82011682018060405250810190611b9e91906133a4565b60015b611c4657611bad6133de565b806308c379a003611c095750611bc1613400565b80611bcc5750611c0b565b806040517f08c379a0000000000000000000000000000000000000000000000000000000008152600401611c009190612385565b60405180910390fd5b505b6040517f08c379a0000000000000000000000000000000000000000000000000000000008152600401611c3d90613502565b60405180910390fd5b63f23a6e6160e01b7bffffffffffffffffffffffffffffffffffffffffffffffffffffffff1916817bffffffffffffffffffffffffffffffffffffffffffffffffffffffff191614611ccd576040517f08c379a0000000000000000000000000000000000000000000000000000000008152600401611cc490613594565b60405180910390fd5b505b505050505050565b611cf68473ffffffffffffffffffffffffffffffffffffffff16611eae565b15611ea6578373ffffffffffffffffffffffffffffffffffffffff1663bc197c8187878686866040518663ffffffff1660e01b8152600401611d3c9594939291906135b4565b6020604051808303816000875af1925050508015611d7857506040513d601f19601f82011682018060405250810190611d7591906133a4565b60015b611e1d57611d846133de565b806308c379a003611de05750611d98613400565b80611da35750611de2565b806040517f08c379a0000000000000000000000000000000000000000000000000000000008152600401611dd79190612385565b60405180910390fd5b505b6040517f08c379a0000000000000000000000000000000000000000000000000000000008152600401611e1490613502565b60405180910390fd5b63bc197c8160e01b7bffffffffffffffffffffffffffffffffffffffffffffffffffffffff1916817bffffffffffffffffffffffffffffffffffffffffffffffffffffffff191614611ea4576040517f08c379a0000000000000000000000000000000000000000000000000000000008152600401611e9b90613594565b60405180910390fd5b505b505050505050565b6000808273ffffffffffffffffffffffffffffffffffffffff163b119050919050565b828054611edd90612b33565b90600052602060002090601f016020900481019282611eff5760008555611f46565b82601f10611f1857805160ff1916838001178555611f46565b82800160010185558215611f46579182015b82811115611f45578251825591602001919060010190611f2a565b5b509050611f539190611f57565b5090565b5b80821115611f70576000816000905550600101611f58565b5090565b6000604051905090565b600080fd5b600080fd5b600073ffffffffffffffffffffffffffffffffffffffff82169050919050565b6000611fb382611f88565b9050919050565b611fc381611fa8565b8114611fce57600080fd5b50565b600081359050611fe081611fba565b92915050565b6000819050919050565b611ff981611fe6565b811461200457600080fd5b50565b60008135905061201681611ff0565b92915050565b6000806040838503121561203357612032611f7e565b5b600061204185828601611fd1565b925050602061205285828601612007565b9150509250929050565b61206581611fe6565b82525050565b6000602082019050612080600083018461205c565b92915050565b60007fffffffff0000000000000000000000000000000000000000000000000000000082169050919050565b6120bb81612086565b81146120c657600080fd5b50565b6000813590506120d8816120b2565b92915050565b6000602082840312156120f4576120f3611f7e565b5b6000612102848285016120c9565b91505092915050565b60008115159050919050565b6121208161210b565b82525050565b600060208201905061213b6000830184612117565b92915050565b600080fd5b600080fd5b6000601f19601f8301169050919050565b7f4e487b7100000000000000000000000000000000000000000000000000000000600052604160045260246000fd5b6121948261214b565b810181811067ffffffffffffffff821117156121b3576121b261215c565b5b80604052505050565b60006121c6611f74565b90506121d2828261218b565b919050565b600067ffffffffffffffff8211156121f2576121f161215c565b5b6121fb8261214b565b9050602081019050919050565b82818337600083830152505050565b600061222a612225846121d7565b6121bc565b90508281526020810184848401111561224657612245612146565b5b612251848285612208565b509392505050565b600082601f83011261226e5761226d612141565b5b813561227e848260208601612217565b91505092915050565b60006020828403121561229d5761229c611f7e565b5b600082013567ffffffffffffffff8111156122bb576122ba611f83565b5b6122c784828501612259565b91505092915050565b6000602082840312156122e6576122e5611f7e565b5b60006122f484828501612007565b91505092915050565b600081519050919050565b600082825260208201905092915050565b60005b8381101561233757808201518184015260208101905061231c565b83811115612346576000848401525b50505050565b6000612357826122fd565b6123618185612308565b9350612371818560208601612319565b61237a8161214b565b840191505092915050565b6000602082019050818103600083015261239f818461234c565b905092915050565b6000806000606084860312156123c0576123bf611f7e565b5b60006123ce86828701611fd1565b93505060206123df86828701612007565b92505060406123f086828701612007565b9150509250925092565b600067ffffffffffffffff8211156124155761241461215c565b5b602082029050602081019050919050565b600080fd5b600061243e612439846123fa565b6121bc565b9050808382526020820190506020840283018581111561246157612460612426565b5b835b8181101561248a57806124768882612007565b845260208401935050602081019050612463565b5050509392505050565b600082601f8301126124a9576124a8612141565b5b81356124b984826020860161242b565b91505092915050565b600067ffffffffffffffff8211156124dd576124dc61215c565b5b6124e68261214b565b9050602081019050919050565b6000612506612501846124c2565b6121bc565b90508281526020810184848401111561252257612521612146565b5b61252d848285612208565b509392505050565b600082601f83011261254a57612549612141565b5b813561255a8482602086016124f3565b91505092915050565b600080600080600060a0868803121561257f5761257e611f7e565b5b600061258d88828901611fd1565b955050602061259e88828901611fd1565b945050604086013567ffffffffffffffff8111156125bf576125be611f83565b5b6125cb88828901612494565b935050606086013567ffffffffffffffff8111156125ec576125eb611f83565b5b6125f888828901612494565b925050608086013567ffffffffffffffff81111561261957612618611f83565b5b61262588828901612535565b9150509295509295909350565b600067ffffffffffffffff82111561264d5761264c61215c565b5b602082029050602081019050919050565b600061267161266c84612632565b6121bc565b9050808382526020820190506020840283018581111561269457612693612426565b5b835b818110156126bd57806126a98882611fd1565b845260208401935050602081019050612696565b5050509392505050565b600082601f8301126126dc576126db612141565b5b81356126ec84826020860161265e565b91505092915050565b6000806040838503121561270c5761270b611f7e565b5b600083013567ffffffffffffffff81111561272a57612729611f83565b5b612736858286016126c7565b925050602083013567ffffffffffffffff81111561275757612756611f83565b5b61276385828601612494565b9150509250929050565b600081519050919050565b600082825260208201905092915050565b6000819050602082019050919050565b6127a281611fe6565b82525050565b60006127b48383612799565b60208301905092915050565b6000602082019050919050565b60006127d88261276d565b6127e28185612778565b93506127ed83612789565b8060005b8381101561281e57815161280588826127a8565b9750612810836127c0565b9250506001810190506127f1565b5085935050505092915050565b6000602082019050818103600083015261284581846127cd565b905092915050565b60008060006060848603121561286657612865611f7e565b5b600061287486828701611fd1565b935050602084013567ffffffffffffffff81111561289557612894611f83565b5b6128a186828701612494565b925050604084013567ffffffffffffffff8111156128c2576128c1611f83565b5b6128ce86828701612494565b9150509250925092565b6128e181611fa8565b82525050565b60006020820190506128fc60008301846128d8565b92915050565b61290b8161210b565b811461291657600080fd5b50565b60008135905061292881612902565b92915050565b6000806040838503121561294557612944611f7e565b5b600061295385828601611fd1565b925050602061296485828601612919565b9150509250929050565b6000806040838503121561298557612984611f7e565b5b600061299385828601611fd1565b92505060206129a485828601611fd1565b9150509250929050565b600080600080600060a086880312156129ca576129c9611f7e565b5b60006129d888828901611fd1565b95505060206129e988828901611fd1565b94505060406129fa88828901612007565b9350506060612a0b88828901612007565b925050608086013567ffffffffffffffff811115612a2c57612a2b611f83565b5b612a3888828901612535565b9150509295509295909350565b600060208284031215612a5b57612a5a611f7e565b5b6000612a6984828501611fd1565b91505092915050565b7f455243313135353a2061646472657373207a65726f206973206e6f742061207660008201527f616c6964206f776e657200000000000000000000000000000000000000000000602082015250565b6000612ace602a83612308565b9150612ad982612a72565b604082019050919050565b60006020820190508181036000830152612afd81612ac1565b9050919050565b7f4e487b7100000000000000000000000000000000000000000000000000000000600052602260045260246000fd5b60006002820490506001821680612b4b57607f821691505b602082108103612b5e57612b5d612b04565b5b50919050565b7f455243313135353a2063616c6c6572206973206e6f7420746f6b656e206f776e60008201527f6572206e6f7220617070726f7665640000000000000000000000000000000000602082015250565b6000612bc0602f83612308565b9150612bcb82612b64565b604082019050919050565b60006020820190508181036000830152612bef81612bb3565b9050919050565b7f455243313135353a206163636f756e747320616e6420696473206c656e67746860008201527f206d69736d617463680000000000000000000000000000000000000000000000602082015250565b6000612c52602983612308565b9150612c5d82612bf6565b604082019050919050565b60006020820190508181036000830152612c8181612c45565b9050919050565b7f4e487b7100000000000000000000000000000000000000000000000000000000600052603260045260246000fd5b7f4e487b7100000000000000000000000000000000000000000000000000000000600052601160045260246000fd5b6000612cf182611fe6565b91507fffffffffffffffffffffffffffffffffffffffffffffffffffffffffffffffff8203612d2357612d22612cb7565b5b600182019050919050565b7f4f776e61626c653a206e6577206f776e657220697320746865207a65726f206160008201527f6464726573730000000000000000000000000000000000000000000000000000602082015250565b6000612d8a602683612308565b9150612d9582612d2e565b604082019050919050565b60006020820190508181036000830152612db981612d7d565b9050919050565b7f4f776e61626c653a2063616c6c6572206973206e6f7420746865206f776e6572600082015250565b6000612df6602083612308565b9150612e0182612dc0565b602082019050919050565b60006020820190508181036000830152612e2581612de9565b9050919050565b7f455243313135353a206d696e7420746f20746865207a65726f2061646472657360008201527f7300000000000000000000000000000000000000000000000000000000000000602082015250565b6000612e88602183612308565b9150612e9382612e2c565b604082019050919050565b60006020820190508181036000830152612eb781612e7b565b9050919050565b6000612ec982611fe6565b9150612ed483611fe6565b9250827fffffffffffffffffffffffffffffffffffffffffffffffffffffffffffffffff03821115612f0957612f08612cb7565b5b828201905092915050565b6000604082019050612f29600083018561205c565b612f36602083018461205c565b9392505050565b7f455243313135353a2069647320616e6420616d6f756e7473206c656e6774682060008201527f6d69736d61746368000000000000000000000000000000000000000000000000602082015250565b6000612f99602883612308565b9150612fa482612f3d565b604082019050919050565b60006020820190508181036000830152612fc881612f8c565b9050919050565b7f455243313135353a207472616e7366657220746f20746865207a65726f20616460008201527f6472657373000000000000000000000000000000000000000000000000000000602082015250565b600061302b602583612308565b915061303682612fcf565b604082019050919050565b6000602082019050818103600083015261305a8161301e565b9050919050565b7f455243313135353a20696e73756666696369656e742062616c616e636520666f60008201527f72207472616e7366657200000000000000000000000000000000000000000000602082015250565b60006130bd602a83612308565b91506130c882613061565b604082019050919050565b600060208201905081810360008301526130ec816130b0565b9050919050565b6000604082019050818103600083015261310d81856127cd565b9050818103602083015261312181846127cd565b90509392505050565b7f455243313135353a206275726e2066726f6d20746865207a65726f206164647260008201527f6573730000000000000000000000000000000000000000000000000000000000602082015250565b6000613186602383612308565b91506131918261312a565b604082019050919050565b600060208201905081810360008301526131b581613179565b9050919050565b7f455243313135353a206275726e20616d6f756e7420657863656564732062616c60008201527f616e636500000000000000000000000000000000000000000000000000000000602082015250565b6000613218602483612308565b9150613223826131bc565b604082019050919050565b600060208201905081810360008301526132478161320b565b9050919050565b7f455243313135353a2073657474696e6720617070726f76616c2073746174757360008201527f20666f722073656c660000000000000000000000000000000000000000000000602082015250565b60006132aa602983612308565b91506132b58261324e565b604082019050919050565b600060208201905081810360008301526132d98161329d565b9050919050565b600081519050919050565b600082825260208201905092915050565b6000613307826132e0565b61331181856132eb565b9350613321818560208601612319565b61332a8161214b565b840191505092915050565b600060a08201905061334a60008301886128d8565b61335760208301876128d8565b613364604083018661205c565b613371606083018561205c565b818103608083015261338381846132fc565b90509695505050505050565b60008151905061339e816120b2565b92915050565b6000602082840312156133ba576133b9611f7e565b5b60006133c88482850161338f565b91505092915050565b60008160e01c9050919050565b600060033d11156133fd5760046000803e6133fa6000516133d1565b90505b90565b600060443d1061348d57613412611f74565b60043d036004823e80513d602482011167ffffffffffffffff8211171561343a57505061348d565b808201805167ffffffffffffffff811115613458575050505061348d565b80602083010160043d03850181111561347557505050505061348d565b6134848260200185018661218b565b82955050505050505b90565b7f455243313135353a207472616e7366657220746f206e6f6e204552433131353560008201527f526563656976657220696d706c656d656e746572000000000000000000000000602082015250565b60006134ec603483612308565b91506134f782613490565b604082019050919050565b6000602082019050818103600083015261351b816134df565b9050919050565b7f455243313135353a204552433131353552656365697665722072656a6563746560008201527f6420746f6b656e73000000000000000000000000000000000000000000000000602082015250565b600061357e602883612308565b915061358982613522565b604082019050919050565b600060208201905081810360008301526135ad81613571565b9050919050565b600060a0820190506135c960008301886128d8565b6135d660208301876128d8565b81810360408301526135e881866127cd565b905081810360608301526135fc81856127cd565b9050818103608083015261361081846132fc565b9050969550505050505056fea2646970667358221220985d8f45c3e4dba3e3095d90fc3755c63193d16cae48af4a33256b7c00c2c4a664736f6c634300080e0033a26469706673582212204e11d5fa552a1b838dc868870b71cca40f64873bf80f79c1e4b8810ba9e3078b64736f6c634300080e0033",
    "devdoc": {
        "kind": "dev",
        "methods": {
            "owner()": {
                "details": "Returns the address of the current owner."
            },
            "renounceOwnership()": {
                "details": "Leaves the contract without owner. It will not be possible to call `onlyOwner` functions anymore. Can only be called by the current owner. NOTE: Renouncing ownership will leave the contract without an owner, thereby removing any functionality that is only available to the owner."
            },
            "transferOwnership(address)": {
                "details": "Transfers ownership of the contract to a new account (`newOwner`). Can only be called by the current owner."
            }
        },
        "version": 1
    },
    "userdoc": {
        "kind": "user",
        "methods": {},
        "version": 1
    },
    "storageLayout": {
        "storage": [
            {
                "astId": 123,
                "contract": "contracts/FinesseMarketplaceControllor.sol:FinesseCollectionControllor",
                "label": "_status",
                "offset": 0,
                "slot": "0",
                "type": "t_uint256"
            },
            {
                "astId": 7,
                "contract": "contracts/FinesseMarketplaceControllor.sol:FinesseCollectionControllor",
                "label": "_owner",
                "offset": 0,
                "slot": "1",
                "type": "t_address"
            },
            {
                "astId": 3687,
                "contract": "contracts/FinesseMarketplaceControllor.sol:FinesseCollectionControllor",
                "label": "CR",
                "offset": 0,
                "slot": "2",
                "type": "t_contract(FinesseCratorCR)3673"
            },
            {
                "astId": 3690,
                "contract": "contracts/FinesseMarketplaceControllor.sol:FinesseCollectionControllor",
                "label": "NCR",
                "offset": 0,
                "slot": "3",
                "type": "t_contract(FinesseCratorNCR)4119"
            },
            {
                "astId": 3693,
                "contract": "contracts/FinesseMarketplaceControllor.sol:FinesseCollectionControllor",
                "label": "CRCrator",
                "offset": 0,
                "slot": "4",
                "type": "t_contract(FinesseCratorCR)3673"
            },
            {
                "astId": 3696,
                "contract": "contracts/FinesseMarketplaceControllor.sol:FinesseCollectionControllor",
                "label": "NCRCrator",
                "offset": 0,
                "slot": "5",
                "type": "t_contract(FinesseCratorNCR)4119"
            },
            {
                "astId": 3698,
                "contract": "contracts/FinesseMarketplaceControllor.sol:FinesseCollectionControllor",
                "label": "TotalContractNum",
                "offset": 0,
                "slot": "6",
                "type": "t_uint256"
            },
            {
                "astId": 3700,
                "contract": "contracts/FinesseMarketplaceControllor.sol:FinesseCollectionControllor",
                "label": "TotalNCRContract",
                "offset": 0,
                "slot": "7",
                "type": "t_uint256"
            },
            {
                "astId": 3702,
                "contract": "contracts/FinesseMarketplaceControllor.sol:FinesseCollectionControllor",
                "label": "TotalCRContract",
                "offset": 0,
                "slot": "8",
                "type": "t_uint256"
            },
            {
                "astId": 3712,
                "contract": "contracts/FinesseMarketplaceControllor.sol:FinesseCollectionControllor",
                "label": "collectionContractList",
                "offset": 0,
                "slot": "9",
                "type": "t_mapping(t_address,t_struct(ownerstruct)3707_storage)"
            }
        ],
        "types": {
            "t_address": {
                "encoding": "inplace",
                "label": "address",
                "numberOfBytes": "20"
            },
            "t_contract(FinesseCratorCR)3673": {
                "encoding": "inplace",
                "label": "contract FinesseCratorCR",
                "numberOfBytes": "20"
            },
            "t_contract(FinesseCratorNCR)4119": {
                "encoding": "inplace",
                "label": "contract FinesseCratorNCR",
                "numberOfBytes": "20"
            },
            "t_mapping(t_address,t_struct(ownerstruct)3707_storage)": {
                "encoding": "mapping",
                "key": "t_address",
                "label": "mapping(address => struct FinesseCollectionControllor.ownerstruct)",
                "numberOfBytes": "32",
                "value": "t_struct(ownerstruct)3707_storage"
            },
            "t_struct(ownerstruct)3707_storage": {
                "encoding": "inplace",
                "label": "struct FinesseCollectionControllor.ownerstruct",
                "members": [
                    {
                        "astId": 3704,
                        "contract": "contracts/FinesseMarketplaceControllor.sol:FinesseCollectionControllor",
                        "label": "owner",
                        "offset": 0,
                        "slot": "0",
                        "type": "t_address"
                    },
                    {
                        "astId": 3706,
                        "contract": "contracts/FinesseMarketplaceControllor.sol:FinesseCollectionControllor",
                        "label": "typeofcollection",
                        "offset": 20,
                        "slot": "0",
                        "type": "t_uint8"
                    }
                ],
                "numberOfBytes": "32"
            },
            "t_uint256": {
                "encoding": "inplace",
                "label": "uint256",
                "numberOfBytes": "32"
            },
            "t_uint8": {
                "encoding": "inplace",
                "label": "uint8",
                "numberOfBytes": "1"
            }
        }
    }
}