{
  "address": "0x4D68e403787842D2AC1a953696F320881b9401D7",
  "abi": [
    {
      "inputs": [],
      "stateMutability": "nonpayable",
      "type": "constructor"
    },
    {
      "inputs": [],
      "name": "Contract__Created",
      "type": "error"
    },
    {
      "anonymous": false,
      "inputs": [
        {
          "indexed": true,
          "internalType": "address",
          "name": "creatoraddress",
          "type": "address"
        },
        {
          "indexed": true,
          "internalType": "address",
          "name": "collectionaddress",
          "type": "address"
        }
      ],
      "name": "CollectionCreated",
      "type": "event"
    },
    {
      "anonymous": false,
      "inputs": [
        {
          "indexed": true,
          "internalType": "address",
          "name": "previousOwner",
          "type": "address"
        },
        {
          "indexed": true,
          "internalType": "address",
          "name": "newOwner",
          "type": "address"
        }
      ],
      "name": "OwnershipTransferred",
      "type": "event"
    },
    {
      "inputs": [],
      "name": "STCrator",
      "outputs": [
        {
          "internalType": "contract Signetors",
          "name": "",
          "type": "address"
        }
      ],
      "stateMutability": "view",
      "type": "function"
    },
    {
      "inputs": [],
      "name": "TotalSignetorsNum",
      "outputs": [
        {
          "internalType": "uint256",
          "name": "",
          "type": "uint256"
        }
      ],
      "stateMutability": "view",
      "type": "function"
    },
    {
      "inputs": [
        {
          "internalType": "address",
          "name": "",
          "type": "address"
        }
      ],
      "name": "collectionContractList",
      "outputs": [
        {
          "internalType": "address",
          "name": "owner",
          "type": "address"
        }
      ],
      "stateMutability": "view",
      "type": "function"
    },
    {
      "inputs": [
        {
          "internalType": "string",
          "name": "_name",
          "type": "string"
        },
        {
          "internalType": "string",
          "name": "_symbol",
          "type": "string"
        }
      ],
      "name": "controllorCreateSignetor",
      "outputs": [],
      "stateMutability": "nonpayable",
      "type": "function"
    },
    {
      "inputs": [
        {
          "internalType": "address",
          "name": "contractOwner",
          "type": "address"
        }
      ],
      "name": "getOwnerContractForSignetor",
      "outputs": [
        {
          "internalType": "address",
          "name": "",
          "type": "address"
        }
      ],
      "stateMutability": "view",
      "type": "function"
    },
    {
      "inputs": [
        {
          "internalType": "address",
          "name": "contractOwner",
          "type": "address"
        }
      ],
      "name": "getOwnerNumContractOfSignetor",
      "outputs": [
        {
          "internalType": "uint256",
          "name": "",
          "type": "uint256"
        }
      ],
      "stateMutability": "view",
      "type": "function"
    },
    {
      "inputs": [],
      "name": "owner",
      "outputs": [
        {
          "internalType": "address",
          "name": "",
          "type": "address"
        }
      ],
      "stateMutability": "view",
      "type": "function"
    },
    {
      "inputs": [],
      "name": "renounceOwnership",
      "outputs": [],
      "stateMutability": "nonpayable",
      "type": "function"
    },
    {
      "inputs": [],
      "name": "sSignetor",
      "outputs": [
        {
          "internalType": "contract Signetor",
          "name": "",
          "type": "address"
        }
      ],
      "stateMutability": "view",
      "type": "function"
    },
    {
      "inputs": [
        {
          "internalType": "address",
          "name": "addr",
          "type": "address"
        },
        {
          "internalType": "string",
          "name": "tokenURI_",
          "type": "string"
        }
      ],
      "name": "sendmessage",
      "outputs": [
        {
          "internalType": "bool",
          "name": "success",
          "type": "bool"
        }
      ],
      "stateMutability": "nonpayable",
      "type": "function"
    },
    {
      "inputs": [
        {
          "internalType": "address",
          "name": "newOwner",
          "type": "address"
        }
      ],
      "name": "transferOwnership",
      "outputs": [],
      "stateMutability": "nonpayable",
      "type": "function"
    }
  ],
  "transactionHash": "0x9f7ba931c324b7b418aa1f20f06bd1c9cefeb221dc38f6f58b818d230344d023",
  "args": [],
  "numDeployments": 3,
  "solcInputHash": "e7fa2c777f0e75ddc9b09fecf22f591d",
  "bytecode": "0x60806040523480156200001157600080fd5b5060016000819055506200003a6200002e6200018060201b60201c565b6200018860201b60201c565b60405162000048906200024e565b604051809103906000f08015801562000065573d6000803e3d6000fd5b50600360006101000a81548173ffffffffffffffffffffffffffffffffffffffff021916908373ffffffffffffffffffffffffffffffffffffffff160217905550600360009054906101000a900473ffffffffffffffffffffffffffffffffffffffff1673ffffffffffffffffffffffffffffffffffffffff166366d11c1a6040518163ffffffff1660e01b8152600401602060405180830381865afa15801562000114573d6000803e3d6000fd5b505050506040513d601f19601f820116820180604052508101906200013a9190620002c6565b600460006101000a81548173ffffffffffffffffffffffffffffffffffffffff021916908373ffffffffffffffffffffffffffffffffffffffff160217905550620002f8565b600033905090565b6000600160009054906101000a900473ffffffffffffffffffffffffffffffffffffffff16905081600160006101000a81548173ffffffffffffffffffffffffffffffffffffffff021916908373ffffffffffffffffffffffffffffffffffffffff1602179055508173ffffffffffffffffffffffffffffffffffffffff168173ffffffffffffffffffffffffffffffffffffffff167f8be0079c531659141344cd1fd0a4f28419497f9722a3daafe3b4186f6b6457e060405160405180910390a35050565b61440080620013d783390190565b600080fd5b600073ffffffffffffffffffffffffffffffffffffffff82169050919050565b60006200028e8262000261565b9050919050565b620002a08162000281565b8114620002ac57600080fd5b50565b600081519050620002c08162000295565b92915050565b600060208284031215620002df57620002de6200025c565b5b6000620002ef84828501620002af565b91505092915050565b6110cf80620003086000396000f3fe608060405234801561001057600080fd5b50600436106100a95760003560e01c80638a68b229116100715780638a68b229146101525780638da5cb5b146101705780639679a3c81461018e5780639f71d03c146101be578063d8fb768b146101ee578063f2fde38b1461020c576100a9565b80632ff1f928146100ae5780633958b30f146100cc5780635a9eb289146100e8578063715018a6146101185780638143c1f514610122575b600080fd5b6100b6610228565b6040516100c3919061098c565b60405180910390f35b6100e660048036038101906100e19190610b01565b61024e565b005b61010260048036038101906100fd9190610bb7565b610463565b60405161010f9190610c2e565b60405180910390f35b61012061053d565b005b61013c60048036038101906101379190610c49565b610551565b6040516101499190610c8f565b60405180910390f35b61015a6105fb565b6040516101679190610ccb565b60405180910390f35b610178610621565b6040516101859190610cf5565b60405180910390f35b6101a860048036038101906101a39190610c49565b61064b565b6040516101b59190610cf5565b60405180910390f35b6101d860048036038101906101d39190610c49565b6106fa565b6040516101e59190610cf5565b60405180910390f35b6101f6610738565b6040516102039190610c8f565b60405180910390f35b61022660048036038101906102219190610c49565b61073e565b005b600460009054906101000a900473ffffffffffffffffffffffffffffffffffffffff1681565b600061025933610551565b14610290576040517f43d73cc300000000000000000000000000000000000000000000000000000000815260040160405180910390fd5b6000600460009054906101000a900473ffffffffffffffffffffffffffffffffffffffff1673ffffffffffffffffffffffffffffffffffffffff16632bb85f6b8484336040518463ffffffff1660e01b81526004016102f193929190610d98565b6060604051808303816000875af1158015610310573d6000803e3d6000fd5b505050506040513d601f19601f820116820180604052508101906103349190610e1e565b509150506005600081548092919061034b90610ea0565b9190505550600060405180602001604052803373ffffffffffffffffffffffffffffffffffffffff16815250905080600660008473ffffffffffffffffffffffffffffffffffffffff1673ffffffffffffffffffffffffffffffffffffffff16815260200190815260200160002060008201518160000160006101000a81548173ffffffffffffffffffffffffffffffffffffffff021916908373ffffffffffffffffffffffffffffffffffffffff1602179055509050508173ffffffffffffffffffffffffffffffffffffffff163373ffffffffffffffffffffffffffffffffffffffff167f5d0de243db1669e3a7056744cd715c625f0c1c348736c2c2d53d0ddebff1a6c760405160405180910390a350505050565b600082600260006101000a81548173ffffffffffffffffffffffffffffffffffffffff021916908373ffffffffffffffffffffffffffffffffffffffff160217905550600260009054906101000a900473ffffffffffffffffffffffffffffffffffffffff1673ffffffffffffffffffffffffffffffffffffffff166323cbe4d6836040518263ffffffff1660e01b81526004016105019190610ee8565b600060405180830381600087803b15801561051b57600080fd5b505af115801561052f573d6000803e3d6000fd5b505050506001905092915050565b6105456107c1565b61054f600061083f565b565b600080600460009054906101000a900473ffffffffffffffffffffffffffffffffffffffff1673ffffffffffffffffffffffffffffffffffffffff16635c284dc0846040518263ffffffff1660e01b81526004016105af9190610cf5565b602060405180830381865afa1580156105cc573d6000803e3d6000fd5b505050506040513d601f19601f820116820180604052508101906105f09190610f0a565b905080915050919050565b600260009054906101000a900473ffffffffffffffffffffffffffffffffffffffff1681565b6000600160009054906101000a900473ffffffffffffffffffffffffffffffffffffffff16905090565b600080600460009054906101000a900473ffffffffffffffffffffffffffffffffffffffff1673ffffffffffffffffffffffffffffffffffffffff16636f7fd7ab6000856040518363ffffffff1660e01b81526004016106ac929190610f72565b606060405180830381865afa1580156106c9573d6000803e3d6000fd5b505050506040513d601f19601f820116820180604052508101906106ed9190610e1e565b5091505080915050919050565b60066020528060005260406000206000915090508060000160009054906101000a900473ffffffffffffffffffffffffffffffffffffffff16905081565b60055481565b6107466107c1565b600073ffffffffffffffffffffffffffffffffffffffff168173ffffffffffffffffffffffffffffffffffffffff16036107b5576040517f08c379a00000000000000000000000000000000000000000000000000000000081526004016107ac9061100d565b60405180910390fd5b6107be8161083f565b50565b6107c9610905565b73ffffffffffffffffffffffffffffffffffffffff166107e7610621565b73ffffffffffffffffffffffffffffffffffffffff161461083d576040517f08c379a000000000000000000000000000000000000000000000000000000000815260040161083490611079565b60405180910390fd5b565b6000600160009054906101000a900473ffffffffffffffffffffffffffffffffffffffff16905081600160006101000a81548173ffffffffffffffffffffffffffffffffffffffff021916908373ffffffffffffffffffffffffffffffffffffffff1602179055508173ffffffffffffffffffffffffffffffffffffffff168173ffffffffffffffffffffffffffffffffffffffff167f8be0079c531659141344cd1fd0a4f28419497f9722a3daafe3b4186f6b6457e060405160405180910390a35050565b600033905090565b600073ffffffffffffffffffffffffffffffffffffffff82169050919050565b6000819050919050565b600061095261094d6109488461090d565b61092d565b61090d565b9050919050565b600061096482610937565b9050919050565b600061097682610959565b9050919050565b6109868161096b565b82525050565b60006020820190506109a1600083018461097d565b92915050565b6000604051905090565b600080fd5b600080fd5b600080fd5b600080fd5b6000601f19601f8301169050919050565b7f4e487b7100000000000000000000000000000000000000000000000000000000600052604160045260246000fd5b610a0e826109c5565b810181811067ffffffffffffffff82111715610a2d57610a2c6109d6565b5b80604052505050565b6000610a406109a7565b9050610a4c8282610a05565b919050565b600067ffffffffffffffff821115610a6c57610a6b6109d6565b5b610a75826109c5565b9050602081019050919050565b82818337600083830152505050565b6000610aa4610a9f84610a51565b610a36565b905082815260208101848484011115610ac057610abf6109c0565b5b610acb848285610a82565b509392505050565b600082601f830112610ae857610ae76109bb565b5b8135610af8848260208601610a91565b91505092915050565b60008060408385031215610b1857610b176109b1565b5b600083013567ffffffffffffffff811115610b3657610b356109b6565b5b610b4285828601610ad3565b925050602083013567ffffffffffffffff811115610b6357610b626109b6565b5b610b6f85828601610ad3565b9150509250929050565b6000610b848261090d565b9050919050565b610b9481610b79565b8114610b9f57600080fd5b50565b600081359050610bb181610b8b565b92915050565b60008060408385031215610bce57610bcd6109b1565b5b6000610bdc85828601610ba2565b925050602083013567ffffffffffffffff811115610bfd57610bfc6109b6565b5b610c0985828601610ad3565b9150509250929050565b60008115159050919050565b610c2881610c13565b82525050565b6000602082019050610c436000830184610c1f565b92915050565b600060208284031215610c5f57610c5e6109b1565b5b6000610c6d84828501610ba2565b91505092915050565b6000819050919050565b610c8981610c76565b82525050565b6000602082019050610ca46000830184610c80565b92915050565b6000610cb582610959565b9050919050565b610cc581610caa565b82525050565b6000602082019050610ce06000830184610cbc565b92915050565b610cef81610b79565b82525050565b6000602082019050610d0a6000830184610ce6565b92915050565b600081519050919050565b600082825260208201905092915050565b60005b83811015610d4a578082015181840152602081019050610d2f565b83811115610d59576000848401525b50505050565b6000610d6a82610d10565b610d748185610d1b565b9350610d84818560208601610d2c565b610d8d816109c5565b840191505092915050565b60006060820190508181036000830152610db28186610d5f565b90508181036020830152610dc68185610d5f565b9050610dd56040830184610ce6565b949350505050565b600081519050610dec81610b8b565b92915050565b610dfb81610c76565b8114610e0657600080fd5b50565b600081519050610e1881610df2565b92915050565b600080600060608486031215610e3757610e366109b1565b5b6000610e4586828701610ddd565b9350506020610e5686828701610ddd565b9250506040610e6786828701610e09565b9150509250925092565b7f4e487b7100000000000000000000000000000000000000000000000000000000600052601160045260246000fd5b6000610eab82610c76565b91507fffffffffffffffffffffffffffffffffffffffffffffffffffffffffffffffff8203610edd57610edc610e71565b5b600182019050919050565b60006020820190508181036000830152610f028184610d5f565b905092915050565b600060208284031215610f2057610f1f6109b1565b5b6000610f2e84828501610e09565b91505092915050565b6000819050919050565b6000610f5c610f57610f5284610f37565b61092d565b610c76565b9050919050565b610f6c81610f41565b82525050565b6000604082019050610f876000830185610f63565b610f946020830184610ce6565b9392505050565b7f4f776e61626c653a206e6577206f776e657220697320746865207a65726f206160008201527f6464726573730000000000000000000000000000000000000000000000000000602082015250565b6000610ff7602683610d1b565b915061100282610f9b565b604082019050919050565b6000602082019050818103600083015261102681610fea565b9050919050565b7f4f776e61626c653a2063616c6c6572206973206e6f7420746865206f776e6572600082015250565b6000611063602083610d1b565b915061106e8261102d565b602082019050919050565b6000602082019050818103600083015261109281611056565b905091905056fea2646970667358221220d1c5c0664618971dab51f792534dcff20c5cc7b513030990ccd10a0906d5717064736f6c634300080e0033608060405234801561001057600080fd5b5033600160006101000a81548173ffffffffffffffffffffffffffffffffffffffff021916908373ffffffffffffffffffffffffffffffffffffffff16021790555061006061006560201b60201c565b6100a8565b30600260006101000a81548173ffffffffffffffffffffffffffffffffffffffff021916908373ffffffffffffffffffffffffffffffffffffffff160217905550565b614349806100b76000396000f3fe60806040523480156200001157600080fd5b50600436106200005e5760003560e01c80632bb85f6b14620000635780632cc0a402146200009b5780635c284dc014620000bd57806366d11c1a14620000f35780636f7fd7ab1462000115575b600080fd5b6200008160048036038101906200007b9190620008aa565b6200014d565b604051620000929392919062000970565b60405180910390f35b620000a5620004a9565b604051620000b49190620009ad565b60405180910390f35b620000db6004803603810190620000d59190620009ca565b620004cf565b604051620000ea9190620009fc565b60405180910390f35b620000fd620004ed565b6040516200010c9190620009ad565b60405180910390f35b6200013360048036038101906200012d919062000a4a565b62000513565b604051620001449392919062000970565b60405180910390f35b600080600033600160006101000a81548173ffffffffffffffffffffffffffffffffffffffff021916908373ffffffffffffffffffffffffffffffffffffffff160217905550600080878787600160009054906101000a900473ffffffffffffffffffffffffffffffffffffffff16604051620001ca90620006c1565b620001d9949392919062000b24565b604051809103906000f080158015620001f6573d6000803e3d6000fd5b506000806101000a81548173ffffffffffffffffffffffffffffffffffffffff021916908373ffffffffffffffffffffffffffffffffffffffff16021790555060008054906101000a900473ffffffffffffffffffffffffffffffffffffffff1673ffffffffffffffffffffffffffffffffffffffff1663ffb0958d6040518163ffffffff1660e01b8152600401602060405180830381865afa158015620002a2573d6000803e3d6000fd5b505050506040513d601f19601f82011682018060405250810190620002c8919062000b96565b9150859050600360008773ffffffffffffffffffffffffffffffffffffffff1673ffffffffffffffffffffffffffffffffffffffff1681526020019081526020016000206000016000815480929190620003229062000bf7565b9190505550600060405180606001604052808873ffffffffffffffffffffffffffffffffffffffff1681526020018473ffffffffffffffffffffffffffffffffffffffff168152602001600160ff168152509050600360008873ffffffffffffffffffffffffffffffffffffffff1673ffffffffffffffffffffffffffffffffffffffff16815260200190815260200160002060010181908060018154018082558091505060019003906000526020600020906002020160009091909190915060008201518160000160006101000a81548173ffffffffffffffffffffffffffffffffffffffff021916908373ffffffffffffffffffffffffffffffffffffffff16021790555060208201518160010160006101000a81548173ffffffffffffffffffffffffffffffffffffffff021916908373ffffffffffffffffffffffffffffffffffffffff16021790555060408201518160010160146101000a81548160ff021916908360ff16021790555050508183600195509550955050505093509350939050565b600160009054906101000a900473ffffffffffffffffffffffffffffffffffffffff1681565b60036020528060005260406000206000915090508060000154905081565b600260009054906101000a900473ffffffffffffffffffffffffffffffffffffffff1681565b600080600080600360008673ffffffffffffffffffffffffffffffffffffffff1673ffffffffffffffffffffffffffffffffffffffff168152602001908152602001600020600101868154811062000570576200056f62000c44565b5b906000526020600020906002020160000160009054906101000a900473ffffffffffffffffffffffffffffffffffffffff1690506000600360008773ffffffffffffffffffffffffffffffffffffffff1673ffffffffffffffffffffffffffffffffffffffff1681526020019081526020016000206001018781548110620005fd57620005fc62000c44565b5b906000526020600020906002020160010160009054906101000a900473ffffffffffffffffffffffffffffffffffffffff1690506000600360008873ffffffffffffffffffffffffffffffffffffffff1673ffffffffffffffffffffffffffffffffffffffff16815260200190815260200160002060010188815481106200068a576200068962000c44565b5b906000526020600020906002020160010160149054906101000a900460ff1660ff1690508282829550955095505050509250925092565b6136a08062000c7483390190565b6000604051905090565b600080fd5b600080fd5b600080fd5b600080fd5b6000601f19601f8301169050919050565b7f4e487b7100000000000000000000000000000000000000000000000000000000600052604160045260246000fd5b6200073882620006ed565b810181811067ffffffffffffffff821117156200075a5762000759620006fe565b5b80604052505050565b60006200076f620006cf565b90506200077d82826200072d565b919050565b600067ffffffffffffffff821115620007a0576200079f620006fe565b5b620007ab82620006ed565b9050602081019050919050565b82818337600083830152505050565b6000620007de620007d88462000782565b62000763565b905082815260208101848484011115620007fd57620007fc620006e8565b5b6200080a848285620007b8565b509392505050565b600082601f8301126200082a5762000829620006e3565b5b81356200083c848260208601620007c7565b91505092915050565b600073ffffffffffffffffffffffffffffffffffffffff82169050919050565b6000620008728262000845565b9050919050565b620008848162000865565b81146200089057600080fd5b50565b600081359050620008a48162000879565b92915050565b600080600060608486031215620008c657620008c5620006d9565b5b600084013567ffffffffffffffff811115620008e757620008e6620006de565b5b620008f58682870162000812565b935050602084013567ffffffffffffffff811115620009195762000918620006de565b5b620009278682870162000812565b92505060406200093a8682870162000893565b9150509250925092565b6200094f8162000865565b82525050565b6000819050919050565b6200096a8162000955565b82525050565b600060608201905062000987600083018662000944565b62000996602083018562000944565b620009a560408301846200095f565b949350505050565b6000602082019050620009c4600083018462000944565b92915050565b600060208284031215620009e357620009e2620006d9565b5b6000620009f38482850162000893565b91505092915050565b600060208201905062000a1360008301846200095f565b92915050565b62000a248162000955565b811462000a3057600080fd5b50565b60008135905062000a448162000a19565b92915050565b6000806040838503121562000a645762000a63620006d9565b5b600062000a748582860162000a33565b925050602062000a878582860162000893565b9150509250929050565b600081519050919050565b600082825260208201905092915050565b60005b8381101562000acd57808201518184015260208101905062000ab0565b8381111562000add576000848401525b50505050565b600062000af08262000a91565b62000afc818562000a9c565b935062000b0e81856020860162000aad565b62000b1981620006ed565b840191505092915050565b6000608082019050818103600083015262000b40818762000ae3565b9050818103602083015262000b56818662000ae3565b905062000b67604083018562000944565b62000b76606083018462000944565b95945050505050565b60008151905062000b908162000879565b92915050565b60006020828403121562000baf5762000bae620006d9565b5b600062000bbf8482850162000b7f565b91505092915050565b7f4e487b7100000000000000000000000000000000000000000000000000000000600052601160045260246000fd5b600062000c048262000955565b91507fffffffffffffffffffffffffffffffffffffffffffffffffffffffffffffffff820362000c395762000c3862000bc8565b5b600182019050919050565b7f4e487b7100000000000000000000000000000000000000000000000000000000600052603260045260246000fdfe60806040523480156200001157600080fd5b50604051620036a0380380620036a083398181016040528101906200003791906200060d565b83838160009080519060200190620000519291906200035b565b5080600190805190602001906200006a9291906200035b565b5050506200008d62000081620000f960201b60201c565b6200010160201b60201c565b6200009d620001c760201b60201c565b620000ae826200020a60201b60201c565b80600860006101000a81548173ffffffffffffffffffffffffffffffffffffffff021916908373ffffffffffffffffffffffffffffffffffffffff160217905550505050506200083c565b600033905090565b6000600660009054906101000a900473ffffffffffffffffffffffffffffffffffffffff16905081600660006101000a81548173ffffffffffffffffffffffffffffffffffffffff021916908373ffffffffffffffffffffffffffffffffffffffff1602179055508173ffffffffffffffffffffffffffffffffffffffff168173ffffffffffffffffffffffffffffffffffffffff167f8be0079c531659141344cd1fd0a4f28419497f9722a3daafe3b4186f6b6457e060405160405180910390a35050565b30600760006101000a81548173ffffffffffffffffffffffffffffffffffffffff021916908373ffffffffffffffffffffffffffffffffffffffff160217905550565b6200021a620002a060201b60201c565b600073ffffffffffffffffffffffffffffffffffffffff168173ffffffffffffffffffffffffffffffffffffffff16036200028c576040517f08c379a0000000000000000000000000000000000000000000000000000000008152600401620002839062000744565b60405180910390fd5b6200029d816200010160201b60201c565b50565b620002b0620000f960201b60201c565b73ffffffffffffffffffffffffffffffffffffffff16620002d66200033160201b60201c565b73ffffffffffffffffffffffffffffffffffffffff16146200032f576040517f08c379a00000000000000000000000000000000000000000000000000000000081526004016200032690620007b6565b60405180910390fd5b565b6000600660009054906101000a900473ffffffffffffffffffffffffffffffffffffffff16905090565b828054620003699062000807565b90600052602060002090601f0160209004810192826200038d5760008555620003d9565b82601f10620003a857805160ff1916838001178555620003d9565b82800160010185558215620003d9579182015b82811115620003d8578251825591602001919060010190620003bb565b5b509050620003e89190620003ec565b5090565b5b8082111562000407576000816000905550600101620003ed565b5090565b6000604051905090565b600080fd5b600080fd5b600080fd5b600080fd5b6000601f19601f8301169050919050565b7f4e487b7100000000000000000000000000000000000000000000000000000000600052604160045260246000fd5b620004748262000429565b810181811067ffffffffffffffff821117156200049657620004956200043a565b5b80604052505050565b6000620004ab6200040b565b9050620004b9828262000469565b919050565b600067ffffffffffffffff821115620004dc57620004db6200043a565b5b620004e78262000429565b9050602081019050919050565b60005b8381101562000514578082015181840152602081019050620004f7565b8381111562000524576000848401525b50505050565b6000620005416200053b84620004be565b6200049f565b90508281526020810184848401111562000560576200055f62000424565b5b6200056d848285620004f4565b509392505050565b600082601f8301126200058d576200058c6200041f565b5b81516200059f8482602086016200052a565b91505092915050565b600073ffffffffffffffffffffffffffffffffffffffff82169050919050565b6000620005d582620005a8565b9050919050565b620005e781620005c8565b8114620005f357600080fd5b50565b6000815190506200060781620005dc565b92915050565b600080600080608085870312156200062a576200062962000415565b5b600085015167ffffffffffffffff8111156200064b576200064a6200041a565b5b620006598782880162000575565b945050602085015167ffffffffffffffff8111156200067d576200067c6200041a565b5b6200068b8782880162000575565b93505060406200069e87828801620005f6565b9250506060620006b187828801620005f6565b91505092959194509250565b600082825260208201905092915050565b7f4f776e61626c653a206e6577206f776e657220697320746865207a65726f206160008201527f6464726573730000000000000000000000000000000000000000000000000000602082015250565b60006200072c602683620006bd565b91506200073982620006ce565b604082019050919050565b600060208201905081810360008301526200075f816200071d565b9050919050565b7f4f776e61626c653a2063616c6c6572206973206e6f7420746865206f776e6572600082015250565b60006200079e602083620006bd565b9150620007ab8262000766565b602082019050919050565b60006020820190508181036000830152620007d1816200078f565b9050919050565b7f4e487b7100000000000000000000000000000000000000000000000000000000600052602260045260246000fd5b600060028204905060018216806200082057607f821691505b602082108103620008365762000835620007d8565b5b50919050565b612e54806200084c6000396000f3fe608060405234801561001057600080fd5b50600436106101365760003560e01c806370a08231116100b8578063a22cb4651161007c578063a22cb46514610327578063b88d4fde14610343578063c87b56dd1461035f578063e985e9c51461038f578063f2fde38b146103bf578063ffb0958d146103db57610136565b806370a0823114610293578063715018a6146102c35780638da5cb5b146102cd57806395d89b41146102eb578063975073ba1461030957610136565b806323b872dd116100ff57806323b872dd146101f357806323cbe4d61461020f57806342842e0e1461022b57806355f804b3146102475780636352211e1461026357610136565b806204586c1461013b57806301ffc9a71461015957806306fdde0314610189578063081812fc146101a7578063095ea7b3146101d7575b600080fd5b6101436103f9565b6040516101509190611c56565b60405180910390f35b610173600480360381019061016e9190611cdd565b6103ff565b6040516101809190611d25565b60405180910390f35b6101916104e1565b60405161019e9190611dd9565b60405180910390f35b6101c160048036038101906101bc9190611e27565b610573565b6040516101ce9190611e95565b60405180910390f35b6101f160048036038101906101ec9190611edc565b6105b9565b005b61020d60048036038101906102089190611f1c565b6106d0565b005b610229600480360381019061022491906120a4565b610730565b005b61024560048036038101906102409190611f1c565b6107f7565b005b610261600480360381019061025c91906120a4565b610817565b005b61027d60048036038101906102789190611e27565b610839565b60405161028a9190611e95565b60405180910390f35b6102ad60048036038101906102a891906120ed565b6108ea565b6040516102ba9190611c56565b60405180910390f35b6102cb6109a1565b005b6102d56109b5565b6040516102e29190611e95565b60405180910390f35b6102f36109df565b6040516103009190611dd9565b60405180910390f35b610311610a71565b60405161031e9190611e95565b60405180910390f35b610341600480360381019061033c9190612146565b610a97565b005b61035d60048036038101906103589190612227565b610aad565b005b61037960048036038101906103749190611e27565b610b0f565b6040516103869190611dd9565b60405180910390f35b6103a960048036038101906103a491906122aa565b610c81565b6040516103b69190611d25565b60405180910390f35b6103d960048036038101906103d491906120ed565b610d15565b005b6103e3610d98565b6040516103f09190611e95565b60405180910390f35b60095481565b60007f80ac58cd000000000000000000000000000000000000000000000000000000007bffffffffffffffffffffffffffffffffffffffffffffffffffffffff1916827bffffffffffffffffffffffffffffffffffffffffffffffffffffffff191614806104ca57507f5b5e139f000000000000000000000000000000000000000000000000000000007bffffffffffffffffffffffffffffffffffffffffffffffffffffffff1916827bffffffffffffffffffffffffffffffffffffffffffffffffffffffff1916145b806104da57506104d982610dbe565b5b9050919050565b6060600080546104f090612319565b80601f016020809104026020016040519081016040528092919081815260200182805461051c90612319565b80156105695780601f1061053e57610100808354040283529160200191610569565b820191906000526020600020905b81548152906001019060200180831161054c57829003601f168201915b5050505050905090565b600061057e82610e28565b6004600083815260200190815260200160002060009054906101000a900473ffffffffffffffffffffffffffffffffffffffff169050919050565b60006105c482610839565b90508073ffffffffffffffffffffffffffffffffffffffff168373ffffffffffffffffffffffffffffffffffffffff1603610634576040517f08c379a000000000000000000000000000000000000000000000000000000000815260040161062b906123bc565b60405180910390fd5b8073ffffffffffffffffffffffffffffffffffffffff16610653610e73565b73ffffffffffffffffffffffffffffffffffffffff16148061068257506106818161067c610e73565b610c81565b5b6106c1576040517f08c379a00000000000000000000000000000000000000000000000000000000081526004016106b89061244e565b60405180910390fd5b6106cb8383610e7b565b505050565b6106e16106db610e73565b82610f34565b610720576040517f08c379a0000000000000000000000000000000000000000000000000000000008152600401610717906124e0565b60405180910390fd5b61072b838383610fc9565b505050565b600860009054906101000a900473ffffffffffffffffffffffffffffffffffffffff1673ffffffffffffffffffffffffffffffffffffffff163373ffffffffffffffffffffffffffffffffffffffff16146107b7576040517f3cfd317500000000000000000000000000000000000000000000000000000000815260040160405180910390fd5b600960008154809291906107ca9061252f565b919050555060006107d96109b5565b90506107e78160095461122f565b6107f360095483611408565b5050565b61081283838360405180602001604052806000815250610aad565b505050565b61081f61147c565b80600b9080519060200190610835929190611b9a565b5050565b6000806002600084815260200190815260200160002060009054906101000a900473ffffffffffffffffffffffffffffffffffffffff169050600073ffffffffffffffffffffffffffffffffffffffff168173ffffffffffffffffffffffffffffffffffffffff16036108e1576040517f08c379a00000000000000000000000000000000000000000000000000000000081526004016108d8906125c3565b60405180910390fd5b80915050919050565b60008073ffffffffffffffffffffffffffffffffffffffff168273ffffffffffffffffffffffffffffffffffffffff160361095a576040517f08c379a000000000000000000000000000000000000000000000000000000000815260040161095190612655565b60405180910390fd5b600360008373ffffffffffffffffffffffffffffffffffffffff1673ffffffffffffffffffffffffffffffffffffffff168152602001908152602001600020549050919050565b6109a961147c565b6109b360006114fa565b565b6000600660009054906101000a900473ffffffffffffffffffffffffffffffffffffffff16905090565b6060600180546109ee90612319565b80601f0160208091040260200160405190810160405280929190818152602001828054610a1a90612319565b8015610a675780601f10610a3c57610100808354040283529160200191610a67565b820191906000526020600020905b815481529060010190602001808311610a4a57829003601f168201915b5050505050905090565b600860009054906101000a900473ffffffffffffffffffffffffffffffffffffffff1681565b610aa9610aa2610e73565b83836115c0565b5050565b610abe610ab8610e73565b83610f34565b610afd576040517f08c379a0000000000000000000000000000000000000000000000000000000008152600401610af4906124e0565b60405180910390fd5b610b098484848461172c565b50505050565b6060610b1a82611788565b610b59576040517f08c379a0000000000000000000000000000000000000000000000000000000008152600401610b50906126e7565b60405180910390fd5b6000600a60008481526020019081526020016000208054610b7990612319565b80601f0160208091040260200160405190810160405280929190818152602001828054610ba590612319565b8015610bf25780601f10610bc757610100808354040283529160200191610bf2565b820191906000526020600020905b815481529060010190602001808311610bd557829003601f168201915b505050505090506000610c036117f4565b90506000815103610c18578192505050610c7c565b600082511115610c4d578082604051602001610c35929190612743565b60405160208183030381529060405292505050610c7c565b80610c5785611886565b604051602001610c68929190612743565b604051602081830303815290604052925050505b919050565b6000600560008473ffffffffffffffffffffffffffffffffffffffff1673ffffffffffffffffffffffffffffffffffffffff16815260200190815260200160002060008373ffffffffffffffffffffffffffffffffffffffff1673ffffffffffffffffffffffffffffffffffffffff16815260200190815260200160002060009054906101000a900460ff16905092915050565b610d1d61147c565b600073ffffffffffffffffffffffffffffffffffffffff168173ffffffffffffffffffffffffffffffffffffffff1603610d8c576040517f08c379a0000000000000000000000000000000000000000000000000000000008152600401610d83906127d9565b60405180910390fd5b610d95816114fa565b50565b600760009054906101000a900473ffffffffffffffffffffffffffffffffffffffff1681565b60007f01ffc9a7000000000000000000000000000000000000000000000000000000007bffffffffffffffffffffffffffffffffffffffffffffffffffffffff1916827bffffffffffffffffffffffffffffffffffffffffffffffffffffffff1916149050919050565b610e3181611788565b610e70576040517f08c379a0000000000000000000000000000000000000000000000000000000008152600401610e67906125c3565b60405180910390fd5b50565b600033905090565b816004600083815260200190815260200160002060006101000a81548173ffffffffffffffffffffffffffffffffffffffff021916908373ffffffffffffffffffffffffffffffffffffffff160217905550808273ffffffffffffffffffffffffffffffffffffffff16610eee83610839565b73ffffffffffffffffffffffffffffffffffffffff167f8c5be1e5ebec7d5bd14f71427d1e84f3dd0314c0f7b2291e5b200ac8c7c3b92560405160405180910390a45050565b600080610f4083610839565b90508073ffffffffffffffffffffffffffffffffffffffff168473ffffffffffffffffffffffffffffffffffffffff161480610f825750610f818185610c81565b5b80610fc057508373ffffffffffffffffffffffffffffffffffffffff16610fa884610573565b73ffffffffffffffffffffffffffffffffffffffff16145b91505092915050565b8273ffffffffffffffffffffffffffffffffffffffff16610fe982610839565b73ffffffffffffffffffffffffffffffffffffffff161461103f576040517f08c379a00000000000000000000000000000000000000000000000000000000081526004016110369061286b565b60405180910390fd5b600073ffffffffffffffffffffffffffffffffffffffff168273ffffffffffffffffffffffffffffffffffffffff16036110ae576040517f08c379a00000000000000000000000000000000000000000000000000000000081526004016110a5906128fd565b60405180910390fd5b6110b98383836119e6565b6110c4600082610e7b565b6001600360008573ffffffffffffffffffffffffffffffffffffffff1673ffffffffffffffffffffffffffffffffffffffff1681526020019081526020016000206000828254611114919061291d565b925050819055506001600360008473ffffffffffffffffffffffffffffffffffffffff1673ffffffffffffffffffffffffffffffffffffffff168152602001908152602001600020600082825461116b9190612951565b92505081905550816002600083815260200190815260200160002060006101000a81548173ffffffffffffffffffffffffffffffffffffffff021916908373ffffffffffffffffffffffffffffffffffffffff160217905550808273ffffffffffffffffffffffffffffffffffffffff168473ffffffffffffffffffffffffffffffffffffffff167fddf252ad1be2c89b69c2b068fc378daa952ba7f163c4a11628f55a4df523b3ef60405160405180910390a461122a8383836119eb565b505050565b600073ffffffffffffffffffffffffffffffffffffffff168273ffffffffffffffffffffffffffffffffffffffff160361129e576040517f08c379a0000000000000000000000000000000000000000000000000000000008152600401611295906129f3565b60405180910390fd5b6112a781611788565b156112e7576040517f08c379a00000000000000000000000000000000000000000000000000000000081526004016112de90612a5f565b60405180910390fd5b6112f3600083836119e6565b6001600360008473ffffffffffffffffffffffffffffffffffffffff1673ffffffffffffffffffffffffffffffffffffffff16815260200190815260200160002060008282546113439190612951565b92505081905550816002600083815260200190815260200160002060006101000a81548173ffffffffffffffffffffffffffffffffffffffff021916908373ffffffffffffffffffffffffffffffffffffffff160217905550808273ffffffffffffffffffffffffffffffffffffffff16600073ffffffffffffffffffffffffffffffffffffffff167fddf252ad1be2c89b69c2b068fc378daa952ba7f163c4a11628f55a4df523b3ef60405160405180910390a4611404600083836119eb565b5050565b61141182611788565b611450576040517f08c379a000000000000000000000000000000000000000000000000000000000815260040161144790612af1565b60405180910390fd5b80600a60008481526020019081526020016000209080519060200190611477929190611b9a565b505050565b611484610e73565b73ffffffffffffffffffffffffffffffffffffffff166114a26109b5565b73ffffffffffffffffffffffffffffffffffffffff16146114f8576040517f08c379a00000000000000000000000000000000000000000000000000000000081526004016114ef90612b5d565b60405180910390fd5b565b6000600660009054906101000a900473ffffffffffffffffffffffffffffffffffffffff16905081600660006101000a81548173ffffffffffffffffffffffffffffffffffffffff021916908373ffffffffffffffffffffffffffffffffffffffff1602179055508173ffffffffffffffffffffffffffffffffffffffff168173ffffffffffffffffffffffffffffffffffffffff167f8be0079c531659141344cd1fd0a4f28419497f9722a3daafe3b4186f6b6457e060405160405180910390a35050565b8173ffffffffffffffffffffffffffffffffffffffff168373ffffffffffffffffffffffffffffffffffffffff160361162e576040517f08c379a000000000000000000000000000000000000000000000000000000000815260040161162590612bc9565b60405180910390fd5b80600560008573ffffffffffffffffffffffffffffffffffffffff1673ffffffffffffffffffffffffffffffffffffffff16815260200190815260200160002060008473ffffffffffffffffffffffffffffffffffffffff1673ffffffffffffffffffffffffffffffffffffffff16815260200190815260200160002060006101000a81548160ff0219169083151502179055508173ffffffffffffffffffffffffffffffffffffffff168373ffffffffffffffffffffffffffffffffffffffff167f17307eab39ab6107e8899845ad3d59bd9653f200f220920489ca2b5937696c318360405161171f9190611d25565b60405180910390a3505050565b611737848484610fc9565b611743848484846119f0565b611782576040517f08c379a000000000000000000000000000000000000000000000000000000000815260040161177990612c5b565b60405180910390fd5b50505050565b60008073ffffffffffffffffffffffffffffffffffffffff166002600084815260200190815260200160002060009054906101000a900473ffffffffffffffffffffffffffffffffffffffff1673ffffffffffffffffffffffffffffffffffffffff1614159050919050565b6060600b805461180390612319565b80601f016020809104026020016040519081016040528092919081815260200182805461182f90612319565b801561187c5780601f106118515761010080835404028352916020019161187c565b820191906000526020600020905b81548152906001019060200180831161185f57829003601f168201915b5050505050905090565b6060600082036118cd576040518060400160405280600181526020017f300000000000000000000000000000000000000000000000000000000000000081525090506119e1565b600082905060005b600082146118ff5780806118e89061252f565b915050600a826118f89190612caa565b91506118d5565b60008167ffffffffffffffff81111561191b5761191a611f79565b5b6040519080825280601f01601f19166020018201604052801561194d5781602001600182028036833780820191505090505b5090505b600085146119da57600182611966919061291d565b9150600a856119759190612cdb565b60306119819190612951565b60f81b81838151811061199757611996612d0c565b5b60200101907effffffffffffffffffffffffffffffffffffffffffffffffffffffffffffff1916908160001a905350600a856119d39190612caa565b9450611951565b8093505050505b919050565b505050565b505050565b6000611a118473ffffffffffffffffffffffffffffffffffffffff16611b77565b15611b6a578373ffffffffffffffffffffffffffffffffffffffff1663150b7a02611a3a610e73565b8786866040518563ffffffff1660e01b8152600401611a5c9493929190612d90565b6020604051808303816000875af1925050508015611a9857506040513d601f19601f82011682018060405250810190611a959190612df1565b60015b611b1a573d8060008114611ac8576040519150601f19603f3d011682016040523d82523d6000602084013e611acd565b606091505b506000815103611b12576040517f08c379a0000000000000000000000000000000000000000000000000000000008152600401611b0990612c5b565b60405180910390fd5b805181602001fd5b63150b7a0260e01b7bffffffffffffffffffffffffffffffffffffffffffffffffffffffff1916817bffffffffffffffffffffffffffffffffffffffffffffffffffffffff191614915050611b6f565b600190505b949350505050565b6000808273ffffffffffffffffffffffffffffffffffffffff163b119050919050565b828054611ba690612319565b90600052602060002090601f016020900481019282611bc85760008555611c0f565b82601f10611be157805160ff1916838001178555611c0f565b82800160010185558215611c0f579182015b82811115611c0e578251825591602001919060010190611bf3565b5b509050611c1c9190611c20565b5090565b5b80821115611c39576000816000905550600101611c21565b5090565b6000819050919050565b611c5081611c3d565b82525050565b6000602082019050611c6b6000830184611c47565b92915050565b6000604051905090565b600080fd5b600080fd5b60007fffffffff0000000000000000000000000000000000000000000000000000000082169050919050565b611cba81611c85565b8114611cc557600080fd5b50565b600081359050611cd781611cb1565b92915050565b600060208284031215611cf357611cf2611c7b565b5b6000611d0184828501611cc8565b91505092915050565b60008115159050919050565b611d1f81611d0a565b82525050565b6000602082019050611d3a6000830184611d16565b92915050565b600081519050919050565b600082825260208201905092915050565b60005b83811015611d7a578082015181840152602081019050611d5f565b83811115611d89576000848401525b50505050565b6000601f19601f8301169050919050565b6000611dab82611d40565b611db58185611d4b565b9350611dc5818560208601611d5c565b611dce81611d8f565b840191505092915050565b60006020820190508181036000830152611df38184611da0565b905092915050565b611e0481611c3d565b8114611e0f57600080fd5b50565b600081359050611e2181611dfb565b92915050565b600060208284031215611e3d57611e3c611c7b565b5b6000611e4b84828501611e12565b91505092915050565b600073ffffffffffffffffffffffffffffffffffffffff82169050919050565b6000611e7f82611e54565b9050919050565b611e8f81611e74565b82525050565b6000602082019050611eaa6000830184611e86565b92915050565b611eb981611e74565b8114611ec457600080fd5b50565b600081359050611ed681611eb0565b92915050565b60008060408385031215611ef357611ef2611c7b565b5b6000611f0185828601611ec7565b9250506020611f1285828601611e12565b9150509250929050565b600080600060608486031215611f3557611f34611c7b565b5b6000611f4386828701611ec7565b9350506020611f5486828701611ec7565b9250506040611f6586828701611e12565b9150509250925092565b600080fd5b600080fd5b7f4e487b7100000000000000000000000000000000000000000000000000000000600052604160045260246000fd5b611fb182611d8f565b810181811067ffffffffffffffff82111715611fd057611fcf611f79565b5b80604052505050565b6000611fe3611c71565b9050611fef8282611fa8565b919050565b600067ffffffffffffffff82111561200f5761200e611f79565b5b61201882611d8f565b9050602081019050919050565b82818337600083830152505050565b600061204761204284611ff4565b611fd9565b90508281526020810184848401111561206357612062611f74565b5b61206e848285612025565b509392505050565b600082601f83011261208b5761208a611f6f565b5b813561209b848260208601612034565b91505092915050565b6000602082840312156120ba576120b9611c7b565b5b600082013567ffffffffffffffff8111156120d8576120d7611c80565b5b6120e484828501612076565b91505092915050565b60006020828403121561210357612102611c7b565b5b600061211184828501611ec7565b91505092915050565b61212381611d0a565b811461212e57600080fd5b50565b6000813590506121408161211a565b92915050565b6000806040838503121561215d5761215c611c7b565b5b600061216b85828601611ec7565b925050602061217c85828601612131565b9150509250929050565b600067ffffffffffffffff8211156121a1576121a0611f79565b5b6121aa82611d8f565b9050602081019050919050565b60006121ca6121c584612186565b611fd9565b9050828152602081018484840111156121e6576121e5611f74565b5b6121f1848285612025565b509392505050565b600082601f83011261220e5761220d611f6f565b5b813561221e8482602086016121b7565b91505092915050565b6000806000806080858703121561224157612240611c7b565b5b600061224f87828801611ec7565b945050602061226087828801611ec7565b935050604061227187828801611e12565b925050606085013567ffffffffffffffff81111561229257612291611c80565b5b61229e878288016121f9565b91505092959194509250565b600080604083850312156122c1576122c0611c7b565b5b60006122cf85828601611ec7565b92505060206122e085828601611ec7565b9150509250929050565b7f4e487b7100000000000000000000000000000000000000000000000000000000600052602260045260246000fd5b6000600282049050600182168061233157607f821691505b602082108103612344576123436122ea565b5b50919050565b7f4552433732313a20617070726f76616c20746f2063757272656e74206f776e6560008201527f7200000000000000000000000000000000000000000000000000000000000000602082015250565b60006123a6602183611d4b565b91506123b18261234a565b604082019050919050565b600060208201905081810360008301526123d581612399565b9050919050565b7f4552433732313a20617070726f76652063616c6c6572206973206e6f7420746f60008201527f6b656e206f776e6572206e6f7220617070726f76656420666f7220616c6c0000602082015250565b6000612438603e83611d4b565b9150612443826123dc565b604082019050919050565b600060208201905081810360008301526124678161242b565b9050919050565b7f4552433732313a2063616c6c6572206973206e6f7420746f6b656e206f776e6560008201527f72206e6f7220617070726f766564000000000000000000000000000000000000602082015250565b60006124ca602e83611d4b565b91506124d58261246e565b604082019050919050565b600060208201905081810360008301526124f9816124bd565b9050919050565b7f4e487b7100000000000000000000000000000000000000000000000000000000600052601160045260246000fd5b600061253a82611c3d565b91507fffffffffffffffffffffffffffffffffffffffffffffffffffffffffffffffff820361256c5761256b612500565b5b600182019050919050565b7f4552433732313a20696e76616c696420746f6b656e2049440000000000000000600082015250565b60006125ad601883611d4b565b91506125b882612577565b602082019050919050565b600060208201905081810360008301526125dc816125a0565b9050919050565b7f4552433732313a2061646472657373207a65726f206973206e6f74206120766160008201527f6c6964206f776e65720000000000000000000000000000000000000000000000602082015250565b600061263f602983611d4b565b915061264a826125e3565b604082019050919050565b6000602082019050818103600083015261266e81612632565b9050919050565b7f4552433732314d657461646174613a2055524920717565727920666f72206e6f60008201527f6e6578697374656e7420746f6b656e0000000000000000000000000000000000602082015250565b60006126d1602f83611d4b565b91506126dc82612675565b604082019050919050565b60006020820190508181036000830152612700816126c4565b9050919050565b600081905092915050565b600061271d82611d40565b6127278185612707565b9350612737818560208601611d5c565b80840191505092915050565b600061274f8285612712565b915061275b8284612712565b91508190509392505050565b7f4f776e61626c653a206e6577206f776e657220697320746865207a65726f206160008201527f6464726573730000000000000000000000000000000000000000000000000000602082015250565b60006127c3602683611d4b565b91506127ce82612767565b604082019050919050565b600060208201905081810360008301526127f2816127b6565b9050919050565b7f4552433732313a207472616e736665722066726f6d20696e636f72726563742060008201527f6f776e6572000000000000000000000000000000000000000000000000000000602082015250565b6000612855602583611d4b565b9150612860826127f9565b604082019050919050565b6000602082019050818103600083015261288481612848565b9050919050565b7f4552433732313a207472616e7366657220746f20746865207a65726f2061646460008201527f7265737300000000000000000000000000000000000000000000000000000000602082015250565b60006128e7602483611d4b565b91506128f28261288b565b604082019050919050565b60006020820190508181036000830152612916816128da565b9050919050565b600061292882611c3d565b915061293383611c3d565b92508282101561294657612945612500565b5b828203905092915050565b600061295c82611c3d565b915061296783611c3d565b9250827fffffffffffffffffffffffffffffffffffffffffffffffffffffffffffffffff0382111561299c5761299b612500565b5b828201905092915050565b7f4552433732313a206d696e7420746f20746865207a65726f2061646472657373600082015250565b60006129dd602083611d4b565b91506129e8826129a7565b602082019050919050565b60006020820190508181036000830152612a0c816129d0565b9050919050565b7f4552433732313a20746f6b656e20616c7265616479206d696e74656400000000600082015250565b6000612a49601c83611d4b565b9150612a5482612a13565b602082019050919050565b60006020820190508181036000830152612a7881612a3c565b9050919050565b7f4552433732314d657461646174613a2055524920736574206f66206e6f6e657860008201527f697374656e7420746f6b656e0000000000000000000000000000000000000000602082015250565b6000612adb602c83611d4b565b9150612ae682612a7f565b604082019050919050565b60006020820190508181036000830152612b0a81612ace565b9050919050565b7f4f776e61626c653a2063616c6c6572206973206e6f7420746865206f776e6572600082015250565b6000612b47602083611d4b565b9150612b5282612b11565b602082019050919050565b60006020820190508181036000830152612b7681612b3a565b9050919050565b7f4552433732313a20617070726f766520746f2063616c6c657200000000000000600082015250565b6000612bb3601983611d4b565b9150612bbe82612b7d565b602082019050919050565b60006020820190508181036000830152612be281612ba6565b9050919050565b7f4552433732313a207472616e7366657220746f206e6f6e20455243373231526560008201527f63656976657220696d706c656d656e7465720000000000000000000000000000602082015250565b6000612c45603283611d4b565b9150612c5082612be9565b604082019050919050565b60006020820190508181036000830152612c7481612c38565b9050919050565b7f4e487b7100000000000000000000000000000000000000000000000000000000600052601260045260246000fd5b6000612cb582611c3d565b9150612cc083611c3d565b925082612cd057612ccf612c7b565b5b828204905092915050565b6000612ce682611c3d565b9150612cf183611c3d565b925082612d0157612d00612c7b565b5b828206905092915050565b7f4e487b7100000000000000000000000000000000000000000000000000000000600052603260045260246000fd5b600081519050919050565b600082825260208201905092915050565b6000612d6282612d3b565b612d6c8185612d46565b9350612d7c818560208601611d5c565b612d8581611d8f565b840191505092915050565b6000608082019050612da56000830187611e86565b612db26020830186611e86565b612dbf6040830185611c47565b8181036060830152612dd18184612d57565b905095945050505050565b600081519050612deb81611cb1565b92915050565b600060208284031215612e0757612e06611c7b565b5b6000612e1584828501612ddc565b9150509291505056fea2646970667358221220544a594e3b5d72478916dc52160b6b8461e88d7f33ea92114b5bf28c0eeb9bef64736f6c634300080e0033a264697066735822122085e16d2e1abbccaec85cb23f544615c246b1aea5c621e92fcfe42eedebd77afa64736f6c634300080e0033",
  "devdoc": {
    "kind": "dev",
    "methods": {
      "owner()": {
        "details": "Returns the address of the current owner."
      },
      "renounceOwnership()": {
        "details": "Leaves the contract without owner. It will not be possible to call `onlyOwner` functions anymore. Can only be called by the current owner. NOTE: Renouncing ownership will leave the contract without an owner, thereby removing any functionality that is only available to the owner."
      },
      "transferOwnership(address)": {
        "details": "Transfers ownership of the contract to a new account (`newOwner`). Can only be called by the current owner."
      }
    },
    "version": 1
  },
  "userdoc": {
    "kind": "user",
    "methods": {},
    "version": 1
  },
  "storageLayout": {
    "storage": [
      {
        "astId": 123,
        "contract": "contracts/SignetControllor.sol:SignetControllor",
        "label": "_status",
        "offset": 0,
        "slot": "0",
        "type": "t_uint256"
      },
      {
        "astId": 7,
        "contract": "contracts/SignetControllor.sol:SignetControllor",
        "label": "_owner",
        "offset": 0,
        "slot": "1",
        "type": "t_address"
      },
      {
        "astId": 1848,
        "contract": "contracts/SignetControllor.sol:SignetControllor",
        "label": "sSignetor",
        "offset": 0,
        "slot": "2",
        "type": "t_contract(Signetor)2207"
      },
      {
        "astId": 1851,
        "contract": "contracts/SignetControllor.sol:SignetControllor",
        "label": "ST",
        "offset": 0,
        "slot": "3",
        "type": "t_contract(Signetors)2393"
      },
      {
        "astId": 1854,
        "contract": "contracts/SignetControllor.sol:SignetControllor",
        "label": "STCrator",
        "offset": 0,
        "slot": "4",
        "type": "t_contract(Signetors)2393"
      },
      {
        "astId": 1856,
        "contract": "contracts/SignetControllor.sol:SignetControllor",
        "label": "TotalSignetorsNum",
        "offset": 0,
        "slot": "5",
        "type": "t_uint256"
      },
      {
        "astId": 1864,
        "contract": "contracts/SignetControllor.sol:SignetControllor",
        "label": "collectionContractList",
        "offset": 0,
        "slot": "6",
        "type": "t_mapping(t_address,t_struct(ownerstruct)1859_storage)"
      }
    ],
    "types": {
      "t_address": {
        "encoding": "inplace",
        "label": "address",
        "numberOfBytes": "20"
      },
      "t_contract(Signetor)2207": {
        "encoding": "inplace",
        "label": "contract Signetor",
        "numberOfBytes": "20"
      },
      "t_contract(Signetors)2393": {
        "encoding": "inplace",
        "label": "contract Signetors",
        "numberOfBytes": "20"
      },
      "t_mapping(t_address,t_struct(ownerstruct)1859_storage)": {
        "encoding": "mapping",
        "key": "t_address",
        "label": "mapping(address => struct SignetControllor.ownerstruct)",
        "numberOfBytes": "32",
        "value": "t_struct(ownerstruct)1859_storage"
      },
      "t_struct(ownerstruct)1859_storage": {
        "encoding": "inplace",
        "label": "struct SignetControllor.ownerstruct",
        "members": [
          {
            "astId": 1858,
            "contract": "contracts/SignetControllor.sol:SignetControllor",
            "label": "owner",
            "offset": 0,
            "slot": "0",
            "type": "t_address"
          }
        ],
        "numberOfBytes": "32"
      },
      "t_uint256": {
        "encoding": "inplace",
        "label": "uint256",
        "numberOfBytes": "32"
      }
    }
  }
}