{
  "address": "0xC0B32ADFFd753D002ECF1F7B3a002BfF02D03BA6",
  "abi": [
    {
      "inputs": [],
      "stateMutability": "nonpayable",
      "type": "constructor"
    },
    {
      "inputs": [],
      "name": "Already__Followed",
      "type": "error"
    },
    {
      "inputs": [],
      "name": "Can__notfollow",
      "type": "error"
    },
    {
      "inputs": [],
      "name": "Contract__Created",
      "type": "error"
    },
    {
      "inputs": [],
      "name": "Never__Followed",
      "type": "error"
    },
    {
      "inputs": [],
      "name": "No__ContractCreated",
      "type": "error"
    },
    {
      "anonymous": false,
      "inputs": [
        {
          "indexed": true,
          "internalType": "address",
          "name": "creatoraddress",
          "type": "address"
        },
        {
          "indexed": true,
          "internalType": "address",
          "name": "collectionaddress",
          "type": "address"
        }
      ],
      "name": "CollectionCreated",
      "type": "event"
    },
    {
      "anonymous": false,
      "inputs": [
        {
          "indexed": true,
          "internalType": "address",
          "name": "isfollowing",
          "type": "address"
        },
        {
          "indexed": true,
          "internalType": "address",
          "name": "isfollowed",
          "type": "address"
        }
      ],
      "name": "Followed",
      "type": "event"
    },
    {
      "anonymous": false,
      "inputs": [
        {
          "indexed": true,
          "internalType": "address",
          "name": "messageSender",
          "type": "address"
        },
        {
          "indexed": true,
          "internalType": "address",
          "name": "signetoraddress",
          "type": "address"
        },
        {
          "indexed": false,
          "internalType": "uint256",
          "name": "messageId",
          "type": "uint256"
        },
        {
          "indexed": false,
          "internalType": "string",
          "name": "tokenURI_",
          "type": "string"
        },
        {
          "indexed": false,
          "internalType": "uint256",
          "name": "time",
          "type": "uint256"
        }
      ],
      "name": "NewMessageSent",
      "type": "event"
    },
    {
      "anonymous": false,
      "inputs": [
        {
          "indexed": true,
          "internalType": "address",
          "name": "previousOwner",
          "type": "address"
        },
        {
          "indexed": true,
          "internalType": "address",
          "name": "newOwner",
          "type": "address"
        }
      ],
      "name": "OwnershipTransferred",
      "type": "event"
    },
    {
      "anonymous": false,
      "inputs": [
        {
          "indexed": true,
          "internalType": "address",
          "name": "isunfollowing",
          "type": "address"
        },
        {
          "indexed": true,
          "internalType": "address",
          "name": "isunfollowed",
          "type": "address"
        }
      ],
      "name": "UnFollowed",
      "type": "event"
    },
    {
      "inputs": [],
      "name": "STCrator",
      "outputs": [
        {
          "internalType": "contract Signetors",
          "name": "",
          "type": "address"
        }
      ],
      "stateMutability": "view",
      "type": "function"
    },
    {
      "inputs": [],
      "name": "TotalSignetorsNum",
      "outputs": [
        {
          "internalType": "uint256",
          "name": "",
          "type": "uint256"
        }
      ],
      "stateMutability": "view",
      "type": "function"
    },
    {
      "inputs": [
        {
          "internalType": "address",
          "name": "signetor",
          "type": "address"
        },
        {
          "internalType": "address",
          "name": "followersaddress",
          "type": "address"
        }
      ],
      "name": "checkfollowed",
      "outputs": [
        {
          "internalType": "bool",
          "name": "",
          "type": "bool"
        }
      ],
      "stateMutability": "view",
      "type": "function"
    },
    {
      "inputs": [
        {
          "internalType": "address",
          "name": "",
          "type": "address"
        }
      ],
      "name": "collectionContractList",
      "outputs": [
        {
          "internalType": "address",
          "name": "owner",
          "type": "address"
        }
      ],
      "stateMutability": "view",
      "type": "function"
    },
    {
      "inputs": [
        {
          "internalType": "string",
          "name": "_name",
          "type": "string"
        },
        {
          "internalType": "string",
          "name": "_symbol",
          "type": "string"
        }
      ],
      "name": "controllorCreateSignetor",
      "outputs": [],
      "stateMutability": "nonpayable",
      "type": "function"
    },
    {
      "inputs": [
        {
          "internalType": "address",
          "name": "signetor",
          "type": "address"
        },
        {
          "internalType": "address",
          "name": "followingAaddress",
          "type": "address"
        }
      ],
      "name": "findFollwingId",
      "outputs": [
        {
          "internalType": "uint256",
          "name": "",
          "type": "uint256"
        }
      ],
      "stateMutability": "view",
      "type": "function"
    },
    {
      "inputs": [
        {
          "internalType": "address",
          "name": "signetor",
          "type": "address"
        },
        {
          "internalType": "address",
          "name": "followersaddress",
          "type": "address"
        }
      ],
      "name": "findfollowerId",
      "outputs": [
        {
          "internalType": "uint256",
          "name": "",
          "type": "uint256"
        }
      ],
      "stateMutability": "view",
      "type": "function"
    },
    {
      "inputs": [
        {
          "internalType": "address",
          "name": "signetor",
          "type": "address"
        }
      ],
      "name": "follow",
      "outputs": [],
      "stateMutability": "nonpayable",
      "type": "function"
    },
    {
      "inputs": [
        {
          "internalType": "address",
          "name": "",
          "type": "address"
        }
      ],
      "name": "follower",
      "outputs": [
        {
          "internalType": "uint256",
          "name": "followerNum",
          "type": "uint256"
        }
      ],
      "stateMutability": "view",
      "type": "function"
    },
    {
      "inputs": [
        {
          "internalType": "address",
          "name": "",
          "type": "address"
        }
      ],
      "name": "following",
      "outputs": [
        {
          "internalType": "uint256",
          "name": "FollowingNum",
          "type": "uint256"
        }
      ],
      "stateMutability": "view",
      "type": "function"
    },
    {
      "inputs": [
        {
          "internalType": "address",
          "name": "contractOwner",
          "type": "address"
        }
      ],
      "name": "getOwnerContractForSignetor",
      "outputs": [
        {
          "internalType": "address",
          "name": "",
          "type": "address"
        }
      ],
      "stateMutability": "view",
      "type": "function"
    },
    {
      "inputs": [
        {
          "internalType": "address",
          "name": "contractOwner",
          "type": "address"
        }
      ],
      "name": "getOwnerNumContractOfSignetor",
      "outputs": [
        {
          "internalType": "uint256",
          "name": "",
          "type": "uint256"
        }
      ],
      "stateMutability": "view",
      "type": "function"
    },
    {
      "inputs": [],
      "name": "owner",
      "outputs": [
        {
          "internalType": "address",
          "name": "",
          "type": "address"
        }
      ],
      "stateMutability": "view",
      "type": "function"
    },
    {
      "inputs": [],
      "name": "renounceOwnership",
      "outputs": [],
      "stateMutability": "nonpayable",
      "type": "function"
    },
    {
      "inputs": [],
      "name": "sSignetor",
      "outputs": [
        {
          "internalType": "contract Signetor",
          "name": "",
          "type": "address"
        }
      ],
      "stateMutability": "view",
      "type": "function"
    },
    {
      "inputs": [
        {
          "internalType": "address",
          "name": "addr",
          "type": "address"
        },
        {
          "internalType": "string",
          "name": "tokenURI_",
          "type": "string"
        }
      ],
      "name": "sendmessage",
      "outputs": [
        {
          "internalType": "bool",
          "name": "success",
          "type": "bool"
        }
      ],
      "stateMutability": "nonpayable",
      "type": "function"
    },
    {
      "inputs": [
        {
          "internalType": "address",
          "name": "newOwner",
          "type": "address"
        }
      ],
      "name": "transferOwnership",
      "outputs": [],
      "stateMutability": "nonpayable",
      "type": "function"
    },
    {
      "inputs": [
        {
          "internalType": "address",
          "name": "signetor",
          "type": "address"
        }
      ],
      "name": "unfollow",
      "outputs": [],
      "stateMutability": "nonpayable",
      "type": "function"
    }
  ],
  "transactionHash": "0xeb44600d327e2084c556148bfcbdf987f713f6c7b33e651d4adc913daaa5609b",
  "args": [],
  "numDeployments": 10,
  "solcInputHash": "e1c8f6928a9cf5cec792b53e15f4430f",
  "bytecode": "0x60806040523480156200001157600080fd5b5060016000819055506200003a6200002e6200018060201b60201c565b6200018860201b60201c565b60405162000048906200024e565b604051809103906000f08015801562000065573d6000803e3d6000fd5b50600360006101000a81548173ffffffffffffffffffffffffffffffffffffffff021916908373ffffffffffffffffffffffffffffffffffffffff160217905550600360009054906101000a900473ffffffffffffffffffffffffffffffffffffffff1673ffffffffffffffffffffffffffffffffffffffff166366d11c1a6040518163ffffffff1660e01b8152600401602060405180830381865afa15801562000114573d6000803e3d6000fd5b505050506040513d601f19601f820116820180604052508101906200013a9190620002c6565b600460006101000a81548173ffffffffffffffffffffffffffffffffffffffff021916908373ffffffffffffffffffffffffffffffffffffffff160217905550620002f8565b600033905090565b6000600160009054906101000a900473ffffffffffffffffffffffffffffffffffffffff16905081600160006101000a81548173ffffffffffffffffffffffffffffffffffffffff021916908373ffffffffffffffffffffffffffffffffffffffff1602179055508173ffffffffffffffffffffffffffffffffffffffff168173ffffffffffffffffffffffffffffffffffffffff167f8be0079c531659141344cd1fd0a4f28419497f9722a3daafe3b4186f6b6457e060405160405180910390a35050565b61441d8062002d4683390190565b600080fd5b600073ffffffffffffffffffffffffffffffffffffffff82169050919050565b60006200028e8262000261565b9050919050565b620002a08162000281565b8114620002ac57600080fd5b50565b600081519050620002c08162000295565b92915050565b600060208284031215620002df57620002de6200025c565b5b6000620002ef84828501620002af565b91505092915050565b612a3e80620003086000396000f3fe608060405234801561001057600080fd5b50600436106101165760003560e01c806374a5a41b116100a25780639679a3c8116100715780639679a3c8146102f35780639f71d03c14610323578063cebcf13a14610353578063d8fb768b14610383578063f2fde38b146103a157610116565b806374a5a41b146102575780638143c1f5146102875780638a68b229146102b75780638da5cb5b146102d557610116565b80633958b30f116100e95780633958b30f146101b55780634dbf27cc146101d157806357504a83146101ed5780635a9eb2891461021d578063715018a61461024d57610116565b8063015a4ead1461011b578063253168db14610137578063292d8f06146101675780632ff1f92814610197575b600080fd5b61013560048036038101906101309190612188565b6103bd565b005b610151600480360381019061014c9190612188565b610ed2565b60405161015e91906121ce565b60405180910390f35b610181600480360381019061017c91906121e9565b610ef0565b60405161018e9190612244565b60405180910390f35b61019f611022565b6040516101ac91906122be565b60405180910390f35b6101cf60048036038101906101ca919061241f565b611048565b005b6101eb60048036038101906101e69190612188565b61125d565b005b610207600480360381019061020291906121e9565b611656565b60405161021491906121ce565b60405180910390f35b61023760048036038101906102329190612497565b611862565b6040516102449190612244565b60405180910390f35b6102556119c1565b005b610271600480360381019061026c9190612188565b6119d5565b60405161027e91906121ce565b60405180910390f35b6102a1600480360381019061029c9190612188565b6119f3565b6040516102ae91906121ce565b60405180910390f35b6102bf611a9d565b6040516102cc9190612514565b60405180910390f35b6102dd611ac3565b6040516102ea919061253e565b60405180910390f35b61030d60048036038101906103089190612188565b611aed565b60405161031a919061253e565b60405180910390f35b61033d60048036038101906103389190612188565b611b9c565b60405161034a919061253e565b60405180910390f35b61036d600480360381019061036891906121e9565b611bda565b60405161037a91906121ce565b60405180910390f35b61038b611de6565b60405161039891906121ce565b60405180910390f35b6103bb60048036038101906103b69190612188565b611dec565b005b60006103c8336119f3565b036103ff576040517f1b9ad8d100000000000000000000000000000000000000000000000000000000815260040160405180910390fd5b600061040a826119f3565b03610441576040517f1b9ad8d100000000000000000000000000000000000000000000000000000000815260040160405180910390fd5b8073ffffffffffffffffffffffffffffffffffffffff163373ffffffffffffffffffffffffffffffffffffffff16036104a6576040517f81db306400000000000000000000000000000000000000000000000000000000815260040160405180910390fd5b60006104b28233610ef0565b905060001515811515036104f2576040517fd4b1512b00000000000000000000000000000000000000000000000000000000815260040160405180910390fd5b6000600660008473ffffffffffffffffffffffffffffffffffffffff1673ffffffffffffffffffffffffffffffffffffffff16815260200190815260200160002060000154905060006105458433611656565b90506105856040518060400160405280601c81526020017f2d2d2d2d2d2d2d2d2d2d2d2d2d2d2d2d2d2d2d2d2d2d2d2d2d2d2d2d00000000815250611e6f565b6105c36040518060400160405280600f81526020017f746f74616c20666f6c6c6f7765723a0000000000000000000000000000000000815250611e6f565b6105cc82611f08565b61060a6040518060400160405280600f81526020017f66696e64466f6c6c77696e6749643a0000000000000000000000000000000000815250611e6f565b61061381611f08565b6106516040518060400160405280601c81526020017f2d2d2d2d2d2d2d2d2d2d2d2d2d2d2d2d2d2d2d2d2d2d2d2d2d2d2d2d00000000815250611e6f565b808203610745576001600660008673ffffffffffffffffffffffffffffffffffffffff1673ffffffffffffffffffffffffffffffffffffffff16815260200190815260200160002060000160008282546106ab9190612588565b92505081905550600660008573ffffffffffffffffffffffffffffffffffffffff1673ffffffffffffffffffffffffffffffffffffffff168152602001908152602001600020600101805480610704576107036125bc565b5b60019003818190600052602060002001600080820160006101000a81549073ffffffffffffffffffffffffffffffffffffffff0219169055505090556109b1565b6001600660008673ffffffffffffffffffffffffffffffffffffffff1673ffffffffffffffffffffffffffffffffffffffff16815260200190815260200160002060000160008282546107989190612588565b92505081905550600660008573ffffffffffffffffffffffffffffffffffffffff1673ffffffffffffffffffffffffffffffffffffffff1681526020019081526020016000206001016001600660008773ffffffffffffffffffffffffffffffffffffffff1673ffffffffffffffffffffffffffffffffffffffff168152602001908152602001600020600101805490506108339190612588565b81548110610844576108436125eb565b5b90600052602060002001600660008673ffffffffffffffffffffffffffffffffffffffff1673ffffffffffffffffffffffffffffffffffffffff16815260200190815260200160002060010160018361089d9190612588565b815481106108ae576108ad6125eb565b5b906000526020600020016000820160009054906101000a900473ffffffffffffffffffffffffffffffffffffffff168160000160006101000a81548173ffffffffffffffffffffffffffffffffffffffff021916908373ffffffffffffffffffffffffffffffffffffffff160217905550905050600660008573ffffffffffffffffffffffffffffffffffffffff1673ffffffffffffffffffffffffffffffffffffffff168152602001908152602001600020600101805480610974576109736125bc565b5b60019003818190600052602060002001600080820160006101000a81549073ffffffffffffffffffffffffffffffffffffffff0219169055505090555b6000600760003373ffffffffffffffffffffffffffffffffffffffff1673ffffffffffffffffffffffffffffffffffffffff1681526020019081526020016000206000015490506000610a043387611bda565b9050610a446040518060400160405280601c81526020017f2d2d2d2d2d2d2d2d2d2d2d2d2d2d2d2d2d2d2d2d2d2d2d2d2d2d2d2d00000000815250611e6f565b610a826040518060400160405280601081526020017f746f74616c20666f6c6c6f77696e673a00000000000000000000000000000000815250611e6f565b610a8b82611f08565b610ac96040518060400160405280600f81526020017f66696e64666f6c6c6f77657249643a0000000000000000000000000000000000815250611e6f565b610ad281611f08565b610b106040518060400160405280601c81526020017f2d2d2d2d2d2d2d2d2d2d2d2d2d2d2d2d2d2d2d2d2d2d2d2d2d2d2d2d00000000815250611e6f565b808203610c04576001600760003373ffffffffffffffffffffffffffffffffffffffff1673ffffffffffffffffffffffffffffffffffffffff1681526020019081526020016000206000016000828254610b6a9190612588565b92505081905550600760003373ffffffffffffffffffffffffffffffffffffffff1673ffffffffffffffffffffffffffffffffffffffff168152602001908152602001600020600101805480610bc357610bc26125bc565b5b60019003818190600052602060002001600080820160006101000a81549073ffffffffffffffffffffffffffffffffffffffff021916905550509055610e70565b6001600760003373ffffffffffffffffffffffffffffffffffffffff1673ffffffffffffffffffffffffffffffffffffffff1681526020019081526020016000206000016000828254610c579190612588565b92505081905550600760003373ffffffffffffffffffffffffffffffffffffffff1673ffffffffffffffffffffffffffffffffffffffff1681526020019081526020016000206001016001600760003373ffffffffffffffffffffffffffffffffffffffff1673ffffffffffffffffffffffffffffffffffffffff16815260200190815260200160002060010180549050610cf29190612588565b81548110610d0357610d026125eb565b5b90600052602060002001600760003373ffffffffffffffffffffffffffffffffffffffff1673ffffffffffffffffffffffffffffffffffffffff168152602001908152602001600020600101600183610d5c9190612588565b81548110610d6d57610d6c6125eb565b5b906000526020600020016000820160009054906101000a900473ffffffffffffffffffffffffffffffffffffffff168160000160006101000a81548173ffffffffffffffffffffffffffffffffffffffff021916908373ffffffffffffffffffffffffffffffffffffffff160217905550905050600760003373ffffffffffffffffffffffffffffffffffffffff1673ffffffffffffffffffffffffffffffffffffffff168152602001908152602001600020600101805480610e3357610e326125bc565b5b60019003818190600052602060002001600080820160006101000a81549073ffffffffffffffffffffffffffffffffffffffff0219169055505090555b8573ffffffffffffffffffffffffffffffffffffffff163373ffffffffffffffffffffffffffffffffffffffff167fd547c11d7725787be9aa8274d9e33b2d4af25bdfb3c081058f73e11cd9b2f40660405160405180910390a3505050505050565b60066020528060005260406000206000915090508060000154905081565b600080600090505b600660008573ffffffffffffffffffffffffffffffffffffffff1673ffffffffffffffffffffffffffffffffffffffff16815260200190815260200160002060010180549050811015611016578273ffffffffffffffffffffffffffffffffffffffff16600660008673ffffffffffffffffffffffffffffffffffffffff1673ffffffffffffffffffffffffffffffffffffffff1681526020019081526020016000206001018281548110610fb057610faf6125eb565b5b9060005260206000200160000160009054906101000a900473ffffffffffffffffffffffffffffffffffffffff1673ffffffffffffffffffffffffffffffffffffffff160361100357600191505061101c565b808061100e9061261a565b915050610ef8565b60009150505b92915050565b600460009054906101000a900473ffffffffffffffffffffffffffffffffffffffff1681565b6000611053336119f3565b1461108a576040517f43d73cc300000000000000000000000000000000000000000000000000000000815260040160405180910390fd5b6000600460009054906101000a900473ffffffffffffffffffffffffffffffffffffffff1673ffffffffffffffffffffffffffffffffffffffff16632bb85f6b8484336040518463ffffffff1660e01b81526004016110eb939291906126ea565b6060604051808303816000875af115801561110a573d6000803e3d6000fd5b505050506040513d601f19601f8201168201806040525081019061112e9190612770565b50915050600560008154809291906111459061261a565b9190505550600060405180602001604052803373ffffffffffffffffffffffffffffffffffffffff16815250905080600860008473ffffffffffffffffffffffffffffffffffffffff1673ffffffffffffffffffffffffffffffffffffffff16815260200190815260200160002060008201518160000160006101000a81548173ffffffffffffffffffffffffffffffffffffffff021916908373ffffffffffffffffffffffffffffffffffffffff1602179055509050508173ffffffffffffffffffffffffffffffffffffffff163373ffffffffffffffffffffffffffffffffffffffff167f5d0de243db1669e3a7056744cd715c625f0c1c348736c2c2d53d0ddebff1a6c760405160405180910390a350505050565b6000611268336119f3565b0361129f576040517f1b9ad8d100000000000000000000000000000000000000000000000000000000815260040160405180910390fd5b60006112aa826119f3565b036112e1576040517f1b9ad8d100000000000000000000000000000000000000000000000000000000815260040160405180910390fd5b8073ffffffffffffffffffffffffffffffffffffffff163373ffffffffffffffffffffffffffffffffffffffff1603611346576040517f81db306400000000000000000000000000000000000000000000000000000000815260040160405180910390fd5b60006113528233610ef0565b90506001151581151503611392576040517f9f5ae48900000000000000000000000000000000000000000000000000000000815260040160405180910390fd5b600660008373ffffffffffffffffffffffffffffffffffffffff1673ffffffffffffffffffffffffffffffffffffffff16815260200190815260200160002060000160008154809291906113e59061261a565b9190505550600060405180602001604052803373ffffffffffffffffffffffffffffffffffffffff168152509050600660008473ffffffffffffffffffffffffffffffffffffffff1673ffffffffffffffffffffffffffffffffffffffff168152602001908152602001600020600101819080600181540180825580915050600190039060005260206000200160009091909190915060008201518160000160006101000a81548173ffffffffffffffffffffffffffffffffffffffff021916908373ffffffffffffffffffffffffffffffffffffffff1602179055505050600760003373ffffffffffffffffffffffffffffffffffffffff1673ffffffffffffffffffffffffffffffffffffffff16815260200190815260200160002060000160008154809291906115179061261a565b9190505550600060405180602001604052808573ffffffffffffffffffffffffffffffffffffffff168152509050600760003373ffffffffffffffffffffffffffffffffffffffff1673ffffffffffffffffffffffffffffffffffffffff168152602001908152602001600020600101819080600181540180825580915050600190039060005260206000200160009091909190915060008201518160000160006101000a81548173ffffffffffffffffffffffffffffffffffffffff021916908373ffffffffffffffffffffffffffffffffffffffff16021790555050508373ffffffffffffffffffffffffffffffffffffffff163373ffffffffffffffffffffffffffffffffffffffff167f6178e95c138f06036cdc07a49ed6a3d23008969fa143baeceb037ebae22e8d1460405160405180910390a350505050565b60008060019050600190505b6001600660008673ffffffffffffffffffffffffffffffffffffffff1673ffffffffffffffffffffffffffffffffffffffff168152602001908152602001600020600101805490506116b491906127c3565b81101561185a578273ffffffffffffffffffffffffffffffffffffffff16600660008673ffffffffffffffffffffffffffffffffffffffff1673ffffffffffffffffffffffffffffffffffffffff1681526020019081526020016000206001016001836117219190612588565b81548110611732576117316125eb565b5b9060005260206000200160000160009054906101000a900473ffffffffffffffffffffffffffffffffffffffff1673ffffffffffffffffffffffffffffffffffffffff1603611847576117b96040518060400160405280601c81526020017f2d2d2d2d2d2d2d2d2d2d2d2d2d2d2d2d2d2d2d2d2d2d2d2d2d2d2d2d00000000815250611e6f565b6117f76040518060400160405280601b81526020017f636865636b65642066696e64666f6c6c6f7765724964206973203a0000000000815250611e6f565b61180081611f08565b61183e6040518060400160405280601c81526020017f2d2d2d2d2d2d2d2d2d2d2d2d2d2d2d2d2d2d2d2d2d2d2d2d2d2d2d2d00000000815250611e6f565b8091505061185c565b80806118529061261a565b915050611662565b505b92915050565b600082600260006101000a81548173ffffffffffffffffffffffffffffffffffffffff021916908373ffffffffffffffffffffffffffffffffffffffff1602179055506000600260009054906101000a900473ffffffffffffffffffffffffffffffffffffffff1673ffffffffffffffffffffffffffffffffffffffff166323cbe4d6846040518263ffffffff1660e01b81526004016119029190612819565b6020604051808303816000875af1158015611921573d6000803e3d6000fd5b505050506040513d601f19601f82011682018060405250810190611945919061283b565b905060004290508473ffffffffffffffffffffffffffffffffffffffff163373ffffffffffffffffffffffffffffffffffffffff167fb499047210b4d317e25b367bc6d08fa8d656cb546cfdfe151e518ced711acddc8487856040516119ad93929190612868565b60405180910390a360019250505092915050565b6119c9611fa1565b6119d3600061201f565b565b60076020528060005260406000206000915090508060000154905081565b600080600460009054906101000a900473ffffffffffffffffffffffffffffffffffffffff1673ffffffffffffffffffffffffffffffffffffffff16635c284dc0846040518263ffffffff1660e01b8152600401611a51919061253e565b602060405180830381865afa158015611a6e573d6000803e3d6000fd5b505050506040513d601f19601f82011682018060405250810190611a92919061283b565b905080915050919050565b600260009054906101000a900473ffffffffffffffffffffffffffffffffffffffff1681565b6000600160009054906101000a900473ffffffffffffffffffffffffffffffffffffffff16905090565b600080600460009054906101000a900473ffffffffffffffffffffffffffffffffffffffff1673ffffffffffffffffffffffffffffffffffffffff16636f7fd7ab6000856040518363ffffffff1660e01b8152600401611b4e9291906128e1565b606060405180830381865afa158015611b6b573d6000803e3d6000fd5b505050506040513d601f19601f82011682018060405250810190611b8f9190612770565b5091505080915050919050565b60086020528060005260406000206000915090508060000160009054906101000a900473ffffffffffffffffffffffffffffffffffffffff16905081565b60008060019050600190505b6001600760008673ffffffffffffffffffffffffffffffffffffffff1673ffffffffffffffffffffffffffffffffffffffff16815260200190815260200160002060010180549050611c3891906127c3565b811015611dde578273ffffffffffffffffffffffffffffffffffffffff16600760008673ffffffffffffffffffffffffffffffffffffffff1673ffffffffffffffffffffffffffffffffffffffff168152602001908152602001600020600101600183611ca59190612588565b81548110611cb657611cb56125eb565b5b9060005260206000200160000160009054906101000a900473ffffffffffffffffffffffffffffffffffffffff1673ffffffffffffffffffffffffffffffffffffffff1603611dcb57611d3d6040518060400160405280601c81526020017f2d2d2d2d2d2d2d2d2d2d2d2d2d2d2d2d2d2d2d2d2d2d2d2d2d2d2d2d00000000815250611e6f565b611d7b6040518060400160405280601b81526020017f636865636b65642066696e64466f6c6c77696e674964206973203a0000000000815250611e6f565b611d8481611f08565b611dc26040518060400160405280601c81526020017f2d2d2d2d2d2d2d2d2d2d2d2d2d2d2d2d2d2d2d2d2d2d2d2d2d2d2d2d00000000815250611e6f565b80915050611de0565b8080611dd69061261a565b915050611be6565b505b92915050565b60055481565b611df4611fa1565b600073ffffffffffffffffffffffffffffffffffffffff168173ffffffffffffffffffffffffffffffffffffffff1603611e63576040517f08c379a0000000000000000000000000000000000000000000000000000000008152600401611e5a9061297c565b60405180910390fd5b611e6c8161201f565b50565b611f0581604051602401611e839190612819565b6040516020818303038152906040527f41304fac000000000000000000000000000000000000000000000000000000007bffffffffffffffffffffffffffffffffffffffffffffffffffffffff19166020820180517bffffffffffffffffffffffffffffffffffffffffffffffffffffffff83818316178352505050506120e5565b50565b611f9e81604051602401611f1c91906121ce565b6040516020818303038152906040527ff82c50f1000000000000000000000000000000000000000000000000000000007bffffffffffffffffffffffffffffffffffffffffffffffffffffffff19166020820180517bffffffffffffffffffffffffffffffffffffffffffffffffffffffff83818316178352505050506120e5565b50565b611fa961210e565b73ffffffffffffffffffffffffffffffffffffffff16611fc7611ac3565b73ffffffffffffffffffffffffffffffffffffffff161461201d576040517f08c379a0000000000000000000000000000000000000000000000000000000008152600401612014906129e8565b60405180910390fd5b565b6000600160009054906101000a900473ffffffffffffffffffffffffffffffffffffffff16905081600160006101000a81548173ffffffffffffffffffffffffffffffffffffffff021916908373ffffffffffffffffffffffffffffffffffffffff1602179055508173ffffffffffffffffffffffffffffffffffffffff168173ffffffffffffffffffffffffffffffffffffffff167f8be0079c531659141344cd1fd0a4f28419497f9722a3daafe3b4186f6b6457e060405160405180910390a35050565b60008151905060006a636f6e736f6c652e6c6f679050602083016000808483855afa5050505050565b600033905090565b6000604051905090565b600080fd5b600080fd5b600073ffffffffffffffffffffffffffffffffffffffff82169050919050565b60006121558261212a565b9050919050565b6121658161214a565b811461217057600080fd5b50565b6000813590506121828161215c565b92915050565b60006020828403121561219e5761219d612120565b5b60006121ac84828501612173565b91505092915050565b6000819050919050565b6121c8816121b5565b82525050565b60006020820190506121e360008301846121bf565b92915050565b60008060408385031215612200576121ff612120565b5b600061220e85828601612173565b925050602061221f85828601612173565b9150509250929050565b60008115159050919050565b61223e81612229565b82525050565b60006020820190506122596000830184612235565b92915050565b6000819050919050565b600061228461227f61227a8461212a565b61225f565b61212a565b9050919050565b600061229682612269565b9050919050565b60006122a88261228b565b9050919050565b6122b88161229d565b82525050565b60006020820190506122d360008301846122af565b92915050565b600080fd5b600080fd5b6000601f19601f8301169050919050565b7f4e487b7100000000000000000000000000000000000000000000000000000000600052604160045260246000fd5b61232c826122e3565b810181811067ffffffffffffffff8211171561234b5761234a6122f4565b5b80604052505050565b600061235e612116565b905061236a8282612323565b919050565b600067ffffffffffffffff82111561238a576123896122f4565b5b612393826122e3565b9050602081019050919050565b82818337600083830152505050565b60006123c26123bd8461236f565b612354565b9050828152602081018484840111156123de576123dd6122de565b5b6123e98482856123a0565b509392505050565b600082601f830112612406576124056122d9565b5b81356124168482602086016123af565b91505092915050565b6000806040838503121561243657612435612120565b5b600083013567ffffffffffffffff81111561245457612453612125565b5b612460858286016123f1565b925050602083013567ffffffffffffffff81111561248157612480612125565b5b61248d858286016123f1565b9150509250929050565b600080604083850312156124ae576124ad612120565b5b60006124bc85828601612173565b925050602083013567ffffffffffffffff8111156124dd576124dc612125565b5b6124e9858286016123f1565b9150509250929050565b60006124fe8261228b565b9050919050565b61250e816124f3565b82525050565b60006020820190506125296000830184612505565b92915050565b6125388161214a565b82525050565b6000602082019050612553600083018461252f565b92915050565b7f4e487b7100000000000000000000000000000000000000000000000000000000600052601160045260246000fd5b6000612593826121b5565b915061259e836121b5565b9250828210156125b1576125b0612559565b5b828203905092915050565b7f4e487b7100000000000000000000000000000000000000000000000000000000600052603160045260246000fd5b7f4e487b7100000000000000000000000000000000000000000000000000000000600052603260045260246000fd5b6000612625826121b5565b91507fffffffffffffffffffffffffffffffffffffffffffffffffffffffffffffffff820361265757612656612559565b5b600182019050919050565b600081519050919050565b600082825260208201905092915050565b60005b8381101561269c578082015181840152602081019050612681565b838111156126ab576000848401525b50505050565b60006126bc82612662565b6126c6818561266d565b93506126d681856020860161267e565b6126df816122e3565b840191505092915050565b6000606082019050818103600083015261270481866126b1565b9050818103602083015261271881856126b1565b9050612727604083018461252f565b949350505050565b60008151905061273e8161215c565b92915050565b61274d816121b5565b811461275857600080fd5b50565b60008151905061276a81612744565b92915050565b60008060006060848603121561278957612788612120565b5b60006127978682870161272f565b93505060206127a88682870161272f565b92505060406127b98682870161275b565b9150509250925092565b60006127ce826121b5565b91506127d9836121b5565b9250827fffffffffffffffffffffffffffffffffffffffffffffffffffffffffffffffff0382111561280e5761280d612559565b5b828201905092915050565b6000602082019050818103600083015261283381846126b1565b905092915050565b60006020828403121561285157612850612120565b5b600061285f8482850161275b565b91505092915050565b600060608201905061287d60008301866121bf565b818103602083015261288f81856126b1565b905061289e60408301846121bf565b949350505050565b6000819050919050565b60006128cb6128c66128c1846128a6565b61225f565b6121b5565b9050919050565b6128db816128b0565b82525050565b60006040820190506128f660008301856128d2565b612903602083018461252f565b9392505050565b7f4f776e61626c653a206e6577206f776e657220697320746865207a65726f206160008201527f6464726573730000000000000000000000000000000000000000000000000000602082015250565b600061296660268361266d565b91506129718261290a565b604082019050919050565b6000602082019050818103600083015261299581612959565b9050919050565b7f4f776e61626c653a2063616c6c6572206973206e6f7420746865206f776e6572600082015250565b60006129d260208361266d565b91506129dd8261299c565b602082019050919050565b60006020820190508181036000830152612a01816129c5565b905091905056fea2646970667358221220d5bc8b576dd122e5c04993cc57b82df21c60b3951824b14562dd9c1cc9f217e164736f6c634300080e0033608060405234801561001057600080fd5b5033600160006101000a81548173ffffffffffffffffffffffffffffffffffffffff021916908373ffffffffffffffffffffffffffffffffffffffff16021790555061006061006560201b60201c565b6100a8565b30600260006101000a81548173ffffffffffffffffffffffffffffffffffffffff021916908373ffffffffffffffffffffffffffffffffffffffff160217905550565b614366806100b76000396000f3fe60806040523480156200001157600080fd5b50600436106200005e5760003560e01c80632bb85f6b14620000635780632cc0a402146200009b5780635c284dc014620000bd57806366d11c1a14620000f35780636f7fd7ab1462000115575b600080fd5b6200008160048036038101906200007b9190620008aa565b6200014d565b604051620000929392919062000970565b60405180910390f35b620000a5620004a9565b604051620000b49190620009ad565b60405180910390f35b620000db6004803603810190620000d59190620009ca565b620004cf565b604051620000ea9190620009fc565b60405180910390f35b620000fd620004ed565b6040516200010c9190620009ad565b60405180910390f35b6200013360048036038101906200012d919062000a4a565b62000513565b604051620001449392919062000970565b60405180910390f35b600080600033600160006101000a81548173ffffffffffffffffffffffffffffffffffffffff021916908373ffffffffffffffffffffffffffffffffffffffff160217905550600080878787600160009054906101000a900473ffffffffffffffffffffffffffffffffffffffff16604051620001ca90620006c1565b620001d9949392919062000b24565b604051809103906000f080158015620001f6573d6000803e3d6000fd5b506000806101000a81548173ffffffffffffffffffffffffffffffffffffffff021916908373ffffffffffffffffffffffffffffffffffffffff16021790555060008054906101000a900473ffffffffffffffffffffffffffffffffffffffff1673ffffffffffffffffffffffffffffffffffffffff1663ffb0958d6040518163ffffffff1660e01b8152600401602060405180830381865afa158015620002a2573d6000803e3d6000fd5b505050506040513d601f19601f82011682018060405250810190620002c8919062000b96565b9150859050600360008773ffffffffffffffffffffffffffffffffffffffff1673ffffffffffffffffffffffffffffffffffffffff1681526020019081526020016000206000016000815480929190620003229062000bf7565b9190505550600060405180606001604052808873ffffffffffffffffffffffffffffffffffffffff1681526020018473ffffffffffffffffffffffffffffffffffffffff168152602001600160ff168152509050600360008873ffffffffffffffffffffffffffffffffffffffff1673ffffffffffffffffffffffffffffffffffffffff16815260200190815260200160002060010181908060018154018082558091505060019003906000526020600020906002020160009091909190915060008201518160000160006101000a81548173ffffffffffffffffffffffffffffffffffffffff021916908373ffffffffffffffffffffffffffffffffffffffff16021790555060208201518160010160006101000a81548173ffffffffffffffffffffffffffffffffffffffff021916908373ffffffffffffffffffffffffffffffffffffffff16021790555060408201518160010160146101000a81548160ff021916908360ff16021790555050508183600195509550955050505093509350939050565b600160009054906101000a900473ffffffffffffffffffffffffffffffffffffffff1681565b60036020528060005260406000206000915090508060000154905081565b600260009054906101000a900473ffffffffffffffffffffffffffffffffffffffff1681565b600080600080600360008673ffffffffffffffffffffffffffffffffffffffff1673ffffffffffffffffffffffffffffffffffffffff168152602001908152602001600020600101868154811062000570576200056f62000c44565b5b906000526020600020906002020160000160009054906101000a900473ffffffffffffffffffffffffffffffffffffffff1690506000600360008773ffffffffffffffffffffffffffffffffffffffff1673ffffffffffffffffffffffffffffffffffffffff1681526020019081526020016000206001018781548110620005fd57620005fc62000c44565b5b906000526020600020906002020160010160009054906101000a900473ffffffffffffffffffffffffffffffffffffffff1690506000600360008873ffffffffffffffffffffffffffffffffffffffff1673ffffffffffffffffffffffffffffffffffffffff16815260200190815260200160002060010188815481106200068a576200068962000c44565b5b906000526020600020906002020160010160149054906101000a900460ff1660ff1690508282829550955095505050509250925092565b6136bd8062000c7483390190565b6000604051905090565b600080fd5b600080fd5b600080fd5b600080fd5b6000601f19601f8301169050919050565b7f4e487b7100000000000000000000000000000000000000000000000000000000600052604160045260246000fd5b6200073882620006ed565b810181811067ffffffffffffffff821117156200075a5762000759620006fe565b5b80604052505050565b60006200076f620006cf565b90506200077d82826200072d565b919050565b600067ffffffffffffffff821115620007a0576200079f620006fe565b5b620007ab82620006ed565b9050602081019050919050565b82818337600083830152505050565b6000620007de620007d88462000782565b62000763565b905082815260208101848484011115620007fd57620007fc620006e8565b5b6200080a848285620007b8565b509392505050565b600082601f8301126200082a5762000829620006e3565b5b81356200083c848260208601620007c7565b91505092915050565b600073ffffffffffffffffffffffffffffffffffffffff82169050919050565b6000620008728262000845565b9050919050565b620008848162000865565b81146200089057600080fd5b50565b600081359050620008a48162000879565b92915050565b600080600060608486031215620008c657620008c5620006d9565b5b600084013567ffffffffffffffff811115620008e757620008e6620006de565b5b620008f58682870162000812565b935050602084013567ffffffffffffffff811115620009195762000918620006de565b5b620009278682870162000812565b92505060406200093a8682870162000893565b9150509250925092565b6200094f8162000865565b82525050565b6000819050919050565b6200096a8162000955565b82525050565b600060608201905062000987600083018662000944565b62000996602083018562000944565b620009a560408301846200095f565b949350505050565b6000602082019050620009c4600083018462000944565b92915050565b600060208284031215620009e357620009e2620006d9565b5b6000620009f38482850162000893565b91505092915050565b600060208201905062000a1360008301846200095f565b92915050565b62000a248162000955565b811462000a3057600080fd5b50565b60008135905062000a448162000a19565b92915050565b6000806040838503121562000a645762000a63620006d9565b5b600062000a748582860162000a33565b925050602062000a878582860162000893565b9150509250929050565b600081519050919050565b600082825260208201905092915050565b60005b8381101562000acd57808201518184015260208101905062000ab0565b8381111562000add576000848401525b50505050565b600062000af08262000a91565b62000afc818562000a9c565b935062000b0e81856020860162000aad565b62000b1981620006ed565b840191505092915050565b6000608082019050818103600083015262000b40818762000ae3565b9050818103602083015262000b56818662000ae3565b905062000b67604083018562000944565b62000b76606083018462000944565b95945050505050565b60008151905062000b908162000879565b92915050565b60006020828403121562000baf5762000bae620006d9565b5b600062000bbf8482850162000b7f565b91505092915050565b7f4e487b7100000000000000000000000000000000000000000000000000000000600052601160045260246000fd5b600062000c048262000955565b91507fffffffffffffffffffffffffffffffffffffffffffffffffffffffffffffffff820362000c395762000c3862000bc8565b5b600182019050919050565b7f4e487b7100000000000000000000000000000000000000000000000000000000600052603260045260246000fdfe60806040523480156200001157600080fd5b50604051620036bd380380620036bd83398181016040528101906200003791906200060d565b83838160009080519060200190620000519291906200035b565b5080600190805190602001906200006a9291906200035b565b5050506200008d62000081620000f960201b60201c565b6200010160201b60201c565b6200009d620001c760201b60201c565b620000ae826200020a60201b60201c565b80600860006101000a81548173ffffffffffffffffffffffffffffffffffffffff021916908373ffffffffffffffffffffffffffffffffffffffff160217905550505050506200083c565b600033905090565b6000600660009054906101000a900473ffffffffffffffffffffffffffffffffffffffff16905081600660006101000a81548173ffffffffffffffffffffffffffffffffffffffff021916908373ffffffffffffffffffffffffffffffffffffffff1602179055508173ffffffffffffffffffffffffffffffffffffffff168173ffffffffffffffffffffffffffffffffffffffff167f8be0079c531659141344cd1fd0a4f28419497f9722a3daafe3b4186f6b6457e060405160405180910390a35050565b30600760006101000a81548173ffffffffffffffffffffffffffffffffffffffff021916908373ffffffffffffffffffffffffffffffffffffffff160217905550565b6200021a620002a060201b60201c565b600073ffffffffffffffffffffffffffffffffffffffff168173ffffffffffffffffffffffffffffffffffffffff16036200028c576040517f08c379a0000000000000000000000000000000000000000000000000000000008152600401620002839062000744565b60405180910390fd5b6200029d816200010160201b60201c565b50565b620002b0620000f960201b60201c565b73ffffffffffffffffffffffffffffffffffffffff16620002d66200033160201b60201c565b73ffffffffffffffffffffffffffffffffffffffff16146200032f576040517f08c379a00000000000000000000000000000000000000000000000000000000081526004016200032690620007b6565b60405180910390fd5b565b6000600660009054906101000a900473ffffffffffffffffffffffffffffffffffffffff16905090565b828054620003699062000807565b90600052602060002090601f0160209004810192826200038d5760008555620003d9565b82601f10620003a857805160ff1916838001178555620003d9565b82800160010185558215620003d9579182015b82811115620003d8578251825591602001919060010190620003bb565b5b509050620003e89190620003ec565b5090565b5b8082111562000407576000816000905550600101620003ed565b5090565b6000604051905090565b600080fd5b600080fd5b600080fd5b600080fd5b6000601f19601f8301169050919050565b7f4e487b7100000000000000000000000000000000000000000000000000000000600052604160045260246000fd5b620004748262000429565b810181811067ffffffffffffffff821117156200049657620004956200043a565b5b80604052505050565b6000620004ab6200040b565b9050620004b9828262000469565b919050565b600067ffffffffffffffff821115620004dc57620004db6200043a565b5b620004e78262000429565b9050602081019050919050565b60005b8381101562000514578082015181840152602081019050620004f7565b8381111562000524576000848401525b50505050565b6000620005416200053b84620004be565b6200049f565b90508281526020810184848401111562000560576200055f62000424565b5b6200056d848285620004f4565b509392505050565b600082601f8301126200058d576200058c6200041f565b5b81516200059f8482602086016200052a565b91505092915050565b600073ffffffffffffffffffffffffffffffffffffffff82169050919050565b6000620005d582620005a8565b9050919050565b620005e781620005c8565b8114620005f357600080fd5b50565b6000815190506200060781620005dc565b92915050565b600080600080608085870312156200062a576200062962000415565b5b600085015167ffffffffffffffff8111156200064b576200064a6200041a565b5b620006598782880162000575565b945050602085015167ffffffffffffffff8111156200067d576200067c6200041a565b5b6200068b8782880162000575565b93505060406200069e87828801620005f6565b9250506060620006b187828801620005f6565b91505092959194509250565b600082825260208201905092915050565b7f4f776e61626c653a206e6577206f776e657220697320746865207a65726f206160008201527f6464726573730000000000000000000000000000000000000000000000000000602082015250565b60006200072c602683620006bd565b91506200073982620006ce565b604082019050919050565b600060208201905081810360008301526200075f816200071d565b9050919050565b7f4f776e61626c653a2063616c6c6572206973206e6f7420746865206f776e6572600082015250565b60006200079e602083620006bd565b9150620007ab8262000766565b602082019050919050565b60006020820190508181036000830152620007d1816200078f565b9050919050565b7f4e487b7100000000000000000000000000000000000000000000000000000000600052602260045260246000fd5b600060028204905060018216806200082057607f821691505b602082108103620008365762000835620007d8565b5b50919050565b612e71806200084c6000396000f3fe608060405234801561001057600080fd5b50600436106101365760003560e01c806370a08231116100b8578063a22cb4651161007c578063a22cb4651461033b578063b88d4fde14610357578063c87b56dd14610373578063e985e9c5146103a3578063f2fde38b146103d3578063ffb0958d146103ef57610136565b806370a08231146102a7578063715018a6146102d75780638da5cb5b146102e157806395d89b41146102ff578063975073ba1461031d57610136565b806323b872dd116100ff57806323b872dd146101f357806323cbe4d61461020f57806342842e0e1461023f57806355f804b31461025b5780636352211e1461027757610136565b806204586c1461013b57806301ffc9a71461015957806306fdde0314610189578063081812fc146101a7578063095ea7b3146101d7575b600080fd5b61014361040d565b6040516101509190611c73565b60405180910390f35b610173600480360381019061016e9190611cfa565b610413565b6040516101809190611d42565b60405180910390f35b6101916104f5565b60405161019e9190611df6565b60405180910390f35b6101c160048036038101906101bc9190611e44565b610587565b6040516101ce9190611eb2565b60405180910390f35b6101f160048036038101906101ec9190611ef9565b6105cd565b005b61020d60048036038101906102089190611f39565b6106e4565b005b610229600480360381019061022491906120c1565b610744565b6040516102369190611c73565b60405180910390f35b61025960048036038101906102549190611f39565b610814565b005b610275600480360381019061027091906120c1565b610834565b005b610291600480360381019061028c9190611e44565b610856565b60405161029e9190611eb2565b60405180910390f35b6102c160048036038101906102bc919061210a565b610907565b6040516102ce9190611c73565b60405180910390f35b6102df6109be565b005b6102e96109d2565b6040516102f69190611eb2565b60405180910390f35b6103076109fc565b6040516103149190611df6565b60405180910390f35b610325610a8e565b6040516103329190611eb2565b60405180910390f35b61035560048036038101906103509190612163565b610ab4565b005b610371600480360381019061036c9190612244565b610aca565b005b61038d60048036038101906103889190611e44565b610b2c565b60405161039a9190611df6565b60405180910390f35b6103bd60048036038101906103b891906122c7565b610c9e565b6040516103ca9190611d42565b60405180910390f35b6103ed60048036038101906103e8919061210a565b610d32565b005b6103f7610db5565b6040516104049190611eb2565b60405180910390f35b60095481565b60007f80ac58cd000000000000000000000000000000000000000000000000000000007bffffffffffffffffffffffffffffffffffffffffffffffffffffffff1916827bffffffffffffffffffffffffffffffffffffffffffffffffffffffff191614806104de57507f5b5e139f000000000000000000000000000000000000000000000000000000007bffffffffffffffffffffffffffffffffffffffffffffffffffffffff1916827bffffffffffffffffffffffffffffffffffffffffffffffffffffffff1916145b806104ee57506104ed82610ddb565b5b9050919050565b60606000805461050490612336565b80601f016020809104026020016040519081016040528092919081815260200182805461053090612336565b801561057d5780601f106105525761010080835404028352916020019161057d565b820191906000526020600020905b81548152906001019060200180831161056057829003601f168201915b5050505050905090565b600061059282610e45565b6004600083815260200190815260200160002060009054906101000a900473ffffffffffffffffffffffffffffffffffffffff169050919050565b60006105d882610856565b90508073ffffffffffffffffffffffffffffffffffffffff168373ffffffffffffffffffffffffffffffffffffffff1603610648576040517f08c379a000000000000000000000000000000000000000000000000000000000815260040161063f906123d9565b60405180910390fd5b8073ffffffffffffffffffffffffffffffffffffffff16610667610e90565b73ffffffffffffffffffffffffffffffffffffffff161480610696575061069581610690610e90565b610c9e565b5b6106d5576040517f08c379a00000000000000000000000000000000000000000000000000000000081526004016106cc9061246b565b60405180910390fd5b6106df8383610e98565b505050565b6106f56106ef610e90565b82610f51565b610734576040517f08c379a000000000000000000000000000000000000000000000000000000000815260040161072b906124fd565b60405180910390fd5b61073f838383610fe6565b505050565b6000600860009054906101000a900473ffffffffffffffffffffffffffffffffffffffff1673ffffffffffffffffffffffffffffffffffffffff163373ffffffffffffffffffffffffffffffffffffffff16146107cd576040517f3cfd317500000000000000000000000000000000000000000000000000000000815260040160405180910390fd5b600960008154809291906107e09061254c565b919050555060006107ef6109d2565b90506107fd8160095461124c565b61080960095484611425565b600954915050919050565b61082f83838360405180602001604052806000815250610aca565b505050565b61083c611499565b80600b9080519060200190610852929190611bb7565b5050565b6000806002600084815260200190815260200160002060009054906101000a900473ffffffffffffffffffffffffffffffffffffffff169050600073ffffffffffffffffffffffffffffffffffffffff168173ffffffffffffffffffffffffffffffffffffffff16036108fe576040517f08c379a00000000000000000000000000000000000000000000000000000000081526004016108f5906125e0565b60405180910390fd5b80915050919050565b60008073ffffffffffffffffffffffffffffffffffffffff168273ffffffffffffffffffffffffffffffffffffffff1603610977576040517f08c379a000000000000000000000000000000000000000000000000000000000815260040161096e90612672565b60405180910390fd5b600360008373ffffffffffffffffffffffffffffffffffffffff1673ffffffffffffffffffffffffffffffffffffffff168152602001908152602001600020549050919050565b6109c6611499565b6109d06000611517565b565b6000600660009054906101000a900473ffffffffffffffffffffffffffffffffffffffff16905090565b606060018054610a0b90612336565b80601f0160208091040260200160405190810160405280929190818152602001828054610a3790612336565b8015610a845780601f10610a5957610100808354040283529160200191610a84565b820191906000526020600020905b815481529060010190602001808311610a6757829003601f168201915b5050505050905090565b600860009054906101000a900473ffffffffffffffffffffffffffffffffffffffff1681565b610ac6610abf610e90565b83836115dd565b5050565b610adb610ad5610e90565b83610f51565b610b1a576040517f08c379a0000000000000000000000000000000000000000000000000000000008152600401610b11906124fd565b60405180910390fd5b610b2684848484611749565b50505050565b6060610b37826117a5565b610b76576040517f08c379a0000000000000000000000000000000000000000000000000000000008152600401610b6d90612704565b60405180910390fd5b6000600a60008481526020019081526020016000208054610b9690612336565b80601f0160208091040260200160405190810160405280929190818152602001828054610bc290612336565b8015610c0f5780601f10610be457610100808354040283529160200191610c0f565b820191906000526020600020905b815481529060010190602001808311610bf257829003601f168201915b505050505090506000610c20611811565b90506000815103610c35578192505050610c99565b600082511115610c6a578082604051602001610c52929190612760565b60405160208183030381529060405292505050610c99565b80610c74856118a3565b604051602001610c85929190612760565b604051602081830303815290604052925050505b919050565b6000600560008473ffffffffffffffffffffffffffffffffffffffff1673ffffffffffffffffffffffffffffffffffffffff16815260200190815260200160002060008373ffffffffffffffffffffffffffffffffffffffff1673ffffffffffffffffffffffffffffffffffffffff16815260200190815260200160002060009054906101000a900460ff16905092915050565b610d3a611499565b600073ffffffffffffffffffffffffffffffffffffffff168173ffffffffffffffffffffffffffffffffffffffff1603610da9576040517f08c379a0000000000000000000000000000000000000000000000000000000008152600401610da0906127f6565b60405180910390fd5b610db281611517565b50565b600760009054906101000a900473ffffffffffffffffffffffffffffffffffffffff1681565b60007f01ffc9a7000000000000000000000000000000000000000000000000000000007bffffffffffffffffffffffffffffffffffffffffffffffffffffffff1916827bffffffffffffffffffffffffffffffffffffffffffffffffffffffff1916149050919050565b610e4e816117a5565b610e8d576040517f08c379a0000000000000000000000000000000000000000000000000000000008152600401610e84906125e0565b60405180910390fd5b50565b600033905090565b816004600083815260200190815260200160002060006101000a81548173ffffffffffffffffffffffffffffffffffffffff021916908373ffffffffffffffffffffffffffffffffffffffff160217905550808273ffffffffffffffffffffffffffffffffffffffff16610f0b83610856565b73ffffffffffffffffffffffffffffffffffffffff167f8c5be1e5ebec7d5bd14f71427d1e84f3dd0314c0f7b2291e5b200ac8c7c3b92560405160405180910390a45050565b600080610f5d83610856565b90508073ffffffffffffffffffffffffffffffffffffffff168473ffffffffffffffffffffffffffffffffffffffff161480610f9f5750610f9e8185610c9e565b5b80610fdd57508373ffffffffffffffffffffffffffffffffffffffff16610fc584610587565b73ffffffffffffffffffffffffffffffffffffffff16145b91505092915050565b8273ffffffffffffffffffffffffffffffffffffffff1661100682610856565b73ffffffffffffffffffffffffffffffffffffffff161461105c576040517f08c379a000000000000000000000000000000000000000000000000000000000815260040161105390612888565b60405180910390fd5b600073ffffffffffffffffffffffffffffffffffffffff168273ffffffffffffffffffffffffffffffffffffffff16036110cb576040517f08c379a00000000000000000000000000000000000000000000000000000000081526004016110c29061291a565b60405180910390fd5b6110d6838383611a03565b6110e1600082610e98565b6001600360008573ffffffffffffffffffffffffffffffffffffffff1673ffffffffffffffffffffffffffffffffffffffff1681526020019081526020016000206000828254611131919061293a565b925050819055506001600360008473ffffffffffffffffffffffffffffffffffffffff1673ffffffffffffffffffffffffffffffffffffffff1681526020019081526020016000206000828254611188919061296e565b92505081905550816002600083815260200190815260200160002060006101000a81548173ffffffffffffffffffffffffffffffffffffffff021916908373ffffffffffffffffffffffffffffffffffffffff160217905550808273ffffffffffffffffffffffffffffffffffffffff168473ffffffffffffffffffffffffffffffffffffffff167fddf252ad1be2c89b69c2b068fc378daa952ba7f163c4a11628f55a4df523b3ef60405160405180910390a4611247838383611a08565b505050565b600073ffffffffffffffffffffffffffffffffffffffff168273ffffffffffffffffffffffffffffffffffffffff16036112bb576040517f08c379a00000000000000000000000000000000000000000000000000000000081526004016112b290612a10565b60405180910390fd5b6112c4816117a5565b15611304576040517f08c379a00000000000000000000000000000000000000000000000000000000081526004016112fb90612a7c565b60405180910390fd5b61131060008383611a03565b6001600360008473ffffffffffffffffffffffffffffffffffffffff1673ffffffffffffffffffffffffffffffffffffffff1681526020019081526020016000206000828254611360919061296e565b92505081905550816002600083815260200190815260200160002060006101000a81548173ffffffffffffffffffffffffffffffffffffffff021916908373ffffffffffffffffffffffffffffffffffffffff160217905550808273ffffffffffffffffffffffffffffffffffffffff16600073ffffffffffffffffffffffffffffffffffffffff167fddf252ad1be2c89b69c2b068fc378daa952ba7f163c4a11628f55a4df523b3ef60405160405180910390a461142160008383611a08565b5050565b61142e826117a5565b61146d576040517f08c379a000000000000000000000000000000000000000000000000000000000815260040161146490612b0e565b60405180910390fd5b80600a60008481526020019081526020016000209080519060200190611494929190611bb7565b505050565b6114a1610e90565b73ffffffffffffffffffffffffffffffffffffffff166114bf6109d2565b73ffffffffffffffffffffffffffffffffffffffff1614611515576040517f08c379a000000000000000000000000000000000000000000000000000000000815260040161150c90612b7a565b60405180910390fd5b565b6000600660009054906101000a900473ffffffffffffffffffffffffffffffffffffffff16905081600660006101000a81548173ffffffffffffffffffffffffffffffffffffffff021916908373ffffffffffffffffffffffffffffffffffffffff1602179055508173ffffffffffffffffffffffffffffffffffffffff168173ffffffffffffffffffffffffffffffffffffffff167f8be0079c531659141344cd1fd0a4f28419497f9722a3daafe3b4186f6b6457e060405160405180910390a35050565b8173ffffffffffffffffffffffffffffffffffffffff168373ffffffffffffffffffffffffffffffffffffffff160361164b576040517f08c379a000000000000000000000000000000000000000000000000000000000815260040161164290612be6565b60405180910390fd5b80600560008573ffffffffffffffffffffffffffffffffffffffff1673ffffffffffffffffffffffffffffffffffffffff16815260200190815260200160002060008473ffffffffffffffffffffffffffffffffffffffff1673ffffffffffffffffffffffffffffffffffffffff16815260200190815260200160002060006101000a81548160ff0219169083151502179055508173ffffffffffffffffffffffffffffffffffffffff168373ffffffffffffffffffffffffffffffffffffffff167f17307eab39ab6107e8899845ad3d59bd9653f200f220920489ca2b5937696c318360405161173c9190611d42565b60405180910390a3505050565b611754848484610fe6565b61176084848484611a0d565b61179f576040517f08c379a000000000000000000000000000000000000000000000000000000000815260040161179690612c78565b60405180910390fd5b50505050565b60008073ffffffffffffffffffffffffffffffffffffffff166002600084815260200190815260200160002060009054906101000a900473ffffffffffffffffffffffffffffffffffffffff1673ffffffffffffffffffffffffffffffffffffffff1614159050919050565b6060600b805461182090612336565b80601f016020809104026020016040519081016040528092919081815260200182805461184c90612336565b80156118995780601f1061186e57610100808354040283529160200191611899565b820191906000526020600020905b81548152906001019060200180831161187c57829003601f168201915b5050505050905090565b6060600082036118ea576040518060400160405280600181526020017f300000000000000000000000000000000000000000000000000000000000000081525090506119fe565b600082905060005b6000821461191c5780806119059061254c565b915050600a826119159190612cc7565b91506118f2565b60008167ffffffffffffffff81111561193857611937611f96565b5b6040519080825280601f01601f19166020018201604052801561196a5781602001600182028036833780820191505090505b5090505b600085146119f757600182611983919061293a565b9150600a856119929190612cf8565b603061199e919061296e565b60f81b8183815181106119b4576119b3612d29565b5b60200101907effffffffffffffffffffffffffffffffffffffffffffffffffffffffffffff1916908160001a905350600a856119f09190612cc7565b945061196e565b8093505050505b919050565b505050565b505050565b6000611a2e8473ffffffffffffffffffffffffffffffffffffffff16611b94565b15611b87578373ffffffffffffffffffffffffffffffffffffffff1663150b7a02611a57610e90565b8786866040518563ffffffff1660e01b8152600401611a799493929190612dad565b6020604051808303816000875af1925050508015611ab557506040513d601f19601f82011682018060405250810190611ab29190612e0e565b60015b611b37573d8060008114611ae5576040519150601f19603f3d011682016040523d82523d6000602084013e611aea565b606091505b506000815103611b2f576040517f08c379a0000000000000000000000000000000000000000000000000000000008152600401611b2690612c78565b60405180910390fd5b805181602001fd5b63150b7a0260e01b7bffffffffffffffffffffffffffffffffffffffffffffffffffffffff1916817bffffffffffffffffffffffffffffffffffffffffffffffffffffffff191614915050611b8c565b600190505b949350505050565b6000808273ffffffffffffffffffffffffffffffffffffffff163b119050919050565b828054611bc390612336565b90600052602060002090601f016020900481019282611be55760008555611c2c565b82601f10611bfe57805160ff1916838001178555611c2c565b82800160010185558215611c2c579182015b82811115611c2b578251825591602001919060010190611c10565b5b509050611c399190611c3d565b5090565b5b80821115611c56576000816000905550600101611c3e565b5090565b6000819050919050565b611c6d81611c5a565b82525050565b6000602082019050611c886000830184611c64565b92915050565b6000604051905090565b600080fd5b600080fd5b60007fffffffff0000000000000000000000000000000000000000000000000000000082169050919050565b611cd781611ca2565b8114611ce257600080fd5b50565b600081359050611cf481611cce565b92915050565b600060208284031215611d1057611d0f611c98565b5b6000611d1e84828501611ce5565b91505092915050565b60008115159050919050565b611d3c81611d27565b82525050565b6000602082019050611d576000830184611d33565b92915050565b600081519050919050565b600082825260208201905092915050565b60005b83811015611d97578082015181840152602081019050611d7c565b83811115611da6576000848401525b50505050565b6000601f19601f8301169050919050565b6000611dc882611d5d565b611dd28185611d68565b9350611de2818560208601611d79565b611deb81611dac565b840191505092915050565b60006020820190508181036000830152611e108184611dbd565b905092915050565b611e2181611c5a565b8114611e2c57600080fd5b50565b600081359050611e3e81611e18565b92915050565b600060208284031215611e5a57611e59611c98565b5b6000611e6884828501611e2f565b91505092915050565b600073ffffffffffffffffffffffffffffffffffffffff82169050919050565b6000611e9c82611e71565b9050919050565b611eac81611e91565b82525050565b6000602082019050611ec76000830184611ea3565b92915050565b611ed681611e91565b8114611ee157600080fd5b50565b600081359050611ef381611ecd565b92915050565b60008060408385031215611f1057611f0f611c98565b5b6000611f1e85828601611ee4565b9250506020611f2f85828601611e2f565b9150509250929050565b600080600060608486031215611f5257611f51611c98565b5b6000611f6086828701611ee4565b9350506020611f7186828701611ee4565b9250506040611f8286828701611e2f565b9150509250925092565b600080fd5b600080fd5b7f4e487b7100000000000000000000000000000000000000000000000000000000600052604160045260246000fd5b611fce82611dac565b810181811067ffffffffffffffff82111715611fed57611fec611f96565b5b80604052505050565b6000612000611c8e565b905061200c8282611fc5565b919050565b600067ffffffffffffffff82111561202c5761202b611f96565b5b61203582611dac565b9050602081019050919050565b82818337600083830152505050565b600061206461205f84612011565b611ff6565b9050828152602081018484840111156120805761207f611f91565b5b61208b848285612042565b509392505050565b600082601f8301126120a8576120a7611f8c565b5b81356120b8848260208601612051565b91505092915050565b6000602082840312156120d7576120d6611c98565b5b600082013567ffffffffffffffff8111156120f5576120f4611c9d565b5b61210184828501612093565b91505092915050565b6000602082840312156121205761211f611c98565b5b600061212e84828501611ee4565b91505092915050565b61214081611d27565b811461214b57600080fd5b50565b60008135905061215d81612137565b92915050565b6000806040838503121561217a57612179611c98565b5b600061218885828601611ee4565b92505060206121998582860161214e565b9150509250929050565b600067ffffffffffffffff8211156121be576121bd611f96565b5b6121c782611dac565b9050602081019050919050565b60006121e76121e2846121a3565b611ff6565b90508281526020810184848401111561220357612202611f91565b5b61220e848285612042565b509392505050565b600082601f83011261222b5761222a611f8c565b5b813561223b8482602086016121d4565b91505092915050565b6000806000806080858703121561225e5761225d611c98565b5b600061226c87828801611ee4565b945050602061227d87828801611ee4565b935050604061228e87828801611e2f565b925050606085013567ffffffffffffffff8111156122af576122ae611c9d565b5b6122bb87828801612216565b91505092959194509250565b600080604083850312156122de576122dd611c98565b5b60006122ec85828601611ee4565b92505060206122fd85828601611ee4565b9150509250929050565b7f4e487b7100000000000000000000000000000000000000000000000000000000600052602260045260246000fd5b6000600282049050600182168061234e57607f821691505b60208210810361236157612360612307565b5b50919050565b7f4552433732313a20617070726f76616c20746f2063757272656e74206f776e6560008201527f7200000000000000000000000000000000000000000000000000000000000000602082015250565b60006123c3602183611d68565b91506123ce82612367565b604082019050919050565b600060208201905081810360008301526123f2816123b6565b9050919050565b7f4552433732313a20617070726f76652063616c6c6572206973206e6f7420746f60008201527f6b656e206f776e6572206e6f7220617070726f76656420666f7220616c6c0000602082015250565b6000612455603e83611d68565b9150612460826123f9565b604082019050919050565b6000602082019050818103600083015261248481612448565b9050919050565b7f4552433732313a2063616c6c6572206973206e6f7420746f6b656e206f776e6560008201527f72206e6f7220617070726f766564000000000000000000000000000000000000602082015250565b60006124e7602e83611d68565b91506124f28261248b565b604082019050919050565b60006020820190508181036000830152612516816124da565b9050919050565b7f4e487b7100000000000000000000000000000000000000000000000000000000600052601160045260246000fd5b600061255782611c5a565b91507fffffffffffffffffffffffffffffffffffffffffffffffffffffffffffffffff82036125895761258861251d565b5b600182019050919050565b7f4552433732313a20696e76616c696420746f6b656e2049440000000000000000600082015250565b60006125ca601883611d68565b91506125d582612594565b602082019050919050565b600060208201905081810360008301526125f9816125bd565b9050919050565b7f4552433732313a2061646472657373207a65726f206973206e6f74206120766160008201527f6c6964206f776e65720000000000000000000000000000000000000000000000602082015250565b600061265c602983611d68565b915061266782612600565b604082019050919050565b6000602082019050818103600083015261268b8161264f565b9050919050565b7f4552433732314d657461646174613a2055524920717565727920666f72206e6f60008201527f6e6578697374656e7420746f6b656e0000000000000000000000000000000000602082015250565b60006126ee602f83611d68565b91506126f982612692565b604082019050919050565b6000602082019050818103600083015261271d816126e1565b9050919050565b600081905092915050565b600061273a82611d5d565b6127448185612724565b9350612754818560208601611d79565b80840191505092915050565b600061276c828561272f565b9150612778828461272f565b91508190509392505050565b7f4f776e61626c653a206e6577206f776e657220697320746865207a65726f206160008201527f6464726573730000000000000000000000000000000000000000000000000000602082015250565b60006127e0602683611d68565b91506127eb82612784565b604082019050919050565b6000602082019050818103600083015261280f816127d3565b9050919050565b7f4552433732313a207472616e736665722066726f6d20696e636f72726563742060008201527f6f776e6572000000000000000000000000000000000000000000000000000000602082015250565b6000612872602583611d68565b915061287d82612816565b604082019050919050565b600060208201905081810360008301526128a181612865565b9050919050565b7f4552433732313a207472616e7366657220746f20746865207a65726f2061646460008201527f7265737300000000000000000000000000000000000000000000000000000000602082015250565b6000612904602483611d68565b915061290f826128a8565b604082019050919050565b60006020820190508181036000830152612933816128f7565b9050919050565b600061294582611c5a565b915061295083611c5a565b9250828210156129635761296261251d565b5b828203905092915050565b600061297982611c5a565b915061298483611c5a565b9250827fffffffffffffffffffffffffffffffffffffffffffffffffffffffffffffffff038211156129b9576129b861251d565b5b828201905092915050565b7f4552433732313a206d696e7420746f20746865207a65726f2061646472657373600082015250565b60006129fa602083611d68565b9150612a05826129c4565b602082019050919050565b60006020820190508181036000830152612a29816129ed565b9050919050565b7f4552433732313a20746f6b656e20616c7265616479206d696e74656400000000600082015250565b6000612a66601c83611d68565b9150612a7182612a30565b602082019050919050565b60006020820190508181036000830152612a9581612a59565b9050919050565b7f4552433732314d657461646174613a2055524920736574206f66206e6f6e657860008201527f697374656e7420746f6b656e0000000000000000000000000000000000000000602082015250565b6000612af8602c83611d68565b9150612b0382612a9c565b604082019050919050565b60006020820190508181036000830152612b2781612aeb565b9050919050565b7f4f776e61626c653a2063616c6c6572206973206e6f7420746865206f776e6572600082015250565b6000612b64602083611d68565b9150612b6f82612b2e565b602082019050919050565b60006020820190508181036000830152612b9381612b57565b9050919050565b7f4552433732313a20617070726f766520746f2063616c6c657200000000000000600082015250565b6000612bd0601983611d68565b9150612bdb82612b9a565b602082019050919050565b60006020820190508181036000830152612bff81612bc3565b9050919050565b7f4552433732313a207472616e7366657220746f206e6f6e20455243373231526560008201527f63656976657220696d706c656d656e7465720000000000000000000000000000602082015250565b6000612c62603283611d68565b9150612c6d82612c06565b604082019050919050565b60006020820190508181036000830152612c9181612c55565b9050919050565b7f4e487b7100000000000000000000000000000000000000000000000000000000600052601260045260246000fd5b6000612cd282611c5a565b9150612cdd83611c5a565b925082612ced57612cec612c98565b5b828204905092915050565b6000612d0382611c5a565b9150612d0e83611c5a565b925082612d1e57612d1d612c98565b5b828206905092915050565b7f4e487b7100000000000000000000000000000000000000000000000000000000600052603260045260246000fd5b600081519050919050565b600082825260208201905092915050565b6000612d7f82612d58565b612d898185612d63565b9350612d99818560208601611d79565b612da281611dac565b840191505092915050565b6000608082019050612dc26000830187611ea3565b612dcf6020830186611ea3565b612ddc6040830185611c64565b8181036060830152612dee8184612d74565b905095945050505050565b600081519050612e0881611cce565b92915050565b600060208284031215612e2457612e23611c98565b5b6000612e3284828501612df9565b9150509291505056fea26469706673582212204df2f599d36278d839b12980194f1a74df2b06446903de34e1df739cf6137fb264736f6c634300080e0033a26469706673582212203a38a1b6eb1c1c2a5020b50dd2f1d7ed963dff5a88ba221073c9377ea45b780664736f6c634300080e0033",
  "devdoc": {
    "kind": "dev",
    "methods": {
      "owner()": {
        "details": "Returns the address of the current owner."
      },
      "renounceOwnership()": {
        "details": "Leaves the contract without owner. It will not be possible to call `onlyOwner` functions anymore. Can only be called by the current owner. NOTE: Renouncing ownership will leave the contract without an owner, thereby removing any functionality that is only available to the owner."
      },
      "transferOwnership(address)": {
        "details": "Transfers ownership of the contract to a new account (`newOwner`). Can only be called by the current owner."
      }
    },
    "version": 1
  },
  "userdoc": {
    "kind": "user",
    "methods": {},
    "version": 1
  },
  "storageLayout": {
    "storage": [
      {
        "astId": 123,
        "contract": "contracts/SignetControllor.sol:SignetControllor",
        "label": "_status",
        "offset": 0,
        "slot": "0",
        "type": "t_uint256"
      },
      {
        "astId": 7,
        "contract": "contracts/SignetControllor.sol:SignetControllor",
        "label": "_owner",
        "offset": 0,
        "slot": "1",
        "type": "t_address"
      },
      {
        "astId": 1857,
        "contract": "contracts/SignetControllor.sol:SignetControllor",
        "label": "sSignetor",
        "offset": 0,
        "slot": "2",
        "type": "t_contract(Signetor)2859"
      },
      {
        "astId": 1860,
        "contract": "contracts/SignetControllor.sol:SignetControllor",
        "label": "ST",
        "offset": 0,
        "slot": "3",
        "type": "t_contract(Signetors)3045"
      },
      {
        "astId": 1863,
        "contract": "contracts/SignetControllor.sol:SignetControllor",
        "label": "STCrator",
        "offset": 0,
        "slot": "4",
        "type": "t_contract(Signetors)3045"
      },
      {
        "astId": 1865,
        "contract": "contracts/SignetControllor.sol:SignetControllor",
        "label": "TotalSignetorsNum",
        "offset": 0,
        "slot": "5",
        "type": "t_uint256"
      },
      {
        "astId": 1883,
        "contract": "contracts/SignetControllor.sol:SignetControllor",
        "label": "follower",
        "offset": 0,
        "slot": "6",
        "type": "t_mapping(t_address,t_struct(Followers)1878_storage)"
      },
      {
        "astId": 1898,
        "contract": "contracts/SignetControllor.sol:SignetControllor",
        "label": "following",
        "offset": 0,
        "slot": "7",
        "type": "t_mapping(t_address,t_struct(Following)1893_storage)"
      },
      {
        "astId": 1903,
        "contract": "contracts/SignetControllor.sol:SignetControllor",
        "label": "collectionContractList",
        "offset": 0,
        "slot": "8",
        "type": "t_mapping(t_address,t_struct(ownerstruct)1868_storage)"
      }
    ],
    "types": {
      "t_address": {
        "encoding": "inplace",
        "label": "address",
        "numberOfBytes": "20"
      },
      "t_array(t_struct(followers)1871_storage)dyn_storage": {
        "base": "t_struct(followers)1871_storage",
        "encoding": "dynamic_array",
        "label": "struct SignetControllor.followers[]",
        "numberOfBytes": "32"
      },
      "t_array(t_struct(followings)1886_storage)dyn_storage": {
        "base": "t_struct(followings)1886_storage",
        "encoding": "dynamic_array",
        "label": "struct SignetControllor.followings[]",
        "numberOfBytes": "32"
      },
      "t_contract(Signetor)2859": {
        "encoding": "inplace",
        "label": "contract Signetor",
        "numberOfBytes": "20"
      },
      "t_contract(Signetors)3045": {
        "encoding": "inplace",
        "label": "contract Signetors",
        "numberOfBytes": "20"
      },
      "t_mapping(t_address,t_struct(Followers)1878_storage)": {
        "encoding": "mapping",
        "key": "t_address",
        "label": "mapping(address => struct SignetControllor.Followers)",
        "numberOfBytes": "32",
        "value": "t_struct(Followers)1878_storage"
      },
      "t_mapping(t_address,t_struct(Following)1893_storage)": {
        "encoding": "mapping",
        "key": "t_address",
        "label": "mapping(address => struct SignetControllor.Following)",
        "numberOfBytes": "32",
        "value": "t_struct(Following)1893_storage"
      },
      "t_mapping(t_address,t_struct(ownerstruct)1868_storage)": {
        "encoding": "mapping",
        "key": "t_address",
        "label": "mapping(address => struct SignetControllor.ownerstruct)",
        "numberOfBytes": "32",
        "value": "t_struct(ownerstruct)1868_storage"
      },
      "t_struct(Followers)1878_storage": {
        "encoding": "inplace",
        "label": "struct SignetControllor.Followers",
        "members": [
          {
            "astId": 1873,
            "contract": "contracts/SignetControllor.sol:SignetControllor",
            "label": "followerNum",
            "offset": 0,
            "slot": "0",
            "type": "t_uint256"
          },
          {
            "astId": 1877,
            "contract": "contracts/SignetControllor.sol:SignetControllor",
            "label": "whoFollowed",
            "offset": 0,
            "slot": "1",
            "type": "t_array(t_struct(followers)1871_storage)dyn_storage"
          }
        ],
        "numberOfBytes": "64"
      },
      "t_struct(Following)1893_storage": {
        "encoding": "inplace",
        "label": "struct SignetControllor.Following",
        "members": [
          {
            "astId": 1888,
            "contract": "contracts/SignetControllor.sol:SignetControllor",
            "label": "FollowingNum",
            "offset": 0,
            "slot": "0",
            "type": "t_uint256"
          },
          {
            "astId": 1892,
            "contract": "contracts/SignetControllor.sol:SignetControllor",
            "label": "followedWho",
            "offset": 0,
            "slot": "1",
            "type": "t_array(t_struct(followings)1886_storage)dyn_storage"
          }
        ],
        "numberOfBytes": "64"
      },
      "t_struct(followers)1871_storage": {
        "encoding": "inplace",
        "label": "struct SignetControllor.followers",
        "members": [
          {
            "astId": 1870,
            "contract": "contracts/SignetControllor.sol:SignetControllor",
            "label": "followed",
            "offset": 0,
            "slot": "0",
            "type": "t_address"
          }
        ],
        "numberOfBytes": "32"
      },
      "t_struct(followings)1886_storage": {
        "encoding": "inplace",
        "label": "struct SignetControllor.followings",
        "members": [
          {
            "astId": 1885,
            "contract": "contracts/SignetControllor.sol:SignetControllor",
            "label": "followinged",
            "offset": 0,
            "slot": "0",
            "type": "t_address"
          }
        ],
        "numberOfBytes": "32"
      },
      "t_struct(ownerstruct)1868_storage": {
        "encoding": "inplace",
        "label": "struct SignetControllor.ownerstruct",
        "members": [
          {
            "astId": 1867,
            "contract": "contracts/SignetControllor.sol:SignetControllor",
            "label": "owner",
            "offset": 0,
            "slot": "0",
            "type": "t_address"
          }
        ],
        "numberOfBytes": "32"
      },
      "t_uint256": {
        "encoding": "inplace",
        "label": "uint256",
        "numberOfBytes": "32"
      }
    }
  }
}