{
    "_format": "hh-sol-artifact-1",
    "contractName": "Signetor",
    "sourceName": "contracts/Signetor.sol",
    "abi": [
        {
            "inputs": [
                {
                    "internalType": "string",
                    "name": "_name",
                    "type": "string"
                },
                {
                    "internalType": "string",
                    "name": "_symbol",
                    "type": "string"
                },
                {
                    "internalType": "address",
                    "name": "owner",
                    "type": "address"
                },
                {
                    "internalType": "address",
                    "name": "signetControllors",
                    "type": "address"
                }
            ],
            "stateMutability": "nonpayable",
            "type": "constructor"
        },
        {
            "inputs": [],
            "name": "Not__FromSignetControllors",
            "type": "error"
        },
        {
            "anonymous": false,
            "inputs": [
                {
                    "indexed": true,
                    "internalType": "address",
                    "name": "owner",
                    "type": "address"
                },
                {
                    "indexed": true,
                    "internalType": "address",
                    "name": "approved",
                    "type": "address"
                },
                {
                    "indexed": true,
                    "internalType": "uint256",
                    "name": "tokenId",
                    "type": "uint256"
                }
            ],
            "name": "Approval",
            "type": "event"
        },
        {
            "anonymous": false,
            "inputs": [
                {
                    "indexed": true,
                    "internalType": "address",
                    "name": "owner",
                    "type": "address"
                },
                {
                    "indexed": true,
                    "internalType": "address",
                    "name": "operator",
                    "type": "address"
                },
                {
                    "indexed": false,
                    "internalType": "bool",
                    "name": "approved",
                    "type": "bool"
                }
            ],
            "name": "ApprovalForAll",
            "type": "event"
        },
        {
            "anonymous": false,
            "inputs": [
                {
                    "indexed": true,
                    "internalType": "address",
                    "name": "previousOwner",
                    "type": "address"
                },
                {
                    "indexed": true,
                    "internalType": "address",
                    "name": "newOwner",
                    "type": "address"
                }
            ],
            "name": "OwnershipTransferred",
            "type": "event"
        },
        {
            "anonymous": false,
            "inputs": [
                {
                    "indexed": true,
                    "internalType": "address",
                    "name": "from",
                    "type": "address"
                },
                {
                    "indexed": true,
                    "internalType": "address",
                    "name": "to",
                    "type": "address"
                },
                {
                    "indexed": true,
                    "internalType": "uint256",
                    "name": "tokenId",
                    "type": "uint256"
                }
            ],
            "name": "Transfer",
            "type": "event"
        },
        {
            "inputs": [],
            "name": "SignetControllors",
            "outputs": [
                {
                    "internalType": "address",
                    "name": "",
                    "type": "address"
                }
            ],
            "stateMutability": "view",
            "type": "function"
        },
        {
            "inputs": [],
            "name": "SignetorContractAddress",
            "outputs": [
                {
                    "internalType": "address",
                    "name": "",
                    "type": "address"
                }
            ],
            "stateMutability": "view",
            "type": "function"
        },
        {
            "inputs": [],
            "name": "_getAllowedTranfer",
            "outputs": [
                {
                    "internalType": "bool",
                    "name": "",
                    "type": "bool"
                }
            ],
            "stateMutability": "view",
            "type": "function"
        },
        {
            "inputs": [
                {
                    "internalType": "address",
                    "name": "to",
                    "type": "address"
                },
                {
                    "internalType": "uint256",
                    "name": "tokenId",
                    "type": "uint256"
                }
            ],
            "name": "approve",
            "outputs": [],
            "stateMutability": "nonpayable",
            "type": "function"
        },
        {
            "inputs": [
                {
                    "internalType": "address",
                    "name": "owner",
                    "type": "address"
                }
            ],
            "name": "balanceOf",
            "outputs": [
                {
                    "internalType": "uint256",
                    "name": "",
                    "type": "uint256"
                }
            ],
            "stateMutability": "view",
            "type": "function"
        },
        {
            "inputs": [
                {
                    "internalType": "uint256",
                    "name": "tokenId",
                    "type": "uint256"
                }
            ],
            "name": "getApproved",
            "outputs": [
                {
                    "internalType": "address",
                    "name": "",
                    "type": "address"
                }
            ],
            "stateMutability": "view",
            "type": "function"
        },
        {
            "inputs": [
                {
                    "internalType": "address",
                    "name": "owner",
                    "type": "address"
                },
                {
                    "internalType": "address",
                    "name": "operator",
                    "type": "address"
                }
            ],
            "name": "isApprovedForAll",
            "outputs": [
                {
                    "internalType": "bool",
                    "name": "",
                    "type": "bool"
                }
            ],
            "stateMutability": "view",
            "type": "function"
        },
        {
            "inputs": [],
            "name": "name",
            "outputs": [
                {
                    "internalType": "string",
                    "name": "",
                    "type": "string"
                }
            ],
            "stateMutability": "view",
            "type": "function"
        },
        {
            "inputs": [],
            "name": "owner",
            "outputs": [
                {
                    "internalType": "address",
                    "name": "",
                    "type": "address"
                }
            ],
            "stateMutability": "view",
            "type": "function"
        },
        {
            "inputs": [
                {
                    "internalType": "uint256",
                    "name": "tokenId",
                    "type": "uint256"
                }
            ],
            "name": "ownerOf",
            "outputs": [
                {
                    "internalType": "address",
                    "name": "",
                    "type": "address"
                }
            ],
            "stateMutability": "view",
            "type": "function"
        },
        {
            "inputs": [],
            "name": "renounceOwnership",
            "outputs": [],
            "stateMutability": "nonpayable",
            "type": "function"
        },
        {
            "inputs": [
                {
                    "internalType": "address",
                    "name": "from",
                    "type": "address"
                },
                {
                    "internalType": "address",
                    "name": "to",
                    "type": "address"
                },
                {
                    "internalType": "uint256",
                    "name": "tokenId",
                    "type": "uint256"
                }
            ],
            "name": "safeTransferFrom",
            "outputs": [],
            "stateMutability": "nonpayable",
            "type": "function"
        },
        {
            "inputs": [
                {
                    "internalType": "address",
                    "name": "from",
                    "type": "address"
                },
                {
                    "internalType": "address",
                    "name": "to",
                    "type": "address"
                },
                {
                    "internalType": "uint256",
                    "name": "tokenId",
                    "type": "uint256"
                },
                {
                    "internalType": "bytes",
                    "name": "data",
                    "type": "bytes"
                }
            ],
            "name": "safeTransferFrom",
            "outputs": [],
            "stateMutability": "nonpayable",
            "type": "function"
        },
        {
            "inputs": [
                {
                    "internalType": "string",
                    "name": "tokenURI_",
                    "type": "string"
                }
            ],
            "name": "sendMessage",
            "outputs": [
                {
                    "internalType": "uint256",
                    "name": "",
                    "type": "uint256"
                }
            ],
            "stateMutability": "nonpayable",
            "type": "function"
        },
        {
            "inputs": [
                {
                    "internalType": "address",
                    "name": "operator",
                    "type": "address"
                },
                {
                    "internalType": "bool",
                    "name": "approved",
                    "type": "bool"
                }
            ],
            "name": "setApprovalForAll",
            "outputs": [],
            "stateMutability": "nonpayable",
            "type": "function"
        },
        {
            "inputs": [
                {
                    "internalType": "string",
                    "name": "baseURI_",
                    "type": "string"
                }
            ],
            "name": "setBaseURI",
            "outputs": [],
            "stateMutability": "nonpayable",
            "type": "function"
        },
        {
            "inputs": [],
            "name": "signetControllor",
            "outputs": [
                {
                    "internalType": "address",
                    "name": "",
                    "type": "address"
                }
            ],
            "stateMutability": "view",
            "type": "function"
        },
        {
            "inputs": [
                {
                    "internalType": "bytes4",
                    "name": "interfaceId",
                    "type": "bytes4"
                }
            ],
            "name": "supportsInterface",
            "outputs": [
                {
                    "internalType": "bool",
                    "name": "",
                    "type": "bool"
                }
            ],
            "stateMutability": "view",
            "type": "function"
        },
        {
            "inputs": [],
            "name": "symbol",
            "outputs": [
                {
                    "internalType": "string",
                    "name": "",
                    "type": "string"
                }
            ],
            "stateMutability": "view",
            "type": "function"
        },
        {
            "inputs": [
                {
                    "internalType": "uint256",
                    "name": "tokenId",
                    "type": "uint256"
                }
            ],
            "name": "tokenURI",
            "outputs": [
                {
                    "internalType": "string",
                    "name": "",
                    "type": "string"
                }
            ],
            "stateMutability": "view",
            "type": "function"
        },
        {
            "inputs": [],
            "name": "token_Id",
            "outputs": [
                {
                    "internalType": "uint256",
                    "name": "",
                    "type": "uint256"
                }
            ],
            "stateMutability": "view",
            "type": "function"
        },
        {
            "inputs": [
                {
                    "internalType": "address",
                    "name": "from",
                    "type": "address"
                },
                {
                    "internalType": "address",
                    "name": "to",
                    "type": "address"
                },
                {
                    "internalType": "uint256",
                    "name": "tokenId",
                    "type": "uint256"
                }
            ],
            "name": "transferFrom",
            "outputs": [],
            "stateMutability": "nonpayable",
            "type": "function"
        },
        {
            "inputs": [
                {
                    "internalType": "address",
                    "name": "newOwner",
                    "type": "address"
                }
            ],
            "name": "transferOwnership",
            "outputs": [],
            "stateMutability": "nonpayable",
            "type": "function"
        }
    ],
    "bytecode": "0x60806040523480156200001157600080fd5b5060405162003a2238038062003a2283398181016040528101906200003791906200064f565b8383828260019080519060200190620000529291906200039d565b5081600290805190602001906200006b9291906200039d565b50806000806101000a81548173ffffffffffffffffffffffffffffffffffffffff021916908373ffffffffffffffffffffffffffffffffffffffff160217905550505050620000cf620000c36200013b60201b60201c565b6200014360201b60201c565b620000df6200020960201b60201c565b620000f0826200024c60201b60201c565b80600960006101000a81548173ffffffffffffffffffffffffffffffffffffffff021916908373ffffffffffffffffffffffffffffffffffffffff160217905550505050506200087e565b600033905090565b6000600760009054906101000a900473ffffffffffffffffffffffffffffffffffffffff16905081600760006101000a81548173ffffffffffffffffffffffffffffffffffffffff021916908373ffffffffffffffffffffffffffffffffffffffff1602179055508173ffffffffffffffffffffffffffffffffffffffff168173ffffffffffffffffffffffffffffffffffffffff167f8be0079c531659141344cd1fd0a4f28419497f9722a3daafe3b4186f6b6457e060405160405180910390a35050565b30600860006101000a81548173ffffffffffffffffffffffffffffffffffffffff021916908373ffffffffffffffffffffffffffffffffffffffff160217905550565b6200025c620002e260201b60201c565b600073ffffffffffffffffffffffffffffffffffffffff168173ffffffffffffffffffffffffffffffffffffffff1603620002ce576040517f08c379a0000000000000000000000000000000000000000000000000000000008152600401620002c59062000786565b60405180910390fd5b620002df816200014360201b60201c565b50565b620002f26200013b60201b60201c565b73ffffffffffffffffffffffffffffffffffffffff16620003186200037360201b60201c565b73ffffffffffffffffffffffffffffffffffffffff161462000371576040517f08c379a00000000000000000000000000000000000000000000000000000000081526004016200036890620007f8565b60405180910390fd5b565b6000600760009054906101000a900473ffffffffffffffffffffffffffffffffffffffff16905090565b828054620003ab9062000849565b90600052602060002090601f016020900481019282620003cf57600085556200041b565b82601f10620003ea57805160ff19168380011785556200041b565b828001600101855582156200041b579182015b828111156200041a578251825591602001919060010190620003fd565b5b5090506200042a91906200042e565b5090565b5b80821115620004495760008160009055506001016200042f565b5090565b6000604051905090565b600080fd5b600080fd5b600080fd5b600080fd5b6000601f19601f8301169050919050565b7f4e487b7100000000000000000000000000000000000000000000000000000000600052604160045260246000fd5b620004b6826200046b565b810181811067ffffffffffffffff82111715620004d857620004d76200047c565b5b80604052505050565b6000620004ed6200044d565b9050620004fb8282620004ab565b919050565b600067ffffffffffffffff8211156200051e576200051d6200047c565b5b62000529826200046b565b9050602081019050919050565b60005b838110156200055657808201518184015260208101905062000539565b8381111562000566576000848401525b50505050565b6000620005836200057d8462000500565b620004e1565b905082815260208101848484011115620005a257620005a162000466565b5b620005af84828562000536565b509392505050565b600082601f830112620005cf57620005ce62000461565b5b8151620005e18482602086016200056c565b91505092915050565b600073ffffffffffffffffffffffffffffffffffffffff82169050919050565b60006200061782620005ea565b9050919050565b62000629816200060a565b81146200063557600080fd5b50565b60008151905062000649816200061e565b92915050565b600080600080608085870312156200066c576200066b62000457565b5b600085015167ffffffffffffffff8111156200068d576200068c6200045c565b5b6200069b87828801620005b7565b945050602085015167ffffffffffffffff811115620006bf57620006be6200045c565b5b620006cd87828801620005b7565b9350506040620006e08782880162000638565b9250506060620006f38782880162000638565b91505092959194509250565b600082825260208201905092915050565b7f4f776e61626c653a206e6577206f776e657220697320746865207a65726f206160008201527f6464726573730000000000000000000000000000000000000000000000000000602082015250565b60006200076e602683620006ff565b91506200077b8262000710565b604082019050919050565b60006020820190508181036000830152620007a1816200075f565b9050919050565b7f4f776e61626c653a2063616c6c6572206973206e6f7420746865206f776e6572600082015250565b6000620007e0602083620006ff565b9150620007ed82620007a8565b602082019050919050565b600060208201905081810360008301526200081381620007d1565b9050919050565b7f4e487b7100000000000000000000000000000000000000000000000000000000600052602260045260246000fd5b600060028204905060018216806200086257607f821691505b6020821081036200087857620008776200081a565b5b50919050565b613194806200088e6000396000f3fe608060405234801561001057600080fd5b506004361061014c5760003560e01c806370a08231116100c3578063b4aa7ca21161007c578063b4aa7ca21461038b578063b88d4fde146103a9578063c87b56dd146103c5578063e985e9c5146103f5578063f2fde38b14610425578063ffb0958d146104415761014c565b806370a08231146102db578063715018a61461030b5780638da5cb5b1461031557806395d89b4114610333578063975073ba14610351578063a22cb4651461036f5761014c565b8063095ea7b311610115578063095ea7b31461020b57806323b872dd1461022757806342842e0e14610243578063469c81101461025f57806355f804b31461028f5780636352211e146102ab5761014c565b806204586c1461015157806301f5883c1461016f57806301ffc9a71461018d57806306fdde03146101bd578063081812fc146101db575b600080fd5b61015961045f565b6040516101669190611f79565b60405180910390f35b610177610465565b6040516101849190611fd5565b60405180910390f35b6101a760048036038101906101a2919061205c565b610489565b6040516101b491906120a4565b60405180910390f35b6101c561056b565b6040516101d29190612158565b60405180910390f35b6101f560048036038101906101f091906121a6565b6105fd565b6040516102029190611fd5565b60405180910390f35b610225600480360381019061022091906121ff565b610643565b005b610241600480360381019061023c919061223f565b61075a565b005b61025d6004803603810190610258919061223f565b610808565b005b610279600480360381019061027491906123c7565b610876565b6040516102869190611f79565b60405180910390f35b6102a960048036038101906102a491906123c7565b610946565b005b6102c560048036038101906102c091906121a6565b610968565b6040516102d29190611fd5565b60405180910390f35b6102f560048036038101906102f09190612410565b610a19565b6040516103029190611f79565b60405180910390f35b610313610ad0565b005b61031d610ae4565b60405161032a9190611fd5565b60405180910390f35b61033b610b0e565b6040516103489190612158565b60405180910390f35b610359610ba0565b6040516103669190611fd5565b60405180910390f35b61038960048036038101906103849190612469565b610bc6565b005b610393610bdc565b6040516103a091906120a4565b60405180910390f35b6103c360048036038101906103be919061254a565b610c73565b005b6103df60048036038101906103da91906121a6565b610d23565b6040516103ec9190612158565b60405180910390f35b61040f600480360381019061040a91906125cd565b610e95565b60405161041c91906120a4565b60405180910390f35b61043f600480360381019061043a9190612410565b610f29565b005b610449610fac565b6040516104569190611fd5565b60405180910390f35b600a5481565b60008054906101000a900473ffffffffffffffffffffffffffffffffffffffff1681565b60007f80ac58cd000000000000000000000000000000000000000000000000000000007bffffffffffffffffffffffffffffffffffffffffffffffffffffffff1916827bffffffffffffffffffffffffffffffffffffffffffffffffffffffff1916148061055457507f5b5e139f000000000000000000000000000000000000000000000000000000007bffffffffffffffffffffffffffffffffffffffffffffffffffffffff1916827bffffffffffffffffffffffffffffffffffffffffffffffffffffffff1916145b80610564575061056382610fd2565b5b9050919050565b60606001805461057a9061263c565b80601f01602080910402602001604051908101604052809291908181526020018280546105a69061263c565b80156105f35780601f106105c8576101008083540402835291602001916105f3565b820191906000526020600020905b8154815290600101906020018083116105d657829003601f168201915b5050505050905090565b60006106088261103c565b6005600083815260200190815260200160002060009054906101000a900473ffffffffffffffffffffffffffffffffffffffff169050919050565b600061064e82610968565b90508073ffffffffffffffffffffffffffffffffffffffff168373ffffffffffffffffffffffffffffffffffffffff16036106be576040517f08c379a00000000000000000000000000000000000000000000000000000000081526004016106b5906126df565b60405180910390fd5b8073ffffffffffffffffffffffffffffffffffffffff166106dd611087565b73ffffffffffffffffffffffffffffffffffffffff16148061070c575061070b81610706611087565b610e95565b5b61074b576040517f08c379a000000000000000000000000000000000000000000000000000000000815260040161074290612771565b60405180910390fd5b610755838361108f565b505050565b60011515610766610bdc565b1515146107a8576040517f08c379a000000000000000000000000000000000000000000000000000000000815260040161079f906127dd565b60405180910390fd5b6107b96107b3611087565b82611148565b6107f8576040517f08c379a00000000000000000000000000000000000000000000000000000000081526004016107ef9061286f565b60405180910390fd5b6108038383836111dd565b505050565b60011515610814610bdc565b151514610856576040517f08c379a000000000000000000000000000000000000000000000000000000000815260040161084d906127dd565b60405180910390fd5b61087183838360405180602001604052806000815250610c73565b505050565b6000600960009054906101000a900473ffffffffffffffffffffffffffffffffffffffff1673ffffffffffffffffffffffffffffffffffffffff163373ffffffffffffffffffffffffffffffffffffffff16146108ff576040517f3cfd317500000000000000000000000000000000000000000000000000000000815260040160405180910390fd5b600a6000815480929190610912906128be565b91905055506000610921610ae4565b905061092f81600a54611443565b61093b600a548461161c565b600a54915050919050565b61094e611690565b80600c9080519060200190610964929190611ebd565b5050565b6000806003600084815260200190815260200160002060009054906101000a900473ffffffffffffffffffffffffffffffffffffffff169050600073ffffffffffffffffffffffffffffffffffffffff168173ffffffffffffffffffffffffffffffffffffffff1603610a10576040517f08c379a0000000000000000000000000000000000000000000000000000000008152600401610a0790612952565b60405180910390fd5b80915050919050565b60008073ffffffffffffffffffffffffffffffffffffffff168273ffffffffffffffffffffffffffffffffffffffff1603610a89576040517f08c379a0000000000000000000000000000000000000000000000000000000008152600401610a80906129e4565b60405180910390fd5b600460008373ffffffffffffffffffffffffffffffffffffffff1673ffffffffffffffffffffffffffffffffffffffff168152602001908152602001600020549050919050565b610ad8611690565b610ae2600061170e565b565b6000600760009054906101000a900473ffffffffffffffffffffffffffffffffffffffff16905090565b606060028054610b1d9061263c565b80601f0160208091040260200160405190810160405280929190818152602001828054610b499061263c565b8015610b965780601f10610b6b57610100808354040283529160200191610b96565b820191906000526020600020905b815481529060010190602001808311610b7957829003601f168201915b5050505050905090565b600960009054906101000a900473ffffffffffffffffffffffffffffffffffffffff1681565b610bd8610bd1611087565b83836117d4565b5050565b60008060009054906101000a900473ffffffffffffffffffffffffffffffffffffffff1673ffffffffffffffffffffffffffffffffffffffff166398a394ca6040518163ffffffff1660e01b8152600401602060405180830381865afa158015610c4a573d6000803e3d6000fd5b505050506040513d601f19601f82011682018060405250810190610c6e9190612a19565b905090565b60011515610c7f610bdc565b151514610cc1576040517f08c379a0000000000000000000000000000000000000000000000000000000008152600401610cb8906127dd565b60405180910390fd5b610cd2610ccc611087565b83611148565b610d11576040517f08c379a0000000000000000000000000000000000000000000000000000000008152600401610d089061286f565b60405180910390fd5b610d1d84848484611940565b50505050565b6060610d2e826119ea565b610d6d576040517f08c379a0000000000000000000000000000000000000000000000000000000008152600401610d6490612ab8565b60405180910390fd5b6000600b60008481526020019081526020016000208054610d8d9061263c565b80601f0160208091040260200160405190810160405280929190818152602001828054610db99061263c565b8015610e065780601f10610ddb57610100808354040283529160200191610e06565b820191906000526020600020905b815481529060010190602001808311610de957829003601f168201915b505050505090506000610e17611a56565b90506000815103610e2c578192505050610e90565b600082511115610e61578082604051602001610e49929190612b14565b60405160208183030381529060405292505050610e90565b80610e6b85611ae8565b604051602001610e7c929190612b14565b604051602081830303815290604052925050505b919050565b6000600660008473ffffffffffffffffffffffffffffffffffffffff1673ffffffffffffffffffffffffffffffffffffffff16815260200190815260200160002060008373ffffffffffffffffffffffffffffffffffffffff1673ffffffffffffffffffffffffffffffffffffffff16815260200190815260200160002060009054906101000a900460ff16905092915050565b610f31611690565b600073ffffffffffffffffffffffffffffffffffffffff168173ffffffffffffffffffffffffffffffffffffffff1603610fa0576040517f08c379a0000000000000000000000000000000000000000000000000000000008152600401610f9790612baa565b60405180910390fd5b610fa98161170e565b50565b600860009054906101000a900473ffffffffffffffffffffffffffffffffffffffff1681565b60007f01ffc9a7000000000000000000000000000000000000000000000000000000007bffffffffffffffffffffffffffffffffffffffffffffffffffffffff1916827bffffffffffffffffffffffffffffffffffffffffffffffffffffffff1916149050919050565b611045816119ea565b611084576040517f08c379a000000000000000000000000000000000000000000000000000000000815260040161107b90612952565b60405180910390fd5b50565b600033905090565b816005600083815260200190815260200160002060006101000a81548173ffffffffffffffffffffffffffffffffffffffff021916908373ffffffffffffffffffffffffffffffffffffffff160217905550808273ffffffffffffffffffffffffffffffffffffffff1661110283610968565b73ffffffffffffffffffffffffffffffffffffffff167f8c5be1e5ebec7d5bd14f71427d1e84f3dd0314c0f7b2291e5b200ac8c7c3b92560405160405180910390a45050565b60008061115483610968565b90508073ffffffffffffffffffffffffffffffffffffffff168473ffffffffffffffffffffffffffffffffffffffff16148061119657506111958185610e95565b5b806111d457508373ffffffffffffffffffffffffffffffffffffffff166111bc846105fd565b73ffffffffffffffffffffffffffffffffffffffff16145b91505092915050565b8273ffffffffffffffffffffffffffffffffffffffff166111fd82610968565b73ffffffffffffffffffffffffffffffffffffffff1614611253576040517f08c379a000000000000000000000000000000000000000000000000000000000815260040161124a90612c3c565b60405180910390fd5b600073ffffffffffffffffffffffffffffffffffffffff168273ffffffffffffffffffffffffffffffffffffffff16036112c2576040517f08c379a00000000000000000000000000000000000000000000000000000000081526004016112b990612cce565b60405180910390fd5b6112cd838383611bb6565b6112d860008261108f565b6001600460008573ffffffffffffffffffffffffffffffffffffffff1673ffffffffffffffffffffffffffffffffffffffff16815260200190815260200160002060008282546113289190612cee565b925050819055506001600460008473ffffffffffffffffffffffffffffffffffffffff1673ffffffffffffffffffffffffffffffffffffffff168152602001908152602001600020600082825461137f9190612d22565b92505081905550816003600083815260200190815260200160002060006101000a81548173ffffffffffffffffffffffffffffffffffffffff021916908373ffffffffffffffffffffffffffffffffffffffff160217905550808273ffffffffffffffffffffffffffffffffffffffff168473ffffffffffffffffffffffffffffffffffffffff167fddf252ad1be2c89b69c2b068fc378daa952ba7f163c4a11628f55a4df523b3ef60405160405180910390a461143e838383611bbb565b505050565b600073ffffffffffffffffffffffffffffffffffffffff168273ffffffffffffffffffffffffffffffffffffffff16036114b2576040517f08c379a00000000000000000000000000000000000000000000000000000000081526004016114a990612dc4565b60405180910390fd5b6114bb816119ea565b156114fb576040517f08c379a00000000000000000000000000000000000000000000000000000000081526004016114f290612e30565b60405180910390fd5b61150760008383611bb6565b6001600460008473ffffffffffffffffffffffffffffffffffffffff1673ffffffffffffffffffffffffffffffffffffffff16815260200190815260200160002060008282546115579190612d22565b92505081905550816003600083815260200190815260200160002060006101000a81548173ffffffffffffffffffffffffffffffffffffffff021916908373ffffffffffffffffffffffffffffffffffffffff160217905550808273ffffffffffffffffffffffffffffffffffffffff16600073ffffffffffffffffffffffffffffffffffffffff167fddf252ad1be2c89b69c2b068fc378daa952ba7f163c4a11628f55a4df523b3ef60405160405180910390a461161860008383611bbb565b5050565b611625826119ea565b611664576040517f08c379a000000000000000000000000000000000000000000000000000000000815260040161165b90612ec2565b60405180910390fd5b80600b6000848152602001908152602001600020908051906020019061168b929190611ebd565b505050565b611698611087565b73ffffffffffffffffffffffffffffffffffffffff166116b6610ae4565b73ffffffffffffffffffffffffffffffffffffffff161461170c576040517f08c379a000000000000000000000000000000000000000000000000000000000815260040161170390612f2e565b60405180910390fd5b565b6000600760009054906101000a900473ffffffffffffffffffffffffffffffffffffffff16905081600760006101000a81548173ffffffffffffffffffffffffffffffffffffffff021916908373ffffffffffffffffffffffffffffffffffffffff1602179055508173ffffffffffffffffffffffffffffffffffffffff168173ffffffffffffffffffffffffffffffffffffffff167f8be0079c531659141344cd1fd0a4f28419497f9722a3daafe3b4186f6b6457e060405160405180910390a35050565b8173ffffffffffffffffffffffffffffffffffffffff168373ffffffffffffffffffffffffffffffffffffffff1603611842576040517f08c379a000000000000000000000000000000000000000000000000000000000815260040161183990612f9a565b60405180910390fd5b80600660008573ffffffffffffffffffffffffffffffffffffffff1673ffffffffffffffffffffffffffffffffffffffff16815260200190815260200160002060008473ffffffffffffffffffffffffffffffffffffffff1673ffffffffffffffffffffffffffffffffffffffff16815260200190815260200160002060006101000a81548160ff0219169083151502179055508173ffffffffffffffffffffffffffffffffffffffff168373ffffffffffffffffffffffffffffffffffffffff167f17307eab39ab6107e8899845ad3d59bd9653f200f220920489ca2b5937696c318360405161193391906120a4565b60405180910390a3505050565b6001151561194c610bdc565b15151461198e576040517f08c379a0000000000000000000000000000000000000000000000000000000008152600401611985906127dd565b60405180910390fd5b6119998484846111dd565b6119a584848484611bc0565b6119e4576040517f08c379a00000000000000000000000000000000000000000000000000000000081526004016119db9061302c565b60405180910390fd5b50505050565b60008073ffffffffffffffffffffffffffffffffffffffff166003600084815260200190815260200160002060009054906101000a900473ffffffffffffffffffffffffffffffffffffffff1673ffffffffffffffffffffffffffffffffffffffff1614159050919050565b6060600c8054611a659061263c565b80601f0160208091040260200160405190810160405280929190818152602001828054611a919061263c565b8015611ade5780601f10611ab357610100808354040283529160200191611ade565b820191906000526020600020905b815481529060010190602001808311611ac157829003601f168201915b5050505050905090565b606060006001611af784611d47565b01905060008167ffffffffffffffff811115611b1657611b1561229c565b5b6040519080825280601f01601f191660200182016040528015611b485781602001600182028036833780820191505090505b509050600082602001820190505b600115611bab578080600190039150507f3031323334353637383961626364656600000000000000000000000000000000600a86061a8153600a8581611b9f57611b9e61304c565b5b04945060008503611b56575b819350505050919050565b505050565b505050565b6000611be18473ffffffffffffffffffffffffffffffffffffffff16611e9a565b15611d3a578373ffffffffffffffffffffffffffffffffffffffff1663150b7a02611c0a611087565b8786866040518563ffffffff1660e01b8152600401611c2c94939291906130d0565b6020604051808303816000875af1925050508015611c6857506040513d601f19601f82011682018060405250810190611c659190613131565b60015b611cea573d8060008114611c98576040519150601f19603f3d011682016040523d82523d6000602084013e611c9d565b606091505b506000815103611ce2576040517f08c379a0000000000000000000000000000000000000000000000000000000008152600401611cd99061302c565b60405180910390fd5b805181602001fd5b63150b7a0260e01b7bffffffffffffffffffffffffffffffffffffffffffffffffffffffff1916817bffffffffffffffffffffffffffffffffffffffffffffffffffffffff191614915050611d3f565b600190505b949350505050565b600080600090507a184f03e93ff9f4daa797ed6e38ed64bf6a1f0100000000000000008310611da5577a184f03e93ff9f4daa797ed6e38ed64bf6a1f0100000000000000008381611d9b57611d9a61304c565b5b0492506040810190505b6d04ee2d6d415b85acef81000000008310611de2576d04ee2d6d415b85acef81000000008381611dd857611dd761304c565b5b0492506020810190505b662386f26fc100008310611e1157662386f26fc100008381611e0757611e0661304c565b5b0492506010810190505b6305f5e1008310611e3a576305f5e1008381611e3057611e2f61304c565b5b0492506008810190505b6127108310611e5f576127108381611e5557611e5461304c565b5b0492506004810190505b60648310611e825760648381611e7857611e7761304c565b5b0492506002810190505b600a8310611e91576001810190505b80915050919050565b6000808273ffffffffffffffffffffffffffffffffffffffff163b119050919050565b828054611ec99061263c565b90600052602060002090601f016020900481019282611eeb5760008555611f32565b82601f10611f0457805160ff1916838001178555611f32565b82800160010185558215611f32579182015b82811115611f31578251825591602001919060010190611f16565b5b509050611f3f9190611f43565b5090565b5b80821115611f5c576000816000905550600101611f44565b5090565b6000819050919050565b611f7381611f60565b82525050565b6000602082019050611f8e6000830184611f6a565b92915050565b600073ffffffffffffffffffffffffffffffffffffffff82169050919050565b6000611fbf82611f94565b9050919050565b611fcf81611fb4565b82525050565b6000602082019050611fea6000830184611fc6565b92915050565b6000604051905090565b600080fd5b600080fd5b60007fffffffff0000000000000000000000000000000000000000000000000000000082169050919050565b61203981612004565b811461204457600080fd5b50565b60008135905061205681612030565b92915050565b60006020828403121561207257612071611ffa565b5b600061208084828501612047565b91505092915050565b60008115159050919050565b61209e81612089565b82525050565b60006020820190506120b96000830184612095565b92915050565b600081519050919050565b600082825260208201905092915050565b60005b838110156120f95780820151818401526020810190506120de565b83811115612108576000848401525b50505050565b6000601f19601f8301169050919050565b600061212a826120bf565b61213481856120ca565b93506121448185602086016120db565b61214d8161210e565b840191505092915050565b60006020820190508181036000830152612172818461211f565b905092915050565b61218381611f60565b811461218e57600080fd5b50565b6000813590506121a08161217a565b92915050565b6000602082840312156121bc576121bb611ffa565b5b60006121ca84828501612191565b91505092915050565b6121dc81611fb4565b81146121e757600080fd5b50565b6000813590506121f9816121d3565b92915050565b6000806040838503121561221657612215611ffa565b5b6000612224858286016121ea565b925050602061223585828601612191565b9150509250929050565b60008060006060848603121561225857612257611ffa565b5b6000612266868287016121ea565b9350506020612277868287016121ea565b925050604061228886828701612191565b9150509250925092565b600080fd5b600080fd5b7f4e487b7100000000000000000000000000000000000000000000000000000000600052604160045260246000fd5b6122d48261210e565b810181811067ffffffffffffffff821117156122f3576122f261229c565b5b80604052505050565b6000612306611ff0565b905061231282826122cb565b919050565b600067ffffffffffffffff8211156123325761233161229c565b5b61233b8261210e565b9050602081019050919050565b82818337600083830152505050565b600061236a61236584612317565b6122fc565b90508281526020810184848401111561238657612385612297565b5b612391848285612348565b509392505050565b600082601f8301126123ae576123ad612292565b5b81356123be848260208601612357565b91505092915050565b6000602082840312156123dd576123dc611ffa565b5b600082013567ffffffffffffffff8111156123fb576123fa611fff565b5b61240784828501612399565b91505092915050565b60006020828403121561242657612425611ffa565b5b6000612434848285016121ea565b91505092915050565b61244681612089565b811461245157600080fd5b50565b6000813590506124638161243d565b92915050565b600080604083850312156124805761247f611ffa565b5b600061248e858286016121ea565b925050602061249f85828601612454565b9150509250929050565b600067ffffffffffffffff8211156124c4576124c361229c565b5b6124cd8261210e565b9050602081019050919050565b60006124ed6124e8846124a9565b6122fc565b90508281526020810184848401111561250957612508612297565b5b612514848285612348565b509392505050565b600082601f83011261253157612530612292565b5b81356125418482602086016124da565b91505092915050565b6000806000806080858703121561256457612563611ffa565b5b6000612572878288016121ea565b9450506020612583878288016121ea565b935050604061259487828801612191565b925050606085013567ffffffffffffffff8111156125b5576125b4611fff565b5b6125c18782880161251c565b91505092959194509250565b600080604083850312156125e4576125e3611ffa565b5b60006125f2858286016121ea565b9250506020612603858286016121ea565b9150509250929050565b7f4e487b7100000000000000000000000000000000000000000000000000000000600052602260045260246000fd5b6000600282049050600182168061265457607f821691505b6020821081036126675761266661260d565b5b50919050565b7f4552433732313a20617070726f76616c20746f2063757272656e74206f776e6560008201527f7200000000000000000000000000000000000000000000000000000000000000602082015250565b60006126c96021836120ca565b91506126d48261266d565b604082019050919050565b600060208201905081810360008301526126f8816126bc565b9050919050565b7f4552433732313a20617070726f76652063616c6c6572206973206e6f7420746f60008201527f6b656e206f776e6572206e6f7220617070726f76656420666f7220616c6c0000602082015250565b600061275b603e836120ca565b9150612766826126ff565b604082019050919050565b6000602082019050818103600083015261278a8161274e565b9050919050565b7f5472616e73666572204d6574686f64204e6f7420416c6c6f7765640000000000600082015250565b60006127c7601b836120ca565b91506127d282612791565b602082019050919050565b600060208201905081810360008301526127f6816127ba565b9050919050565b7f4552433732313a2063616c6c6572206973206e6f7420746f6b656e206f776e6560008201527f72206e6f7220617070726f766564000000000000000000000000000000000000602082015250565b6000612859602e836120ca565b9150612864826127fd565b604082019050919050565b600060208201905081810360008301526128888161284c565b9050919050565b7f4e487b7100000000000000000000000000000000000000000000000000000000600052601160045260246000fd5b60006128c982611f60565b91507fffffffffffffffffffffffffffffffffffffffffffffffffffffffffffffffff82036128fb576128fa61288f565b5b600182019050919050565b7f4552433732313a20696e76616c696420746f6b656e2049440000000000000000600082015250565b600061293c6018836120ca565b915061294782612906565b602082019050919050565b6000602082019050818103600083015261296b8161292f565b9050919050565b7f4552433732313a2061646472657373207a65726f206973206e6f74206120766160008201527f6c6964206f776e65720000000000000000000000000000000000000000000000602082015250565b60006129ce6029836120ca565b91506129d982612972565b604082019050919050565b600060208201905081810360008301526129fd816129c1565b9050919050565b600081519050612a138161243d565b92915050565b600060208284031215612a2f57612a2e611ffa565b5b6000612a3d84828501612a04565b91505092915050565b7f4552433732314d657461646174613a2055524920717565727920666f72206e6f60008201527f6e6578697374656e7420746f6b656e0000000000000000000000000000000000602082015250565b6000612aa2602f836120ca565b9150612aad82612a46565b604082019050919050565b60006020820190508181036000830152612ad181612a95565b9050919050565b600081905092915050565b6000612aee826120bf565b612af88185612ad8565b9350612b088185602086016120db565b80840191505092915050565b6000612b208285612ae3565b9150612b2c8284612ae3565b91508190509392505050565b7f4f776e61626c653a206e6577206f776e657220697320746865207a65726f206160008201527f6464726573730000000000000000000000000000000000000000000000000000602082015250565b6000612b946026836120ca565b9150612b9f82612b38565b604082019050919050565b60006020820190508181036000830152612bc381612b87565b9050919050565b7f4552433732313a207472616e736665722066726f6d20696e636f72726563742060008201527f6f776e6572000000000000000000000000000000000000000000000000000000602082015250565b6000612c266025836120ca565b9150612c3182612bca565b604082019050919050565b60006020820190508181036000830152612c5581612c19565b9050919050565b7f4552433732313a207472616e7366657220746f20746865207a65726f2061646460008201527f7265737300000000000000000000000000000000000000000000000000000000602082015250565b6000612cb86024836120ca565b9150612cc382612c5c565b604082019050919050565b60006020820190508181036000830152612ce781612cab565b9050919050565b6000612cf982611f60565b9150612d0483611f60565b925082821015612d1757612d1661288f565b5b828203905092915050565b6000612d2d82611f60565b9150612d3883611f60565b9250827fffffffffffffffffffffffffffffffffffffffffffffffffffffffffffffffff03821115612d6d57612d6c61288f565b5b828201905092915050565b7f4552433732313a206d696e7420746f20746865207a65726f2061646472657373600082015250565b6000612dae6020836120ca565b9150612db982612d78565b602082019050919050565b60006020820190508181036000830152612ddd81612da1565b9050919050565b7f4552433732313a20746f6b656e20616c7265616479206d696e74656400000000600082015250565b6000612e1a601c836120ca565b9150612e2582612de4565b602082019050919050565b60006020820190508181036000830152612e4981612e0d565b9050919050565b7f4552433732314d657461646174613a2055524920736574206f66206e6f6e657860008201527f697374656e7420746f6b656e0000000000000000000000000000000000000000602082015250565b6000612eac602c836120ca565b9150612eb782612e50565b604082019050919050565b60006020820190508181036000830152612edb81612e9f565b9050919050565b7f4f776e61626c653a2063616c6c6572206973206e6f7420746865206f776e6572600082015250565b6000612f186020836120ca565b9150612f2382612ee2565b602082019050919050565b60006020820190508181036000830152612f4781612f0b565b9050919050565b7f4552433732313a20617070726f766520746f2063616c6c657200000000000000600082015250565b6000612f846019836120ca565b9150612f8f82612f4e565b602082019050919050565b60006020820190508181036000830152612fb381612f77565b9050919050565b7f4552433732313a207472616e7366657220746f206e6f6e20455243373231526560008201527f63656976657220696d706c656d656e7465720000000000000000000000000000602082015250565b60006130166032836120ca565b915061302182612fba565b604082019050919050565b6000602082019050818103600083015261304581613009565b9050919050565b7f4e487b7100000000000000000000000000000000000000000000000000000000600052601260045260246000fd5b600081519050919050565b600082825260208201905092915050565b60006130a28261307b565b6130ac8185613086565b93506130bc8185602086016120db565b6130c58161210e565b840191505092915050565b60006080820190506130e56000830187611fc6565b6130f26020830186611fc6565b6130ff6040830185611f6a565b81810360608301526131118184613097565b905095945050505050565b60008151905061312b81612030565b92915050565b60006020828403121561314757613146611ffa565b5b60006131558482850161311c565b9150509291505056fea2646970667358221220df7013fed8f500792dbb16f081d49998d5e5acc574112492ab842c1887f741b364736f6c634300080e0033",
    "linkReferences": {},
    "deployedLinkReferences": {}
}